{
  "_format": "hh-sol-artifact-1",
  "contractName": "xytGovernor",
  "sourceName": "contracts/kokoDao/xytGovernor.sol",
  "abi": [
    {
      "inputs": [
        {
          "internalType": "contract IVotes",
          "name": "_token",
          "type": "address"
        },
        {
          "internalType": "contract TimelockController",
          "name": "_timelock",
          "type": "address"
        },
        {
          "internalType": "uint48",
          "name": "_votingDelay",
          "type": "uint48"
        },
        {
          "internalType": "uint32",
          "name": "_votingPeriod",
          "type": "uint32"
        },
        {
          "internalType": "uint256",
          "name": "_proposalThreshold",
          "type": "uint256"
        }
      ],
      "stateMutability": "nonpayable",
      "type": "constructor"
    },
    {
      "inputs": [],
      "name": "CheckpointUnorderedInsertion",
      "type": "error"
    },
    {
      "inputs": [],
      "name": "FailedCall",
      "type": "error"
    },
    {
      "inputs": [
        {
          "internalType": "address",
          "name": "voter",
          "type": "address"
        }
      ],
      "name": "GovernorAlreadyCastVote",
      "type": "error"
    },
    {
      "inputs": [
        {
          "internalType": "uint256",
          "name": "proposalId",
          "type": "uint256"
        }
      ],
      "name": "GovernorAlreadyQueuedProposal",
      "type": "error"
    },
    {
      "inputs": [],
      "name": "GovernorDisabledDeposit",
      "type": "error"
    },
    {
      "inputs": [
        {
          "internalType": "address",
          "name": "proposer",
          "type": "address"
        },
        {
          "internalType": "uint256",
          "name": "votes",
          "type": "uint256"
        },
        {
          "internalType": "uint256",
          "name": "threshold",
          "type": "uint256"
        }
      ],
      "name": "GovernorInsufficientProposerVotes",
      "type": "error"
    },
    {
      "inputs": [
        {
          "internalType": "uint256",
          "name": "targets",
          "type": "uint256"
        },
        {
          "internalType": "uint256",
          "name": "calldatas",
          "type": "uint256"
        },
        {
          "internalType": "uint256",
          "name": "values",
          "type": "uint256"
        }
      ],
      "name": "GovernorInvalidProposalLength",
      "type": "error"
    },
    {
      "inputs": [
        {
          "internalType": "uint256",
          "name": "quorumNumerator",
          "type": "uint256"
        },
        {
          "internalType": "uint256",
          "name": "quorumDenominator",
          "type": "uint256"
        }
      ],
      "name": "GovernorInvalidQuorumFraction",
      "type": "error"
    },
    {
      "inputs": [
        {
          "internalType": "address",
          "name": "voter",
          "type": "address"
        }
      ],
      "name": "GovernorInvalidSignature",
      "type": "error"
    },
    {
      "inputs": [],
      "name": "GovernorInvalidVoteParams",
      "type": "error"
    },
    {
      "inputs": [],
      "name": "GovernorInvalidVoteType",
      "type": "error"
    },
    {
      "inputs": [
        {
          "internalType": "uint256",
          "name": "votingPeriod",
          "type": "uint256"
        }
      ],
      "name": "GovernorInvalidVotingPeriod",
      "type": "error"
    },
    {
      "inputs": [
        {
          "internalType": "uint256",
          "name": "proposalId",
          "type": "uint256"
        }
      ],
      "name": "GovernorNonexistentProposal",
      "type": "error"
    },
    {
      "inputs": [
        {
          "internalType": "uint256",
          "name": "proposalId",
          "type": "uint256"
        }
      ],
      "name": "GovernorNotQueuedProposal",
      "type": "error"
    },
    {
      "inputs": [
        {
          "internalType": "address",
          "name": "account",
          "type": "address"
        }
      ],
      "name": "GovernorOnlyExecutor",
      "type": "error"
    },
    {
      "inputs": [
        {
          "internalType": "address",
          "name": "account",
          "type": "address"
        }
      ],
      "name": "GovernorOnlyProposer",
      "type": "error"
    },
    {
      "inputs": [],
      "name": "GovernorQueueNotImplemented",
      "type": "error"
    },
    {
      "inputs": [
        {
          "internalType": "address",
          "name": "proposer",
          "type": "address"
        }
      ],
      "name": "GovernorRestrictedProposer",
      "type": "error"
    },
    {
      "inputs": [
        {
          "internalType": "uint256",
          "name": "proposalId",
          "type": "uint256"
        },
        {
          "internalType": "enum IGovernor.ProposalState",
          "name": "current",
          "type": "uint8"
        },
        {
          "internalType": "bytes32",
          "name": "expectedStates",
          "type": "bytes32"
        }
      ],
      "name": "GovernorUnexpectedProposalState",
      "type": "error"
    },
    {
      "inputs": [
        {
          "internalType": "address",
          "name": "account",
          "type": "address"
        },
        {
          "internalType": "uint256",
          "name": "currentNonce",
          "type": "uint256"
        }
      ],
      "name": "InvalidAccountNonce",
      "type": "error"
    },
    {
      "inputs": [],
      "name": "InvalidShortString",
      "type": "error"
    },
    {
      "inputs": [
        {
          "internalType": "uint8",
          "name": "bits",
          "type": "uint8"
        },
        {
          "internalType": "uint256",
          "name": "value",
          "type": "uint256"
        }
      ],
      "name": "SafeCastOverflowedUintDowncast",
      "type": "error"
    },
    {
      "inputs": [
        {
          "internalType": "string",
          "name": "str",
          "type": "string"
        }
      ],
      "name": "StringTooLong",
      "type": "error"
    },
    {
      "anonymous": false,
      "inputs": [],
      "name": "EIP712DomainChanged",
      "type": "event"
    },
    {
      "anonymous": false,
      "inputs": [
        {
          "indexed": false,
          "internalType": "uint256",
          "name": "proposalId",
          "type": "uint256"
        }
      ],
      "name": "ProposalCanceled",
      "type": "event"
    },
    {
      "anonymous": false,
      "inputs": [
        {
          "indexed": false,
          "internalType": "uint256",
          "name": "proposalId",
          "type": "uint256"
        },
        {
          "indexed": false,
          "internalType": "address",
          "name": "proposer",
          "type": "address"
        },
        {
          "indexed": false,
          "internalType": "address[]",
          "name": "targets",
          "type": "address[]"
        },
        {
          "indexed": false,
          "internalType": "uint256[]",
          "name": "values",
          "type": "uint256[]"
        },
        {
          "indexed": false,
          "internalType": "string[]",
          "name": "signatures",
          "type": "string[]"
        },
        {
          "indexed": false,
          "internalType": "bytes[]",
          "name": "calldatas",
          "type": "bytes[]"
        },
        {
          "indexed": false,
          "internalType": "uint256",
          "name": "voteStart",
          "type": "uint256"
        },
        {
          "indexed": false,
          "internalType": "uint256",
          "name": "voteEnd",
          "type": "uint256"
        },
        {
          "indexed": false,
          "internalType": "string",
          "name": "description",
          "type": "string"
        }
      ],
      "name": "ProposalCreated",
      "type": "event"
    },
    {
      "anonymous": false,
      "inputs": [
        {
          "indexed": false,
          "internalType": "uint256",
          "name": "proposalId",
          "type": "uint256"
        }
      ],
      "name": "ProposalExecuted",
      "type": "event"
    },
    {
      "anonymous": false,
      "inputs": [
        {
          "indexed": false,
          "internalType": "uint256",
          "name": "proposalId",
          "type": "uint256"
        },
        {
          "indexed": false,
          "internalType": "uint256",
          "name": "etaSeconds",
          "type": "uint256"
        }
      ],
      "name": "ProposalQueued",
      "type": "event"
    },
    {
      "anonymous": false,
      "inputs": [
        {
          "indexed": false,
          "internalType": "uint256",
          "name": "oldProposalThreshold",
          "type": "uint256"
        },
        {
          "indexed": false,
          "internalType": "uint256",
          "name": "newProposalThreshold",
          "type": "uint256"
        }
      ],
      "name": "ProposalThresholdSet",
      "type": "event"
    },
    {
      "anonymous": false,
      "inputs": [
        {
          "indexed": false,
          "internalType": "uint256",
          "name": "oldQuorumNumerator",
          "type": "uint256"
        },
        {
          "indexed": false,
          "internalType": "uint256",
          "name": "newQuorumNumerator",
          "type": "uint256"
        }
      ],
      "name": "QuorumNumeratorUpdated",
      "type": "event"
    },
    {
      "anonymous": false,
      "inputs": [
        {
          "indexed": false,
          "internalType": "address",
          "name": "oldTimelock",
          "type": "address"
        },
        {
          "indexed": false,
          "internalType": "address",
          "name": "newTimelock",
          "type": "address"
        }
      ],
      "name": "TimelockChange",
      "type": "event"
    },
    {
      "anonymous": false,
      "inputs": [
        {
          "indexed": true,
          "internalType": "address",
          "name": "voter",
          "type": "address"
        },
        {
          "indexed": false,
          "internalType": "uint256",
          "name": "proposalId",
          "type": "uint256"
        },
        {
          "indexed": false,
          "internalType": "uint8",
          "name": "support",
          "type": "uint8"
        },
        {
          "indexed": false,
          "internalType": "uint256",
          "name": "weight",
          "type": "uint256"
        },
        {
          "indexed": false,
          "internalType": "string",
          "name": "reason",
          "type": "string"
        }
      ],
      "name": "VoteCast",
      "type": "event"
    },
    {
      "anonymous": false,
      "inputs": [
        {
          "indexed": true,
          "internalType": "address",
          "name": "voter",
          "type": "address"
        },
        {
          "indexed": false,
          "internalType": "uint256",
          "name": "proposalId",
          "type": "uint256"
        },
        {
          "indexed": false,
          "internalType": "uint8",
          "name": "support",
          "type": "uint8"
        },
        {
          "indexed": false,
          "internalType": "uint256",
          "name": "weight",
          "type": "uint256"
        },
        {
          "indexed": false,
          "internalType": "string",
          "name": "reason",
          "type": "string"
        },
        {
          "indexed": false,
          "internalType": "bytes",
          "name": "params",
          "type": "bytes"
        }
      ],
      "name": "VoteCastWithParams",
      "type": "event"
    },
    {
      "anonymous": false,
      "inputs": [
        {
          "indexed": false,
          "internalType": "uint256",
          "name": "oldVotingDelay",
          "type": "uint256"
        },
        {
          "indexed": false,
          "internalType": "uint256",
          "name": "newVotingDelay",
          "type": "uint256"
        }
      ],
      "name": "VotingDelaySet",
      "type": "event"
    },
    {
      "anonymous": false,
      "inputs": [
        {
          "indexed": false,
          "internalType": "uint256",
          "name": "oldVotingPeriod",
          "type": "uint256"
        },
        {
          "indexed": false,
          "internalType": "uint256",
          "name": "newVotingPeriod",
          "type": "uint256"
        }
      ],
      "name": "VotingPeriodSet",
      "type": "event"
    },
    {
      "inputs": [],
      "name": "BALLOT_TYPEHASH",
      "outputs": [
        {
          "internalType": "bytes32",
          "name": "",
          "type": "bytes32"
        }
      ],
      "stateMutability": "view",
      "type": "function"
    },
    {
      "inputs": [],
      "name": "CLOCK_MODE",
      "outputs": [
        {
          "internalType": "string",
          "name": "",
          "type": "string"
        }
      ],
      "stateMutability": "view",
      "type": "function"
    },
    {
      "inputs": [],
      "name": "COUNTING_MODE",
      "outputs": [
        {
          "internalType": "string",
          "name": "",
          "type": "string"
        }
      ],
      "stateMutability": "pure",
      "type": "function"
    },
    {
      "inputs": [],
      "name": "EXTENDED_BALLOT_TYPEHASH",
      "outputs": [
        {
          "internalType": "bytes32",
          "name": "",
          "type": "bytes32"
        }
      ],
      "stateMutability": "view",
      "type": "function"
    },
    {
      "inputs": [
        {
          "internalType": "bytes",
          "name": "data",
          "type": "bytes"
        }
      ],
      "name": "bytesToString",
      "outputs": [
        {
          "internalType": "string",
          "name": "",
          "type": "string"
        }
      ],
      "stateMutability": "pure",
      "type": "function"
    },
    {
      "inputs": [
        {
          "internalType": "address[]",
          "name": "targets",
          "type": "address[]"
        },
        {
          "internalType": "uint256[]",
          "name": "values",
          "type": "uint256[]"
        },
        {
          "internalType": "bytes[]",
          "name": "calldatas",
          "type": "bytes[]"
        },
        {
          "internalType": "bytes32",
          "name": "descriptionHash",
          "type": "bytes32"
        }
      ],
      "name": "cancel",
      "outputs": [
        {
          "internalType": "uint256",
          "name": "",
          "type": "uint256"
        }
      ],
      "stateMutability": "nonpayable",
      "type": "function"
    },
    {
      "inputs": [
        {
          "internalType": "uint256",
          "name": "proposalId",
          "type": "uint256"
        },
        {
          "internalType": "uint8",
          "name": "support",
          "type": "uint8"
        }
      ],
      "name": "castVote",
      "outputs": [
        {
          "internalType": "uint256",
          "name": "",
          "type": "uint256"
        }
      ],
      "stateMutability": "nonpayable",
      "type": "function"
    },
    {
      "inputs": [
        {
          "internalType": "uint256",
          "name": "proposalId",
          "type": "uint256"
        },
        {
          "internalType": "uint8",
          "name": "support",
          "type": "uint8"
        },
        {
          "internalType": "address",
          "name": "voter",
          "type": "address"
        },
        {
          "internalType": "bytes",
          "name": "signature",
          "type": "bytes"
        }
      ],
      "name": "castVoteBySig",
      "outputs": [
        {
          "internalType": "uint256",
          "name": "",
          "type": "uint256"
        }
      ],
      "stateMutability": "nonpayable",
      "type": "function"
    },
    {
      "inputs": [
        {
          "internalType": "uint256",
          "name": "proposalId",
          "type": "uint256"
        },
        {
          "internalType": "uint8",
          "name": "support",
          "type": "uint8"
        },
        {
          "internalType": "string",
          "name": "reason",
          "type": "string"
        }
      ],
      "name": "castVoteWithReason",
      "outputs": [
        {
          "internalType": "uint256",
          "name": "",
          "type": "uint256"
        }
      ],
      "stateMutability": "nonpayable",
      "type": "function"
    },
    {
      "inputs": [
        {
          "internalType": "uint256",
          "name": "proposalId",
          "type": "uint256"
        },
        {
          "internalType": "uint8",
          "name": "support",
          "type": "uint8"
        },
        {
          "internalType": "string",
          "name": "reason",
          "type": "string"
        },
        {
          "internalType": "bytes",
          "name": "params",
          "type": "bytes"
        }
      ],
      "name": "castVoteWithReasonAndParams",
      "outputs": [
        {
          "internalType": "uint256",
          "name": "",
          "type": "uint256"
        }
      ],
      "stateMutability": "nonpayable",
      "type": "function"
    },
    {
      "inputs": [
        {
          "internalType": "uint256",
          "name": "proposalId",
          "type": "uint256"
        },
        {
          "internalType": "uint8",
          "name": "support",
          "type": "uint8"
        },
        {
          "internalType": "address",
          "name": "voter",
          "type": "address"
        },
        {
          "internalType": "string",
          "name": "reason",
          "type": "string"
        },
        {
          "internalType": "bytes",
          "name": "params",
          "type": "bytes"
        },
        {
          "internalType": "bytes",
          "name": "signature",
          "type": "bytes"
        }
      ],
      "name": "castVoteWithReasonAndParamsBySig",
      "outputs": [
        {
          "internalType": "uint256",
          "name": "",
          "type": "uint256"
        }
      ],
      "stateMutability": "nonpayable",
      "type": "function"
    },
    {
      "inputs": [],
      "name": "clock",
      "outputs": [
        {
          "internalType": "uint48",
          "name": "",
          "type": "uint48"
        }
      ],
      "stateMutability": "view",
      "type": "function"
    },
    {
      "inputs": [],
      "name": "eip712Domain",
      "outputs": [
        {
          "internalType": "bytes1",
          "name": "fields",
          "type": "bytes1"
        },
        {
          "internalType": "string",
          "name": "name",
          "type": "string"
        },
        {
          "internalType": "string",
          "name": "version",
          "type": "string"
        },
        {
          "internalType": "uint256",
          "name": "chainId",
          "type": "uint256"
        },
        {
          "internalType": "address",
          "name": "verifyingContract",
          "type": "address"
        },
        {
          "internalType": "bytes32",
          "name": "salt",
          "type": "bytes32"
        },
        {
          "internalType": "uint256[]",
          "name": "extensions",
          "type": "uint256[]"
        }
      ],
      "stateMutability": "view",
      "type": "function"
    },
    {
      "inputs": [
        {
          "internalType": "address[]",
          "name": "targets",
          "type": "address[]"
        },
        {
          "internalType": "uint256[]",
          "name": "values",
          "type": "uint256[]"
        },
        {
          "internalType": "bytes[]",
          "name": "calldatas",
          "type": "bytes[]"
        },
        {
          "internalType": "bytes32",
          "name": "descriptionHash",
          "type": "bytes32"
        }
      ],
      "name": "execute",
      "outputs": [
        {
          "internalType": "uint256",
          "name": "",
          "type": "uint256"
        }
      ],
      "stateMutability": "payable",
      "type": "function"
    },
    {
      "inputs": [],
      "name": "getAllProposals",
      "outputs": [
        {
          "components": [
            {
              "internalType": "uint256",
              "name": "proposalId",
              "type": "uint256"
            },
            {
              "internalType": "address",
              "name": "proposer",
              "type": "address"
            },
            {
              "internalType": "uint48",
              "name": "voteStart",
              "type": "uint48"
            },
            {
              "internalType": "uint32",
              "name": "voteDuration",
              "type": "uint32"
            },
            {
              "internalType": "bool",
              "name": "executed",
              "type": "bool"
            },
            {
              "internalType": "bool",
              "name": "canceled",
              "type": "bool"
            },
            {
              "internalType": "uint48",
              "name": "etaSeconds",
              "type": "uint48"
            },
            {
              "internalType": "uint256",
              "name": "proposalDeadline",
              "type": "uint256"
            },
            {
              "internalType": "address[]",
              "name": "targets",
              "type": "address[]"
            },
            {
              "internalType": "uint256[]",
              "name": "values",
              "type": "uint256[]"
            },
            {
              "internalType": "bytes[]",
              "name": "calldatas",
              "type": "bytes[]"
            },
            {
              "internalType": "string",
              "name": "description",
              "type": "string"
            }
          ],
          "internalType": "struct xytGovernor.ProposalData[]",
          "name": "",
          "type": "tuple[]"
        }
      ],
      "stateMutability": "view",
      "type": "function"
    },
    {
      "inputs": [
        {
          "internalType": "address",
          "name": "account",
          "type": "address"
        }
      ],
      "name": "getLatestVotes",
      "outputs": [
        {
          "internalType": "uint256",
          "name": "",
          "type": "uint256"
        }
      ],
      "stateMutability": "view",
      "type": "function"
    },
    {
      "inputs": [
        {
          "internalType": "uint256",
          "name": "proposalId",
          "type": "uint256"
        }
      ],
      "name": "getProposal",
      "outputs": [
        {
          "components": [
            {
              "internalType": "uint256",
              "name": "proposalId",
              "type": "uint256"
            },
            {
              "internalType": "address",
              "name": "proposer",
              "type": "address"
            },
            {
              "internalType": "uint48",
              "name": "voteStart",
              "type": "uint48"
            },
            {
              "internalType": "uint32",
              "name": "voteDuration",
              "type": "uint32"
            },
            {
              "internalType": "bool",
              "name": "executed",
              "type": "bool"
            },
            {
              "internalType": "bool",
              "name": "canceled",
              "type": "bool"
            },
            {
              "internalType": "uint48",
              "name": "etaSeconds",
              "type": "uint48"
            },
            {
              "internalType": "uint256",
              "name": "proposalDeadline",
              "type": "uint256"
            },
            {
              "internalType": "address[]",
              "name": "targets",
              "type": "address[]"
            },
            {
              "internalType": "uint256[]",
              "name": "values",
              "type": "uint256[]"
            },
            {
              "internalType": "bytes[]",
              "name": "calldatas",
              "type": "bytes[]"
            },
            {
              "internalType": "string",
              "name": "description",
              "type": "string"
            }
          ],
          "internalType": "struct xytGovernor.ProposalData",
          "name": "proposalData",
          "type": "tuple"
        }
      ],
      "stateMutability": "view",
      "type": "function"
    },
    {
      "inputs": [
        {
          "internalType": "address",
          "name": "account",
          "type": "address"
        },
        {
          "internalType": "uint256",
          "name": "timepoint",
          "type": "uint256"
        }
      ],
      "name": "getVotes",
      "outputs": [
        {
          "internalType": "uint256",
          "name": "",
          "type": "uint256"
        }
      ],
      "stateMutability": "view",
      "type": "function"
    },
    {
      "inputs": [
        {
          "internalType": "address",
          "name": "account",
          "type": "address"
        },
        {
          "internalType": "uint256",
          "name": "timepoint",
          "type": "uint256"
        },
        {
          "internalType": "bytes",
          "name": "params",
          "type": "bytes"
        }
      ],
      "name": "getVotesWithParams",
      "outputs": [
        {
          "internalType": "uint256",
          "name": "",
          "type": "uint256"
        }
      ],
      "stateMutability": "view",
      "type": "function"
    },
    {
      "inputs": [
        {
          "internalType": "uint256",
          "name": "proposalId",
          "type": "uint256"
        },
        {
          "internalType": "address",
          "name": "account",
          "type": "address"
        }
      ],
      "name": "hasVoted",
      "outputs": [
        {
          "internalType": "bool",
          "name": "",
          "type": "bool"
        }
      ],
      "stateMutability": "view",
      "type": "function"
    },
    {
      "inputs": [
        {
          "internalType": "address[]",
          "name": "targets",
          "type": "address[]"
        },
        {
          "internalType": "uint256[]",
          "name": "values",
          "type": "uint256[]"
        },
        {
          "internalType": "bytes[]",
          "name": "calldatas",
          "type": "bytes[]"
        },
        {
          "internalType": "bytes32",
          "name": "descriptionHash",
          "type": "bytes32"
        }
      ],
      "name": "hashProposal",
      "outputs": [
        {
          "internalType": "uint256",
          "name": "",
          "type": "uint256"
        }
      ],
      "stateMutability": "pure",
      "type": "function"
    },
    {
      "inputs": [],
      "name": "name",
      "outputs": [
        {
          "internalType": "string",
          "name": "",
          "type": "string"
        }
      ],
      "stateMutability": "view",
      "type": "function"
    },
    {
      "inputs": [
        {
          "internalType": "address",
          "name": "owner",
          "type": "address"
        }
      ],
      "name": "nonces",
      "outputs": [
        {
          "internalType": "uint256",
          "name": "",
          "type": "uint256"
        }
      ],
      "stateMutability": "view",
      "type": "function"
    },
    {
      "inputs": [
        {
          "internalType": "address",
          "name": "",
          "type": "address"
        },
        {
          "internalType": "address",
          "name": "",
          "type": "address"
        },
        {
          "internalType": "uint256[]",
          "name": "",
          "type": "uint256[]"
        },
        {
          "internalType": "uint256[]",
          "name": "",
          "type": "uint256[]"
        },
        {
          "internalType": "bytes",
          "name": "",
          "type": "bytes"
        }
      ],
      "name": "onERC1155BatchReceived",
      "outputs": [
        {
          "internalType": "bytes4",
          "name": "",
          "type": "bytes4"
        }
      ],
      "stateMutability": "nonpayable",
      "type": "function"
    },
    {
      "inputs": [
        {
          "internalType": "address",
          "name": "",
          "type": "address"
        },
        {
          "internalType": "address",
          "name": "",
          "type": "address"
        },
        {
          "internalType": "uint256",
          "name": "",
          "type": "uint256"
        },
        {
          "internalType": "uint256",
          "name": "",
          "type": "uint256"
        },
        {
          "internalType": "bytes",
          "name": "",
          "type": "bytes"
        }
      ],
      "name": "onERC1155Received",
      "outputs": [
        {
          "internalType": "bytes4",
          "name": "",
          "type": "bytes4"
        }
      ],
      "stateMutability": "nonpayable",
      "type": "function"
    },
    {
      "inputs": [
        {
          "internalType": "address",
          "name": "",
          "type": "address"
        },
        {
          "internalType": "address",
          "name": "",
          "type": "address"
        },
        {
          "internalType": "uint256",
          "name": "",
          "type": "uint256"
        },
        {
          "internalType": "bytes",
          "name": "",
          "type": "bytes"
        }
      ],
      "name": "onERC721Received",
      "outputs": [
        {
          "internalType": "bytes4",
          "name": "",
          "type": "bytes4"
        }
      ],
      "stateMutability": "nonpayable",
      "type": "function"
    },
    {
      "inputs": [
        {
          "internalType": "uint256",
          "name": "proposalId",
          "type": "uint256"
        }
      ],
      "name": "proposalDeadline",
      "outputs": [
        {
          "internalType": "uint256",
          "name": "",
          "type": "uint256"
        }
      ],
      "stateMutability": "view",
      "type": "function"
    },
    {
      "inputs": [
        {
          "internalType": "uint256",
          "name": "proposalId",
          "type": "uint256"
        }
      ],
      "name": "proposalEta",
      "outputs": [
        {
          "internalType": "uint256",
          "name": "",
          "type": "uint256"
        }
      ],
      "stateMutability": "view",
      "type": "function"
    },
    {
      "inputs": [
        {
          "internalType": "uint256",
          "name": "proposalId",
          "type": "uint256"
        }
      ],
      "name": "proposalNeedsQueuing",
      "outputs": [
        {
          "internalType": "bool",
          "name": "",
          "type": "bool"
        }
      ],
      "stateMutability": "view",
      "type": "function"
    },
    {
      "inputs": [
        {
          "internalType": "uint256",
          "name": "proposalId",
          "type": "uint256"
        }
      ],
      "name": "proposalProposer",
      "outputs": [
        {
          "internalType": "address",
          "name": "",
          "type": "address"
        }
      ],
      "stateMutability": "view",
      "type": "function"
    },
    {
      "inputs": [
        {
          "internalType": "uint256",
          "name": "proposalId",
          "type": "uint256"
        }
      ],
      "name": "proposalSnapshot",
      "outputs": [
        {
          "internalType": "uint256",
          "name": "",
          "type": "uint256"
        }
      ],
      "stateMutability": "view",
      "type": "function"
    },
    {
      "inputs": [],
      "name": "proposalThreshold",
      "outputs": [
        {
          "internalType": "uint256",
          "name": "",
          "type": "uint256"
        }
      ],
      "stateMutability": "view",
      "type": "function"
    },
    {
      "inputs": [
        {
          "internalType": "uint256",
          "name": "proposalId",
          "type": "uint256"
        }
      ],
      "name": "proposalVotes",
      "outputs": [
        {
          "internalType": "uint256",
          "name": "againstVotes",
          "type": "uint256"
        },
        {
          "internalType": "uint256",
          "name": "forVotes",
          "type": "uint256"
        },
        {
          "internalType": "uint256",
          "name": "abstainVotes",
          "type": "uint256"
        }
      ],
      "stateMutability": "view",
      "type": "function"
    },
    {
      "inputs": [
        {
          "internalType": "address[]",
          "name": "targets",
          "type": "address[]"
        },
        {
          "internalType": "uint256[]",
          "name": "values",
          "type": "uint256[]"
        },
        {
          "internalType": "bytes[]",
          "name": "calldatas",
          "type": "bytes[]"
        },
        {
          "internalType": "string",
          "name": "description",
          "type": "string"
        }
      ],
      "name": "propose",
      "outputs": [
        {
          "internalType": "uint256",
          "name": "proposalId",
          "type": "uint256"
        }
      ],
      "stateMutability": "nonpayable",
      "type": "function"
    },
    {
      "inputs": [
        {
          "internalType": "address[]",
          "name": "targets",
          "type": "address[]"
        },
        {
          "internalType": "uint256[]",
          "name": "values",
          "type": "uint256[]"
        },
        {
          "internalType": "bytes[]",
          "name": "calldatas",
          "type": "bytes[]"
        },
        {
          "internalType": "bytes32",
          "name": "descriptionHash",
          "type": "bytes32"
        }
      ],
      "name": "queue",
      "outputs": [
        {
          "internalType": "uint256",
          "name": "",
          "type": "uint256"
        }
      ],
      "stateMutability": "nonpayable",
      "type": "function"
    },
    {
      "inputs": [
        {
          "internalType": "uint256",
          "name": "blockNumber",
          "type": "uint256"
        }
      ],
      "name": "quorum",
      "outputs": [
        {
          "internalType": "uint256",
          "name": "",
          "type": "uint256"
        }
      ],
      "stateMutability": "view",
      "type": "function"
    },
    {
      "inputs": [],
      "name": "quorumDenominator",
      "outputs": [
        {
          "internalType": "uint256",
          "name": "",
          "type": "uint256"
        }
      ],
      "stateMutability": "view",
      "type": "function"
    },
    {
      "inputs": [
        {
          "internalType": "uint256",
          "name": "timepoint",
          "type": "uint256"
        }
      ],
      "name": "quorumNumerator",
      "outputs": [
        {
          "internalType": "uint256",
          "name": "",
          "type": "uint256"
        }
      ],
      "stateMutability": "view",
      "type": "function"
    },
    {
      "inputs": [],
      "name": "quorumNumerator",
      "outputs": [
        {
          "internalType": "uint256",
          "name": "",
          "type": "uint256"
        }
      ],
      "stateMutability": "view",
      "type": "function"
    },
    {
      "inputs": [
        {
          "internalType": "address",
          "name": "target",
          "type": "address"
        },
        {
          "internalType": "uint256",
          "name": "value",
          "type": "uint256"
        },
        {
          "internalType": "bytes",
          "name": "data",
          "type": "bytes"
        }
      ],
      "name": "relay",
      "outputs": [],
      "stateMutability": "payable",
      "type": "function"
    },
    {
      "inputs": [
        {
          "internalType": "uint256",
          "name": "newProposalThreshold",
          "type": "uint256"
        }
      ],
      "name": "setProposalThreshold",
      "outputs": [],
      "stateMutability": "nonpayable",
      "type": "function"
    },
    {
      "inputs": [
        {
          "internalType": "uint48",
          "name": "newVotingDelay",
          "type": "uint48"
        }
      ],
      "name": "setVotingDelay",
      "outputs": [],
      "stateMutability": "nonpayable",
      "type": "function"
    },
    {
      "inputs": [
        {
          "internalType": "uint32",
          "name": "newVotingPeriod",
          "type": "uint32"
        }
      ],
      "name": "setVotingPeriod",
      "outputs": [],
      "stateMutability": "nonpayable",
      "type": "function"
    },
    {
      "inputs": [
        {
          "internalType": "uint256",
          "name": "proposalId",
          "type": "uint256"
        }
      ],
      "name": "state",
      "outputs": [
        {
          "internalType": "enum IGovernor.ProposalState",
          "name": "",
          "type": "uint8"
        }
      ],
      "stateMutability": "view",
      "type": "function"
    },
    {
      "inputs": [
        {
          "internalType": "bytes4",
          "name": "interfaceId",
          "type": "bytes4"
        }
      ],
      "name": "supportsInterface",
      "outputs": [
        {
          "internalType": "bool",
          "name": "",
          "type": "bool"
        }
      ],
      "stateMutability": "view",
      "type": "function"
    },
    {
      "inputs": [],
      "name": "timelock",
      "outputs": [
        {
          "internalType": "address",
          "name": "",
          "type": "address"
        }
      ],
      "stateMutability": "view",
      "type": "function"
    },
    {
      "inputs": [],
      "name": "token",
      "outputs": [
        {
          "internalType": "contract IERC5805",
          "name": "",
          "type": "address"
        }
      ],
      "stateMutability": "view",
      "type": "function"
    },
    {
      "inputs": [
        {
          "internalType": "uint256",
          "name": "newQuorumNumerator",
          "type": "uint256"
        }
      ],
      "name": "updateQuorumNumerator",
      "outputs": [],
      "stateMutability": "nonpayable",
      "type": "function"
    },
    {
      "inputs": [
        {
          "internalType": "contract TimelockController",
          "name": "newTimelock",
          "type": "address"
        }
      ],
      "name": "updateTimelock",
      "outputs": [],
      "stateMutability": "nonpayable",
      "type": "function"
    },
    {
      "inputs": [],
      "name": "version",
      "outputs": [
        {
          "internalType": "string",
          "name": "",
          "type": "string"
        }
      ],
      "stateMutability": "view",
      "type": "function"
    },
    {
      "inputs": [],
      "name": "votingDelay",
      "outputs": [
        {
          "internalType": "uint256",
          "name": "",
          "type": "uint256"
        }
      ],
      "stateMutability": "view",
      "type": "function"
    },
    {
      "inputs": [],
      "name": "votingPeriod",
      "outputs": [
        {
          "internalType": "uint256",
          "name": "",
          "type": "uint256"
        }
      ],
      "stateMutability": "view",
      "type": "function"
    },
    {
      "stateMutability": "payable",
      "type": "receive"
    }
  ],
  "bytecode": "0x61018060405234801561001157600080fd5b5060405161631a38038061631a83398101604081905261003091610748565b83600a868585856040518060400160405280600a81526020016926bca3b7bb32b93737b960b11b8152508061006961017160201b60201c565b61007482600061018c565b6101205261008381600161018c565b61014052815160208084019190912060e052815190820120610100524660a05261011060e05161010051604080517f8b73c3c69bb8fe3d512ecc4cf759cc79239f7b179b0ffacaa9a75d522b39400f60208201529081019290925260608201524660808201523060a082015260009060c00160405160208183030381529060405280519060200120905090565b60805250503060c05260036101258282610857565b506101319050836101bf565b61013a82610225565b610143816102cb565b5050506001600160a01b03166101605261015c8161030c565b50610166816103a2565b5050505050506109c3565b6040805180820190915260018152603160f81b602082015290565b60006020835110156101a8576101a18361040b565b90506101b9565b816101b38482610857565b5060ff90505b92915050565b6008546040805165ffffffffffff928316815291831660208301527fc565b045403dc03c2eea82b81a0465edad9e2e7fc4d97e11421c209da93d7a93910160405180910390a16008805465ffffffffffff191665ffffffffffff92909216919091179055565b8063ffffffff166000036102545760405163f1cfbf0560e01b8152600060048201526024015b60405180910390fd5b6008546040805163ffffffff66010000000000009093048316815291831660208301527f7e3f7f0708a84de9203036abaa450dccc85ad5ff52f78c170f3edb55cf5e8828910160405180910390a16008805463ffffffff90921666010000000000000263ffffffff60301b19909216919091179055565b60075460408051918252602082018390527fccb45da8d5717e6c4544694297c4ba5cf151d455c9bb0ed4fc7a38411bc05461910160405180910390a1600755565b6064808211156103395760405163243e544560e01b8152600481018390526024810182905260440161024b565b6000610343610449565b9050610362610350610463565b610359856104de565b600a9190610516565b505060408051828152602081018590527f0553476bf02ef2726e8ce5ced78d63e26e602e4a2257b1f559418e24b4633997910160405180910390a1505050565b600b54604080516001600160a01b03928316815291831660208301527f08f74ea46ef7894f65eabfb5e6e695de773a000b47c529ab559178069b226401910160405180910390a1600b80546001600160a01b0319166001600160a01b0392909216919091179055565b600080829050601f81511115610436578260405163305a27a960e01b815260040161024b9190610915565b805161044182610963565b179392505050565b6000610455600a610531565b6001600160d01b0316905090565b600061046f6101605190565b6001600160a01b03166391ddadf46040518163ffffffff1660e01b8152600401602060405180830381865afa9250505080156104c8575060408051601f3d908101601f191682019092526104c591810190610987565b60015b6104d9576104d461057c565b905090565b919050565b60006001600160d01b03821115610512576040516306dfcc6560e41b815260d060048201526024810183905260440161024b565b5090565b600080610524858585610587565b915091505b935093915050565b80546000908015610572576105598361054b6001846109a2565b600091825260209091200190565b54660100000000000090046001600160d01b0316610575565b60005b9392505050565b60006104d4436106e7565b8254600090819080156106895760006105a58761054b6001856109a2565b805490915065ffffffffffff80821691660100000000000090046001600160d01b03169088168211156105eb57604051632520601d60e01b815260040160405180910390fd5b8765ffffffffffff168265ffffffffffff160361062757825465ffffffffffff1666010000000000006001600160d01b0389160217835561067b565b6040805180820190915265ffffffffffff808a1682526001600160d01b03808a1660208085019182528d54600181018f5560008f815291909120945191519092166601000000000000029216919091179101555b945085935061052992505050565b50506040805180820190915265ffffffffffff80851682526001600160d01b0380851660208085019182528854600181018a5560008a8152918220955192519093166601000000000000029190931617920191909155905081610529565b600065ffffffffffff821115610512576040516306dfcc6560e41b8152603060048201526024810183905260440161024b565b6001600160a01b038116811461072f57600080fd5b50565b805165ffffffffffff811681146104d957600080fd5b600080600080600060a0868803121561076057600080fd5b855161076b8161071a565b602087015190955061077c8161071a565b935061078a60408701610732565b9250606086015163ffffffff811681146107a357600080fd5b80925050608086015190509295509295909350565b634e487b7160e01b600052604160045260246000fd5b600181811c908216806107e257607f821691505b60208210810361080257634e487b7160e01b600052602260045260246000fd5b50919050565b601f82111561085257806000526020600020601f840160051c8101602085101561082f5750805b601f840160051c820191505b8181101561084f576000815560010161083b565b50505b505050565b81516001600160401b03811115610870576108706107b8565b6108848161087e84546107ce565b84610808565b6020601f8211600181146108b857600083156108a05750848201515b600019600385901b1c1916600184901b17845561084f565b600084815260208120601f198516915b828110156108e857878501518255602094850194600190920191016108c8565b50848210156109065786840151600019600387901b60f8161c191681555b50505050600190811b01905550565b602081526000825180602084015260005b818110156109435760208186018101516040868401015201610926565b506000604082850101526040601f19601f83011684010191505092915050565b805160208083015191908110156108025760001960209190910360031b1b16919050565b60006020828403121561099957600080fd5b61057582610732565b818103818111156101b957634e487b7160e01b600052601160045260246000fd5b60805160a05160c05160e051610100516101205161014051610160516158d6610a4460003960008181610b4f01528181610f800152818161162201528181612ac70152612da301526000612a9201526000612a65015260006134930152600061346b015260006133c6015260006133f00152600061341a01526158d66000f3fe6080604052600436106103435760003560e01c80637ecebe00116101b0578063c28bc2fa116100ec578063deaaa7cc11610095578063ece40cc11161006f578063ece40cc114610ae0578063f23a6e6114610b00578063f8ce560a14610b20578063fc0c546a14610b4057600080fd5b8063deaaa7cc14610a6c578063e540d01d14610aa0578063eb9019d414610ac057600080fd5b8063cceb68f5116100c6578063cceb68f5146109e6578063d33219b414610a08578063dd4e2ba514610a2657600080fd5b8063c28bc2fa14610986578063c59057e414610999578063c7f758a8146109b957600080fd5b8063a7713a7011610159578063ab58fb8e11610133578063ab58fb8e146108f9578063b58131b014610931578063bc197c8114610946578063c01f9e371461096657600080fd5b8063a7713a70146108a4578063a890c910146108b9578063a9a95294146108d957600080fd5b806391ddadf41161018a57806391ddadf41461084457806397c3d334146108705780639a802a6d1461088457600080fd5b80637ecebe00146107c657806384b0196e146107fc5780638ff262e31461082457600080fd5b80633e4f49e61161027f578063567813881161022857806360c4247f1161020257806360c4247f1461074657806379051887146107665780637b3c71d3146107865780637d5e81e2146107a657600080fd5b806356781388146106e65780635b8d0e0d146107065780635f398a141461072657600080fd5b80634bf5d7e9116102595780634bf5d7e914610636578063544ffc9c1461064b57806354fd4d50146106a057600080fd5b80633e4f49e61461059f57806343859632146105cc578063452115d61461061657600080fd5b8063160cbed7116102ec5780632d63f693116102c65780632d63f693146104fc5780632fe3e261146105385780633932abb11461056c57806339614e4f1461058157600080fd5b8063160cbed7146104a9578063183d802c146104c95780632656227d146104e957600080fd5b806306fdde031161031d57806306fdde0314610400578063143489d014610422578063150b7a021461047057600080fd5b806301ffc9a71461037f57806302a251a3146103b457806306f3f9e6146103e057600080fd5b3661037a5730610351610b73565b6001600160a01b03161461037857604051637485328f60e11b815260040160405180910390fd5b005b600080fd5b34801561038b57600080fd5b5061039f61039a36600461449d565b610b8c565b60405190151581526020015b60405180910390f35b3480156103c057600080fd5b50600854600160301b900463ffffffff165b6040519081526020016103ab565b3480156103ec57600080fd5b506103786103fb3660046144c7565b610c29565b34801561040c57600080fd5b50610415610c3d565b6040516103ab9190614530565b34801561042e57600080fd5b5061045861043d3660046144c7565b6000908152600460205260409020546001600160a01b031690565b6040516001600160a01b0390911681526020016103ab565b34801561047c57600080fd5b5061049061048b366004614625565b610ccf565b6040516001600160e01b031990911681526020016103ab565b3480156104b557600080fd5b506103d26104c43660046147fd565b610d2b565b3480156104d557600080fd5b506103d26104e4366004614899565b610e13565b6103d26104f73660046147fd565b610e20565b34801561050857600080fd5b506103d26105173660046144c7565b600090815260046020526040902054600160a01b900465ffffffffffff1690565b34801561054457600080fd5b506103d27f3e83946653575f9a39005e1545185629e92736b7528ab20ca3816f315424a81181565b34801561057857600080fd5b506103d2610e37565b34801561058d57600080fd5b5061041561059c3660046148b6565b90565b3480156105ab57600080fd5b506105bf6105ba3660046144c7565b610e4a565b6040516103ab9190614923565b3480156105d857600080fd5b5061039f6105e7366004614931565b60008281526009602090815260408083206001600160a01b038516845260030190915290205460ff1692915050565b34801561062257600080fd5b506103d26106313660046147fd565b610e55565b34801561064257600080fd5b50610415610f7c565b34801561065757600080fd5b506106856106663660046144c7565b6000908152600960205260409020805460018201546002909201549092565b604080519384526020840192909252908201526060016103ab565b3480156106ac57600080fd5b5060408051808201909152600181527f31000000000000000000000000000000000000000000000000000000000000006020820152610415565b3480156106f257600080fd5b506103d2610701366004614972565b61103e565b34801561071257600080fd5b506103d26107213660046149e7565b611067565b34801561073257600080fd5b506103d2610741366004614aae565b6111c6565b34801561075257600080fd5b506103d26107613660046144c7565b61121b565b34801561077257600080fd5b50610378610781366004614b4b565b6112a9565b34801561079257600080fd5b506103d26107a1366004614b68565b6112ba565b3480156107b257600080fd5b506103d26107c1366004614bc2565b611302565b3480156107d257600080fd5b506103d26107e1366004614899565b6001600160a01b031660009081526002602052604090205490565b34801561080857600080fd5b506108116114ea565b6040516103ab9796959493929190614cc6565b34801561083057600080fd5b506103d261083f366004614d50565b61154c565b34801561085057600080fd5b5061085961161e565b60405165ffffffffffff90911681526020016103ab565b34801561087c57600080fd5b5060646103d2565b34801561089057600080fd5b506103d261089f366004614da2565b6116a6565b3480156108b057600080fd5b506103d26116bd565b3480156108c557600080fd5b506103786108d4366004614899565b6116d7565b3480156108e557600080fd5b5061039f6108f43660046144c7565b6116e8565b34801561090557600080fd5b506103d26109143660046144c7565b60009081526004602052604090206001015465ffffffffffff1690565b34801561093d57600080fd5b506103d26116f1565b34801561095257600080fd5b50610490610961366004614dfb565b6116fc565b34801561097257600080fd5b506103d26109813660046144c7565b611759565b610378610994366004614e9c565b61179c565b3480156109a557600080fd5b506103d26109b43660046147fd565b61181c565b3480156109c557600080fd5b506109d96109d43660046144c7565b611856565b6040516103ab9190615086565b3480156109f257600080fd5b506109fb611b9b565b6040516103ab9190615099565b348015610a1457600080fd5b50600b546001600160a01b0316610458565b348015610a3257600080fd5b506040805180820190915260208082527f737570706f72743d627261766f2671756f72756d3d666f722c6162737461696e90820152610415565b348015610a7857600080fd5b506103d27ff2aad550cf55f045cb27e9c559f9889fdfb6e6cdaa032301d6ea397784ae51d781565b348015610aac57600080fd5b50610378610abb3660046150fe565b611f8a565b348015610acc57600080fd5b506103d2610adb366004615124565b611f9b565b348015610aec57600080fd5b50610378610afb3660046144c7565b611fbc565b348015610b0c57600080fd5b50610490610b1b366004615150565b611fcd565b348015610b2c57600080fd5b506103d2610b3b3660046144c7565b61202a565b348015610b4c57600080fd5b507f0000000000000000000000000000000000000000000000000000000000000000610458565b6000610b87600b546001600160a01b031690565b905090565b60006001600160e01b031982167f65455a86000000000000000000000000000000000000000000000000000000001480610bef57506001600160e01b031982167f4e2312e000000000000000000000000000000000000000000000000000000000145b80610c2357507f01ffc9a7000000000000000000000000000000000000000000000000000000006001600160e01b03198316145b92915050565b610c31612035565b610c3a816120c8565b50565b606060038054610c4c906151ad565b80601f0160208091040260200160405190810160405280929190818152602001828054610c78906151ad565b8015610cc55780601f10610c9a57610100808354040283529160200191610cc5565b820191906000526020600020905b815481529060010190602001808311610ca857829003601f168201915b5050505050905090565b600030610cda610b73565b6001600160a01b031614610d0157604051637485328f60e11b815260040160405180910390fd5b507f150b7a0200000000000000000000000000000000000000000000000000000000949350505050565b600080610d3a8686868661181c565b9050610d4f81610d4a6004612177565b61219a565b506000610d5f82888888886121d9565b905065ffffffffffff811615610dd757600082815260046020908152604091829020600101805465ffffffffffff191665ffffffffffff85169081179091558251858152918201527f9a2e42fd6722813d69113e7d0079d3d940171428df7373df9c7f7617cfda2892910160405180910390a1610e09565b6040517f90884a4600000000000000000000000000000000000000000000000000000000815260040160405180910390fd5b5095945050505050565b6000610c23826000611f9b565b6000610e2e858585856121e8565b95945050505050565b6000610b8760085465ffffffffffff1690565b6000610c2382612464565b600080610e648686868661181c565b9050610e7481610d4a6000612177565b506000818152600460205260409020546001600160a01b03163314610f6657610f2d6040518060400160405280601e81526020017f476f7665726e6f722d63616e63656c202c5f6d736753656e64657228293a0000815250610ed33390565b6040518060400160405280601d81526020017f70726f706f73616c50726f706f7365722870726f706f73616c4964293a000000815250610f28856000908152600460205260409020546001600160a01b031690565b6125d5565b6040517f233d98e30000000000000000000000000000000000000000000000000000000081523360048201526024015b60405180910390fd5b610f728686868661263d565b9695505050505050565b60607f00000000000000000000000000000000000000000000000000000000000000006001600160a01b0316634bf5d7e96040518163ffffffff1660e01b8152600401600060405180830381865afa925050508015610ffd57506040513d6000823e601f3d908101601f19168201604052610ffa91908101906151e1565b60015b611039575060408051808201909152601d81527f6d6f64653d626c6f636b6e756d6265722666726f6d3d64656661756c74000000602082015290565b919050565b60008033905061105f8482856040518060200160405280600081525061264b565b949350505050565b60008061114a876111447f3e83946653575f9a39005e1545185629e92736b7528ab20ca3816f315424a8118c8c8c6110bc8e6001600160a01b0316600090815260026020526040902080546001810190915590565b8d8d6040516110cc92919061524f565b60405180910390208c805190602001206040516020016111299796959493929190968752602087019590955260ff9390931660408601526001600160a01b03919091166060850152608084015260a083015260c082015260e00190565b6040516020818303038152906040528051906020012061266e565b856126b6565b905080611175576040516394ab6c0760e01b81526001600160a01b0388166004820152602401610f5d565b6111b989888a89898080601f0160208091040260200160405190810160405280939291908181526020018383808284376000920191909152508b925061272a915050565b9998505050505050505050565b60008033905061121087828888888080601f0160208091040260200160405190810160405280939291908181526020018383808284376000920191909152508a925061272a915050565b979650505050505050565b600a8054600091829061122f600184615275565b8154811061123f5761123f615288565b6000918252602090912001805490915065ffffffffffff811690600160301b90046001600160d01b0316858211611282576001600160d01b031695945050505050565b61129661128e87612821565b600a90612858565b6001600160d01b03169695505050505050565b6112b1612035565b610c3a8161290d565b600080339050610f7286828787878080601f01602080910402602001604051908101604052809392919081815260200183838082843760009201919091525061264b92505050565b600061131085858585612973565b600d805460018082019092557fd7b6990105719101dabeb77144f2a3385c8033acd3af97e9423a695e81ad1eb5018290556000828152600460209081526040808320600e909252909120838155815481840180546001600160a01b039092166001600160a01b031983168117825584547fffffffffffff000000000000000000000000000000000000000000000000000090931617600160a01b9283900465ffffffffffff90811690930217808255845463ffffffff60d01b198216600160d01b9182900463ffffffff16909102908117835585547fff0000000000ffffffffffffffffffffffffffffffffffffffffffffffffffff90921660ff60f01b1990911617600160f01b9182900460ff90811615159092021780835585547effffffffffffffffffffffffffffffffffffffffffffffffffffffffffffff909116600160f81b91829004909216151502179055928201546002820180549190941665ffffffffffff199091161790925591925061148a83611759565b600382015586516114a490600483019060208a0190614343565b5085516114ba90600583019060208901906143a4565b5084516114d090600683019060208801906143df565b50600781016114df85826152ed565b505050949350505050565b6000606080600080600060606114fe612a5e565b611506612a8b565b604080516000808252602082019092527f0f000000000000000000000000000000000000000000000000000000000000009b939a50919850469750309650945092509050565b6000806115d8846111447ff2aad550cf55f045cb27e9c559f9889fdfb6e6cdaa032301d6ea397784ae51d78989896115a18b6001600160a01b0316600090815260026020526040902080546001810190915590565b60408051602081019690965285019390935260ff90911660608401526001600160a01b0316608083015260a082015260c001611129565b905080611603576040516394ab6c0760e01b81526001600160a01b0385166004820152602401610f5d565b610f728685876040518060200160405280600081525061264b565b60007f00000000000000000000000000000000000000000000000000000000000000006001600160a01b03166391ddadf46040518163ffffffff1660e01b8152600401602060405180830381865afa92505050801561169a575060408051601f3d908101601f19168201909252611697918101906153ac565b60015b61103957610b87612ab8565b60006116b3848484612ac3565b90505b9392505050565b60006116c9600a612b6b565b6001600160d01b0316905090565b6116df612035565b610c3a81612ba4565b60006001610c23565b6000610b8760075490565b600030611707610b73565b6001600160a01b03161461172e57604051637485328f60e11b815260040160405180910390fd5b507fbc197c810000000000000000000000000000000000000000000000000000000095945050505050565b60008181526004602052604081205461178e90600160d01b810463ffffffff1690600160a01b900465ffffffffffff166153c9565b65ffffffffffff1692915050565b6117a4612035565b600080856001600160a01b03168585856040516117c292919061524f565b60006040518083038185875af1925050503d80600081146117ff576040519150601f19603f3d011682016040523d82523d6000602084013e611804565b606091505b50915091506118138282612c0d565b50505050505050565b60008484848460405160200161183594939291906153e7565b60408051601f19818403018152919052805160209091012095945050505050565b6118dd6040518061018001604052806000815260200160006001600160a01b03168152602001600065ffffffffffff168152602001600063ffffffff168152602001600015158152602001600015158152602001600065ffffffffffff16815260200160008152602001606081526020016060815260200160608152602001606081525090565b6000828152600e60209081526040918290208251610180810184528154815260018201546001600160a01b0381168285015265ffffffffffff600160a01b820481168387015263ffffffff600160d01b830416606084015260ff600160f01b8304811615156080850152600160f81b909204909116151560a083015260028301541660c0820152600382015460e08201526004820180548551818602810186019096528086529194929361010086019392908301828280156119c857602002820191906000526020600020905b81546001600160a01b031681526001909101906020018083116119aa575b5050505050815260200160058201805480602002602001604051908101604052809291908181526020018280548015611a2057602002820191906000526020600020905b815481526020019060010190808311611a0c575b5050505050815260200160068201805480602002602001604051908101604052809291908181526020016000905b82821015611afa578382906000526020600020018054611a6d906151ad565b80601f0160208091040260200160405190810160405280929190818152602001828054611a99906151ad565b8015611ae65780601f10611abb57610100808354040283529160200191611ae6565b820191906000526020600020905b815481529060010190602001808311611ac957829003601f168201915b505050505081526020019060010190611a4e565b505050508152602001600782018054611b12906151ad565b80601f0160208091040260200160405190810160405280929190818152602001828054611b3e906151ad565b8015611b8b5780601f10611b6057610100808354040283529160200191611b8b565b820191906000526020600020905b815481529060010190602001808311611b6e57829003601f168201915b5050505050815250509050919050565b600d5460609060009067ffffffffffffffff811115611bbc57611bbc614558565b604051908082528060200260200182016040528015611c7457816020015b611c616040518061018001604052806000815260200160006001600160a01b03168152602001600065ffffffffffff168152602001600063ffffffff168152602001600015158152602001600015158152602001600065ffffffffffff16815260200160008152602001606081526020016060815260200160608152602001606081525090565b815260200190600190039081611bda5790505b50905060005b600d54811015611f84576000600d8281548110611c9957611c99615288565b6000918252602080832090910154808352600e825260408084208151610180810183528154815260018201546001600160a01b0381168287015265ffffffffffff600160a01b820481168386015263ffffffff600160d01b830416606084015260ff600160f01b8304811615156080850152600160f81b909204909116151560a083015260028301541660c0820152600382015460e08201526004820180548451818802810188019095528085529497509094919361010086019392830182828015611d8e57602002820191906000526020600020905b81546001600160a01b03168152600190910190602001808311611d70575b5050505050815260200160058201805480602002602001604051908101604052809291908181526020018280548015611de657602002820191906000526020600020905b815481526020019060010190808311611dd2575b5050505050815260200160068201805480602002602001604051908101604052809291908181526020016000905b82821015611ec0578382906000526020600020018054611e33906151ad565b80601f0160208091040260200160405190810160405280929190818152602001828054611e5f906151ad565b8015611eac5780601f10611e8157610100808354040283529160200191611eac565b820191906000526020600020905b815481529060010190602001808311611e8f57829003601f168201915b505050505081526020019060010190611e14565b505050508152602001600782018054611ed8906151ad565b80601f0160208091040260200160405190810160405280929190818152602001828054611f04906151ad565b8015611f515780601f10611f2657610100808354040283529160200191611f51565b820191906000526020600020905b815481529060010190602001808311611f3457829003601f168201915b505050505081525050905080848481518110611f6f57611f6f615288565b60209081029190910101525050600101611c7a565b50919050565b611f92612035565b610c3a81612c67565b60006116b68383611fb760408051602081019091526000815290565b612ac3565b611fc4612035565b610c3a81612d1e565b600030611fd8610b73565b6001600160a01b031614611fff57604051637485328f60e11b815260040160405180910390fd5b507ff23a6e610000000000000000000000000000000000000000000000000000000095945050505050565b6000610c2382612d5f565b3361203e610b73565b6001600160a01b031614612080576040517f47096e47000000000000000000000000000000000000000000000000000000008152336004820152602401610f5d565b30612089610b73565b6001600160a01b0316146120c657600080366040516120a992919061524f565b604051809103902090505b806120bf6005612e22565b036120b457505b565b60648082111561210e576040517f243e54450000000000000000000000000000000000000000000000000000000081526004810183905260248101829052604401610f5d565b60006121186116bd565b905061213761212561161e565b61212e85612eb2565b600a9190612ee6565b505060408051828152602081018590527f0553476bf02ef2726e8ce5ced78d63e26e602e4a2257b1f559418e24b4633997910160405180910390a1505050565b600081600781111561218b5761218b6148eb565b600160ff919091161b92915050565b6000806121a684610e4a565b90506000836121b483612177565b16036116b6578381846040516331b75e4d60e01b8152600401610f5d93929190615432565b6000610f728686868686612f01565b6000806121f78686868661181c565b9050612217816122076005612177565b6122116004612177565b1761219a565b506000818152600460205260409020805460ff60f01b1916600160f01b17905530612240610b73565b6001600160a01b0316146122ca5760005b86518110156122c857306001600160a01b031687828151811061227657612276615288565b60200260200101516001600160a01b0316036122c0576122c08582815181106122a1576122a1615288565b60200260200101518051906020012060056130de90919063ffffffff16565b600101612251565b505b6000606060005b88518110156123db578881815181106122ec576122ec615288565b60200260200101516001600160a01b031687828151811061230f5761230f615288565b60200260200101516040516123249190615454565b6000604051808303816000865af19150503d8060008114612361576040519150601f19603f3d011682016040523d82523d6000602084013e612366565b606091505b509093509150826123d3576040517f08c379a000000000000000000000000000000000000000000000000000000000815260206004820152600b60248201527f43616c6c206661696c65640000000000000000000000000000000000000000006044820152606401610f5d565b6001016122d1565b50306123e5610b73565b6001600160a01b03161415801561241a57506005546fffffffffffffffffffffffffffffffff808216600160801b9092041614155b156124255760006005555b6040518381527f712ae1383f79ac853f8d882153778e0260ef8f03b504e2866e0593e04d2b291f9060200160405180910390a150909695505050505050565b60008061247083613152565b90506005816007811115612486576124866148eb565b146124915792915050565b6000838152600c60205260409081902054600b5491517f584b153e0000000000000000000000000000000000000000000000000000000081526004810182905290916001600160a01b03169063584b153e90602401602060405180830381865afa158015612503573d6000803e3d6000fd5b505050506040513d601f19601f820116820180604052508101906125279190615470565b15612536575060059392505050565b600b546040517f2ab0f529000000000000000000000000000000000000000000000000000000008152600481018390526001600160a01b0390911690632ab0f52990602401602060405180830381865afa158015612598573d6000803e3d6000fd5b505050506040513d601f19601f820116820180604052508101906125bc9190615470565b156125cb575060079392505050565b5060029392505050565b612637848484846040516024016125ef9493929190615492565b60408051601f198184030181529190526020810180516001600160e01b03167faabc9a31000000000000000000000000000000000000000000000000000000001790526132f8565b50505050565b6000610e2e85858585613301565b6000610e2e8585858561266960408051602081019091526000815290565b61272a565b6000610c2361267b6133b9565b836040517f19010000000000000000000000000000000000000000000000000000000000008152600281019290925260228201526042902090565b6000836001600160a01b03163b600003612718576000806126d785856134e4565b50909250905060008160038111156126f1576126f16148eb565b14801561270f5750856001600160a01b0316826001600160a01b0316145b925050506116b6565b612723848484613531565b90506116b6565b600061273a86610d4a6001612177565b50600086815260046020526040812054612765908790600160a01b900465ffffffffffff1685612ac3565b90506000612776888888858861360c565b905083516000036127cd57866001600160a01b03167fb8e138887d0aa13bab447e82de9d5c1777041ecd21ca36ba824ff1e6c07ddda4898884896040516127c094939291906154e1565b60405180910390a2611210565b866001600160a01b03167fe2babfbac5889a709b63bb7f598b324e08bc5a4fb9ec647fb3cbc9ec07eb8712898884898960405161280e959493929190615509565b60405180910390a2979650505050505050565b600065ffffffffffff821115612854576040516306dfcc6560e41b81526030600482015260248101839052604401610f5d565b5090565b8154600090818160058111156128b757600061287384613741565b61287d9085615275565b60008881526020902090915081015465ffffffffffff90811690871610156128a7578091506128b5565b6128b2816001615543565b92505b505b60006128c58787858561389a565b90508015612900576128ea876128dc600184615275565b600091825260209091200190565b54600160301b90046001600160d01b0316611210565b6000979650505050505050565b6008546040805165ffffffffffff928316815291831660208301527fc565b045403dc03c2eea82b81a0465edad9e2e7fc4d97e11421c209da93d7a93910160405180910390a16008805465ffffffffffff191665ffffffffffff92909216919091179055565b60003361298081846138fc565b6129c1576040517fd9b395570000000000000000000000000000000000000000000000000000000081526001600160a01b0382166004820152602401610f5d565b60006129cb6116f1565b90508015612a515760006129fa8360016129e361161e565b6129ed9190615556565b65ffffffffffff16611f9b565b905081811015612a4f576040517fc242ee160000000000000000000000000000000000000000000000000000000081526001600160a01b03841660048201526024810182905260448101839052606401610f5d565b505b6112108787878786613a10565b6060610b877f00000000000000000000000000000000000000000000000000000000000000006000613c9f565b6060610b877f00000000000000000000000000000000000000000000000000000000000000006001613c9f565b6000610b8743612821565b60007f00000000000000000000000000000000000000000000000000000000000000006040517f9ab24eb00000000000000000000000000000000000000000000000000000000081526001600160a01b0386811660048301529190911690639ab24eb090602401602060405180830381865afa158015612b47573d6000803e3d6000fd5b505050506040513d601f19601f820116820180604052508101906116b39190615574565b80546000908015612b9b57612b85836128dc600184615275565b54600160301b90046001600160d01b03166116b6565b60009392505050565b600b54604080516001600160a01b03928316815291831660208301527f08f74ea46ef7894f65eabfb5e6e695de773a000b47c529ab559178069b226401910160405180910390a1600b80546001600160a01b0319166001600160a01b0392909216919091179055565b6060612c4d6040518060400160405280601e81526020017f416464726573732d76657269667943616c6c526573756c7428292d3131310000815250613d4a565b82612c6057612c5b82613da6565b610c23565b5080610c23565b8063ffffffff16600003612caa576040517ff1cfbf0500000000000000000000000000000000000000000000000000000000815260006004820152602401610f5d565b6008546040805163ffffffff600160301b9093048316815291831660208301527f7e3f7f0708a84de9203036abaa450dccc85ad5ff52f78c170f3edb55cf5e8828910160405180910390a16008805463ffffffff909216600160301b0269ffffffff00000000000019909216919091179055565b60075460408051918252602082018390527fccb45da8d5717e6c4544694297c4ba5cf151d455c9bb0ed4fc7a38411bc05461910160405180910390a1600755565b60006064612d6c8361121b565b6040517f8e539e8c000000000000000000000000000000000000000000000000000000008152600481018590526001600160a01b037f00000000000000000000000000000000000000000000000000000000000000001690638e539e8c90602401602060405180830381865afa158015612dea573d6000803e3d6000fd5b505050506040513d601f19601f82011682018060405250810190612e0e9190615574565b612e18919061558d565b610c2391906155ba565b80546000906fffffffffffffffffffffffffffffffff80821691600160801b9004168103612e5457612e546031613de8565b6fffffffffffffffffffffffffffffffff8181166000908152600185810160205260408220805492905585547fffffffffffffffffffffffffffffffff00000000000000000000000000000000169301909116919091179092555090565b60006001600160d01b03821115612854576040516306dfcc6560e41b815260d0600482015260248101839052604401610f5d565b600080612ef4858585613dfa565b915091505b935093915050565b600080600b60009054906101000a90046001600160a01b03166001600160a01b031663f27a0c926040518163ffffffff1660e01b8152600401602060405180830381865afa158015612f57573d6000803e3d6000fd5b505050506040513d601f19601f82011682018060405250810190612f7b9190615574565b905060003060601b6bffffffffffffffffffffffff19168418600b546040517fb1c5f4270000000000000000000000000000000000000000000000000000000081529192506001600160a01b03169063b1c5f42790612fe7908a908a908a9060009088906004016155dc565b602060405180830381865afa158015613004573d6000803e3d6000fd5b505050506040513d601f19601f820116820180604052508101906130289190615574565b6000898152600c602052604080822092909255600b5491517f8f2a0bb00000000000000000000000000000000000000000000000000000000081526001600160a01b0390921691638f2a0bb09161308c918b918b918b919088908a9060040161562a565b600060405180830381600087803b1580156130a657600080fd5b505af11580156130ba573d6000803e3d6000fd5b505050506130d282426130cd9190615543565b612821565b98975050505050505050565b81546fffffffffffffffffffffffffffffffff600160801b820481169181166001830190911603613113576131136041613de8565b6fffffffffffffffffffffffffffffffff808216600090815260018086016020526040909120939093558354919092018216600160801b029116179055565b60006131926040518060400160405280601481526020017f476f7665726e6f722d737461746528292d313131000000000000000000000000815250613d4a565b6000828152600460205260409020805460ff600160f01b8204811691600160f81b90041681156131c757506007949350505050565b80156131d857506002949350505050565b600085815260046020526040812054600160a01b900465ffffffffffff16905080600003613235576040517f6ad0607500000000000000000000000000000000000000000000000000000000815260048101879052602401610f5d565b600061323f61161e565b65ffffffffffff16905080821061325d575060009695505050505050565b600061326888611759565b905081811061327f57506001979650505050505050565b61328888613f67565b15806132a857506000888152600960205260409020805460019091015411155b156132bb57506003979650505050505050565b60008881526004602052604090206001015465ffffffffffff166000036132ea57506004979650505050505050565b506005979650505050505050565b610c3a81613fb9565b60008061331086868686613fda565b6000818152600c60205260409020549091508015610e0957600b546040517fc4d252f5000000000000000000000000000000000000000000000000000000008152600481018390526001600160a01b039091169063c4d252f590602401600060405180830381600087803b15801561338757600080fd5b505af115801561339b573d6000803e3d6000fd5b5050506000838152600c602052604081205550509050949350505050565b6000306001600160a01b037f00000000000000000000000000000000000000000000000000000000000000001614801561341257507f000000000000000000000000000000000000000000000000000000000000000046145b1561343c57507f000000000000000000000000000000000000000000000000000000000000000090565b610b87604080517f8b73c3c69bb8fe3d512ecc4cf759cc79239f7b179b0ffacaa9a75d522b39400f60208201527f0000000000000000000000000000000000000000000000000000000000000000918101919091527f000000000000000000000000000000000000000000000000000000000000000060608201524660808201523060a082015260009060c00160405160208183030381529060405280519060200120905090565b6000806000835160410361351e5760208401516040850151606086015160001a613510888285856140b4565b95509550955050505061352a565b50508151600091506002905b9250925092565b6000806000856001600160a01b03168585604051602401613553929190615682565b60408051601f198184030181529181526020820180516001600160e01b0316630b135d3f60e11b179052516135889190615454565b600060405180830381855afa9150503d80600081146135c3576040519150601f19603f3d011682016040523d82523d6000602084013e6135c8565b606091505b50915091508180156135dc57506020815110155b8015610f7257508051630b135d3f60e11b906136019083016020908101908401615574565b149695505050505050565b60008581526009602090815260408083206001600160a01b03881684526003810190925282205460ff1615613678576040517f71c6af490000000000000000000000000000000000000000000000000000000081526001600160a01b0387166004820152602401610f5d565b6001600160a01b03861660009081526003820160205260409020805460ff1916600117905560ff85166136c457838160000160008282546136b99190615543565b909155506137369050565b60001960ff8616016136e457838160010160008282546136b99190615543565b60011960ff86160161370457838160020160008282546136b99190615543565b6040517f06b337c200000000000000000000000000000000000000000000000000000000815260040160405180910390fd5b509195945050505050565b60006001821161374f575090565b816001600160801b82106137685760809190911c9060401b5b6801000000000000000082106137835760409190911c9060201b5b640100000000821061379a5760209190911c9060101b5b6201000082106137af5760109190911c9060081b5b61010082106137c35760089190911c9060041b5b601082106137d65760049190911c9060021b5b600482106137e25760011b5b600302600190811c908185816137fa576137fa6155a4565b048201901c90506001818581613812576138126155a4565b048201901c9050600181858161382a5761382a6155a4565b048201901c90506001818581613842576138426155a4565b048201901c9050600181858161385a5761385a6155a4565b048201901c90506001818581613872576138726155a4565b048201901c905061389181858161388b5761388b6155a4565b04821190565b90039392505050565b60005b818310156138f45760006138b18484614183565b60008781526020902090915065ffffffffffff86169082015465ffffffffffff1611156138e0578092506138ee565b6138eb816001615543565b93505b5061389d565b509392505050565b80516000906034811015613914576001915050610c23565b82810160131901516001600160a01b031981167f2370726f706f7365723d307800000000000000000000000000000000000000001461395857600192505050610c23565b600080613966602885615275565b90505b838110156139ef576000806139b588848151811061398957613989615288565b01602001517fff000000000000000000000000000000000000000000000000000000000000001661419e565b91509150816139cd5760019650505050505050610c23565b8060ff166004856001600160a01b0316901b1793505050806001019050613969565b50856001600160a01b0316816001600160a01b031614935050505092915050565b6000613a25868686868051906020012061181c565b9050613a666040518060400160405280600e81526020017f3535352070726f706f73616c496400000000000000000000000000000000000081525082614230565b84518651141580613a7957508351865114155b80613a8357508551155b15613ad1578551845186516040517f447b05d0000000000000000000000000000000000000000000000000000000008152600481019390935260248301919091526044820152606401610f5d565b600081815260046020526040902054600160a01b900465ffffffffffff1615613b1c5780613afe82610e4a565b6040516331b75e4d60e01b8152610f5d929190600090600401615432565b6000613b26610e37565b613b2e61161e565b65ffffffffffff16613b409190615543565b90506000613b5b60085463ffffffff600160301b9091041690565b600084815260046020526040902080546001600160a01b0319166001600160a01b038716178155909150613b8e83612821565b815465ffffffffffff91909116600160a01b027fffffffffffff000000000000ffffffffffffffffffffffffffffffffffffffff909116178155613bd182614292565b815463ffffffff91909116600160d01b0263ffffffff60d01b1990911617815588517f7d84a6263ae0d98d3329bd7b46bb4e8d6f98cd35a7adb45c274c8b7fd5ebd5e090859087908c908c9067ffffffffffffffff811115613c3557613c35614558565b604051908082528060200260200182016040528015613c6857816020015b6060815260200190600190039081613c535790505b508c89613c758a82615543565b8e604051613c8b9998979695949392919061569b565b60405180910390a150505095945050505050565b606060ff8314613cb957613cb2836142c3565b9050610c23565b818054613cc5906151ad565b80601f0160208091040260200160405190810160405280929190818152602001828054613cf1906151ad565b8015613d3e5780601f10613d1357610100808354040283529160200191613d3e565b820191906000526020600020905b815481529060010190602001808311613d2157829003601f168201915b50505050509050610c23565b610c3a81604051602401613d5e9190614530565b60408051601f198184030181529190526020810180516001600160e01b03167f41304fac000000000000000000000000000000000000000000000000000000001790526132f8565b805115613db65780518082602001fd5b6040517fd6bda27500000000000000000000000000000000000000000000000000000000815260040160405180910390fd5b634e487b71600052806020526024601cfd5b825460009081908015613f0c576000613e18876128dc600185615275565b805490915065ffffffffffff80821691600160301b90046001600160d01b0316908816821115613e74576040517f2520601d00000000000000000000000000000000000000000000000000000000815260040160405180910390fd5b8765ffffffffffff168265ffffffffffff1603613ead57825465ffffffffffff16600160301b6001600160d01b03891602178355613efe565b6040805180820190915265ffffffffffff808a1682526001600160d01b03808a1660208085019182528d54600181018f5560008f81529190912094519151909216600160301b029216919091179101555b9450859350612ef992505050565b50506040805180820190915265ffffffffffff80851682526001600160d01b0380851660208085019182528854600181018a5560008a815291822095519251909316600160301b029190931617920191909155905081612ef9565b600081815260096020526040812060028101546001820154613f899190615543565b600084815260046020526040902054613fb090600160a01b900465ffffffffffff1661202a565b11159392505050565b60006a636f6e736f6c652e6c6f679050600080835160208501845afa505050565b600080613fe98686868661181c565b905061403781613ff96007612177565b6140036006612177565b61400d6002612177565b600161401a600782615777565b61402590600261586f565b61402f9190615275565b18181861219a565b506000818152600460205260409081902080547effffffffffffffffffffffffffffffffffffffffffffffffffffffffffffff16600160f81b179055517f789cf55be980739dad1d0699b93b58e806b51c9d96619bfa8fe0a28abaa7b30c906140a39083815260200190565b60405180910390a195945050505050565b600080807f7fffffffffffffffffffffffffffffff5d576e7357a4501ddfe92f46681b20a08411156140ef5750600091506003905082614179565b604080516000808252602082018084528a905260ff891692820192909252606081018790526080810186905260019060a0016020604051602081039080840390855afa158015614143573d6000803e3d6000fd5b5050604051601f1901519150506001600160a01b03811661416f57506000925060019150829050614179565b9250600091508190505b9450945094915050565b600061419260028484186155ba565b6116b690848416615543565b60008060f883901c602f811180156141b95750603a8160ff16105b156141ce57600194602f199091019350915050565b8060ff1660401080156141e4575060478160ff16105b156141f9576001946036199091019350915050565b8060ff16606010801561420f575060678160ff16105b15614224576001946056199091019350915050565b50600093849350915050565b61428e828260405160240161424692919061587e565b60408051601f198184030181529190526020810180516001600160e01b03167fb60e72cc000000000000000000000000000000000000000000000000000000001790526132f8565b5050565b600063ffffffff821115612854576040516306dfcc6560e41b81526020600482015260248101839052604401610f5d565b606060006142d083614302565b604080516020808252818301909252919250600091906020820181803683375050509182525060208101929092525090565b600060ff8216601f811115610c23576040517fb3512b0c00000000000000000000000000000000000000000000000000000000815260040160405180910390fd5b828054828255906000526020600020908101928215614398579160200282015b8281111561439857825182546001600160a01b0319166001600160a01b03909116178255602090920191600190910190614363565b50612854929150614431565b828054828255906000526020600020908101928215614398579160200282015b828111156143985782518255916020019190600101906143c4565b828054828255906000526020600020908101928215614425579160200282015b82811115614425578251829061441590826152ed565b50916020019190600101906143ff565b50612854929150614446565b5b808211156128545760008155600101614432565b8082111561285457600061445a8282614463565b50600101614446565b50805461446f906151ad565b6000825580601f1061447f575050565b601f016020900490600052602060002090810190610c3a9190614431565b6000602082840312156144af57600080fd5b81356001600160e01b0319811681146116b657600080fd5b6000602082840312156144d957600080fd5b5035919050565b60005b838110156144fb5781810151838201526020016144e3565b50506000910152565b6000815180845261451c8160208601602086016144e0565b601f01601f19169290920160200192915050565b6020815260006116b66020830184614504565b6001600160a01b0381168114610c3a57600080fd5b634e487b7160e01b600052604160045260246000fd5b604051601f8201601f1916810167ffffffffffffffff8111828210171561459757614597614558565b604052919050565b600067ffffffffffffffff8211156145b9576145b9614558565b50601f01601f191660200190565b60006145da6145d58461459f565b61456e565b90508281528383830111156145ee57600080fd5b828260208301376000602084830101529392505050565b600082601f83011261461657600080fd5b6116b6838335602085016145c7565b6000806000806080858703121561463b57600080fd5b843561464681614543565b9350602085013561465681614543565b925060408501359150606085013567ffffffffffffffff81111561467957600080fd5b61468587828801614605565b91505092959194509250565b600067ffffffffffffffff8211156146ab576146ab614558565b5060051b60200190565b600082601f8301126146c657600080fd5b81356146d46145d582614691565b8082825260208201915060208360051b8601019250858311156146f657600080fd5b602085015b83811015610e0957803561470e81614543565b8352602092830192016146fb565b600082601f83011261472d57600080fd5b813561473b6145d582614691565b8082825260208201915060208360051b86010192508583111561475d57600080fd5b602085015b83811015610e09578035835260209283019201614762565b600082601f83011261478b57600080fd5b81356147996145d582614691565b8082825260208201915060208360051b8601019250858311156147bb57600080fd5b602085015b83811015610e0957803567ffffffffffffffff8111156147df57600080fd5b6147ee886020838a0101614605565b845250602092830192016147c0565b6000806000806080858703121561481357600080fd5b843567ffffffffffffffff81111561482a57600080fd5b614836878288016146b5565b945050602085013567ffffffffffffffff81111561485357600080fd5b61485f8782880161471c565b935050604085013567ffffffffffffffff81111561487c57600080fd5b6148888782880161477a565b949793965093946060013593505050565b6000602082840312156148ab57600080fd5b81356116b681614543565b6000602082840312156148c857600080fd5b813567ffffffffffffffff8111156148df57600080fd5b61105f84828501614605565b634e487b7160e01b600052602160045260246000fd5b6008811061491f57634e487b7160e01b600052602160045260246000fd5b9052565b60208101610c238284614901565b6000806040838503121561494457600080fd5b82359150602083013561495681614543565b809150509250929050565b803560ff8116811461103957600080fd5b6000806040838503121561498557600080fd5b8235915061499560208401614961565b90509250929050565b60008083601f8401126149b057600080fd5b50813567ffffffffffffffff8111156149c857600080fd5b6020830191508360208285010111156149e057600080fd5b9250929050565b600080600080600080600060c0888a031215614a0257600080fd5b87359650614a1260208901614961565b95506040880135614a2281614543565b9450606088013567ffffffffffffffff811115614a3e57600080fd5b614a4a8a828b0161499e565b909550935050608088013567ffffffffffffffff811115614a6a57600080fd5b614a768a828b01614605565b92505060a088013567ffffffffffffffff811115614a9357600080fd5b614a9f8a828b01614605565b91505092959891949750929550565b600080600080600060808688031215614ac657600080fd5b85359450614ad660208701614961565b9350604086013567ffffffffffffffff811115614af257600080fd5b614afe8882890161499e565b909450925050606086013567ffffffffffffffff811115614b1e57600080fd5b614b2a88828901614605565b9150509295509295909350565b65ffffffffffff81168114610c3a57600080fd5b600060208284031215614b5d57600080fd5b81356116b681614b37565b60008060008060608587031215614b7e57600080fd5b84359350614b8e60208601614961565b9250604085013567ffffffffffffffff811115614baa57600080fd5b614bb68782880161499e565b95989497509550505050565b60008060008060808587031215614bd857600080fd5b843567ffffffffffffffff811115614bef57600080fd5b614bfb878288016146b5565b945050602085013567ffffffffffffffff811115614c1857600080fd5b614c248782880161471c565b935050604085013567ffffffffffffffff811115614c4157600080fd5b614c4d8782880161477a565b925050606085013567ffffffffffffffff811115614c6a57600080fd5b8501601f81018713614c7b57600080fd5b614685878235602084016145c7565b600081518084526020840193506020830160005b82811015614cbc578151865260209586019590910190600101614c9e565b5093949350505050565b7fff000000000000000000000000000000000000000000000000000000000000008816815260e060208201526000614d0160e0830189614504565b8281036040840152614d138189614504565b90508660608401526001600160a01b03861660808401528460a084015282810360c0840152614d428185614c8a565b9a9950505050505050505050565b60008060008060808587031215614d6657600080fd5b84359350614d7660208601614961565b92506040850135614d8681614543565b9150606085013567ffffffffffffffff81111561467957600080fd5b600080600060608486031215614db757600080fd5b8335614dc281614543565b925060208401359150604084013567ffffffffffffffff811115614de557600080fd5b614df186828701614605565b9150509250925092565b600080600080600060a08688031215614e1357600080fd5b8535614e1e81614543565b94506020860135614e2e81614543565b9350604086013567ffffffffffffffff811115614e4a57600080fd5b614e568882890161471c565b935050606086013567ffffffffffffffff811115614e7357600080fd5b614e7f8882890161471c565b925050608086013567ffffffffffffffff811115614b1e57600080fd5b60008060008060608587031215614eb257600080fd5b8435614ebd81614543565b935060208501359250604085013567ffffffffffffffff811115614baa57600080fd5b600081518084526020840193506020830160005b82811015614cbc5781516001600160a01b0316865260209586019590910190600101614ef4565b600082825180855260208501945060208160051b8301016020850160005b83811015614f6b57601f19858403018852614f55838351614504565b6020988901989093509190910190600101614f39565b50909695505050505050565b8051825260006020820151614f9760208501826001600160a01b03169052565b506040820151614fb1604085018265ffffffffffff169052565b506060820151614fc9606085018263ffffffff169052565b506080820151614fdd608085018215159052565b5060a0820151614ff160a085018215159052565b5060c082015161500b60c085018265ffffffffffff169052565b5060e082015160e0840152610100820151610180610100850152615033610180850182614ee0565b905061012083015184820361012086015261504e8282614c8a565b91505061014083015184820361014086015261506a8282614f1b565b915050610160830151848203610160860152610e2e8282614504565b6020815260006116b66020830184614f77565b6000602082016020835280845180835260408501915060408160051b86010192506020860160005b828110156150f257603f198786030184526150dd858351614f77565b945060209384019391909101906001016150c1565b50929695505050505050565b60006020828403121561511057600080fd5b813563ffffffff811681146116b657600080fd5b6000806040838503121561513757600080fd5b823561514281614543565b946020939093013593505050565b600080600080600060a0868803121561516857600080fd5b853561517381614543565b9450602086013561518381614543565b93506040860135925060608601359150608086013567ffffffffffffffff811115614b1e57600080fd5b600181811c908216806151c157607f821691505b602082108103611f8457634e487b7160e01b600052602260045260246000fd5b6000602082840312156151f357600080fd5b815167ffffffffffffffff81111561520a57600080fd5b8201601f8101841361521b57600080fd5b80516152296145d58261459f565b81815285602083850101111561523e57600080fd5b610e2e8260208301602086016144e0565b8183823760009101908152919050565b634e487b7160e01b600052601160045260246000fd5b81810381811115610c2357610c2361525f565b634e487b7160e01b600052603260045260246000fd5b601f8211156152e857806000526020600020601f840160051c810160208510156152c55750805b601f840160051c820191505b818110156152e557600081556001016152d1565b50505b505050565b815167ffffffffffffffff81111561530757615307614558565b61531b8161531584546151ad565b8461529e565b6020601f82116001811461534f57600083156153375750848201515b600019600385901b1c1916600184901b1784556152e5565b600084815260208120601f198516915b8281101561537f578785015182556020948501946001909201910161535f565b508482101561539d5786840151600019600387901b60f8161c191681555b50505050600190811b01905550565b6000602082840312156153be57600080fd5b81516116b681614b37565b65ffffffffffff8181168382160190811115610c2357610c2361525f565b6080815260006153fa6080830187614ee0565b828103602084015261540c8187614c8a565b905082810360408401526154208186614f1b565b91505082606083015295945050505050565b838152606081016154466020830185614901565b826040830152949350505050565b600082516154668184602087016144e0565b9190910192915050565b60006020828403121561548257600080fd5b815180151581146116b657600080fd5b6080815260006154a56080830187614504565b6001600160a01b038616602084015282810360408401526154c68186614504565b9150506001600160a01b038316606083015295945050505050565b84815260ff84166020820152826040820152608060608201526000610f726080830184614504565b85815260ff8516602082015283604082015260a06060820152600061553160a0830185614504565b82810360808401526130d28185614504565b80820180821115610c2357610c2361525f565b65ffffffffffff8281168282160390811115610c2357610c2361525f565b60006020828403121561558657600080fd5b5051919050565b8082028115828204841417610c2357610c2361525f565b634e487b7160e01b600052601260045260246000fd5b6000826155d757634e487b7160e01b600052601260045260246000fd5b500490565b60a0815260006155ef60a0830188614ee0565b82810360208401526156018188614c8a565b905082810360408401526156158187614f1b565b60608401959095525050608001529392505050565b60c08152600061563d60c0830189614ee0565b828103602084015261564f8189614c8a565b905082810360408401526156638188614f1b565b60608401969096525050608081019290925260a0909101529392505050565b8281526040602082015260006116b36040830184614504565b8981526001600160a01b0389166020820152610120604082015260006156c561012083018a614ee0565b82810360608401526156d7818a614c8a565b9050828103608084015280885180835260208301915060208160051b84010160208b0160005b8381101561572f57601f19868403018552615719838351614504565b60209586019590935091909101906001016156fd565b505085810360a0870152615743818b614f1b565b93505050508560c08401528460e08401528281036101008401526157678185614504565b9c9b505050505050505050505050565b60ff8181168382160190811115610c2357610c2361525f565b6001815b6001841115612ef9578085048111156157af576157af61525f565b60018416156157bd57908102905b60019390931c928002615794565b6000826157da57506001610c23565b816157e757506000610c23565b81600181146157fd576002811461580757615823565b6001915050610c23565b60ff8411156158185761581861525f565b50506001821b610c23565b5060208310610133831016604e8410600b8410161715615846575081810a610c23565b6158536000198484615790565b80600019048211156158675761586761525f565b029392505050565b60006116b660ff8416836157cb565b6040815260006158916040830185614504565b9050826020830152939250505056fea26469706673582212203b5b6e8bb408de84c19a4f3c3f97436c86bbf3261651708df7d7912a0bc2aa6764736f6c634300081b0033",
  "linkReferences": {},
  "deployedLinkReferences": {}
}