{
  "_format": "hh-sol-artifact-1",
  "contractName": "xytGovernor",
  "sourceName": "contracts/kokoDao/xytGovernor.sol",
  "abi": [
    {
      "inputs": [
        {
          "internalType": "contract IVotes",
          "name": "_token",
          "type": "address"
        },
        {
          "internalType": "contract TimelockController",
          "name": "_timelock",
          "type": "address"
        },
        {
          "internalType": "uint48",
          "name": "_votingDelay",
          "type": "uint48"
        },
        {
          "internalType": "uint32",
          "name": "_votingPeriod",
          "type": "uint32"
        },
        {
          "internalType": "uint256",
          "name": "_proposalThreshold",
          "type": "uint256"
        }
      ],
      "stateMutability": "nonpayable",
      "type": "constructor"
    },
    {
      "inputs": [],
      "name": "CheckpointUnorderedInsertion",
      "type": "error"
    },
    {
      "inputs": [],
      "name": "FailedCall",
      "type": "error"
    },
    {
      "inputs": [
        {
          "internalType": "address",
          "name": "voter",
          "type": "address"
        }
      ],
      "name": "GovernorAlreadyCastVote",
      "type": "error"
    },
    {
      "inputs": [
        {
          "internalType": "uint256",
          "name": "proposalId",
          "type": "uint256"
        }
      ],
      "name": "GovernorAlreadyQueuedProposal",
      "type": "error"
    },
    {
      "inputs": [],
      "name": "GovernorDisabledDeposit",
      "type": "error"
    },
    {
      "inputs": [
        {
          "internalType": "address",
          "name": "proposer",
          "type": "address"
        },
        {
          "internalType": "uint256",
          "name": "votes",
          "type": "uint256"
        },
        {
          "internalType": "uint256",
          "name": "threshold",
          "type": "uint256"
        }
      ],
      "name": "GovernorInsufficientProposerVotes",
      "type": "error"
    },
    {
      "inputs": [
        {
          "internalType": "uint256",
          "name": "targets",
          "type": "uint256"
        },
        {
          "internalType": "uint256",
          "name": "calldatas",
          "type": "uint256"
        },
        {
          "internalType": "uint256",
          "name": "values",
          "type": "uint256"
        }
      ],
      "name": "GovernorInvalidProposalLength",
      "type": "error"
    },
    {
      "inputs": [
        {
          "internalType": "uint256",
          "name": "quorumNumerator",
          "type": "uint256"
        },
        {
          "internalType": "uint256",
          "name": "quorumDenominator",
          "type": "uint256"
        }
      ],
      "name": "GovernorInvalidQuorumFraction",
      "type": "error"
    },
    {
      "inputs": [
        {
          "internalType": "address",
          "name": "voter",
          "type": "address"
        }
      ],
      "name": "GovernorInvalidSignature",
      "type": "error"
    },
    {
      "inputs": [],
      "name": "GovernorInvalidVoteParams",
      "type": "error"
    },
    {
      "inputs": [],
      "name": "GovernorInvalidVoteType",
      "type": "error"
    },
    {
      "inputs": [
        {
          "internalType": "uint256",
          "name": "votingPeriod",
          "type": "uint256"
        }
      ],
      "name": "GovernorInvalidVotingPeriod",
      "type": "error"
    },
    {
      "inputs": [
        {
          "internalType": "uint256",
          "name": "proposalId",
          "type": "uint256"
        }
      ],
      "name": "GovernorNonexistentProposal",
      "type": "error"
    },
    {
      "inputs": [
        {
          "internalType": "uint256",
          "name": "proposalId",
          "type": "uint256"
        }
      ],
      "name": "GovernorNotQueuedProposal",
      "type": "error"
    },
    {
      "inputs": [
        {
          "internalType": "address",
          "name": "account",
          "type": "address"
        }
      ],
      "name": "GovernorOnlyExecutor",
      "type": "error"
    },
    {
      "inputs": [
        {
          "internalType": "address",
          "name": "account",
          "type": "address"
        }
      ],
      "name": "GovernorOnlyProposer",
      "type": "error"
    },
    {
      "inputs": [],
      "name": "GovernorQueueNotImplemented",
      "type": "error"
    },
    {
      "inputs": [
        {
          "internalType": "address",
          "name": "proposer",
          "type": "address"
        }
      ],
      "name": "GovernorRestrictedProposer",
      "type": "error"
    },
    {
      "inputs": [
        {
          "internalType": "uint256",
          "name": "proposalId",
          "type": "uint256"
        },
        {
          "internalType": "enum IGovernor.ProposalState",
          "name": "current",
          "type": "uint8"
        },
        {
          "internalType": "bytes32",
          "name": "expectedStates",
          "type": "bytes32"
        }
      ],
      "name": "GovernorUnexpectedProposalState",
      "type": "error"
    },
    {
      "inputs": [
        {
          "internalType": "address",
          "name": "account",
          "type": "address"
        },
        {
          "internalType": "uint256",
          "name": "currentNonce",
          "type": "uint256"
        }
      ],
      "name": "InvalidAccountNonce",
      "type": "error"
    },
    {
      "inputs": [],
      "name": "InvalidShortString",
      "type": "error"
    },
    {
      "inputs": [
        {
          "internalType": "uint8",
          "name": "bits",
          "type": "uint8"
        },
        {
          "internalType": "uint256",
          "name": "value",
          "type": "uint256"
        }
      ],
      "name": "SafeCastOverflowedUintDowncast",
      "type": "error"
    },
    {
      "inputs": [
        {
          "internalType": "string",
          "name": "str",
          "type": "string"
        }
      ],
      "name": "StringTooLong",
      "type": "error"
    },
    {
      "anonymous": false,
      "inputs": [],
      "name": "EIP712DomainChanged",
      "type": "event"
    },
    {
      "anonymous": false,
      "inputs": [
        {
          "indexed": false,
          "internalType": "uint256",
          "name": "proposalId",
          "type": "uint256"
        }
      ],
      "name": "ProposalCanceled",
      "type": "event"
    },
    {
      "anonymous": false,
      "inputs": [
        {
          "indexed": false,
          "internalType": "uint256",
          "name": "proposalId",
          "type": "uint256"
        },
        {
          "indexed": false,
          "internalType": "address",
          "name": "proposer",
          "type": "address"
        },
        {
          "indexed": false,
          "internalType": "address[]",
          "name": "targets",
          "type": "address[]"
        },
        {
          "indexed": false,
          "internalType": "uint256[]",
          "name": "values",
          "type": "uint256[]"
        },
        {
          "indexed": false,
          "internalType": "string[]",
          "name": "signatures",
          "type": "string[]"
        },
        {
          "indexed": false,
          "internalType": "bytes[]",
          "name": "calldatas",
          "type": "bytes[]"
        },
        {
          "indexed": false,
          "internalType": "uint256",
          "name": "voteStart",
          "type": "uint256"
        },
        {
          "indexed": false,
          "internalType": "uint256",
          "name": "voteEnd",
          "type": "uint256"
        },
        {
          "indexed": false,
          "internalType": "string",
          "name": "description",
          "type": "string"
        }
      ],
      "name": "ProposalCreated",
      "type": "event"
    },
    {
      "anonymous": false,
      "inputs": [
        {
          "indexed": false,
          "internalType": "uint256",
          "name": "proposalId",
          "type": "uint256"
        }
      ],
      "name": "ProposalExecuted",
      "type": "event"
    },
    {
      "anonymous": false,
      "inputs": [
        {
          "indexed": false,
          "internalType": "uint256",
          "name": "proposalId",
          "type": "uint256"
        },
        {
          "indexed": false,
          "internalType": "uint256",
          "name": "etaSeconds",
          "type": "uint256"
        }
      ],
      "name": "ProposalQueued",
      "type": "event"
    },
    {
      "anonymous": false,
      "inputs": [
        {
          "indexed": false,
          "internalType": "uint256",
          "name": "oldProposalThreshold",
          "type": "uint256"
        },
        {
          "indexed": false,
          "internalType": "uint256",
          "name": "newProposalThreshold",
          "type": "uint256"
        }
      ],
      "name": "ProposalThresholdSet",
      "type": "event"
    },
    {
      "anonymous": false,
      "inputs": [
        {
          "indexed": false,
          "internalType": "uint256",
          "name": "oldQuorumNumerator",
          "type": "uint256"
        },
        {
          "indexed": false,
          "internalType": "uint256",
          "name": "newQuorumNumerator",
          "type": "uint256"
        }
      ],
      "name": "QuorumNumeratorUpdated",
      "type": "event"
    },
    {
      "anonymous": false,
      "inputs": [
        {
          "indexed": false,
          "internalType": "address",
          "name": "oldTimelock",
          "type": "address"
        },
        {
          "indexed": false,
          "internalType": "address",
          "name": "newTimelock",
          "type": "address"
        }
      ],
      "name": "TimelockChange",
      "type": "event"
    },
    {
      "anonymous": false,
      "inputs": [
        {
          "indexed": true,
          "internalType": "address",
          "name": "voter",
          "type": "address"
        },
        {
          "indexed": false,
          "internalType": "uint256",
          "name": "proposalId",
          "type": "uint256"
        },
        {
          "indexed": false,
          "internalType": "uint8",
          "name": "support",
          "type": "uint8"
        },
        {
          "indexed": false,
          "internalType": "uint256",
          "name": "weight",
          "type": "uint256"
        },
        {
          "indexed": false,
          "internalType": "string",
          "name": "reason",
          "type": "string"
        }
      ],
      "name": "VoteCast",
      "type": "event"
    },
    {
      "anonymous": false,
      "inputs": [
        {
          "indexed": true,
          "internalType": "address",
          "name": "voter",
          "type": "address"
        },
        {
          "indexed": false,
          "internalType": "uint256",
          "name": "proposalId",
          "type": "uint256"
        },
        {
          "indexed": false,
          "internalType": "uint8",
          "name": "support",
          "type": "uint8"
        },
        {
          "indexed": false,
          "internalType": "uint256",
          "name": "weight",
          "type": "uint256"
        },
        {
          "indexed": false,
          "internalType": "string",
          "name": "reason",
          "type": "string"
        },
        {
          "indexed": false,
          "internalType": "bytes",
          "name": "params",
          "type": "bytes"
        }
      ],
      "name": "VoteCastWithParams",
      "type": "event"
    },
    {
      "anonymous": false,
      "inputs": [
        {
          "indexed": false,
          "internalType": "uint256",
          "name": "oldVotingDelay",
          "type": "uint256"
        },
        {
          "indexed": false,
          "internalType": "uint256",
          "name": "newVotingDelay",
          "type": "uint256"
        }
      ],
      "name": "VotingDelaySet",
      "type": "event"
    },
    {
      "anonymous": false,
      "inputs": [
        {
          "indexed": false,
          "internalType": "uint256",
          "name": "oldVotingPeriod",
          "type": "uint256"
        },
        {
          "indexed": false,
          "internalType": "uint256",
          "name": "newVotingPeriod",
          "type": "uint256"
        }
      ],
      "name": "VotingPeriodSet",
      "type": "event"
    },
    {
      "inputs": [],
      "name": "BALLOT_TYPEHASH",
      "outputs": [
        {
          "internalType": "bytes32",
          "name": "",
          "type": "bytes32"
        }
      ],
      "stateMutability": "view",
      "type": "function"
    },
    {
      "inputs": [],
      "name": "CLOCK_MODE",
      "outputs": [
        {
          "internalType": "string",
          "name": "",
          "type": "string"
        }
      ],
      "stateMutability": "view",
      "type": "function"
    },
    {
      "inputs": [],
      "name": "COUNTING_MODE",
      "outputs": [
        {
          "internalType": "string",
          "name": "",
          "type": "string"
        }
      ],
      "stateMutability": "pure",
      "type": "function"
    },
    {
      "inputs": [],
      "name": "EXTENDED_BALLOT_TYPEHASH",
      "outputs": [
        {
          "internalType": "bytes32",
          "name": "",
          "type": "bytes32"
        }
      ],
      "stateMutability": "view",
      "type": "function"
    },
    {
      "inputs": [
        {
          "internalType": "bytes",
          "name": "data",
          "type": "bytes"
        }
      ],
      "name": "bytesToString",
      "outputs": [
        {
          "internalType": "string",
          "name": "",
          "type": "string"
        }
      ],
      "stateMutability": "pure",
      "type": "function"
    },
    {
      "inputs": [
        {
          "internalType": "address[]",
          "name": "targets",
          "type": "address[]"
        },
        {
          "internalType": "uint256[]",
          "name": "values",
          "type": "uint256[]"
        },
        {
          "internalType": "bytes[]",
          "name": "calldatas",
          "type": "bytes[]"
        },
        {
          "internalType": "bytes32",
          "name": "descriptionHash",
          "type": "bytes32"
        }
      ],
      "name": "cancel",
      "outputs": [
        {
          "internalType": "uint256",
          "name": "",
          "type": "uint256"
        }
      ],
      "stateMutability": "nonpayable",
      "type": "function"
    },
    {
      "inputs": [
        {
          "internalType": "uint256",
          "name": "proposalId",
          "type": "uint256"
        },
        {
          "internalType": "uint8",
          "name": "support",
          "type": "uint8"
        }
      ],
      "name": "castVote",
      "outputs": [
        {
          "internalType": "uint256",
          "name": "",
          "type": "uint256"
        }
      ],
      "stateMutability": "nonpayable",
      "type": "function"
    },
    {
      "inputs": [
        {
          "internalType": "uint256",
          "name": "proposalId",
          "type": "uint256"
        },
        {
          "internalType": "uint8",
          "name": "support",
          "type": "uint8"
        },
        {
          "internalType": "address",
          "name": "voter",
          "type": "address"
        },
        {
          "internalType": "bytes",
          "name": "signature",
          "type": "bytes"
        }
      ],
      "name": "castVoteBySig",
      "outputs": [
        {
          "internalType": "uint256",
          "name": "",
          "type": "uint256"
        }
      ],
      "stateMutability": "nonpayable",
      "type": "function"
    },
    {
      "inputs": [
        {
          "internalType": "uint256",
          "name": "proposalId",
          "type": "uint256"
        },
        {
          "internalType": "uint8",
          "name": "support",
          "type": "uint8"
        },
        {
          "internalType": "string",
          "name": "reason",
          "type": "string"
        }
      ],
      "name": "castVoteWithReason",
      "outputs": [
        {
          "internalType": "uint256",
          "name": "",
          "type": "uint256"
        }
      ],
      "stateMutability": "nonpayable",
      "type": "function"
    },
    {
      "inputs": [
        {
          "internalType": "uint256",
          "name": "proposalId",
          "type": "uint256"
        },
        {
          "internalType": "uint8",
          "name": "support",
          "type": "uint8"
        },
        {
          "internalType": "string",
          "name": "reason",
          "type": "string"
        },
        {
          "internalType": "bytes",
          "name": "params",
          "type": "bytes"
        }
      ],
      "name": "castVoteWithReasonAndParams",
      "outputs": [
        {
          "internalType": "uint256",
          "name": "",
          "type": "uint256"
        }
      ],
      "stateMutability": "nonpayable",
      "type": "function"
    },
    {
      "inputs": [
        {
          "internalType": "uint256",
          "name": "proposalId",
          "type": "uint256"
        },
        {
          "internalType": "uint8",
          "name": "support",
          "type": "uint8"
        },
        {
          "internalType": "address",
          "name": "voter",
          "type": "address"
        },
        {
          "internalType": "string",
          "name": "reason",
          "type": "string"
        },
        {
          "internalType": "bytes",
          "name": "params",
          "type": "bytes"
        },
        {
          "internalType": "bytes",
          "name": "signature",
          "type": "bytes"
        }
      ],
      "name": "castVoteWithReasonAndParamsBySig",
      "outputs": [
        {
          "internalType": "uint256",
          "name": "",
          "type": "uint256"
        }
      ],
      "stateMutability": "nonpayable",
      "type": "function"
    },
    {
      "inputs": [],
      "name": "clock",
      "outputs": [
        {
          "internalType": "uint48",
          "name": "",
          "type": "uint48"
        }
      ],
      "stateMutability": "view",
      "type": "function"
    },
    {
      "inputs": [],
      "name": "eip712Domain",
      "outputs": [
        {
          "internalType": "bytes1",
          "name": "fields",
          "type": "bytes1"
        },
        {
          "internalType": "string",
          "name": "name",
          "type": "string"
        },
        {
          "internalType": "string",
          "name": "version",
          "type": "string"
        },
        {
          "internalType": "uint256",
          "name": "chainId",
          "type": "uint256"
        },
        {
          "internalType": "address",
          "name": "verifyingContract",
          "type": "address"
        },
        {
          "internalType": "bytes32",
          "name": "salt",
          "type": "bytes32"
        },
        {
          "internalType": "uint256[]",
          "name": "extensions",
          "type": "uint256[]"
        }
      ],
      "stateMutability": "view",
      "type": "function"
    },
    {
      "inputs": [
        {
          "internalType": "address[]",
          "name": "targets",
          "type": "address[]"
        },
        {
          "internalType": "uint256[]",
          "name": "values",
          "type": "uint256[]"
        },
        {
          "internalType": "bytes[]",
          "name": "calldatas",
          "type": "bytes[]"
        },
        {
          "internalType": "bytes32",
          "name": "descriptionHash",
          "type": "bytes32"
        }
      ],
      "name": "execute",
      "outputs": [
        {
          "internalType": "uint256",
          "name": "",
          "type": "uint256"
        }
      ],
      "stateMutability": "payable",
      "type": "function"
    },
    {
      "inputs": [],
      "name": "getName",
      "outputs": [
        {
          "internalType": "string",
          "name": "",
          "type": "string"
        }
      ],
      "stateMutability": "view",
      "type": "function"
    },
    {
      "inputs": [
        {
          "internalType": "address",
          "name": "account",
          "type": "address"
        },
        {
          "internalType": "uint256",
          "name": "timepoint",
          "type": "uint256"
        }
      ],
      "name": "getVotes",
      "outputs": [
        {
          "internalType": "uint256",
          "name": "",
          "type": "uint256"
        }
      ],
      "stateMutability": "view",
      "type": "function"
    },
    {
      "inputs": [
        {
          "internalType": "address",
          "name": "account",
          "type": "address"
        },
        {
          "internalType": "uint256",
          "name": "timepoint",
          "type": "uint256"
        },
        {
          "internalType": "bytes",
          "name": "params",
          "type": "bytes"
        }
      ],
      "name": "getVotesWithParams",
      "outputs": [
        {
          "internalType": "uint256",
          "name": "",
          "type": "uint256"
        }
      ],
      "stateMutability": "view",
      "type": "function"
    },
    {
      "inputs": [
        {
          "internalType": "uint256",
          "name": "proposalId",
          "type": "uint256"
        },
        {
          "internalType": "address",
          "name": "account",
          "type": "address"
        }
      ],
      "name": "hasVoted",
      "outputs": [
        {
          "internalType": "bool",
          "name": "",
          "type": "bool"
        }
      ],
      "stateMutability": "view",
      "type": "function"
    },
    {
      "inputs": [
        {
          "internalType": "address[]",
          "name": "targets",
          "type": "address[]"
        },
        {
          "internalType": "uint256[]",
          "name": "values",
          "type": "uint256[]"
        },
        {
          "internalType": "bytes[]",
          "name": "calldatas",
          "type": "bytes[]"
        },
        {
          "internalType": "bytes32",
          "name": "descriptionHash",
          "type": "bytes32"
        }
      ],
      "name": "hashProposal",
      "outputs": [
        {
          "internalType": "uint256",
          "name": "",
          "type": "uint256"
        }
      ],
      "stateMutability": "pure",
      "type": "function"
    },
    {
      "inputs": [],
      "name": "name",
      "outputs": [
        {
          "internalType": "string",
          "name": "",
          "type": "string"
        }
      ],
      "stateMutability": "view",
      "type": "function"
    },
    {
      "inputs": [
        {
          "internalType": "address",
          "name": "owner",
          "type": "address"
        }
      ],
      "name": "nonces",
      "outputs": [
        {
          "internalType": "uint256",
          "name": "",
          "type": "uint256"
        }
      ],
      "stateMutability": "view",
      "type": "function"
    },
    {
      "inputs": [
        {
          "internalType": "address",
          "name": "",
          "type": "address"
        },
        {
          "internalType": "address",
          "name": "",
          "type": "address"
        },
        {
          "internalType": "uint256[]",
          "name": "",
          "type": "uint256[]"
        },
        {
          "internalType": "uint256[]",
          "name": "",
          "type": "uint256[]"
        },
        {
          "internalType": "bytes",
          "name": "",
          "type": "bytes"
        }
      ],
      "name": "onERC1155BatchReceived",
      "outputs": [
        {
          "internalType": "bytes4",
          "name": "",
          "type": "bytes4"
        }
      ],
      "stateMutability": "nonpayable",
      "type": "function"
    },
    {
      "inputs": [
        {
          "internalType": "address",
          "name": "",
          "type": "address"
        },
        {
          "internalType": "address",
          "name": "",
          "type": "address"
        },
        {
          "internalType": "uint256",
          "name": "",
          "type": "uint256"
        },
        {
          "internalType": "uint256",
          "name": "",
          "type": "uint256"
        },
        {
          "internalType": "bytes",
          "name": "",
          "type": "bytes"
        }
      ],
      "name": "onERC1155Received",
      "outputs": [
        {
          "internalType": "bytes4",
          "name": "",
          "type": "bytes4"
        }
      ],
      "stateMutability": "nonpayable",
      "type": "function"
    },
    {
      "inputs": [
        {
          "internalType": "address",
          "name": "",
          "type": "address"
        },
        {
          "internalType": "address",
          "name": "",
          "type": "address"
        },
        {
          "internalType": "uint256",
          "name": "",
          "type": "uint256"
        },
        {
          "internalType": "bytes",
          "name": "",
          "type": "bytes"
        }
      ],
      "name": "onERC721Received",
      "outputs": [
        {
          "internalType": "bytes4",
          "name": "",
          "type": "bytes4"
        }
      ],
      "stateMutability": "nonpayable",
      "type": "function"
    },
    {
      "inputs": [
        {
          "internalType": "uint256",
          "name": "proposalId",
          "type": "uint256"
        }
      ],
      "name": "proposalDeadline",
      "outputs": [
        {
          "internalType": "uint256",
          "name": "",
          "type": "uint256"
        }
      ],
      "stateMutability": "view",
      "type": "function"
    },
    {
      "inputs": [
        {
          "internalType": "uint256",
          "name": "proposalId",
          "type": "uint256"
        }
      ],
      "name": "proposalEta",
      "outputs": [
        {
          "internalType": "uint256",
          "name": "",
          "type": "uint256"
        }
      ],
      "stateMutability": "view",
      "type": "function"
    },
    {
      "inputs": [
        {
          "internalType": "uint256",
          "name": "proposalId",
          "type": "uint256"
        }
      ],
      "name": "proposalNeedsQueuing",
      "outputs": [
        {
          "internalType": "bool",
          "name": "",
          "type": "bool"
        }
      ],
      "stateMutability": "view",
      "type": "function"
    },
    {
      "inputs": [
        {
          "internalType": "uint256",
          "name": "proposalId",
          "type": "uint256"
        }
      ],
      "name": "proposalProposer",
      "outputs": [
        {
          "internalType": "address",
          "name": "",
          "type": "address"
        }
      ],
      "stateMutability": "view",
      "type": "function"
    },
    {
      "inputs": [
        {
          "internalType": "uint256",
          "name": "proposalId",
          "type": "uint256"
        }
      ],
      "name": "proposalSnapshot",
      "outputs": [
        {
          "internalType": "uint256",
          "name": "",
          "type": "uint256"
        }
      ],
      "stateMutability": "view",
      "type": "function"
    },
    {
      "inputs": [],
      "name": "proposalThreshold",
      "outputs": [
        {
          "internalType": "uint256",
          "name": "",
          "type": "uint256"
        }
      ],
      "stateMutability": "view",
      "type": "function"
    },
    {
      "inputs": [
        {
          "internalType": "uint256",
          "name": "proposalId",
          "type": "uint256"
        }
      ],
      "name": "proposalVotes",
      "outputs": [
        {
          "internalType": "uint256",
          "name": "againstVotes",
          "type": "uint256"
        },
        {
          "internalType": "uint256",
          "name": "forVotes",
          "type": "uint256"
        },
        {
          "internalType": "uint256",
          "name": "abstainVotes",
          "type": "uint256"
        }
      ],
      "stateMutability": "view",
      "type": "function"
    },
    {
      "inputs": [
        {
          "internalType": "address[]",
          "name": "targets",
          "type": "address[]"
        },
        {
          "internalType": "uint256[]",
          "name": "values",
          "type": "uint256[]"
        },
        {
          "internalType": "bytes[]",
          "name": "calldatas",
          "type": "bytes[]"
        },
        {
          "internalType": "string",
          "name": "description",
          "type": "string"
        }
      ],
      "name": "propose",
      "outputs": [
        {
          "internalType": "uint256",
          "name": "",
          "type": "uint256"
        }
      ],
      "stateMutability": "nonpayable",
      "type": "function"
    },
    {
      "inputs": [
        {
          "internalType": "address[]",
          "name": "targets",
          "type": "address[]"
        },
        {
          "internalType": "uint256[]",
          "name": "values",
          "type": "uint256[]"
        },
        {
          "internalType": "bytes[]",
          "name": "calldatas",
          "type": "bytes[]"
        },
        {
          "internalType": "bytes32",
          "name": "descriptionHash",
          "type": "bytes32"
        }
      ],
      "name": "queue",
      "outputs": [
        {
          "internalType": "uint256",
          "name": "",
          "type": "uint256"
        }
      ],
      "stateMutability": "nonpayable",
      "type": "function"
    },
    {
      "inputs": [
        {
          "internalType": "uint256",
          "name": "blockNumber",
          "type": "uint256"
        }
      ],
      "name": "quorum",
      "outputs": [
        {
          "internalType": "uint256",
          "name": "",
          "type": "uint256"
        }
      ],
      "stateMutability": "view",
      "type": "function"
    },
    {
      "inputs": [],
      "name": "quorumDenominator",
      "outputs": [
        {
          "internalType": "uint256",
          "name": "",
          "type": "uint256"
        }
      ],
      "stateMutability": "view",
      "type": "function"
    },
    {
      "inputs": [
        {
          "internalType": "uint256",
          "name": "timepoint",
          "type": "uint256"
        }
      ],
      "name": "quorumNumerator",
      "outputs": [
        {
          "internalType": "uint256",
          "name": "",
          "type": "uint256"
        }
      ],
      "stateMutability": "view",
      "type": "function"
    },
    {
      "inputs": [],
      "name": "quorumNumerator",
      "outputs": [
        {
          "internalType": "uint256",
          "name": "",
          "type": "uint256"
        }
      ],
      "stateMutability": "view",
      "type": "function"
    },
    {
      "inputs": [
        {
          "internalType": "address",
          "name": "target",
          "type": "address"
        },
        {
          "internalType": "uint256",
          "name": "value",
          "type": "uint256"
        },
        {
          "internalType": "bytes",
          "name": "data",
          "type": "bytes"
        }
      ],
      "name": "relay",
      "outputs": [],
      "stateMutability": "payable",
      "type": "function"
    },
    {
      "inputs": [
        {
          "internalType": "uint256",
          "name": "newProposalThreshold",
          "type": "uint256"
        }
      ],
      "name": "setProposalThreshold",
      "outputs": [],
      "stateMutability": "nonpayable",
      "type": "function"
    },
    {
      "inputs": [
        {
          "internalType": "uint48",
          "name": "newVotingDelay",
          "type": "uint48"
        }
      ],
      "name": "setVotingDelay",
      "outputs": [],
      "stateMutability": "nonpayable",
      "type": "function"
    },
    {
      "inputs": [
        {
          "internalType": "uint32",
          "name": "newVotingPeriod",
          "type": "uint32"
        }
      ],
      "name": "setVotingPeriod",
      "outputs": [],
      "stateMutability": "nonpayable",
      "type": "function"
    },
    {
      "inputs": [
        {
          "internalType": "uint256",
          "name": "proposalId",
          "type": "uint256"
        }
      ],
      "name": "state",
      "outputs": [
        {
          "internalType": "enum IGovernor.ProposalState",
          "name": "",
          "type": "uint8"
        }
      ],
      "stateMutability": "view",
      "type": "function"
    },
    {
      "inputs": [
        {
          "internalType": "bytes4",
          "name": "interfaceId",
          "type": "bytes4"
        }
      ],
      "name": "supportsInterface",
      "outputs": [
        {
          "internalType": "bool",
          "name": "",
          "type": "bool"
        }
      ],
      "stateMutability": "view",
      "type": "function"
    },
    {
      "inputs": [],
      "name": "timelock",
      "outputs": [
        {
          "internalType": "address",
          "name": "",
          "type": "address"
        }
      ],
      "stateMutability": "view",
      "type": "function"
    },
    {
      "inputs": [],
      "name": "token",
      "outputs": [
        {
          "internalType": "contract IERC5805",
          "name": "",
          "type": "address"
        }
      ],
      "stateMutability": "view",
      "type": "function"
    },
    {
      "inputs": [
        {
          "internalType": "uint256",
          "name": "newQuorumNumerator",
          "type": "uint256"
        }
      ],
      "name": "updateQuorumNumerator",
      "outputs": [],
      "stateMutability": "nonpayable",
      "type": "function"
    },
    {
      "inputs": [
        {
          "internalType": "contract TimelockController",
          "name": "newTimelock",
          "type": "address"
        }
      ],
      "name": "updateTimelock",
      "outputs": [],
      "stateMutability": "nonpayable",
      "type": "function"
    },
    {
      "inputs": [],
      "name": "version",
      "outputs": [
        {
          "internalType": "string",
          "name": "",
          "type": "string"
        }
      ],
      "stateMutability": "view",
      "type": "function"
    },
    {
      "inputs": [],
      "name": "votingDelay",
      "outputs": [
        {
          "internalType": "uint256",
          "name": "",
          "type": "uint256"
        }
      ],
      "stateMutability": "view",
      "type": "function"
    },
    {
      "inputs": [],
      "name": "votingPeriod",
      "outputs": [
        {
          "internalType": "uint256",
          "name": "",
          "type": "uint256"
        }
      ],
      "stateMutability": "view",
      "type": "function"
    },
    {
      "stateMutability": "payable",
      "type": "receive"
    }
  ],
  "bytecode": "0x61018060405234801561001157600080fd5b50604051618b85380380618b8583398181016040528101906100339190610cff565b836006868585856040518060400160405280600a81526020017f4d79476f7665726e6f72000000000000000000000000000000000000000000008152508061007f6101ca60201b60201c565b61009360008361020760201b90919060201c565b61012081815250506100af60018261020760201b90919060201c565b6101408181525050818051906020012060e08181525050808051906020012061010081815250504660a081815250506100ec61025760201b60201c565b608081815250503073ffffffffffffffffffffffffffffffffffffffff1660c08173ffffffffffffffffffffffffffffffffffffffff1681525050505080600390816101389190610fc0565b5050610149836102b260201b60201c565b6101588261032760201b60201c565b610167816103e260201b60201c565b5050508073ffffffffffffffffffffffffffffffffffffffff166101608173ffffffffffffffffffffffffffffffffffffffff1681525050506101af8161042760201b60201c565b506101bf8161050360201b60201c565b50505050505061151b565b60606040518060400160405280600181526020017f3100000000000000000000000000000000000000000000000000000000000000815250905090565b600060208351101561022957610222836105a260201b60201c565b9050610251565b826102398361060a60201b60201c565b60000190816102489190610fc0565b5060ff60001b90505b92915050565b60007f8b73c3c69bb8fe3d512ecc4cf759cc79239f7b179b0ffacaa9a75d522b39400f60e0516101005146306040516020016102979594939291906110c9565b60405160208183030381529060405280519060200120905090565b7fc565b045403dc03c2eea82b81a0465edad9e2e7fc4d97e11421c209da93d7a93600860009054906101000a900465ffffffffffff16826040516102f792919061114d565b60405180910390a180600860006101000a81548165ffffffffffff021916908365ffffffffffff16021790555050565b60008163ffffffff16036103735760006040517ff1cfbf0500000000000000000000000000000000000000000000000000000000815260040161036a91906111b1565b60405180910390fd5b7f7e3f7f0708a84de9203036abaa450dccc85ad5ff52f78c170f3edb55cf5e8828600860069054906101000a900463ffffffff16826040516103b69291906111fd565b60405180910390a180600860066101000a81548163ffffffff021916908363ffffffff16021790555050565b7fccb45da8d5717e6c4544694297c4ba5cf151d455c9bb0ed4fc7a38411bc0546160075482604051610415929190611226565b60405180910390a18060078190555050565b600061043761061460201b60201c565b9050808211156104805781816040517f243e5445000000000000000000000000000000000000000000000000000000008152600401610477929190611226565b60405180910390fd5b600061049061061d60201b60201c565b90506104c36104a361065060201b60201c565b6104b2856106e860201b60201c565b600a61075660201b9092919060201c565b50507f0553476bf02ef2726e8ce5ced78d63e26e602e4a2257b1f559418e24b463399781846040516104f6929190611226565b60405180910390a1505050565b7f08f74ea46ef7894f65eabfb5e6e695de773a000b47c529ab559178069b226401600b60009054906101000a900473ffffffffffffffffffffffffffffffffffffffff168260405161055692919061124f565b60405180910390a180600b60006101000a81548173ffffffffffffffffffffffffffffffffffffffff021916908373ffffffffffffffffffffffffffffffffffffffff16021790555050565b600080829050601f815111156105ef57826040517f305a27a90000000000000000000000000000000000000000000000000000000081526004016105e691906112fd565b60405180910390fd5b8051816105fb9061134f565b60001c1760001b915050919050565b6000819050919050565b60006064905090565b600061062f600a61077960201b60201c565b79ffffffffffffffffffffffffffffffffffffffffffffffffffff16905090565b60006106606107e760201b60201c565b73ffffffffffffffffffffffffffffffffffffffff166391ddadf46040518163ffffffff1660e01b8152600401602060405180830381865afa9250505080156106c757506040513d601f19601f820116820180604052508101906106c491906113b6565b60015b6106e0576106d96107f260201b60201c565b90506106e5565b809150505b90565b600079ffffffffffffffffffffffffffffffffffffffffffffffffffff801682111561074e5760d0826040517f6dfcc65000000000000000000000000000000000000000000000000000000000815260040161074592919061142b565b60405180910390fd5b819050919050565b60008061076d85600001858561080860201b60201c565b91509150935093915050565b60008082600001805490509050600081146107dc576107ad836000016001836107a29190611483565b610b1b60201b60201c565b60000160069054906101000a900479ffffffffffffffffffffffffffffffffffffffffffffffffffff166107df565b60005b915050919050565b600061016051905090565b600061080343610b3060201b60201c565b905090565b6000806000858054905090506000811115610a2b57600061083b876001846108309190611483565b610b1b60201b60201c565b905060008160000160009054906101000a900465ffffffffffff16905060008260000160069054906101000a900479ffffffffffffffffffffffffffffffffffffffffffffffffffff1690508765ffffffffffff168265ffffffffffff1611156108d1576040517f2520601d00000000000000000000000000000000000000000000000000000000815260040160405180910390fd5b8765ffffffffffff168265ffffffffffff160361093c57868360000160066101000a81548179ffffffffffffffffffffffffffffffffffffffffffffffffffff021916908379ffffffffffffffffffffffffffffffffffffffffffffffffffff160217905550610a1c565b8860405180604001604052808a65ffffffffffff1681526020018979ffffffffffffffffffffffffffffffffffffffffffffffffffff168152509080600181540180825580915050600190039060005260206000200160009091909190915060008201518160000160006101000a81548165ffffffffffff021916908365ffffffffffff16021790555060208201518160000160066101000a81548179ffffffffffffffffffffffffffffffffffffffffffffffffffff021916908379ffffffffffffffffffffffffffffffffffffffffffffffffffff16021790555050505b80879550955050505050610b13565b8560405180604001604052808765ffffffffffff1681526020018679ffffffffffffffffffffffffffffffffffffffffffffffffffff168152509080600181540180825580915050600190039060005260206000200160009091909190915060008201518160000160006101000a81548165ffffffffffff021916908365ffffffffffff16021790555060208201518160000160066101000a81548179ffffffffffffffffffffffffffffffffffffffffffffffffffff021916908379ffffffffffffffffffffffffffffffffffffffffffffffffffff160217905550505060008492509250505b935093915050565b60008260005281602060002001905092915050565b600065ffffffffffff8016821115610b82576030826040517f6dfcc650000000000000000000000000000000000000000000000000000000008152600401610b799291906114f2565b60405180910390fd5b819050919050565b600080fd5b600073ffffffffffffffffffffffffffffffffffffffff82169050919050565b6000610bba82610b8f565b9050919050565b6000610bcc82610baf565b9050919050565b610bdc81610bc1565b8114610be757600080fd5b50565b600081519050610bf981610bd3565b92915050565b6000610c0a82610b8f565b9050919050565b6000610c1c82610bff565b9050919050565b610c2c81610c11565b8114610c3757600080fd5b50565b600081519050610c4981610c23565b92915050565b600065ffffffffffff82169050919050565b610c6a81610c4f565b8114610c7557600080fd5b50565b600081519050610c8781610c61565b92915050565b600063ffffffff82169050919050565b610ca681610c8d565b8114610cb157600080fd5b50565b600081519050610cc381610c9d565b92915050565b6000819050919050565b610cdc81610cc9565b8114610ce757600080fd5b50565b600081519050610cf981610cd3565b92915050565b600080600080600060a08688031215610d1b57610d1a610b8a565b5b6000610d2988828901610bea565b9550506020610d3a88828901610c3a565b9450506040610d4b88828901610c78565b9350506060610d5c88828901610cb4565b9250506080610d6d88828901610cea565b9150509295509295909350565b600081519050919050565b7f4e487b7100000000000000000000000000000000000000000000000000000000600052604160045260246000fd5b7f4e487b7100000000000000000000000000000000000000000000000000000000600052602260045260246000fd5b60006002820490506001821680610dfb57607f821691505b602082108103610e0e57610e0d610db4565b5b50919050565b60008190508160005260206000209050919050565b60006020601f8301049050919050565b600082821b905092915050565b600060088302610e767fffffffffffffffffffffffffffffffffffffffffffffffffffffffffffffffff82610e39565b610e808683610e39565b95508019841693508086168417925050509392505050565b6000819050919050565b6000610ebd610eb8610eb384610cc9565b610e98565b610cc9565b9050919050565b6000819050919050565b610ed783610ea2565b610eeb610ee382610ec4565b848454610e46565b825550505050565b600090565b610f00610ef3565b610f0b818484610ece565b505050565b5b81811015610f2f57610f24600082610ef8565b600181019050610f11565b5050565b601f821115610f7457610f4581610e14565b610f4e84610e29565b81016020851015610f5d578190505b610f71610f6985610e29565b830182610f10565b50505b505050565b600082821c905092915050565b6000610f9760001984600802610f79565b1980831691505092915050565b6000610fb08383610f86565b9150826002028217905092915050565b610fc982610d7a565b67ffffffffffffffff811115610fe257610fe1610d85565b5b610fec8254610de3565b610ff7828285610f33565b600060209050601f83116001811461102a5760008415611018578287015190505b6110228582610fa4565b86555061108a565b601f19841661103886610e14565b60005b828110156110605784890151825560018201915060208501945060208101905061103b565b8683101561107d5784890151611079601f891682610f86565b8355505b6001600288020188555050505b505050505050565b6000819050919050565b6110a581611092565b82525050565b6110b481610cc9565b82525050565b6110c381610baf565b82525050565b600060a0820190506110de600083018861109c565b6110eb602083018761109c565b6110f8604083018661109c565b61110560608301856110ab565b61111260808301846110ba565b9695505050505050565b600061113761113261112d84610c4f565b610e98565b610cc9565b9050919050565b6111478161111c565b82525050565b6000604082019050611162600083018561113e565b61116f602083018461113e565b9392505050565b6000819050919050565b600061119b61119661119184611176565b610e98565b610cc9565b9050919050565b6111ab81611180565b82525050565b60006020820190506111c660008301846111a2565b92915050565b60006111e76111e26111dd84610c8d565b610e98565b610cc9565b9050919050565b6111f7816111cc565b82525050565b600060408201905061121260008301856111ee565b61121f60208301846111ee565b9392505050565b600060408201905061123b60008301856110ab565b61124860208301846110ab565b9392505050565b600060408201905061126460008301856110ba565b61127160208301846110ba565b9392505050565b600082825260208201905092915050565b60005b838110156112a757808201518184015260208101905061128c565b60008484015250505050565b6000601f19601f8301169050919050565b60006112cf82610d7a565b6112d98185611278565b93506112e9818560208601611289565b6112f2816112b3565b840191505092915050565b6000602082019050818103600083015261131781846112c4565b905092915050565b600081519050919050565b6000819050602082019050919050565b60006113468251611092565b80915050919050565b600061135a8261131f565b826113648461132a565b905061136f8161133a565b925060208210156113af576113aa7fffffffffffffffffffffffffffffffffffffffffffffffffffffffffffffffff83602003600802610e39565b831692505b5050919050565b6000602082840312156113cc576113cb610b8a565b5b60006113da84828501610c78565b91505092915050565b6000819050919050565b600060ff82169050919050565b600061141561141061140b846113e3565b610e98565b6113ed565b9050919050565b611425816113fa565b82525050565b6000604082019050611440600083018561141c565b61144d60208301846110ab565b9392505050565b7f4e487b7100000000000000000000000000000000000000000000000000000000600052601160045260246000fd5b600061148e82610cc9565b915061149983610cc9565b92508282039050818111156114b1576114b0611454565b5b92915050565b6000819050919050565b60006114dc6114d76114d2846114b7565b610e98565b6113ed565b9050919050565b6114ec816114c1565b82525050565b600060408201905061150760008301856114e3565b61151460208301846110ab565b9392505050565b60805160a05160c05160e051610100516101205161014051610160516176056115806000396000611e6501526000612d0501526000612cca01526000614ab001526000614a8f01526000613958015260006139ae015260006139d701526176056000f3fe6080604052600436106102cd5760003560e01c80637d5e81e211610175578063bc197c81116100dc578063deaaa7cc11610095578063ece40cc11161006f578063ece40cc114610cb7578063f23a6e6114610ce0578063f8ce560a14610d1d578063fc0c546a14610d5a57610340565b8063deaaa7cc14610c26578063e540d01d14610c51578063eb9019d414610c7a57610340565b8063bc197c8114610afd578063c01f9e3714610b3a578063c28bc2fa14610b77578063c59057e414610b93578063d33219b414610bd0578063dd4e2ba514610bfb57610340565b80639a802a6d1161012e5780639a802a6d146109c7578063a7713a7014610a04578063a890c91014610a2f578063a9a9529414610a58578063ab58fb8e14610a95578063b58131b014610ad257610340565b80637d5e81e2146108895780637ecebe00146108c657806384b0196e146109035780638ff262e31461093457806391ddadf41461097157806397c3d3341461099c57610340565b806339614e4f1161023457806354fd4d50116101ed5780635f398a14116101c75780635f398a14146107a957806360c4247f146107e657806379051887146108235780637b3c71d31461084c57610340565b806354fd4d5014610704578063567813881461072f5780635b8d0e0d1461076c57610340565b806339614e4f146105a65780633e4f49e6146105e35780634385963214610620578063452115d61461065d5780634bf5d7e91461069a578063544ffc9c146106c557610340565b8063160cbed711610286578063160cbed71461047b57806317d7de7c146104b85780632656227d146104e35780632d63f693146105135780632fe3e261146105505780633932abb11461057b57610340565b806301ffc9a71461034557806302a251a31461038257806306f3f9e6146103ad57806306fdde03146103d6578063143489d014610401578063150b7a021461043e57610340565b36610340573073ffffffffffffffffffffffffffffffffffffffff166102f1610d85565b73ffffffffffffffffffffffffffffffffffffffff161461033e576040517fe90a651e00000000000000000000000000000000000000000000000000000000815260040160405180910390fd5b005b600080fd5b34801561035157600080fd5b5061036c60048036038101906103679190614eee565b610d94565b6040516103799190614f36565b60405180910390f35b34801561038e57600080fd5b50610397610e76565b6040516103a49190614f6a565b60405180910390f35b3480156103b957600080fd5b506103d460048036038101906103cf9190614fb1565b610e85565b005b3480156103e257600080fd5b506103eb610e99565b6040516103f8919061506e565b60405180910390f35b34801561040d57600080fd5b5061042860048036038101906104239190614fb1565b610f2b565b60405161043591906150d1565b60405180910390f35b34801561044a57600080fd5b506104656004803603810190610460919061524d565b610f6b565b60405161047291906152df565b60405180910390f35b34801561048757600080fd5b506104a2600480360381019061049d919061559c565b610feb565b6040516104af9190614f6a565b60405180910390f35b3480156104c457600080fd5b506104cd6110e7565b6040516104da919061506e565b60405180910390f35b6104fd60048036038101906104f8919061559c565b611149565b60405161050a9190614f6a565b60405180910390f35b34801561051f57600080fd5b5061053a60048036038101906105359190614fb1565b611161565b6040516105479190614f6a565b60405180910390f35b34801561055c57600080fd5b5061056561119b565b6040516105729190615666565b60405180910390f35b34801561058757600080fd5b506105906111bf565b60405161059d9190614f6a565b60405180910390f35b3480156105b257600080fd5b506105cd60048036038101906105c89190615681565b6111ce565b6040516105da919061506e565b60405180910390f35b3480156105ef57600080fd5b5061060a60048036038101906106059190614fb1565b6111d8565b6040516106179190615741565b60405180910390f35b34801561062c57600080fd5b506106476004803603810190610642919061575c565b6111ea565b6040516106549190614f36565b60405180910390f35b34801561066957600080fd5b50610684600480360381019061067f919061559c565b611255565b6040516106919190614f6a565b60405180910390f35b3480156106a657600080fd5b506106af61139c565b6040516106bc919061506e565b60405180910390f35b3480156106d157600080fd5b506106ec60048036038101906106e79190614fb1565b61145b565b6040516106fb9392919061579c565b60405180910390f35b34801561071057600080fd5b50610719611493565b604051610726919061506e565b60405180910390f35b34801561073b57600080fd5b506107566004803603810190610751919061580c565b6114d0565b6040516107639190614f6a565b60405180910390f35b34801561077857600080fd5b50610793600480360381019061078e91906158a7565b611501565b6040516107a09190614f6a565b60405180910390f35b3480156107b557600080fd5b506107d060048036038101906107cb919061598e565b611632565b6040516107dd9190614f6a565b60405180910390f35b3480156107f257600080fd5b5061080d60048036038101906108089190614fb1565b61169c565b60405161081a9190614f6a565b60405180910390f35b34801561082f57600080fd5b5061084a60048036038101906108459190615a70565b6117a0565b005b34801561085857600080fd5b50610873600480360381019061086e9190615a9d565b6117b4565b6040516108809190614f6a565b60405180910390f35b34801561089557600080fd5b506108b060048036038101906108ab9190615bb2565b61181c565b6040516108bd9190614f6a565b60405180910390f35b3480156108d257600080fd5b506108ed60048036038101906108e89190615c89565b611834565b6040516108fa9190614f6a565b60405180910390f35b34801561090f57600080fd5b5061091861187d565b60405161092b9796959493929190615daf565b60405180910390f35b34801561094057600080fd5b5061095b60048036038101906109569190615e33565b611927565b6040516109689190614f6a565b60405180910390f35b34801561097d57600080fd5b506109866119fd565b6040516109939190615ec5565b60405180910390f35b3480156109a857600080fd5b506109b1611a89565b6040516109be9190614f6a565b60405180910390f35b3480156109d357600080fd5b506109ee60048036038101906109e99190615ee0565b611a92565b6040516109fb9190614f6a565b60405180910390f35b348015610a1057600080fd5b50610a19611aa8565b604051610a269190614f6a565b60405180910390f35b348015610a3b57600080fd5b50610a566004803603810190610a519190615f9f565b611ad5565b005b348015610a6457600080fd5b50610a7f6004803603810190610a7a9190614fb1565b611ae9565b604051610a8c9190614f36565b60405180910390f35b348015610aa157600080fd5b50610abc6004803603810190610ab79190614fb1565b611afb565b604051610ac99190614f6a565b60405180910390f35b348015610ade57600080fd5b50610ae7611b35565b604051610af49190614f6a565b60405180910390f35b348015610b0957600080fd5b50610b246004803603810190610b1f9190615fcc565b611b44565b604051610b3191906152df565b60405180910390f35b348015610b4657600080fd5b50610b616004803603810190610b5c9190614fb1565b611bc5565b604051610b6e9190614f6a565b60405180910390f35b610b916004803603810190610b8c91906160f1565b611c36565b005b348015610b9f57600080fd5b50610bba6004803603810190610bb5919061559c565b611cc3565b604051610bc79190614f6a565b60405180910390f35b348015610bdc57600080fd5b50610be5611cff565b604051610bf291906150d1565b60405180910390f35b348015610c0757600080fd5b50610c10611d29565b604051610c1d919061506e565b60405180910390f35b348015610c3257600080fd5b50610c3b611d66565b604051610c489190615666565b60405180910390f35b348015610c5d57600080fd5b50610c786004803603810190610c7391906161a1565b611d8a565b005b348015610c8657600080fd5b50610ca16004803603810190610c9c91906161ce565b611d9e565b604051610cae9190614f6a565b60405180910390f35b348015610cc357600080fd5b50610cde6004803603810190610cd99190614fb1565b611dba565b005b348015610cec57600080fd5b50610d076004803603810190610d02919061620e565b611dce565b604051610d1491906152df565b60405180910390f35b348015610d2957600080fd5b50610d446004803603810190610d3f9190614fb1565b611e4f565b604051610d519190614f6a565b60405180910390f35b348015610d6657600080fd5b50610d6f611e61565b604051610d7c9190616304565b60405180910390f35b6000610d8f611e89565b905090565b60007f65455a86000000000000000000000000000000000000000000000000000000007bffffffffffffffffffffffffffffffffffffffffffffffffffffffff1916827bffffffffffffffffffffffffffffffffffffffffffffffffffffffff19161480610e5f57507f4e2312e0000000000000000000000000000000000000000000000000000000007bffffffffffffffffffffffffffffffffffffffffffffffffffffffff1916827bffffffffffffffffffffffffffffffffffffffffffffffffffffffff1916145b80610e6f5750610e6e82611eb3565b5b9050919050565b6000610e80611f1d565b905090565b610e8d611f3d565b610e9681612033565b50565b606060038054610ea89061634e565b80601f0160208091040260200160405190810160405280929190818152602001828054610ed49061634e565b8015610f215780601f10610ef657610100808354040283529160200191610f21565b820191906000526020600020905b815481529060010190602001808311610f0457829003601f168201915b5050505050905090565b60006004600083815260200190815260200160002060000160009054906101000a900473ffffffffffffffffffffffffffffffffffffffff169050919050565b60003073ffffffffffffffffffffffffffffffffffffffff16610f8c610d85565b73ffffffffffffffffffffffffffffffffffffffff1614610fd9576040517fe90a651e00000000000000000000000000000000000000000000000000000000815260040160405180910390fd5b63150b7a0260e01b9050949350505050565b600080610ffa86868686611cc3565b905061100f8161100a60046120f7565b61211d565b50600061101f828888888861218a565b905060008165ffffffffffff16146110a857806004600084815260200190815260200160002060010160006101000a81548165ffffffffffff021916908365ffffffffffff1602179055507f9a2e42fd6722813d69113e7d0079d3d940171428df7373df9c7f7617cfda2892828260405161109b9291906163b0565b60405180910390a16110da565b6040517f90884a4600000000000000000000000000000000000000000000000000000000815260040160405180910390fd5b8192505050949350505050565b606060006040518060400160405280600b81526020017f787974476f7665726e6f7200000000000000000000000000000000000000000081525090506111456040518060600160405280602481526020016175ac60249139826121a4565b5090565b600061115785858585612240565b9050949350505050565b60006004600083815260200190815260200160002060000160149054906101000a900465ffffffffffff1665ffffffffffff169050919050565b7f3e83946653575f9a39005e1545185629e92736b7528ab20ca3816f315424a81181565b60006111c9612514565b905090565b6060819050919050565b60006111e382612538565b9050919050565b60006009600084815260200190815260200160002060030160008373ffffffffffffffffffffffffffffffffffffffff1673ffffffffffffffffffffffffffffffffffffffff16815260200190815260200160002060009054906101000a900460ff16905092915050565b60008061126486868686611cc3565b90506112798161127460006120f7565b61211d565b5061128381610f2b565b73ffffffffffffffffffffffffffffffffffffffff166112a16126f7565b73ffffffffffffffffffffffffffffffffffffffff1614611385576113416040518060400160405280601e81526020017f476f7665726e6f722d63616e63656c202c5f6d736753656e64657228293a00008152506112fd6126f7565b6040518060400160405280601d81526020017f70726f706f73616c50726f706f7365722870726f706f73616c4964293a00000081525061133c85610f2b565b6126ff565b6113496126f7565b6040517f233d98e300000000000000000000000000000000000000000000000000000000815260040161137c91906150d1565b60405180910390fd5b611391868686866127a1565b915050949350505050565b60606113a6611e61565b73ffffffffffffffffffffffffffffffffffffffff16634bf5d7e96040518163ffffffff1660e01b8152600401600060405180830381865afa92505050801561141257506040513d6000823e3d601f19601f8201168201806040525081019061140f9190616449565b60015b611453576040518060400160405280601d81526020017f6d6f64653d626c6f636b6e756d6265722666726f6d3d64656661756c740000008152509050611458565b809150505b90565b600080600080600960008681526020019081526020016000209050806000015481600101548260020154935093509350509193909250565b60606040518060400160405280600181526020017f3100000000000000000000000000000000000000000000000000000000000000815250905090565b6000806114db6126f7565b90506114f8848285604051806020016040528060008152506127b9565b91505092915050565b60008061158f876115897f3e83946653575f9a39005e1545185629e92736b7528ab20ca3816f315424a8118c8c8c6115388e6127d9565b8d8d6040516115489291906164c2565b60405180910390208c8051906020012060405160200161156e97969594939291906164ea565b60405160208183030381529060405280519060200120612830565b8561284a565b9050806115d357866040517f94ab6c070000000000000000000000000000000000000000000000000000000081526004016115ca91906150d1565b60405180910390fd5b61162489888a89898080601f016020809104026020016040519081016040528093929190818152602001838380828437600081840152601f19601f82011690508083019250505050505050886128f9565b915050979650505050505050565b60008061163d6126f7565b905061169087828888888080601f016020809104026020016040519081016040528093929190818152602001838380828437600081840152601f19601f82011690508083019250505050505050876128f9565b91505095945050505050565b600080600a6000018054905090506000600a6000016001836116be9190616588565b815481106116cf576116ce6165bc565b5b90600052602060002001905060008160000160009054906101000a900465ffffffffffff16905060008260000160069054906101000a900479ffffffffffffffffffffffffffffffffffffffffffffffffffff169050858265ffffffffffff161161175c578079ffffffffffffffffffffffffffffffffffffffffffffffffffff1694505050505061179b565b611778611768876129fe565b600a612a5890919063ffffffff16565b79ffffffffffffffffffffffffffffffffffffffffffffffffffff169450505050505b919050565b6117a8611f3d565b6117b181612b52565b50565b6000806117bf6126f7565b905061181186828787878080601f016020809104026020016040519081016040528093929190818152602001838380828437600081840152601f19601f820116905080830192505050505050506127b9565b915050949350505050565b600061182a85858585612bc7565b9050949350505050565b6000600260008373ffffffffffffffffffffffffffffffffffffffff1673ffffffffffffffffffffffffffffffffffffffff168152602001908152602001600020549050919050565b600060608060008060006060611891612cc1565b611899612cfc565b46306000801b600067ffffffffffffffff8111156118ba576118b9615122565b5b6040519080825280602002602001820160405280156118e85781602001602082028036833780820191505090505b507f0f00000000000000000000000000000000000000000000000000000000000000959493929190965096509650965096509650965090919293949596565b6000806119938461198d7ff2aad550cf55f045cb27e9c559f9889fdfb6e6cdaa032301d6ea397784ae51d789898961195e8b6127d9565b6040516020016119729594939291906165eb565b60405160208183030381529060405280519060200120612830565b8561284a565b9050806119d757836040517f94ab6c070000000000000000000000000000000000000000000000000000000081526004016119ce91906150d1565b60405180910390fd5b6119f2868587604051806020016040528060008152506127b9565b915050949350505050565b6000611a07611e61565b73ffffffffffffffffffffffffffffffffffffffff166391ddadf46040518163ffffffff1660e01b8152600401602060405180830381865afa925050508015611a6e57506040513d601f19601f82011682018060405250810190611a6b9190616653565b60015b611a8157611a7a612d37565b9050611a86565b809150505b90565b60006064905090565b6000611a9f848484612d47565b90509392505050565b6000611ab4600a612dda565b79ffffffffffffffffffffffffffffffffffffffffffffffffffff16905090565b611add611f3d565b611ae681612e42565b50565b6000611af482612ee1565b9050919050565b60006004600083815260200190815260200160002060010160009054906101000a900465ffffffffffff1665ffffffffffff169050919050565b6000611b3f612eec565b905090565b60003073ffffffffffffffffffffffffffffffffffffffff16611b65610d85565b73ffffffffffffffffffffffffffffffffffffffff1614611bb2576040517fe90a651e00000000000000000000000000000000000000000000000000000000815260040160405180910390fd5b63bc197c8160e01b905095945050505050565b600060046000838152602001908152602001600020600001601a9054906101000a900463ffffffff1663ffffffff166004600084815260200190815260200160002060000160149054906101000a900465ffffffffffff16611c279190616680565b65ffffffffffff169050919050565b611c3e611f3d565b6000808573ffffffffffffffffffffffffffffffffffffffff16858585604051611c699291906164c2565b60006040518083038185875af1925050503d8060008114611ca6576040519150601f19603f3d011682016040523d82523d6000602084013e611cab565b606091505b5091509150611cba8282612ef6565b50505050505050565b600084848484604051602001611cdc949392919061688f565b6040516020818303038152906040528051906020012060001c9050949350505050565b6000600b60009054906101000a900473ffffffffffffffffffffffffffffffffffffffff16905090565b60606040518060400160405280602081526020017f737570706f72743d627261766f2671756f72756d3d666f722c6162737461696e815250905090565b7ff2aad550cf55f045cb27e9c559f9889fdfb6e6cdaa032301d6ea397784ae51d781565b611d92611f3d565b611d9b81612f58565b50565b6000611db28383611dad613013565b612d47565b905092915050565b611dc2611f3d565b611dcb8161302a565b50565b60003073ffffffffffffffffffffffffffffffffffffffff16611def610d85565b73ffffffffffffffffffffffffffffffffffffffff1614611e3c576040517fe90a651e00000000000000000000000000000000000000000000000000000000815260040160405180910390fd5b63f23a6e6160e01b905095945050505050565b6000611e5a8261306f565b9050919050565b60007f0000000000000000000000000000000000000000000000000000000000000000905090565b6000600b60009054906101000a900473ffffffffffffffffffffffffffffffffffffffff16905090565b60007f01ffc9a7000000000000000000000000000000000000000000000000000000007bffffffffffffffffffffffffffffffffffffffffffffffffffffffff1916827bffffffffffffffffffffffffffffffffffffffffffffffffffffffff1916149050919050565b6000600860069054906101000a900463ffffffff1663ffffffff16905090565b611f456126f7565b73ffffffffffffffffffffffffffffffffffffffff16611f63610d85565b73ffffffffffffffffffffffffffffffffffffffff1614611fc257611f866126f7565b6040517f47096e47000000000000000000000000000000000000000000000000000000008152600401611fb991906150d1565b60405180910390fd5b3073ffffffffffffffffffffffffffffffffffffffff16611fe1610d85565b73ffffffffffffffffffffffffffffffffffffffff161461203157600061200661311e565b6040516120149291906164c2565b604051809103902090505b8061202a600561312b565b0361201f57505b565b600061203d611a89565b9050808211156120865781816040517f243e544500000000000000000000000000000000000000000000000000000000815260040161207d9291906168e9565b60405180910390fd5b6000612090611aa8565b90506120b761209d6119fd565b6120a685613264565b600a6132d29092919063ffffffff16565b50507f0553476bf02ef2726e8ce5ced78d63e26e602e4a2257b1f559418e24b463399781846040516120ea9291906168e9565b60405180910390a1505050565b600081600781111561210c5761210b6156ca565b5b60ff166001901b60001b9050919050565b600080612129846111d8565b90506000801b83612139836120f7565b1603612180578381846040517f31b75e4d00000000000000000000000000000000000000000000000000000000815260040161217793929190616912565b60405180910390fd5b8091505092915050565b600061219986868686866132ef565b905095945050505050565b61223c82826040516024016121ba929190616949565b6040516020818303038152906040527f4b5c4277000000000000000000000000000000000000000000000000000000007bffffffffffffffffffffffffffffffffffffffffffffffffffffffff19166020820180517bffffffffffffffffffffffffffffffffffffffffffffffffffffffff8381831617835250505050613507565b5050565b60008061224f86868686611cc3565b905061226f8161225f60056120f7565b61226960046120f7565b1761211d565b50600160046000838152602001908152602001600020600001601e6101000a81548160ff0219169083151502179055503073ffffffffffffffffffffffffffffffffffffffff166122be610d85565b73ffffffffffffffffffffffffffffffffffffffff16146123755760005b8651811015612373573073ffffffffffffffffffffffffffffffffffffffff1687828151811061230f5761230e6165bc565b5b602002602001015173ffffffffffffffffffffffffffffffffffffffff160361236857612367858281518110612348576123476165bc565b5b602002602001015180519060200120600561352190919063ffffffff16565b5b8060010190506122dc565b505b6000606060005b885181101561247457888181518110612398576123976165bc565b5b602002602001015173ffffffffffffffffffffffffffffffffffffffff168782815181106123c9576123c86165bc565b5b60200260200101516040516123de91906169b1565b6000604051808303816000865af19150503d806000811461241b576040519150601f19603f3d011682016040523d82523d6000602084013e612420565b606091505b50809350819450505082612469576040517f08c379a000000000000000000000000000000000000000000000000000000000815260040161246090616a14565b60405180910390fd5b80600101905061237c565b503073ffffffffffffffffffffffffffffffffffffffff16612494610d85565b73ffffffffffffffffffffffffffffffffffffffff16141580156124bf57506124bd6005613620565b155b156124cf576124ce6005613690565b5b7f712ae1383f79ac853f8d882153778e0260ef8f03b504e2866e0593e04d2b291f836040516124fe9190614f6a565b60405180910390a1829350505050949350505050565b6000600860009054906101000a900465ffffffffffff1665ffffffffffff16905090565b6000806125448361370b565b90506005600781111561255a576125596156ca565b5b81600781111561256d5761256c6156ca565b5b1461257b57809150506126f2565b6000600c6000858152602001908152602001600020549050600b60009054906101000a900473ffffffffffffffffffffffffffffffffffffffff1673ffffffffffffffffffffffffffffffffffffffff1663584b153e826040518263ffffffff1660e01b81526004016125ee9190615666565b602060405180830381865afa15801561260b573d6000803e3d6000fd5b505050506040513d601f19601f8201168201806040525081019061262f9190616a60565b1561263f576005925050506126f2565b600b60009054906101000a900473ffffffffffffffffffffffffffffffffffffffff1673ffffffffffffffffffffffffffffffffffffffff16632ab0f529826040518263ffffffff1660e01b815260040161269a9190615666565b602060405180830381865afa1580156126b7573d6000803e3d6000fd5b505050506040513d601f19601f820116820180604052508101906126db9190616a60565b156126eb576007925050506126f2565b6002925050505b919050565b600033905090565b61279b848484846040516024016127199493929190616a8d565b6040516020818303038152906040527faabc9a31000000000000000000000000000000000000000000000000000000007bffffffffffffffffffffffffffffffffffffffffffffffffffffffff19166020820180517bffffffffffffffffffffffffffffffffffffffffffffffffffffffff8381831617835250505050613507565b50505050565b60006127af8585858561386f565b9050949350505050565b60006127cf858585856127ca613013565b6128f9565b9050949350505050565b6000600260008373ffffffffffffffffffffffffffffffffffffffff1673ffffffffffffffffffffffffffffffffffffffff1681526020019081526020016000206000815480929190600101919050559050919050565b600061284361283d613954565b83613a0b565b9050919050565b6000808473ffffffffffffffffffffffffffffffffffffffff163b036128e4576000806128778585613a4c565b5091509150600060038111156128905761288f6156ca565b5b8160038111156128a3576128a26156ca565b5b1480156128db57508573ffffffffffffffffffffffffffffffffffffffff168273ffffffffffffffffffffffffffffffffffffffff16145b925050506128f2565b6128ef848484613aa8565b90505b9392505050565b600061290e8661290960016120f7565b61211d565b5060006129248661291e89611161565b85612d47565b905060006129358888888588613bcc565b90506000845103612999578673ffffffffffffffffffffffffffffffffffffffff167fb8e138887d0aa13bab447e82de9d5c1777041ecd21ca36ba824ff1e6c07ddda48988848960405161298c9493929190616ae0565b60405180910390a26129f0565b8673ffffffffffffffffffffffffffffffffffffffff167fe2babfbac5889a709b63bb7f598b324e08bc5a4fb9ec647fb3cbc9ec07eb871289888489896040516129e7959493929190616b76565b60405180910390a25b809250505095945050505050565b600065ffffffffffff8016821115612a50576030826040517f6dfcc650000000000000000000000000000000000000000000000000000000008152600401612a47929190616c12565b60405180910390fd5b819050919050565b600080836000018054905090506000808290506005831115612ae0576000612a7f84613dcf565b84612a8a9190616588565b9050612a998760000182613f6c565b60000160009054906101000a900465ffffffffffff1665ffffffffffff168665ffffffffffff161015612ace57809150612ade565b600181612adb9190616c3b565b92505b505b6000612af187600001878585613f81565b905060008114612b4357612b1487600001600183612b0f9190616588565b613f6c565b60000160069054906101000a900479ffffffffffffffffffffffffffffffffffffffffffffffffffff16612b46565b60005b94505050505092915050565b7fc565b045403dc03c2eea82b81a0465edad9e2e7fc4d97e11421c209da93d7a93600860009054906101000a900465ffffffffffff1682604051612b97929190616c6f565b60405180910390a180600860006101000a81548165ffffffffffff021916908365ffffffffffff16021790555050565b600080612bd26126f7565b9050612bde8184613ffa565b612c1f57806040517fd9b39557000000000000000000000000000000000000000000000000000000008152600401612c1691906150d1565b60405180910390fd5b6000612c29611b35565b90506000811115612ca8576000612c5b836001612c446119fd565b612c4e9190616c98565b65ffffffffffff16611d9e565b905081811015612ca6578281836040517fc242ee16000000000000000000000000000000000000000000000000000000008152600401612c9d93929190616cd2565b60405180910390fd5b505b612cb58787878786614146565b92505050949350505050565b6060612cf760007f000000000000000000000000000000000000000000000000000000000000000061441a90919063ffffffff16565b905090565b6060612d3260017f000000000000000000000000000000000000000000000000000000000000000061441a90919063ffffffff16565b905090565b6000612d42436129fe565b905090565b600080612d52611e61565b73ffffffffffffffffffffffffffffffffffffffff16633a46b1a886866040518363ffffffff1660e01b8152600401612d8c929190616d09565b602060405180830381865afa158015612da9573d6000803e3d6000fd5b505050506040513d601f19601f82011682018060405250810190612dcd9190616d47565b9050809150509392505050565b6000808260000180549050905060008114612e3757612e0883600001600183612e039190616588565b613f6c565b60000160069054906101000a900479ffffffffffffffffffffffffffffffffffffffffffffffffffff16612e3a565b60005b915050919050565b7f08f74ea46ef7894f65eabfb5e6e695de773a000b47c529ab559178069b226401600b60009054906101000a900473ffffffffffffffffffffffffffffffffffffffff1682604051612e95929190616d74565b60405180910390a180600b60006101000a81548173ffffffffffffffffffffffffffffffffffffffff021916908373ffffffffffffffffffffffffffffffffffffffff16021790555050565b600060019050919050565b6000600754905090565b6060612f366040518060400160405280601e81526020017f416464726573732d76657269667943616c6c526573756c7428292d31313100008152506144ca565b82612f4957612f4482614563565b612f51565b819050612f52565b5b92915050565b60008163ffffffff1603612fa45760006040517ff1cfbf05000000000000000000000000000000000000000000000000000000008152600401612f9b9190616dd8565b60405180910390fd5b7f7e3f7f0708a84de9203036abaa450dccc85ad5ff52f78c170f3edb55cf5e8828600860069054906101000a900463ffffffff1682604051612fe7929190616e24565b60405180910390a180600860066101000a81548163ffffffff021916908363ffffffff16021790555050565b606060405180602001604052806000815250905090565b7fccb45da8d5717e6c4544694297c4ba5cf151d455c9bb0ed4fc7a38411bc054616007548260405161305d9291906168e9565b60405180910390a18060078190555050565b6000613079611a89565b6130828361169c565b61308a611e61565b73ffffffffffffffffffffffffffffffffffffffff16638e539e8c856040518263ffffffff1660e01b81526004016130c29190614f6a565b602060405180830381865afa1580156130df573d6000803e3d6000fd5b505050506040513d601f19601f820116820180604052508101906131039190616d47565b61310d9190616e4d565b6131179190616ebe565b9050919050565b3660008036915091509091565b6000808260000160009054906101000a90046fffffffffffffffffffffffffffffffff1690508260000160109054906101000a90046fffffffffffffffffffffffffffffffff166fffffffffffffffffffffffffffffffff16816fffffffffffffffffffffffffffffffff16036131a7576131a660316145a8565b5b826001016000826fffffffffffffffffffffffffffffffff166fffffffffffffffffffffffffffffffff168152602001908152602001600020549150826001016000826fffffffffffffffffffffffffffffffff166fffffffffffffffffffffffffffffffff16815260200190815260200160002060009055600181018360000160006101000a8154816fffffffffffffffffffffffffffffffff02191690836fffffffffffffffffffffffffffffffff16021790555050919050565b600079ffffffffffffffffffffffffffffffffffffffffffffffffffff80168211156132ca5760d0826040517f6dfcc6500000000000000000000000000000000000000000000000000000000081526004016132c1929190616f2a565b60405180910390fd5b819050919050565b6000806132e38560000185856145ba565b91509150935093915050565b600080600b60009054906101000a900473ffffffffffffffffffffffffffffffffffffffff1673ffffffffffffffffffffffffffffffffffffffff1663f27a0c926040518163ffffffff1660e01b8152600401602060405180830381865afa15801561335f573d6000803e3d6000fd5b505050506040513d601f19601f820116820180604052508101906133839190616d47565b90506000613390846148c7565b9050600b60009054906101000a900473ffffffffffffffffffffffffffffffffffffffff1673ffffffffffffffffffffffffffffffffffffffff1663b1c5f4278888886000866040518663ffffffff1660e01b81526004016133f6959493929190616f91565b602060405180830381865afa158015613413573d6000803e3d6000fd5b505050506040513d601f19601f82011682018060405250810190613437919061700e565b600c60008a815260200190815260200160002081905550600b60009054906101000a900473ffffffffffffffffffffffffffffffffffffffff1673ffffffffffffffffffffffffffffffffffffffff16638f2a0bb0888888600086886040518763ffffffff1660e01b81526004016134b49695949392919061703b565b600060405180830381600087803b1580156134ce57600080fd5b505af11580156134e2573d6000803e3d6000fd5b505050506134fa82426134f59190616c3b565b6129fe565b9250505095945050505050565b61351e816135166148e5614906565b63ffffffff16565b50565b60008260000160109054906101000a90046fffffffffffffffffffffffffffffffff1690508260000160009054906101000a90046fffffffffffffffffffffffffffffffff166fffffffffffffffffffffffffffffffff16600182016fffffffffffffffffffffffffffffffff160361359f5761359e60416145a8565b5b81836001016000836fffffffffffffffffffffffffffffffff166fffffffffffffffffffffffffffffffff16815260200190815260200160002081905550600181018360000160106101000a8154816fffffffffffffffffffffffffffffffff02191690836fffffffffffffffffffffffffffffffff160217905550505050565b60008160000160009054906101000a90046fffffffffffffffffffffffffffffffff166fffffffffffffffffffffffffffffffff168260000160109054906101000a90046fffffffffffffffffffffffffffffffff166fffffffffffffffffffffffffffffffff16149050919050565b60008160000160006101000a8154816fffffffffffffffffffffffffffffffff02191690836fffffffffffffffffffffffffffffffff16021790555060008160000160106101000a8154816fffffffffffffffffffffffffffffffff02191690836fffffffffffffffffffffffffffffffff16021790555050565b600080600460008481526020019081526020016000209050600081600001601e9054906101000a900460ff169050600082600001601f9054906101000a900460ff1690508115613761576007935050505061386a565b8015613773576002935050505061386a565b600061377e86611161565b9050600081036137c557856040517f6ad060750000000000000000000000000000000000000000000000000000000081526004016137bc9190614f6a565b60405180910390fd5b60006137cf6119fd565b65ffffffffffff1690508082106137ee5760009550505050505061386a565b60006137f988611bc5565b9050818110613811576001965050505050505061386a565b61381a88614911565b158061382c575061382a88614958565b155b15613840576003965050505050505061386a565b600061384b89611afb565b0361385f576004965050505050505061386a565b600596505050505050505b919050565b60008061387e86868686614983565b90506000600c60008381526020019081526020016000205490506000801b811461394757600b60009054906101000a900473ffffffffffffffffffffffffffffffffffffffff1673ffffffffffffffffffffffffffffffffffffffff1663c4d252f5826040518263ffffffff1660e01b81526004016138fd9190615666565b600060405180830381600087803b15801561391757600080fd5b505af115801561392b573d6000803e3d6000fd5b50505050600c6000838152602001908152602001600020600090555b8192505050949350505050565b60007f000000000000000000000000000000000000000000000000000000000000000073ffffffffffffffffffffffffffffffffffffffff163073ffffffffffffffffffffffffffffffffffffffff161480156139d057507f000000000000000000000000000000000000000000000000000000000000000046145b156139fd577f00000000000000000000000000000000000000000000000000000000000000009050613a08565b613a05614a6a565b90505b90565b60006040517f190100000000000000000000000000000000000000000000000000000000000081528360028201528260228201526042812091505092915050565b60008060006041845103613a915760008060006020870151925060408701519150606087015160001a9050613a8388828585614b00565b955095509550505050613aa1565b60006002855160001b9250925092505b9250925092565b60008060008573ffffffffffffffffffffffffffffffffffffffff168585604051602401613ad79291906170b1565b604051602081830303815290604052631626ba7e60e01b6020820180517bffffffffffffffffffffffffffffffffffffffffffffffffffffffff8381831617835250505050604051613b2991906169b1565b600060405180830381855afa9150503d8060008114613b64576040519150601f19603f3d011682016040523d82523d6000602084013e613b69565b606091505b5091509150818015613b7d57506020815110155b8015613bc15750631626ba7e60e01b7bffffffffffffffffffffffffffffffffffffffffffffffffffffffff191681806020019051810190613bbf919061700e565b145b925050509392505050565b6000806009600088815260200190815260200160002090508060030160008773ffffffffffffffffffffffffffffffffffffffff1673ffffffffffffffffffffffffffffffffffffffff16815260200190815260200160002060009054906101000a900460ff1615613c7557856040517f71c6af49000000000000000000000000000000000000000000000000000000008152600401613c6c91906150d1565b60405180910390fd5b60018160030160008873ffffffffffffffffffffffffffffffffffffffff1673ffffffffffffffffffffffffffffffffffffffff16815260200190815260200160002060006101000a81548160ff02191690831515021790555060006002811115613ce357613ce26156ca565b5b60ff168560ff1603613d0f5783816000016000828254613d039190616c3b565b92505081905550613dc2565b60016002811115613d2357613d226156ca565b5b60ff168560ff1603613d4f5783816001016000828254613d439190616c3b565b92505081905550613dc1565b600280811115613d6257613d616156ca565b5b60ff168560ff1603613d8e5783816002016000828254613d829190616c3b565b92505081905550613dc0565b6040517f06b337c200000000000000000000000000000000000000000000000000000000815260040160405180910390fd5b5b5b8391505095945050505050565b600060018211613de157819050613f67565b60008290506000600190507001000000000000000000000000000000008210613e1357608082901c9150604081901b90505b680100000000000000008210613e3257604082901c9150602081901b90505b6401000000008210613e4d57602082901c9150601081901b90505b620100008210613e6657601082901c9150600881901b90505b6101008210613e7e57600882901c9150600481901b90505b60108210613e9557600482901c9150600281901b90505b60048210613ea557600181901b90505b600181600302901c90506001818581613ec157613ec0616e8f565b5b048201901c90506001818581613eda57613ed9616e8f565b5b048201901c90506001818581613ef357613ef2616e8f565b5b048201901c90506001818581613f0c57613f0b616e8f565b5b048201901c90506001818581613f2557613f24616e8f565b5b048201901c90506001818581613f3e57613f3d616e8f565b5b048201901c9050613f60818581613f5857613f57616e8f565b5b048211614bf4565b8103925050505b919050565b60008260005281602060002001905092915050565b60005b81831015613fef576000613f988484614c00565b90508465ffffffffffff16613fad8783613f6c565b60000160009054906101000a900465ffffffffffff1665ffffffffffff161115613fd957809250613fe9565b600181613fe69190616c3b565b93505b50613f84565b819050949350505050565b600080825190506034811015614014576001915050614140565b60006014820384015190507f2370726f706f7365723d3078000000000000000000000000000000000000000073ffffffffffffffffffffffffffffffffffffffff19168173ffffffffffffffffffffffffffffffffffffffff19161461407f57600192505050614140565b60008060288461408f9190616588565b90505b8381101561410a576000806140c38884815181106140b3576140b26165bc565b5b602001015160f81c60f81b614c26565b91509150816140db5760019650505050505050614140565b8060ff1660048573ffffffffffffffffffffffffffffffffffffffff16901b1793505050806001019050614092565b508573ffffffffffffffffffffffffffffffffffffffff168173ffffffffffffffffffffffffffffffffffffffff161493505050505b92915050565b600061415b8686868680519060200120611cc3565b905061419c6040518060400160405280600e81526020017f3535352070726f706f73616c496400000000000000000000000000000000000081525082614cc0565b845186511415806141af57508351865114155b806141bb575060008651145b15614204578551845186516040517f447b05d00000000000000000000000000000000000000000000000000000000081526004016141fb9392919061579c565b60405180910390fd5b60006004600083815260200190815260200160002060000160149054906101000a900465ffffffffffff1665ffffffffffff16146142885780614246826111d8565b6000801b6040517f31b75e4d00000000000000000000000000000000000000000000000000000000815260040161427f93929190616912565b60405180910390fd5b60006142926111bf565b61429a6119fd565b65ffffffffffff166142ac9190616c3b565b905060006142b8610e76565b90506000600460008581526020019081526020016000209050848160000160006101000a81548173ffffffffffffffffffffffffffffffffffffffff021916908373ffffffffffffffffffffffffffffffffffffffff16021790555061431d836129fe565b8160000160146101000a81548165ffffffffffff021916908365ffffffffffff16021790555061434c82614d5c565b81600001601a6101000a81548163ffffffff021916908363ffffffff1602179055507f7d84a6263ae0d98d3329bd7b46bb4e8d6f98cd35a7adb45c274c8b7fd5ebd5e084868b8b8d5167ffffffffffffffff8111156143ae576143ad615122565b5b6040519080825280602002602001820160405280156143e157816020015b60608152602001906001900390816143cc5790505b508c89898b6143f09190616c3b565b8e604051614406999897969594939291906171ed565b60405180910390a150505095945050505050565b606060ff60001b83146144375761443083614db4565b90506144c4565b8180546144439061634e565b80601f016020809104026020016040519081016040528092919081815260200182805461446f9061634e565b80156144bc5780601f10614491576101008083540402835291602001916144bc565b820191906000526020600020905b81548152906001019060200180831161449f57829003601f168201915b505050505090505b92915050565b614560816040516024016144de919061506e565b6040516020818303038152906040527f41304fac000000000000000000000000000000000000000000000000000000007bffffffffffffffffffffffffffffffffffffffffffffffffffffffff19166020820180517bffffffffffffffffffffffffffffffffffffffffffffffffffffffff8381831617835250505050613507565b50565b6000815111156145765780518082602001fd5b6040517fd6bda27500000000000000000000000000000000000000000000000000000000815260040160405180910390fd5b634e487b71600052806020526024601cfd5b60008060008580549050905060008111156147d75760006145e7876001846145e29190616588565b613f6c565b905060008160000160009054906101000a900465ffffffffffff16905060008260000160069054906101000a900479ffffffffffffffffffffffffffffffffffffffffffffffffffff1690508765ffffffffffff168265ffffffffffff16111561467d576040517f2520601d00000000000000000000000000000000000000000000000000000000815260040160405180910390fd5b8765ffffffffffff168265ffffffffffff16036146e857868360000160066101000a81548179ffffffffffffffffffffffffffffffffffffffffffffffffffff021916908379ffffffffffffffffffffffffffffffffffffffffffffffffffff1602179055506147c8565b8860405180604001604052808a65ffffffffffff1681526020018979ffffffffffffffffffffffffffffffffffffffffffffffffffff168152509080600181540180825580915050600190039060005260206000200160009091909190915060008201518160000160006101000a81548165ffffffffffff021916908365ffffffffffff16021790555060208201518160000160066101000a81548179ffffffffffffffffffffffffffffffffffffffffffffffffffff021916908379ffffffffffffffffffffffffffffffffffffffffffffffffffff16021790555050505b808795509550505050506148bf565b8560405180604001604052808765ffffffffffff1681526020018679ffffffffffffffffffffffffffffffffffffffffffffffffffff168152509080600181540180825580915050600190039060005260206000200160009091909190915060008201518160000160006101000a81548165ffffffffffff021916908365ffffffffffff16021790555060208201518160000160066101000a81548179ffffffffffffffffffffffffffffffffffffffffffffffffffff021916908379ffffffffffffffffffffffffffffffffffffffffffffffffffff160217905550505060008492509250505b935093915050565b6000813060601b6bffffffffffffffffffffffff1916189050919050565b60006a636f6e736f6c652e6c6f679050600080835160208501845afa505050565b614e78819050919050565b6000806009600084815260200190815260200160002090508060020154816001015461493d9190616c3b565b61494e61494985611161565b611e4f565b1115915050919050565b6000806009600084815260200190815260200160002090508060000154816001015411915050919050565b60008061499286868686611cc3565b90506149f7816149a260076120f7565b6149ac60066120f7565b6149b660026120f7565b6001806007808111156149cc576149cb6156ca565b5b6149d6919061729d565b60026149e29190617405565b6149ec9190616588565b60001b18181861211d565b50600160046000838152602001908152602001600020600001601f6101000a81548160ff0219169083151502179055507f789cf55be980739dad1d0699b93b58e806b51c9d96619bfa8fe0a28abaa7b30c81604051614a569190614f6a565b60405180910390a180915050949350505050565b60007f8b73c3c69bb8fe3d512ecc4cf759cc79239f7b179b0ffacaa9a75d522b39400f7f00000000000000000000000000000000000000000000000000000000000000007f00000000000000000000000000000000000000000000000000000000000000004630604051602001614ae5959493929190617450565b60405160208183030381529060405280519060200120905090565b60008060007f7fffffffffffffffffffffffffffffff5d576e7357a4501ddfe92f46681b20a08460001c1115614b40576000600385925092509250614bea565b600060018888888860405160008152602001604052604051614b6594939291906174a3565b6020604051602081039080840390855afa158015614b87573d6000803e3d6000fd5b505050602060405103519050600073ffffffffffffffffffffffffffffffffffffffff168173ffffffffffffffffffffffffffffffffffffffff1603614bdb57600060016000801b93509350935050614bea565b8060008060001b935093509350505b9450945094915050565b60008115159050919050565b60006002828418614c119190616ebe565b828416614c1e9190616c3b565b905092915050565b60008060008360f81c90508060ff16602f108015614c475750603a8160ff16105b15614c5c576001603082039250925050614cbb565b8060ff166040108015614c72575060478160ff16105b15614c87576001603782039250925050614cbb565b8060ff166060108015614c9d575060678160ff16105b15614cb2576001605782039250925050614cbb565b60008092509250505b915091565b614d588282604051602401614cd69291906174e8565b6040516020818303038152906040527fb60e72cc000000000000000000000000000000000000000000000000000000007bffffffffffffffffffffffffffffffffffffffffffffffffffffffff19166020820180517bffffffffffffffffffffffffffffffffffffffffffffffffffffffff8381831617835250505050613507565b5050565b600063ffffffff8016821115614dac576020826040517f6dfcc650000000000000000000000000000000000000000000000000000000008152600401614da3929190617553565b60405180910390fd5b819050919050565b60606000614dc183614e28565b90506000602067ffffffffffffffff811115614de057614ddf615122565b5b6040519080825280601f01601f191660200182016040528015614e125781602001600182028036833780820191505090505b5090508181528360208201528092505050919050565b60008060ff8360001c169050601f811115614e6f576040517fb3512b0c00000000000000000000000000000000000000000000000000000000815260040160405180910390fd5b80915050919050565b614e8061757c565b565b6000604051905090565b600080fd5b600080fd5b60007fffffffff0000000000000000000000000000000000000000000000000000000082169050919050565b614ecb81614e96565b8114614ed657600080fd5b50565b600081359050614ee881614ec2565b92915050565b600060208284031215614f0457614f03614e8c565b5b6000614f1284828501614ed9565b91505092915050565b60008115159050919050565b614f3081614f1b565b82525050565b6000602082019050614f4b6000830184614f27565b92915050565b6000819050919050565b614f6481614f51565b82525050565b6000602082019050614f7f6000830184614f5b565b92915050565b614f8e81614f51565b8114614f9957600080fd5b50565b600081359050614fab81614f85565b92915050565b600060208284031215614fc757614fc6614e8c565b5b6000614fd584828501614f9c565b91505092915050565b600081519050919050565b600082825260208201905092915050565b60005b83811015615018578082015181840152602081019050614ffd565b60008484015250505050565b6000601f19601f8301169050919050565b600061504082614fde565b61504a8185614fe9565b935061505a818560208601614ffa565b61506381615024565b840191505092915050565b600060208201905081810360008301526150888184615035565b905092915050565b600073ffffffffffffffffffffffffffffffffffffffff82169050919050565b60006150bb82615090565b9050919050565b6150cb816150b0565b82525050565b60006020820190506150e660008301846150c2565b92915050565b6150f5816150b0565b811461510057600080fd5b50565b600081359050615112816150ec565b92915050565b600080fd5b600080fd5b7f4e487b7100000000000000000000000000000000000000000000000000000000600052604160045260246000fd5b61515a82615024565b810181811067ffffffffffffffff8211171561517957615178615122565b5b80604052505050565b600061518c614e82565b90506151988282615151565b919050565b600067ffffffffffffffff8211156151b8576151b7615122565b5b6151c182615024565b9050602081019050919050565b82818337600083830152505050565b60006151f06151eb8461519d565b615182565b90508281526020810184848401111561520c5761520b61511d565b5b6152178482856151ce565b509392505050565b600082601f83011261523457615233615118565b5b81356152448482602086016151dd565b91505092915050565b6000806000806080858703121561526757615266614e8c565b5b600061527587828801615103565b945050602061528687828801615103565b935050604061529787828801614f9c565b925050606085013567ffffffffffffffff8111156152b8576152b7614e91565b5b6152c48782880161521f565b91505092959194509250565b6152d981614e96565b82525050565b60006020820190506152f460008301846152d0565b92915050565b600067ffffffffffffffff82111561531557615314615122565b5b602082029050602081019050919050565b600080fd5b600061533e615339846152fa565b615182565b9050808382526020820190506020840283018581111561536157615360615326565b5b835b8181101561538a57806153768882615103565b845260208401935050602081019050615363565b5050509392505050565b600082601f8301126153a9576153a8615118565b5b81356153b984826020860161532b565b91505092915050565b600067ffffffffffffffff8211156153dd576153dc615122565b5b602082029050602081019050919050565b60006154016153fc846153c2565b615182565b9050808382526020820190506020840283018581111561542457615423615326565b5b835b8181101561544d57806154398882614f9c565b845260208401935050602081019050615426565b5050509392505050565b600082601f83011261546c5761546b615118565b5b813561547c8482602086016153ee565b91505092915050565b600067ffffffffffffffff8211156154a05761549f615122565b5b602082029050602081019050919050565b60006154c46154bf84615485565b615182565b905080838252602082019050602084028301858111156154e7576154e6615326565b5b835b8181101561552e57803567ffffffffffffffff81111561550c5761550b615118565b5b808601615519898261521f565b855260208501945050506020810190506154e9565b5050509392505050565b600082601f83011261554d5761554c615118565b5b813561555d8482602086016154b1565b91505092915050565b6000819050919050565b61557981615566565b811461558457600080fd5b50565b60008135905061559681615570565b92915050565b600080600080608085870312156155b6576155b5614e8c565b5b600085013567ffffffffffffffff8111156155d4576155d3614e91565b5b6155e087828801615394565b945050602085013567ffffffffffffffff81111561560157615600614e91565b5b61560d87828801615457565b935050604085013567ffffffffffffffff81111561562e5761562d614e91565b5b61563a87828801615538565b925050606061564b87828801615587565b91505092959194509250565b61566081615566565b82525050565b600060208201905061567b6000830184615657565b92915050565b60006020828403121561569757615696614e8c565b5b600082013567ffffffffffffffff8111156156b5576156b4614e91565b5b6156c18482850161521f565b91505092915050565b7f4e487b7100000000000000000000000000000000000000000000000000000000600052602160045260246000fd5b6008811061570a576157096156ca565b5b50565b600081905061571b826156f9565b919050565b600061572b8261570d565b9050919050565b61573b81615720565b82525050565b60006020820190506157566000830184615732565b92915050565b6000806040838503121561577357615772614e8c565b5b600061578185828601614f9c565b925050602061579285828601615103565b9150509250929050565b60006060820190506157b16000830186614f5b565b6157be6020830185614f5b565b6157cb6040830184614f5b565b949350505050565b600060ff82169050919050565b6157e9816157d3565b81146157f457600080fd5b50565b600081359050615806816157e0565b92915050565b6000806040838503121561582357615822614e8c565b5b600061583185828601614f9c565b9250506020615842858286016157f7565b9150509250929050565b600080fd5b60008083601f84011261586757615866615118565b5b8235905067ffffffffffffffff8111156158845761588361584c565b5b6020830191508360018202830111156158a05761589f615326565b5b9250929050565b600080600080600080600060c0888a0312156158c6576158c5614e8c565b5b60006158d48a828b01614f9c565b97505060206158e58a828b016157f7565b96505060406158f68a828b01615103565b955050606088013567ffffffffffffffff81111561591757615916614e91565b5b6159238a828b01615851565b9450945050608088013567ffffffffffffffff81111561594657615945614e91565b5b6159528a828b0161521f565b92505060a088013567ffffffffffffffff81111561597357615972614e91565b5b61597f8a828b0161521f565b91505092959891949750929550565b6000806000806000608086880312156159aa576159a9614e8c565b5b60006159b888828901614f9c565b95505060206159c9888289016157f7565b945050604086013567ffffffffffffffff8111156159ea576159e9614e91565b5b6159f688828901615851565b9350935050606086013567ffffffffffffffff811115615a1957615a18614e91565b5b615a258882890161521f565b9150509295509295909350565b600065ffffffffffff82169050919050565b615a4d81615a32565b8114615a5857600080fd5b50565b600081359050615a6a81615a44565b92915050565b600060208284031215615a8657615a85614e8c565b5b6000615a9484828501615a5b565b91505092915050565b60008060008060608587031215615ab757615ab6614e8c565b5b6000615ac587828801614f9c565b9450506020615ad6878288016157f7565b935050604085013567ffffffffffffffff811115615af757615af6614e91565b5b615b0387828801615851565b925092505092959194509250565b600067ffffffffffffffff821115615b2c57615b2b615122565b5b615b3582615024565b9050602081019050919050565b6000615b55615b5084615b11565b615182565b905082815260208101848484011115615b7157615b7061511d565b5b615b7c8482856151ce565b509392505050565b600082601f830112615b9957615b98615118565b5b8135615ba9848260208601615b42565b91505092915050565b60008060008060808587031215615bcc57615bcb614e8c565b5b600085013567ffffffffffffffff811115615bea57615be9614e91565b5b615bf687828801615394565b945050602085013567ffffffffffffffff811115615c1757615c16614e91565b5b615c2387828801615457565b935050604085013567ffffffffffffffff811115615c4457615c43614e91565b5b615c5087828801615538565b925050606085013567ffffffffffffffff811115615c7157615c70614e91565b5b615c7d87828801615b84565b91505092959194509250565b600060208284031215615c9f57615c9e614e8c565b5b6000615cad84828501615103565b91505092915050565b60007fff0000000000000000000000000000000000000000000000000000000000000082169050919050565b615ceb81615cb6565b82525050565b600081519050919050565b600082825260208201905092915050565b6000819050602082019050919050565b615d2681614f51565b82525050565b6000615d388383615d1d565b60208301905092915050565b6000602082019050919050565b6000615d5c82615cf1565b615d668185615cfc565b9350615d7183615d0d565b8060005b83811015615da2578151615d898882615d2c565b9750615d9483615d44565b925050600181019050615d75565b5085935050505092915050565b600060e082019050615dc4600083018a615ce2565b8181036020830152615dd68189615035565b90508181036040830152615dea8188615035565b9050615df96060830187614f5b565b615e0660808301866150c2565b615e1360a0830185615657565b81810360c0830152615e258184615d51565b905098975050505050505050565b60008060008060808587031215615e4d57615e4c614e8c565b5b6000615e5b87828801614f9c565b9450506020615e6c878288016157f7565b9350506040615e7d87828801615103565b925050606085013567ffffffffffffffff811115615e9e57615e9d614e91565b5b615eaa8782880161521f565b91505092959194509250565b615ebf81615a32565b82525050565b6000602082019050615eda6000830184615eb6565b92915050565b600080600060608486031215615ef957615ef8614e8c565b5b6000615f0786828701615103565b9350506020615f1886828701614f9c565b925050604084013567ffffffffffffffff811115615f3957615f38614e91565b5b615f458682870161521f565b9150509250925092565b6000615f5a82615090565b9050919050565b6000615f6c82615f4f565b9050919050565b615f7c81615f61565b8114615f8757600080fd5b50565b600081359050615f9981615f73565b92915050565b600060208284031215615fb557615fb4614e8c565b5b6000615fc384828501615f8a565b91505092915050565b600080600080600060a08688031215615fe857615fe7614e8c565b5b6000615ff688828901615103565b955050602061600788828901615103565b945050604086013567ffffffffffffffff81111561602857616027614e91565b5b61603488828901615457565b935050606086013567ffffffffffffffff81111561605557616054614e91565b5b61606188828901615457565b925050608086013567ffffffffffffffff81111561608257616081614e91565b5b61608e8882890161521f565b9150509295509295909350565b60008083601f8401126160b1576160b0615118565b5b8235905067ffffffffffffffff8111156160ce576160cd61584c565b5b6020830191508360018202830111156160ea576160e9615326565b5b9250929050565b6000806000806060858703121561610b5761610a614e8c565b5b600061611987828801615103565b945050602061612a87828801614f9c565b935050604085013567ffffffffffffffff81111561614b5761614a614e91565b5b6161578782880161609b565b925092505092959194509250565b600063ffffffff82169050919050565b61617e81616165565b811461618957600080fd5b50565b60008135905061619b81616175565b92915050565b6000602082840312156161b7576161b6614e8c565b5b60006161c58482850161618c565b91505092915050565b600080604083850312156161e5576161e4614e8c565b5b60006161f385828601615103565b925050602061620485828601614f9c565b9150509250929050565b600080600080600060a0868803121561622a57616229614e8c565b5b600061623888828901615103565b955050602061624988828901615103565b945050604061625a88828901614f9c565b935050606061626b88828901614f9c565b925050608086013567ffffffffffffffff81111561628c5761628b614e91565b5b6162988882890161521f565b9150509295509295909350565b6000819050919050565b60006162ca6162c56162c084615090565b6162a5565b615090565b9050919050565b60006162dc826162af565b9050919050565b60006162ee826162d1565b9050919050565b6162fe816162e3565b82525050565b600060208201905061631960008301846162f5565b92915050565b7f4e487b7100000000000000000000000000000000000000000000000000000000600052602260045260246000fd5b6000600282049050600182168061636657607f821691505b6020821081036163795761637861631f565b5b50919050565b600061639a61639561639084615a32565b6162a5565b614f51565b9050919050565b6163aa8161637f565b82525050565b60006040820190506163c56000830185614f5b565b6163d260208301846163a1565b9392505050565b60006163ec6163e784615b11565b615182565b9050828152602081018484840111156164085761640761511d565b5b616413848285614ffa565b509392505050565b600082601f8301126164305761642f615118565b5b81516164408482602086016163d9565b91505092915050565b60006020828403121561645f5761645e614e8c565b5b600082015167ffffffffffffffff81111561647d5761647c614e91565b5b6164898482850161641b565b91505092915050565b600081905092915050565b60006164a98385616492565b93506164b68385846151ce565b82840190509392505050565b60006164cf82848661649d565b91508190509392505050565b6164e4816157d3565b82525050565b600060e0820190506164ff600083018a615657565b61650c6020830189614f5b565b61651960408301886164db565b61652660608301876150c2565b6165336080830186614f5b565b61654060a0830185615657565b61654d60c0830184615657565b98975050505050505050565b7f4e487b7100000000000000000000000000000000000000000000000000000000600052601160045260246000fd5b600061659382614f51565b915061659e83614f51565b92508282039050818111156165b6576165b5616559565b5b92915050565b7f4e487b7100000000000000000000000000000000000000000000000000000000600052603260045260246000fd5b600060a0820190506166006000830188615657565b61660d6020830187614f5b565b61661a60408301866164db565b61662760608301856150c2565b6166346080830184614f5b565b9695505050505050565b60008151905061664d81615a44565b92915050565b60006020828403121561666957616668614e8c565b5b60006166778482850161663e565b91505092915050565b600061668b82615a32565b915061669683615a32565b9250828201905065ffffffffffff8111156166b4576166b3616559565b5b92915050565b600081519050919050565b600082825260208201905092915050565b6000819050602082019050919050565b6166ef816150b0565b82525050565b600061670183836166e6565b60208301905092915050565b6000602082019050919050565b6000616725826166ba565b61672f81856166c5565b935061673a836166d6565b8060005b8381101561676b57815161675288826166f5565b975061675d8361670d565b92505060018101905061673e565b5085935050505092915050565b600081519050919050565b600082825260208201905092915050565b6000819050602082019050919050565b600081519050919050565b600082825260208201905092915050565b60006167cb826167a4565b6167d581856167af565b93506167e5818560208601614ffa565b6167ee81615024565b840191505092915050565b600061680583836167c0565b905092915050565b6000602082019050919050565b600061682582616778565b61682f8185616783565b93508360208202850161684185616794565b8060005b8581101561687d578484038952815161685e85826167f9565b94506168698361680d565b925060208a01995050600181019050616845565b50829750879550505050505092915050565b600060808201905081810360008301526168a9818761671a565b905081810360208301526168bd8186615d51565b905081810360408301526168d1818561681a565b90506168e06060830184615657565b95945050505050565b60006040820190506168fe6000830185614f5b565b61690b6020830184614f5b565b9392505050565b60006060820190506169276000830186614f5b565b6169346020830185615732565b6169416040830184615657565b949350505050565b600060408201905081810360008301526169638185615035565b905081810360208301526169778184615035565b90509392505050565b600061698b826167a4565b6169958185616492565b93506169a5818560208601614ffa565b80840191505092915050565b60006169bd8284616980565b915081905092915050565b7f43616c6c206661696c6564000000000000000000000000000000000000000000600082015250565b60006169fe600b83614fe9565b9150616a09826169c8565b602082019050919050565b60006020820190508181036000830152616a2d816169f1565b9050919050565b616a3d81614f1b565b8114616a4857600080fd5b50565b600081519050616a5a81616a34565b92915050565b600060208284031215616a7657616a75614e8c565b5b6000616a8484828501616a4b565b91505092915050565b60006080820190508181036000830152616aa78187615035565b9050616ab660208301866150c2565b8181036040830152616ac88185615035565b9050616ad760608301846150c2565b95945050505050565b6000608082019050616af56000830187614f5b565b616b0260208301866164db565b616b0f6040830185614f5b565b8181036060830152616b218184615035565b905095945050505050565b600082825260208201905092915050565b6000616b48826167a4565b616b528185616b2c565b9350616b62818560208601614ffa565b616b6b81615024565b840191505092915050565b600060a082019050616b8b6000830188614f5b565b616b9860208301876164db565b616ba56040830186614f5b565b8181036060830152616bb78185615035565b90508181036080830152616bcb8184616b3d565b90509695505050505050565b6000819050919050565b6000616bfc616bf7616bf284616bd7565b6162a5565b6157d3565b9050919050565b616c0c81616be1565b82525050565b6000604082019050616c276000830185616c03565b616c346020830184614f5b565b9392505050565b6000616c4682614f51565b9150616c5183614f51565b9250828201905080821115616c6957616c68616559565b5b92915050565b6000604082019050616c8460008301856163a1565b616c9160208301846163a1565b9392505050565b6000616ca382615a32565b9150616cae83615a32565b9250828203905065ffffffffffff811115616ccc57616ccb616559565b5b92915050565b6000606082019050616ce760008301866150c2565b616cf46020830185614f5b565b616d016040830184614f5b565b949350505050565b6000604082019050616d1e60008301856150c2565b616d2b6020830184614f5b565b9392505050565b600081519050616d4181614f85565b92915050565b600060208284031215616d5d57616d5c614e8c565b5b6000616d6b84828501616d32565b91505092915050565b6000604082019050616d8960008301856150c2565b616d9660208301846150c2565b9392505050565b6000819050919050565b6000616dc2616dbd616db884616d9d565b6162a5565b614f51565b9050919050565b616dd281616da7565b82525050565b6000602082019050616ded6000830184616dc9565b92915050565b6000616e0e616e09616e0484616165565b6162a5565b614f51565b9050919050565b616e1e81616df3565b82525050565b6000604082019050616e396000830185616e15565b616e466020830184616e15565b9392505050565b6000616e5882614f51565b9150616e6383614f51565b9250828202616e7181614f51565b91508282048414831517616e8857616e87616559565b5b5092915050565b7f4e487b7100000000000000000000000000000000000000000000000000000000600052601260045260246000fd5b6000616ec982614f51565b9150616ed483614f51565b925082616ee457616ee3616e8f565b5b828204905092915050565b6000819050919050565b6000616f14616f0f616f0a84616eef565b6162a5565b6157d3565b9050919050565b616f2481616ef9565b82525050565b6000604082019050616f3f6000830185616f1b565b616f4c6020830184614f5b565b9392505050565b60008160001b9050919050565b6000616f7b616f76616f7184616d9d565b616f53565b615566565b9050919050565b616f8b81616f60565b82525050565b600060a0820190508181036000830152616fab818861671a565b90508181036020830152616fbf8187615d51565b90508181036040830152616fd3818661681a565b9050616fe26060830185616f82565b616fef6080830184615657565b9695505050505050565b60008151905061700881615570565b92915050565b60006020828403121561702457617023614e8c565b5b600061703284828501616ff9565b91505092915050565b600060c0820190508181036000830152617055818961671a565b905081810360208301526170698188615d51565b9050818103604083015261707d818761681a565b905061708c6060830186616f82565b6170996080830185615657565b6170a660a0830184614f5b565b979650505050505050565b60006040820190506170c66000830185615657565b81810360208301526170d88184616b3d565b90509392505050565b600081519050919050565b600082825260208201905092915050565b6000819050602082019050919050565b600082825260208201905092915050565b600061712982614fde565b617133818561710d565b9350617143818560208601614ffa565b61714c81615024565b840191505092915050565b6000617163838361711e565b905092915050565b6000602082019050919050565b6000617183826170e1565b61718d81856170ec565b93508360208202850161719f856170fd565b8060005b858110156171db57848403895281516171bc8582617157565b94506171c78361716b565b925060208a019950506001810190506171a3565b50829750879550505050505092915050565b600061012082019050617203600083018c614f5b565b617210602083018b6150c2565b8181036040830152617222818a61671a565b905081810360608301526172368189615d51565b9050818103608083015261724a8188617178565b905081810360a083015261725e818761681a565b905061726d60c0830186614f5b565b61727a60e0830185614f5b565b81810361010083015261728d8184615035565b90509a9950505050505050505050565b60006172a8826157d3565b91506172b3836157d3565b9250828201905060ff8111156172cc576172cb616559565b5b92915050565b60008160011c9050919050565b6000808291508390505b60018511156173295780860481111561730557617304616559565b5b60018516156173145780820291505b8081029050617322856172d2565b94506172e9565b94509492505050565b60008261734257600190506173fe565b8161735057600090506173fe565b816001811461736657600281146173705761739f565b60019150506173fe565b60ff84111561738257617381616559565b5b8360020a91508482111561739957617398616559565b5b506173fe565b5060208310610133831016604e8410600b84101617156173d45782820a9050838111156173cf576173ce616559565b5b6173fe565b6173e184848460016172df565b925090508184048111156173f8576173f7616559565b5b81810290505b9392505050565b600061741082614f51565b915061741b836157d3565b92506174487fffffffffffffffffffffffffffffffffffffffffffffffffffffffffffffffff8484617332565b905092915050565b600060a0820190506174656000830188615657565b6174726020830187615657565b61747f6040830186615657565b61748c6060830185614f5b565b61749960808301846150c2565b9695505050505050565b60006080820190506174b86000830187615657565b6174c560208301866164db565b6174d26040830185615657565b6174df6060830184615657565b95945050505050565b600060408201905081810360008301526175028185615035565b90506175116020830184614f5b565b9392505050565b6000819050919050565b600061753d61753861753384617518565b6162a5565b6157d3565b9050919050565b61754d81617522565b82525050565b60006040820190506175686000830185617544565b6175756020830184614f5b565b9392505050565b7f4e487b7100000000000000000000000000000000000000000000000000000000600052605160045260246000fdfe787974476f7665726e6f725f6765744e616d6528295f636f6e74726163744e616d653a20a2646970667358221220a15b2e0fc2fb39ba4858f1d85dbf15c50f5aa53482c8962f3de3f741fafcf41064736f6c634300081c0033",
  "linkReferences": {},
  "deployedLinkReferences": {}
}