{
  "_format": "hh-sol-artifact-1",
  "contractName": "kokoToken2",
  "sourceName": "contracts/kokoDao/kokoToken2.sol",
  "abi": [
    {
      "inputs": [
        {
          "internalType": "string",
          "name": "_name",
          "type": "string"
        },
        {
          "internalType": "string",
          "name": "_symbol",
          "type": "string"
        }
      ],
      "stateMutability": "nonpayable",
      "type": "constructor"
    },
    {
      "inputs": [],
      "name": "CheckpointUnorderedInsertion",
      "type": "error"
    },
    {
      "inputs": [],
      "name": "ECDSAInvalidSignature",
      "type": "error"
    },
    {
      "inputs": [
        {
          "internalType": "uint256",
          "name": "length",
          "type": "uint256"
        }
      ],
      "name": "ECDSAInvalidSignatureLength",
      "type": "error"
    },
    {
      "inputs": [
        {
          "internalType": "bytes32",
          "name": "s",
          "type": "bytes32"
        }
      ],
      "name": "ECDSAInvalidSignatureS",
      "type": "error"
    },
    {
      "inputs": [
        {
          "internalType": "uint256",
          "name": "increasedSupply",
          "type": "uint256"
        },
        {
          "internalType": "uint256",
          "name": "cap",
          "type": "uint256"
        }
      ],
      "name": "ERC20ExceededSafeSupply",
      "type": "error"
    },
    {
      "inputs": [
        {
          "internalType": "address",
          "name": "spender",
          "type": "address"
        },
        {
          "internalType": "uint256",
          "name": "allowance",
          "type": "uint256"
        },
        {
          "internalType": "uint256",
          "name": "needed",
          "type": "uint256"
        }
      ],
      "name": "ERC20InsufficientAllowance",
      "type": "error"
    },
    {
      "inputs": [
        {
          "internalType": "address",
          "name": "sender",
          "type": "address"
        },
        {
          "internalType": "uint256",
          "name": "balance",
          "type": "uint256"
        },
        {
          "internalType": "uint256",
          "name": "needed",
          "type": "uint256"
        }
      ],
      "name": "ERC20InsufficientBalance",
      "type": "error"
    },
    {
      "inputs": [
        {
          "internalType": "address",
          "name": "approver",
          "type": "address"
        }
      ],
      "name": "ERC20InvalidApprover",
      "type": "error"
    },
    {
      "inputs": [
        {
          "internalType": "address",
          "name": "receiver",
          "type": "address"
        }
      ],
      "name": "ERC20InvalidReceiver",
      "type": "error"
    },
    {
      "inputs": [
        {
          "internalType": "address",
          "name": "sender",
          "type": "address"
        }
      ],
      "name": "ERC20InvalidSender",
      "type": "error"
    },
    {
      "inputs": [
        {
          "internalType": "address",
          "name": "spender",
          "type": "address"
        }
      ],
      "name": "ERC20InvalidSpender",
      "type": "error"
    },
    {
      "inputs": [
        {
          "internalType": "uint256",
          "name": "deadline",
          "type": "uint256"
        }
      ],
      "name": "ERC2612ExpiredSignature",
      "type": "error"
    },
    {
      "inputs": [
        {
          "internalType": "address",
          "name": "signer",
          "type": "address"
        },
        {
          "internalType": "address",
          "name": "owner",
          "type": "address"
        }
      ],
      "name": "ERC2612InvalidSigner",
      "type": "error"
    },
    {
      "inputs": [
        {
          "internalType": "uint256",
          "name": "timepoint",
          "type": "uint256"
        },
        {
          "internalType": "uint48",
          "name": "clock",
          "type": "uint48"
        }
      ],
      "name": "ERC5805FutureLookup",
      "type": "error"
    },
    {
      "inputs": [],
      "name": "ERC6372InconsistentClock",
      "type": "error"
    },
    {
      "inputs": [
        {
          "internalType": "address",
          "name": "account",
          "type": "address"
        },
        {
          "internalType": "uint256",
          "name": "currentNonce",
          "type": "uint256"
        }
      ],
      "name": "InvalidAccountNonce",
      "type": "error"
    },
    {
      "inputs": [],
      "name": "InvalidShortString",
      "type": "error"
    },
    {
      "inputs": [
        {
          "internalType": "uint8",
          "name": "bits",
          "type": "uint8"
        },
        {
          "internalType": "uint256",
          "name": "value",
          "type": "uint256"
        }
      ],
      "name": "SafeCastOverflowedUintDowncast",
      "type": "error"
    },
    {
      "inputs": [
        {
          "internalType": "string",
          "name": "str",
          "type": "string"
        }
      ],
      "name": "StringTooLong",
      "type": "error"
    },
    {
      "inputs": [
        {
          "internalType": "uint256",
          "name": "expiry",
          "type": "uint256"
        }
      ],
      "name": "VotesExpiredSignature",
      "type": "error"
    },
    {
      "anonymous": false,
      "inputs": [
        {
          "indexed": true,
          "internalType": "address",
          "name": "owner",
          "type": "address"
        },
        {
          "indexed": true,
          "internalType": "address",
          "name": "spender",
          "type": "address"
        },
        {
          "indexed": false,
          "internalType": "uint256",
          "name": "value",
          "type": "uint256"
        }
      ],
      "name": "Approval",
      "type": "event"
    },
    {
      "anonymous": false,
      "inputs": [
        {
          "indexed": true,
          "internalType": "address",
          "name": "delegator",
          "type": "address"
        },
        {
          "indexed": true,
          "internalType": "address",
          "name": "fromDelegate",
          "type": "address"
        },
        {
          "indexed": true,
          "internalType": "address",
          "name": "toDelegate",
          "type": "address"
        }
      ],
      "name": "DelegateChanged",
      "type": "event"
    },
    {
      "anonymous": false,
      "inputs": [
        {
          "indexed": true,
          "internalType": "address",
          "name": "delegate",
          "type": "address"
        },
        {
          "indexed": false,
          "internalType": "uint256",
          "name": "previousVotes",
          "type": "uint256"
        },
        {
          "indexed": false,
          "internalType": "uint256",
          "name": "newVotes",
          "type": "uint256"
        }
      ],
      "name": "DelegateVotesChanged",
      "type": "event"
    },
    {
      "anonymous": false,
      "inputs": [],
      "name": "EIP712DomainChanged",
      "type": "event"
    },
    {
      "anonymous": false,
      "inputs": [
        {
          "indexed": true,
          "internalType": "address",
          "name": "from",
          "type": "address"
        },
        {
          "indexed": true,
          "internalType": "address",
          "name": "to",
          "type": "address"
        },
        {
          "indexed": false,
          "internalType": "uint256",
          "name": "value",
          "type": "uint256"
        }
      ],
      "name": "Transfer",
      "type": "event"
    },
    {
      "inputs": [],
      "name": "CLOCK_MODE",
      "outputs": [
        {
          "internalType": "string",
          "name": "",
          "type": "string"
        }
      ],
      "stateMutability": "view",
      "type": "function"
    },
    {
      "inputs": [],
      "name": "DOMAIN_SEPARATOR",
      "outputs": [
        {
          "internalType": "bytes32",
          "name": "",
          "type": "bytes32"
        }
      ],
      "stateMutability": "view",
      "type": "function"
    },
    {
      "inputs": [
        {
          "internalType": "address",
          "name": "owner",
          "type": "address"
        },
        {
          "internalType": "address",
          "name": "spender",
          "type": "address"
        }
      ],
      "name": "allowance",
      "outputs": [
        {
          "internalType": "uint256",
          "name": "",
          "type": "uint256"
        }
      ],
      "stateMutability": "view",
      "type": "function"
    },
    {
      "inputs": [
        {
          "internalType": "address",
          "name": "spender",
          "type": "address"
        },
        {
          "internalType": "uint256",
          "name": "value",
          "type": "uint256"
        }
      ],
      "name": "approve",
      "outputs": [
        {
          "internalType": "bool",
          "name": "",
          "type": "bool"
        }
      ],
      "stateMutability": "nonpayable",
      "type": "function"
    },
    {
      "inputs": [
        {
          "internalType": "address",
          "name": "account",
          "type": "address"
        }
      ],
      "name": "balanceOf",
      "outputs": [
        {
          "internalType": "uint256",
          "name": "",
          "type": "uint256"
        }
      ],
      "stateMutability": "view",
      "type": "function"
    },
    {
      "inputs": [
        {
          "internalType": "address",
          "name": "account",
          "type": "address"
        },
        {
          "internalType": "uint32",
          "name": "pos",
          "type": "uint32"
        }
      ],
      "name": "checkpoints",
      "outputs": [
        {
          "components": [
            {
              "internalType": "uint48",
              "name": "_key",
              "type": "uint48"
            },
            {
              "internalType": "uint208",
              "name": "_value",
              "type": "uint208"
            }
          ],
          "internalType": "struct Checkpoints.Checkpoint208",
          "name": "",
          "type": "tuple"
        }
      ],
      "stateMutability": "view",
      "type": "function"
    },
    {
      "inputs": [],
      "name": "clock",
      "outputs": [
        {
          "internalType": "uint48",
          "name": "",
          "type": "uint48"
        }
      ],
      "stateMutability": "view",
      "type": "function"
    },
    {
      "inputs": [],
      "name": "decimals",
      "outputs": [
        {
          "internalType": "uint8",
          "name": "",
          "type": "uint8"
        }
      ],
      "stateMutability": "view",
      "type": "function"
    },
    {
      "inputs": [
        {
          "internalType": "address",
          "name": "delegatee",
          "type": "address"
        }
      ],
      "name": "delegate",
      "outputs": [],
      "stateMutability": "nonpayable",
      "type": "function"
    },
    {
      "inputs": [
        {
          "internalType": "address",
          "name": "delegatee",
          "type": "address"
        },
        {
          "internalType": "uint256",
          "name": "nonce",
          "type": "uint256"
        },
        {
          "internalType": "uint256",
          "name": "expiry",
          "type": "uint256"
        },
        {
          "internalType": "uint8",
          "name": "v",
          "type": "uint8"
        },
        {
          "internalType": "bytes32",
          "name": "r",
          "type": "bytes32"
        },
        {
          "internalType": "bytes32",
          "name": "s",
          "type": "bytes32"
        }
      ],
      "name": "delegateBySig",
      "outputs": [],
      "stateMutability": "nonpayable",
      "type": "function"
    },
    {
      "inputs": [
        {
          "internalType": "address",
          "name": "account",
          "type": "address"
        }
      ],
      "name": "delegates",
      "outputs": [
        {
          "internalType": "address",
          "name": "",
          "type": "address"
        }
      ],
      "stateMutability": "view",
      "type": "function"
    },
    {
      "inputs": [],
      "name": "eip712Domain",
      "outputs": [
        {
          "internalType": "bytes1",
          "name": "fields",
          "type": "bytes1"
        },
        {
          "internalType": "string",
          "name": "name",
          "type": "string"
        },
        {
          "internalType": "string",
          "name": "version",
          "type": "string"
        },
        {
          "internalType": "uint256",
          "name": "chainId",
          "type": "uint256"
        },
        {
          "internalType": "address",
          "name": "verifyingContract",
          "type": "address"
        },
        {
          "internalType": "bytes32",
          "name": "salt",
          "type": "bytes32"
        },
        {
          "internalType": "uint256[]",
          "name": "extensions",
          "type": "uint256[]"
        }
      ],
      "stateMutability": "view",
      "type": "function"
    },
    {
      "inputs": [
        {
          "internalType": "uint256",
          "name": "timepoint",
          "type": "uint256"
        }
      ],
      "name": "getPastTotalSupply",
      "outputs": [
        {
          "internalType": "uint256",
          "name": "",
          "type": "uint256"
        }
      ],
      "stateMutability": "view",
      "type": "function"
    },
    {
      "inputs": [
        {
          "internalType": "address",
          "name": "account",
          "type": "address"
        },
        {
          "internalType": "uint256",
          "name": "timepoint",
          "type": "uint256"
        }
      ],
      "name": "getPastVotes",
      "outputs": [
        {
          "internalType": "uint256",
          "name": "",
          "type": "uint256"
        }
      ],
      "stateMutability": "view",
      "type": "function"
    },
    {
      "inputs": [
        {
          "internalType": "address",
          "name": "account",
          "type": "address"
        }
      ],
      "name": "getVotes",
      "outputs": [
        {
          "internalType": "uint256",
          "name": "",
          "type": "uint256"
        }
      ],
      "stateMutability": "view",
      "type": "function"
    },
    {
      "inputs": [
        {
          "internalType": "uint256",
          "name": "value",
          "type": "uint256"
        }
      ],
      "name": "mint",
      "outputs": [],
      "stateMutability": "nonpayable",
      "type": "function"
    },
    {
      "inputs": [],
      "name": "name",
      "outputs": [
        {
          "internalType": "string",
          "name": "",
          "type": "string"
        }
      ],
      "stateMutability": "view",
      "type": "function"
    },
    {
      "inputs": [
        {
          "internalType": "address",
          "name": "owner",
          "type": "address"
        }
      ],
      "name": "nonces",
      "outputs": [
        {
          "internalType": "uint256",
          "name": "",
          "type": "uint256"
        }
      ],
      "stateMutability": "view",
      "type": "function"
    },
    {
      "inputs": [
        {
          "internalType": "address",
          "name": "account",
          "type": "address"
        }
      ],
      "name": "numCheckpoints",
      "outputs": [
        {
          "internalType": "uint32",
          "name": "",
          "type": "uint32"
        }
      ],
      "stateMutability": "view",
      "type": "function"
    },
    {
      "inputs": [
        {
          "internalType": "address",
          "name": "owner",
          "type": "address"
        },
        {
          "internalType": "address",
          "name": "spender",
          "type": "address"
        },
        {
          "internalType": "uint256",
          "name": "value",
          "type": "uint256"
        },
        {
          "internalType": "uint256",
          "name": "deadline",
          "type": "uint256"
        },
        {
          "internalType": "uint8",
          "name": "v",
          "type": "uint8"
        },
        {
          "internalType": "bytes32",
          "name": "r",
          "type": "bytes32"
        },
        {
          "internalType": "bytes32",
          "name": "s",
          "type": "bytes32"
        }
      ],
      "name": "permit",
      "outputs": [],
      "stateMutability": "nonpayable",
      "type": "function"
    },
    {
      "inputs": [],
      "name": "symbol",
      "outputs": [
        {
          "internalType": "string",
          "name": "",
          "type": "string"
        }
      ],
      "stateMutability": "view",
      "type": "function"
    },
    {
      "inputs": [],
      "name": "totalSupply",
      "outputs": [
        {
          "internalType": "uint256",
          "name": "",
          "type": "uint256"
        }
      ],
      "stateMutability": "view",
      "type": "function"
    },
    {
      "inputs": [
        {
          "internalType": "address",
          "name": "to",
          "type": "address"
        },
        {
          "internalType": "uint256",
          "name": "value",
          "type": "uint256"
        }
      ],
      "name": "transfer",
      "outputs": [
        {
          "internalType": "bool",
          "name": "",
          "type": "bool"
        }
      ],
      "stateMutability": "nonpayable",
      "type": "function"
    },
    {
      "inputs": [
        {
          "internalType": "address",
          "name": "from",
          "type": "address"
        },
        {
          "internalType": "address",
          "name": "to",
          "type": "address"
        },
        {
          "internalType": "uint256",
          "name": "value",
          "type": "uint256"
        }
      ],
      "name": "transferFrom",
      "outputs": [
        {
          "internalType": "bool",
          "name": "",
          "type": "bool"
        }
      ],
      "stateMutability": "nonpayable",
      "type": "function"
    }
  ],
  "bytecode": "0x61016060405234801561001157600080fd5b50604051613de7380380613de783398101604081905261003091610da7565b6040805180820190915260018152603160f81b6020820152829081908184600361005a8382610e98565b5060046100678282610e98565b5061007791508390506005610144565b61012052610086816006610144565b61014052815160208084019190912060e052815190820120610100524660a05261011360e05161010051604080517f8b73c3c69bb8fe3d512ecc4cf759cc79239f7b179b0ffacaa9a75d522b39400f60208201529081019290925260608201524660808201523060a082015260009060c00160405160208183030381529060405280519060200120905090565b60805250503060c0525061013d3361012d6012600a61104b565b610138906064611057565b610177565b5050611181565b600060208351101561016057610159836101b6565b9050610171565b8161016b8482610e98565b5060ff90505b92915050565b6001600160a01b0382166101a65760405163ec442f0560e01b8152600060048201526024015b60405180910390fd5b6101b2600083836101f4565b5050565b600080829050601f815111156101e1578260405163305a27a960e01b815260040161019d919061109a565b80516101ec826110ad565b179392505050565b6101ff838383610204565b505050565b61020f83838361026b565b6001600160a01b03831661026057600061022860025490565b90506001600160d01b038082111561025d57604051630e58ae9360e11b8152600481018390526024810182905260440161019d565b50505b6101ff838383610764565b60408051808201909152601381527f45524332302d5f75706461746528292d3131310000000000000000000000000060208201526102a8906107ed565b60408051808201909152601481527f45524332302d5f75706461746528292d66726f6d00000000000000000000000060208201526102e69084610837565b60408051808201909152601281527145524332302d5f75706461746528292d746f60701b60208201526103199083610837565b60408051808201909152601681527f45524332302d5f75706461746528292d76616c75653a0000000000000000000060208201526103579082610880565b6103c06040518060400160405280601b81526020017f45524332302d5f75706461746528292d66726f6d42616c616e63650000000000815250600080866001600160a01b03166001600160a01b031681526020019081526020016000205461088060201b60201c565b6104296040518060400160405280601981526020017f45524332302d5f75706461746528292d746f42616c616e636500000000000000815250600080856001600160a01b03166001600160a01b031681526020019081526020016000205461088060201b60201c565b6001600160a01b0383166104915760408051808201909152601381527f45524332302d5f75706461746528292d323232000000000000000000000000006020820152610474906107ed565b806002600082825461048691906110d1565b909155506105ba9050565b60408051808201909152601381527f45524332302d5f75706461746528292d3333330000000000000000000000000060208201526104ce906107ed565b6001600160a01b0383166000908152602081905260409020548181101561055e5760408051808201909152601381527f45524332302d5f75706461746528292d34343400000000000000000000000000602082015261052c906107ed565b60405163391434e360e21b81526001600160a01b0385166004820152602481018290526044810183905260640161019d565b60408051808201909152601381527f45524332302d5f75706461746528292d35353500000000000000000000000000602082015261059b906107ed565b6001600160a01b03841660009081526020819052604090209082900390555b6001600160a01b0382166106135760408051808201909152601381527f45524332302d5f75706461746528292d363636000000000000000000000000006020820152610605906107ed565b60028054829003905561066f565b60408051808201909152601381527f45524332302d5f75706461746528292d373737000000000000000000000000006020820152610650906107ed565b6001600160a01b03821660009081526020819052604090208054820190555b6106a9604051806060016040528060218152602001613da6602191396001600160a01b038516600090815260208190526040902054610880565b6107126040518060400160405280601f81526020017f61667465722d45524332302d5f75706461746528292d746f42616c616e636500815250600080856001600160a01b03166001600160a01b031681526020019081526020016000205461088060201b60201c565b816001600160a01b0316836001600160a01b03167fddf252ad1be2c89b69c2b068fc378daa952ba7f163c4a11628f55a4df523b3ef8360405161075791815260200190565b60405180910390a3505050565b6001600160a01b0383166107925761078f600a610f476108c960201b1761078a846108dc565b610914565b50505b6001600160a01b0382166107bb576107b8600a610f5361094a60201b1761078a846108dc565b50505b6001600160a01b038381166000908152600860205260408082205485841683529120546101ff92918216911683610956565b61083481604051602401610801919061109a565b60408051601f198184030181529190526020810180516001600160e01b0390811663104c13eb60e21b17909152610aab16565b50565b6101b2828260405160240161084d9291906110e4565b60408051601f198184030181529190526020810180516001600160e01b0390811663319af33360e01b17909152610aab16565b6101b2828260405160240161089692919061110e565b60408051601f198184030181529190526020810180516001600160e01b03908116632d839cb360e21b17909152610aab16565b60006108d58284611130565b9392505050565b60006001600160d01b03821115610910576040516306dfcc6560e41b815260d060048201526024810183905260440161019d565b5090565b60008061093d610922610abe565b61093561092e88610acd565b868860201c565b879190610b17565b915091505b935093915050565b60006108d5828461114f565b816001600160a01b0316836001600160a01b0316141580156109785750600081115b156101ff576001600160a01b03831615610a12576001600160a01b0383166000908152600960209081526040822082916109bf919061094a901b610f531761078a866108dc565b6001600160d01b031691506001600160d01b03169150846001600160a01b0316600080516020613dc78339815191528383604051610a07929190918252602082015260400190565b60405180910390a250505b6001600160a01b038216156101ff576001600160a01b038216600090815260096020908152604082208291610a5491906108c9901b610f471761078a866108dc565b6001600160d01b031691506001600160d01b03169150836001600160a01b0316600080516020613dc78339815191528383604051610a9c929190918252602082015260400190565b60405180910390a25050505050565b61083481610b2560201b610f5f1760201c565b6000610ac8610b46565b905090565b80546000908015610b0e57610af583610ae760018461116e565b600091825260209091200190565b54660100000000000090046001600160d01b03166108d5565b60009392505050565b60008061093d858585610b51565b60006a636f6e736f6c652e6c6f679050600080835160208501845afa505050565b6000610ac843610cb1565b825460009081908015610c53576000610b6f87610ae760018561116e565b805490915065ffffffffffff80821691660100000000000090046001600160d01b0316908816821115610bb557604051632520601d60e01b815260040160405180910390fd5b8765ffffffffffff168265ffffffffffff1603610bf157825465ffffffffffff1666010000000000006001600160d01b03891602178355610c45565b6040805180820190915265ffffffffffff808a1682526001600160d01b03808a1660208085019182528d54600181018f5560008f815291909120945191519092166601000000000000029216919091179101555b945085935061094292505050565b50506040805180820190915265ffffffffffff80851682526001600160d01b0380851660208085019182528854600181018a5560008a8152918220955192519093166601000000000000029190931617920191909155905081610942565b600065ffffffffffff821115610910576040516306dfcc6560e41b8152603060048201526024810183905260440161019d565b634e487b7160e01b600052604160045260246000fd5b60005b83811015610d15578181015183820152602001610cfd565b50506000910152565b600082601f830112610d2f57600080fd5b81516001600160401b03811115610d4857610d48610ce4565b604051601f8201601f19908116603f011681016001600160401b0381118282101715610d7657610d76610ce4565b604052818152838201602001851015610d8e57600080fd5b610d9f826020830160208701610cfa565b949350505050565b60008060408385031215610dba57600080fd5b82516001600160401b03811115610dd057600080fd5b610ddc85828601610d1e565b602085015190935090506001600160401b03811115610dfa57600080fd5b610e0685828601610d1e565b9150509250929050565b600181811c90821680610e2457607f821691505b602082108103610e4457634e487b7160e01b600052602260045260246000fd5b50919050565b601f8211156101ff57806000526020600020601f840160051c81016020851015610e715750805b601f840160051c820191505b81811015610e915760008155600101610e7d565b5050505050565b81516001600160401b03811115610eb157610eb1610ce4565b610ec581610ebf8454610e10565b84610e4a565b6020601f821160018114610ef95760008315610ee15750848201515b600019600385901b1c1916600184901b178455610e91565b600084815260208120601f198516915b82811015610f295787850151825560209485019460019092019101610f09565b5084821015610f475786840151600019600387901b60f8161c191681555b50505050600190811b01905550565b634e487b7160e01b600052601160045260246000fd5b6001815b600184111561094257808504811115610f8b57610f8b610f56565b6001841615610f9957908102905b60019390931c928002610f70565b600082610fb657506001610171565b81610fc357506000610171565b8160018114610fd95760028114610fe357610fff565b6001915050610171565b60ff841115610ff457610ff4610f56565b50506001821b610171565b5060208310610133831016604e8410600b8410161715611022575081810a610171565b61102f6000198484610f6c565b806000190482111561104357611043610f56565b029392505050565b60006108d58383610fa7565b808202811582820484141761017157610171610f56565b60008151808452611086816020860160208601610cfa565b601f01601f19169290920160200192915050565b6020815260006108d5602083018461106e565b80516020808301519190811015610e445760001960209190910360031b1b16919050565b8082018082111561017157610171610f56565b6040815260006110f7604083018561106e565b905060018060a01b03831660208301529392505050565b604081526000611121604083018561106e565b90508260208301529392505050565b6001600160d01b03818116838216019081111561017157610171610f56565b6001600160d01b03828116828216039081111561017157610171610f56565b8181038181111561017157610171610f56565b60805160a05160c05160e051610100516101205161014051612bcb6111db600039600061151e015260006114f1015260006112750152600061124d015260006111a8015260006111d2015260006111fc0152612bcb6000f3fe608060405234801561001057600080fd5b50600436106101985760003560e01c80637ecebe00116100e3578063a0712d681161008c578063d505accf11610066578063d505accf1461037d578063dd62ed3e14610390578063f1127ed8146103c957600080fd5b8063a0712d6814610344578063a9059cbb14610357578063c3cda5201461036a57600080fd5b806391ddadf4116100bd57806391ddadf41461030a57806395d89b41146103295780639ab24eb01461033157600080fd5b80637ecebe00146102c957806384b0196e146102dc5780638e539e8c146102f757600080fd5b80633a46b1a8116101455780635c19a95c1161011f5780635c19a95c146102795780636fcfff451461028e57806370a08231146102b657600080fd5b80633a46b1a81461021a5780634bf5d7e91461022d578063587cde1e1461023557600080fd5b806323b872dd1161017657806323b872dd146101f0578063313ce567146102035780633644e5151461021257600080fd5b806306fdde031461019d578063095ea7b3146101bb57806318160ddd146101de575b600080fd5b6101a5610408565b6040516101b29190612734565b60405180910390f35b6101ce6101c9366004612763565b61049a565b60405190151581526020016101b2565b6002545b6040519081526020016101b2565b6101ce6101fe36600461278d565b610640565b604051601281526020016101b2565b6101e2610664565b6101e2610228366004612763565b610673565b6101a5610738565b6102616102433660046127ca565b6001600160a01b039081166000908152600860205260409020541690565b6040516001600160a01b0390911681526020016101b2565b61028c6102873660046127ca565b6107c9565b005b6102a161029c3660046127ca565b6107d8565b60405163ffffffff90911681526020016101b2565b6101e26102c43660046127ca565b6107e3565b6101e26102d73660046127ca565b6108a3565b6102e46108ae565b6040516101b297969594939291906127e5565b6101e2610305366004612899565b610910565b61031261097a565b60405165ffffffffffff90911681526020016101b2565b6101a5610984565b6101e261033f3660046127ca565b610993565b61028c610352366004612899565b6109c3565b6101ce610365366004612763565b610a0d565b61028c6103783660046128c3565b610ce0565b61028c61038b36600461291b565b610db6565b6101e261039e366004612986565b6001600160a01b03918216600090815260016020908152604080832093909416825291909152205490565b6103dc6103d73660046129b9565b610f22565b60408051825165ffffffffffff1681526020928301516001600160d01b031692810192909252016101b2565b606060038054610417906129f9565b80601f0160208091040260200160405190810160405280929190818152602001828054610443906129f9565b80156104905780601f1061046557610100808354040283529160200191610490565b820191906000526020600020905b81548152906001019060200180831161047357829003601f168201915b5050505050905090565b60006104e16040518060400160405280601a81526020017f45524332302d617070726f766528292d6d73672e73656e6465720000000000008152506104dc3390565b610f80565b6105206040518060400160405280601781526020017f45524332302d617070726f766528292d7370656e64657200000000000000000081525084610f80565b61055f6040518060400160405280601581526020017f45524332302d617070726f766528292d76616c7565000000000000000000000081525083610fde565b604080518082018252601f81527f45524332302d617070726f766528292d5f616c6c6f77616e63652d3131313a00602080830191909152336000818152600183528481206001600160a01b0389168252909252929020546105c59190610fde565b610fde565b6105d081858561103c565b604080518082018252601e81527f45524332302d617070726f766528292d616c6c6f77616e63652d3232323a00006020808301919091526001600160a01b038085166000908152600183528481209189168152915291909120546106349190610fde565b60019150505b92915050565b60003361064e85828561104e565b6106598585856110e5565b506001949350505050565b600061066e61119b565b905090565b60006106b36040518060400160405280601281526020017f566f7465732d67657450617374566f74657300000000000000000000000000008152506112c6565b60006106bd61097a565b90508065ffffffffffff1683106106fd57604051637669fc0f60e11b81526004810184905265ffffffffffff821660248201526044015b60405180910390fd5b61072761070984611325565b6001600160a01b03861660009081526009602052604090209061135c565b6001600160d01b0316949350505050565b6060610742611415565b65ffffffffffff1661075261097a565b65ffffffffffff1614610791576040517f6ff0714000000000000000000000000000000000000000000000000000000000815260040160405180910390fd5b5060408051808201909152601d81527f6d6f64653d626c6f636b6e756d6265722666726f6d3d64656661756c74000000602082015290565b336107d48183611420565b5050565b600061063a826114aa565b60006108246040518060400160405280601981526020017f45524332305f62616c616e63654f6628292d6163636f756e740000000000000081525083610f80565b6108876040518060400160405280601581526020017f45524332305f62616c616e63654f6628295f3131310000000000000000000000815250600080856001600160a01b03166001600160a01b0316815260200190815260200160002054610fde565b506001600160a01b031660009081526020819052604090205490565b600061063a826114cc565b6000606080600080600060606108c26114ea565b6108ca611517565b604080516000808252602082019092527f0f000000000000000000000000000000000000000000000000000000000000009b939a50919850469750309650945092509050565b60008061091b61097a565b90508065ffffffffffff16831061095657604051637669fc0f60e11b81526004810184905265ffffffffffff821660248201526044016106f4565b61096a61096284611325565b600a9061135c565b6001600160d01b03169392505050565b600061066e611415565b606060048054610417906129f9565b6001600160a01b03811660009081526009602052604081206109b490611544565b6001600160d01b031692915050565b610a026040518060400160405280601c81526020017f6b6f6b6f546f6b656e2d6d696e7428292d6d73672e73656e6465723a0000000081525033610f80565b336107d48183611580565b600080339050610a516040518060400160405280601481526020017f45524332302d7472616e7366657228292d3131310000000000000000000000008152506112c6565b610a906040518060400160405280601e81526020017f45524332302d7472616e7366657228292d61646472657373287468697329000081525030610f80565b610acf6040518060400160405280601681526020017f45524332302d7472616e7366657228292d66726f6d3a0000000000000000000081525082610f80565b610b0e6040518060400160405280601481526020017f45524332302d7472616e7366657228292d746f3a00000000000000000000000081525085610f80565b610b4d6040518060400160405280601781526020017f45524332302d7472616e7366657228292d76616c75653a00000000000000000081525084610fde565b610bb06040518060400160405280601c81526020017f45524332302d7472616e7366657228292d66726f6d42616c616e636500000000815250600080846001600160a01b03166001600160a01b0316815260200190815260200160002054610fde565b610c136040518060400160405280601a81526020017f45524332302d7472616e7366657228292d746f42616c616e6365000000000000815250600080876001600160a01b03166001600160a01b0316815260200190815260200160002054610fde565b610c1e8185856110e5565b610c5c6040518060400160405280601481526020017f45524332302d7472616e7366657228292d3232320000000000000000000000008152506112c6565b610c9e6040518060400160405280601d81526020017f45524332302d7472616e7366657228292d66726f6d42616c616e63653a0000008152506105c0836107e3565b6106346040518060400160405280601b81526020017f45524332302d7472616e7366657228292d746f42616c616e63653a00000000008152506105c0866107e3565b83421115610d1d576040517f4683af0e000000000000000000000000000000000000000000000000000000008152600481018590526024016106f4565b604080517fe48329057bfd03d55e49b547132e39cffd9c1820ad7b9d4c5307691425d15adf60208201526001600160a01b038816918101919091526060810186905260808101859052600090610d9790610d8f9060a001604051602081830303815290604052805190602001206115b6565b8585856115fe565b9050610da3818761162c565b610dad8188611420565b50505050505050565b83421115610df3576040517f62791302000000000000000000000000000000000000000000000000000000008152600481018590526024016106f4565b60007f6e71edae12b1b97f4d1f60370fef10105fa2faae0126114a169c64845d6126c9888888610e408c6001600160a01b0316600090815260076020526040902080546001810190915590565b6040805160208101969096526001600160a01b0394851690860152929091166060840152608083015260a082015260c0810186905260e0016040516020818303038152906040528051906020012090506000610e9b826115b6565b90506000610eab828787876115fe565b9050896001600160a01b0316816001600160a01b031614610f0b576040517f4b800e460000000000000000000000000000000000000000000000000000000081526001600160a01b0380831660048301528b1660248201526044016106f4565b610f168a8a8a61103c565b50505050505050505050565b6040805180820190915260008082526020820152610f408383611698565b9392505050565b6000610f408284612a49565b6000610f408284612a68565b60006a636f6e736f6c652e6c6f679050600080835160208501845afa505050565b6107d48282604051602401610f96929190612a87565b60408051601f198184030181529190526020810180516001600160e01b03167f319af333000000000000000000000000000000000000000000000000000000001790526116ce565b6107d48282604051602401610ff4929190612ab2565b60408051601f198184030181529190526020810180516001600160e01b03167fb60e72cc000000000000000000000000000000000000000000000000000000001790526116ce565b61104983838360016116d7565b505050565b6001600160a01b0383811660009081526001602090815260408083209386168352929052205460001981146110df57818110156110d0576040517ffb8f41b20000000000000000000000000000000000000000000000000000000081526001600160a01b038416600482015260248101829052604481018390526064016106f4565b6110df848484840360006116d7565b50505050565b6001600160a01b038316611128576040517f96c6fd1e000000000000000000000000000000000000000000000000000000008152600060048201526024016106f4565b6001600160a01b0382166111525760405163ec442f0560e01b8152600060048201526024016106f4565b6111906040518060400160405280601581526020017f45524332302d5f7472616e7366657228292d31313100000000000000000000008152506112c6565b6110498383836117de565b6000306001600160a01b037f0000000000000000000000000000000000000000000000000000000000000000161480156111f457507f000000000000000000000000000000000000000000000000000000000000000046145b1561121e57507f000000000000000000000000000000000000000000000000000000000000000090565b61066e604080517f8b73c3c69bb8fe3d512ecc4cf759cc79239f7b179b0ffacaa9a75d522b39400f60208201527f0000000000000000000000000000000000000000000000000000000000000000918101919091527f000000000000000000000000000000000000000000000000000000000000000060608201524660808201523060a082015260009060c00160405160208183030381529060405280519060200120905090565b611322816040516024016112da9190612734565b60408051601f198184030181529190526020810180516001600160e01b03167f41304fac000000000000000000000000000000000000000000000000000000001790526116ce565b50565b600065ffffffffffff821115611358576040516306dfcc6560e41b815260306004820152602481018390526044016106f4565b5090565b8154600090818160058111156113bb576000611377846117e9565b6113819085612ad4565b60008881526020902090915081015465ffffffffffff90811690871610156113ab578091506113b9565b6113b6816001612ae7565b92505b505b60006113c98787858561194f565b90508015611407576113ee876113e0600184612ad4565b600091825260209091200190565b54660100000000000090046001600160d01b031661140a565b60005b979650505050505050565b600061066e43611325565b6001600160a01b0382811660008181526008602052604080822080548686167fffffffffffffffffffffffff0000000000000000000000000000000000000000821681179092559151919094169392849290917f3134e8a2e6d97e929a7e54011ea5485d7d196dd5f0ba4d4ef95803e8e3fc257f9190a461104981836114a5866119b1565b6119bc565b6001600160a01b03811660009081526009602052604081205461063a90611b28565b6001600160a01b03811660009081526007602052604081205461063a565b606061066e7f00000000000000000000000000000000000000000000000000000000000000006005611b59565b606061066e7f00000000000000000000000000000000000000000000000000000000000000006006611b59565b805460009080156115775761155e836113e0600184612ad4565b54660100000000000090046001600160d01b0316610f40565b60009392505050565b6001600160a01b0382166115aa5760405163ec442f0560e01b8152600060048201526024016106f4565b6107d4600083836117de565b600061063a6115c361119b565b836040517f19010000000000000000000000000000000000000000000000000000000000008152600281019290925260228201526042902090565b60008060008061161088888888611c04565b9250925092506116208282611cd3565b50909695505050505050565b6001600160a01b0382166000908152600760205260409020805460018101909155818114611049576040517f752d88c00000000000000000000000000000000000000000000000000000000081526001600160a01b0384166004820152602481018290526044016106f4565b60408051808201909152600080825260208201526001600160a01b0383166000908152600960205260409020610f409083611dd7565b61132281610f5f565b6001600160a01b03841661171a576040517fe602df05000000000000000000000000000000000000000000000000000000008152600060048201526024016106f4565b6001600160a01b03831661175d576040517f94280d62000000000000000000000000000000000000000000000000000000008152600060048201526024016106f4565b6001600160a01b03808516600090815260016020908152604080832093871683529290522082905580156110df57826001600160a01b0316846001600160a01b03167f8c5be1e5ebec7d5bd14f71427d1e84f3dd0314c0f7b2291e5b200ac8c7c3b925846040516117d091815260200190565b60405180910390a350505050565b611049838383611e4a565b6000600182116117f7575090565b816001700100000000000000000000000000000000821061181d5760809190911c9060401b5b6801000000000000000082106118385760409190911c9060201b5b640100000000821061184f5760209190911c9060101b5b6201000082106118645760109190911c9060081b5b61010082106118785760089190911c9060041b5b6010821061188b5760049190911c9060021b5b600482106118975760011b5b600302600190811c908185816118af576118af612afa565b048201901c905060018185816118c7576118c7612afa565b048201901c905060018185816118df576118df612afa565b048201901c905060018185816118f7576118f7612afa565b048201901c9050600181858161190f5761190f612afa565b048201901c9050600181858161192757611927612afa565b048201901c905061194681858161194057611940612afa565b04821190565b90039392505050565b60005b818310156119a95760006119668484611eca565b60008781526020902090915065ffffffffffff86169082015465ffffffffffff161115611995578092506119a3565b6119a0816001612ae7565b93505b50611952565b509392505050565b600061063a826107e3565b816001600160a01b0316836001600160a01b0316141580156119de5750600081115b15611049576001600160a01b03831615611a86576001600160a01b03831660009081526009602052604081208190611a2190610f53611a1c86611ee5565b611f19565b6001600160d01b031691506001600160d01b03169150846001600160a01b03167fdec2bacdd2f05b59de34da9b523dff8be42e5e38e818c82fdb0bae774387a7248383604051611a7b929190918252602082015260400190565b60405180910390a250505b6001600160a01b03821615611049576001600160a01b03821660009081526009602052604081208190611abf90610f47611a1c86611ee5565b6001600160d01b031691506001600160d01b03169150836001600160a01b03167fdec2bacdd2f05b59de34da9b523dff8be42e5e38e818c82fdb0bae774387a7248383604051611b19929190918252602082015260400190565b60405180910390a25050505050565b600063ffffffff821115611358576040516306dfcc6560e41b815260206004820152602481018390526044016106f4565b606060ff8314611b7357611b6c83611f52565b905061063a565b818054611b7f906129f9565b80601f0160208091040260200160405190810160405280929190818152602001828054611bab906129f9565b8015611bf85780601f10611bcd57610100808354040283529160200191611bf8565b820191906000526020600020905b815481529060010190602001808311611bdb57829003601f168201915b5050505050905061063a565b600080807f7fffffffffffffffffffffffffffffff5d576e7357a4501ddfe92f46681b20a0841115611c3f5750600091506003905082611cc9565b604080516000808252602082018084528a905260ff891692820192909252606081018790526080810186905260019060a0016020604051602081039080840390855afa158015611c93573d6000803e3d6000fd5b5050604051601f1901519150506001600160a01b038116611cbf57506000925060019150829050611cc9565b9250600091508190505b9450945094915050565b6000826003811115611ce757611ce7612b10565b03611cf0575050565b6001826003811115611d0457611d04612b10565b03611d3b576040517ff645eedf00000000000000000000000000000000000000000000000000000000815260040160405180910390fd5b6002826003811115611d4f57611d4f612b10565b03611d89576040517ffce698f7000000000000000000000000000000000000000000000000000000008152600481018290526024016106f4565b6003826003811115611d9d57611d9d612b10565b036107d4576040517fd78bce0c000000000000000000000000000000000000000000000000000000008152600481018290526024016106f4565b6040805180820190915260008082526020820152826000018263ffffffff1681548110611e0657611e06612b26565b60009182526020918290206040805180820190915291015465ffffffffffff81168252660100000000000090046001600160d01b0316918101919091529392505050565b611e55838383611f91565b6001600160a01b038316611ebf576000611e6e60025490565b90506001600160d01b0380821115611ebc576040517f1cb15d2600000000000000000000000000000000000000000000000000000000815260048101839052602481018290526044016106f4565b50505b6110498383836124a6565b6000611ed96002848418612b3c565b610f4090848416612ae7565b60006001600160d01b03821115611358576040516306dfcc6560e41b815260d06004820152602481018390526044016106f4565b600080611f45611f2761097a565b611f3d611f3388611544565b868863ffffffff16565b87919061251c565b915091505b935093915050565b60606000611f5f8361252a565b604080516020808252818301909252919250600091906020820181803683375050509182525060208101929092525090565b611fcf6040518060400160405280601381526020017f45524332302d5f75706461746528292d313131000000000000000000000000008152506112c6565b61200e6040518060400160405280601481526020017f45524332302d5f75706461746528292d66726f6d00000000000000000000000081525084610f80565b61204d6040518060400160405280601281526020017f45524332302d5f75706461746528292d746f000000000000000000000000000081525083610f80565b61208c6040518060400160405280601681526020017f45524332302d5f75706461746528292d76616c75653a0000000000000000000081525082610fde565b6120ef6040518060400160405280601b81526020017f45524332302d5f75706461746528292d66726f6d42616c616e63650000000000815250600080866001600160a01b03166001600160a01b0316815260200190815260200160002054610fde565b6121526040518060400160405280601981526020017f45524332302d5f75706461746528292d746f42616c616e636500000000000000815250600080856001600160a01b03166001600160a01b0316815260200190815260200160002054610fde565b6001600160a01b0383166121bb5761219e6040518060400160405280601381526020017f45524332302d5f75706461746528292d323232000000000000000000000000008152506112c6565b80600260008282546121b09190612ae7565b909155506123009050565b6121f96040518060400160405280601381526020017f45524332302d5f75706461746528292d333333000000000000000000000000008152506112c6565b6001600160a01b038316600090815260208190526040902054818110156122a3576122586040518060400160405280601381526020017f45524332302d5f75706461746528292d343434000000000000000000000000008152506112c6565b6040517fe450d38c0000000000000000000000000000000000000000000000000000000081526001600160a01b038516600482015260248101829052604481018390526064016106f4565b6122e16040518060400160405280601381526020017f45524332302d5f75706461746528292d353535000000000000000000000000008152506112c6565b6001600160a01b03841660009081526020819052604090209082900390555b6001600160a01b03821661235a5761234c6040518060400160405280601381526020017f45524332302d5f75706461746528292d363636000000000000000000000000008152506112c6565b6002805482900390556123b7565b6123986040518060400160405280601381526020017f45524332302d5f75706461746528292d373737000000000000000000000000008152506112c6565b6001600160a01b03821660009081526020819052604090208054820190555b6123f1604051806060016040528060218152602001612b75602191396001600160a01b038516600090815260208190526040902054610fde565b6124546040518060400160405280601f81526020017f61667465722d45524332302d5f75706461746528292d746f42616c616e636500815250600080856001600160a01b03166001600160a01b0316815260200190815260200160002054610fde565b816001600160a01b0316836001600160a01b03167fddf252ad1be2c89b69c2b068fc378daa952ba7f163c4a11628f55a4df523b3ef8360405161249991815260200190565b60405180910390a3505050565b6001600160a01b0383166124c8576124c5600a610f47611a1c84611ee5565b50505b6001600160a01b0382166124ea576124e7600a610f53611a1c84611ee5565b50505b6001600160a01b03838116600090815260086020526040808220548584168352912054611049929182169116836119bc565b600080611f4585858561256b565b600060ff8216601f81111561063a576040517fb3512b0c00000000000000000000000000000000000000000000000000000000815260040160405180910390fd5b825460009081908015612686576000612589876113e0600185612ad4565b805490915065ffffffffffff80821691660100000000000090046001600160d01b03169088168211156125e8576040517f2520601d00000000000000000000000000000000000000000000000000000000815260040160405180910390fd5b8765ffffffffffff168265ffffffffffff160361262457825465ffffffffffff1666010000000000006001600160d01b03891602178355612678565b6040805180820190915265ffffffffffff808a1682526001600160d01b03808a1660208085019182528d54600181018f5560008f815291909120945191519092166601000000000000029216919091179101555b9450859350611f4a92505050565b50506040805180820190915265ffffffffffff80851682526001600160d01b0380851660208085019182528854600181018a5560008a8152918220955192519093166601000000000000029190931617920191909155905081611f4a565b6126ec612b5e565b565b6000815180845260005b81811015612714576020818501810151868301820152016126f8565b506000602082860101526020601f19601f83011685010191505092915050565b602081526000610f4060208301846126ee565b80356001600160a01b038116811461275e57600080fd5b919050565b6000806040838503121561277657600080fd5b61277f83612747565b946020939093013593505050565b6000806000606084860312156127a257600080fd5b6127ab84612747565b92506127b960208501612747565b929592945050506040919091013590565b6000602082840312156127dc57600080fd5b610f4082612747565b7fff000000000000000000000000000000000000000000000000000000000000008816815260e06020820152600061282060e08301896126ee565b828103604084015261283281896126ee565b606084018890526001600160a01b038716608085015260a0840186905283810360c08501528451808252602080870193509091019060005b8181101561288857835183526020938401939092019160010161286a565b50909b9a5050505050505050505050565b6000602082840312156128ab57600080fd5b5035919050565b803560ff8116811461275e57600080fd5b60008060008060008060c087890312156128dc57600080fd5b6128e587612747565b95506020870135945060408701359350612901606088016128b2565b9598949750929560808101359460a0909101359350915050565b600080600080600080600060e0888a03121561293657600080fd5b61293f88612747565b965061294d60208901612747565b95506040880135945060608801359350612969608089016128b2565b9699959850939692959460a0840135945060c09093013592915050565b6000806040838503121561299957600080fd5b6129a283612747565b91506129b060208401612747565b90509250929050565b600080604083850312156129cc57600080fd5b6129d583612747565b9150602083013563ffffffff811681146129ee57600080fd5b809150509250929050565b600181811c90821680612a0d57607f821691505b602082108103612a2d57634e487b7160e01b600052602260045260246000fd5b50919050565b634e487b7160e01b600052601160045260246000fd5b6001600160d01b03818116838216019081111561063a5761063a612a33565b6001600160d01b03828116828216039081111561063a5761063a612a33565b604081526000612a9a60408301856126ee565b90506001600160a01b03831660208301529392505050565b604081526000612ac560408301856126ee565b90508260208301529392505050565b8181038181111561063a5761063a612a33565b8082018082111561063a5761063a612a33565b634e487b7160e01b600052601260045260246000fd5b634e487b7160e01b600052602160045260246000fd5b634e487b7160e01b600052603260045260246000fd5b600082612b5957634e487b7160e01b600052601260045260246000fd5b500490565b634e487b7160e01b600052605160045260246000fdfe61667465722d45524332302d5f75706461746528292d66726f6d42616c616e6365a2646970667358221220230b35333548abfa989e1ecb835484b699d42f9e60412f22d4939c586a8a591664736f6c634300081b003361667465722d45524332302d5f75706461746528292d66726f6d42616c616e6365dec2bacdd2f05b59de34da9b523dff8be42e5e38e818c82fdb0bae774387a724",
  "linkReferences": {},
  "deployedLinkReferences": {}
}