{
  "_format": "hh-sol-artifact-1",
  "contractName": "TimelockController",
  "sourceName": "contracts/openzeppelin/governance/TimelockController.sol",
  "abi": [
    {
      "inputs": [
        {
          "internalType": "uint256",
          "name": "minDelay",
          "type": "uint256"
        },
        {
          "internalType": "address[]",
          "name": "proposers",
          "type": "address[]"
        },
        {
          "internalType": "address[]",
          "name": "executors",
          "type": "address[]"
        },
        {
          "internalType": "address",
          "name": "admin",
          "type": "address"
        }
      ],
      "stateMutability": "nonpayable",
      "type": "constructor"
    },
    {
      "inputs": [],
      "name": "AccessControlBadConfirmation",
      "type": "error"
    },
    {
      "inputs": [
        {
          "internalType": "address",
          "name": "account",
          "type": "address"
        },
        {
          "internalType": "bytes32",
          "name": "neededRole",
          "type": "bytes32"
        }
      ],
      "name": "AccessControlUnauthorizedAccount",
      "type": "error"
    },
    {
      "inputs": [],
      "name": "FailedCall",
      "type": "error"
    },
    {
      "inputs": [
        {
          "internalType": "uint256",
          "name": "delay",
          "type": "uint256"
        },
        {
          "internalType": "uint256",
          "name": "minDelay",
          "type": "uint256"
        }
      ],
      "name": "TimelockInsufficientDelay",
      "type": "error"
    },
    {
      "inputs": [
        {
          "internalType": "uint256",
          "name": "targets",
          "type": "uint256"
        },
        {
          "internalType": "uint256",
          "name": "payloads",
          "type": "uint256"
        },
        {
          "internalType": "uint256",
          "name": "values",
          "type": "uint256"
        }
      ],
      "name": "TimelockInvalidOperationLength",
      "type": "error"
    },
    {
      "inputs": [
        {
          "internalType": "address",
          "name": "caller",
          "type": "address"
        }
      ],
      "name": "TimelockUnauthorizedCaller",
      "type": "error"
    },
    {
      "inputs": [
        {
          "internalType": "bytes32",
          "name": "predecessorId",
          "type": "bytes32"
        }
      ],
      "name": "TimelockUnexecutedPredecessor",
      "type": "error"
    },
    {
      "inputs": [
        {
          "internalType": "bytes32",
          "name": "operationId",
          "type": "bytes32"
        },
        {
          "internalType": "bytes32",
          "name": "expectedStates",
          "type": "bytes32"
        }
      ],
      "name": "TimelockUnexpectedOperationState",
      "type": "error"
    },
    {
      "anonymous": false,
      "inputs": [
        {
          "indexed": true,
          "internalType": "bytes32",
          "name": "id",
          "type": "bytes32"
        },
        {
          "indexed": true,
          "internalType": "uint256",
          "name": "index",
          "type": "uint256"
        },
        {
          "indexed": false,
          "internalType": "address",
          "name": "target",
          "type": "address"
        },
        {
          "indexed": false,
          "internalType": "uint256",
          "name": "value",
          "type": "uint256"
        },
        {
          "indexed": false,
          "internalType": "bytes",
          "name": "data",
          "type": "bytes"
        }
      ],
      "name": "CallExecuted",
      "type": "event"
    },
    {
      "anonymous": false,
      "inputs": [
        {
          "indexed": true,
          "internalType": "bytes32",
          "name": "id",
          "type": "bytes32"
        },
        {
          "indexed": false,
          "internalType": "bytes32",
          "name": "salt",
          "type": "bytes32"
        }
      ],
      "name": "CallSalt",
      "type": "event"
    },
    {
      "anonymous": false,
      "inputs": [
        {
          "indexed": true,
          "internalType": "bytes32",
          "name": "id",
          "type": "bytes32"
        },
        {
          "indexed": true,
          "internalType": "uint256",
          "name": "index",
          "type": "uint256"
        },
        {
          "indexed": false,
          "internalType": "address",
          "name": "target",
          "type": "address"
        },
        {
          "indexed": false,
          "internalType": "uint256",
          "name": "value",
          "type": "uint256"
        },
        {
          "indexed": false,
          "internalType": "bytes",
          "name": "data",
          "type": "bytes"
        },
        {
          "indexed": false,
          "internalType": "bytes32",
          "name": "predecessor",
          "type": "bytes32"
        },
        {
          "indexed": false,
          "internalType": "uint256",
          "name": "delay",
          "type": "uint256"
        }
      ],
      "name": "CallScheduled",
      "type": "event"
    },
    {
      "anonymous": false,
      "inputs": [
        {
          "indexed": true,
          "internalType": "bytes32",
          "name": "id",
          "type": "bytes32"
        }
      ],
      "name": "Cancelled",
      "type": "event"
    },
    {
      "anonymous": false,
      "inputs": [
        {
          "indexed": false,
          "internalType": "uint256",
          "name": "oldDuration",
          "type": "uint256"
        },
        {
          "indexed": false,
          "internalType": "uint256",
          "name": "newDuration",
          "type": "uint256"
        }
      ],
      "name": "MinDelayChange",
      "type": "event"
    },
    {
      "anonymous": false,
      "inputs": [
        {
          "indexed": true,
          "internalType": "bytes32",
          "name": "role",
          "type": "bytes32"
        },
        {
          "indexed": true,
          "internalType": "bytes32",
          "name": "previousAdminRole",
          "type": "bytes32"
        },
        {
          "indexed": true,
          "internalType": "bytes32",
          "name": "newAdminRole",
          "type": "bytes32"
        }
      ],
      "name": "RoleAdminChanged",
      "type": "event"
    },
    {
      "anonymous": false,
      "inputs": [
        {
          "indexed": true,
          "internalType": "bytes32",
          "name": "role",
          "type": "bytes32"
        },
        {
          "indexed": true,
          "internalType": "address",
          "name": "account",
          "type": "address"
        },
        {
          "indexed": true,
          "internalType": "address",
          "name": "sender",
          "type": "address"
        }
      ],
      "name": "RoleGranted",
      "type": "event"
    },
    {
      "anonymous": false,
      "inputs": [
        {
          "indexed": true,
          "internalType": "bytes32",
          "name": "role",
          "type": "bytes32"
        },
        {
          "indexed": true,
          "internalType": "address",
          "name": "account",
          "type": "address"
        },
        {
          "indexed": true,
          "internalType": "address",
          "name": "sender",
          "type": "address"
        }
      ],
      "name": "RoleRevoked",
      "type": "event"
    },
    {
      "inputs": [],
      "name": "CANCELLER_ROLE",
      "outputs": [
        {
          "internalType": "bytes32",
          "name": "",
          "type": "bytes32"
        }
      ],
      "stateMutability": "view",
      "type": "function"
    },
    {
      "inputs": [],
      "name": "DEFAULT_ADMIN_ROLE",
      "outputs": [
        {
          "internalType": "bytes32",
          "name": "",
          "type": "bytes32"
        }
      ],
      "stateMutability": "view",
      "type": "function"
    },
    {
      "inputs": [],
      "name": "EXECUTOR_ROLE",
      "outputs": [
        {
          "internalType": "bytes32",
          "name": "",
          "type": "bytes32"
        }
      ],
      "stateMutability": "view",
      "type": "function"
    },
    {
      "inputs": [],
      "name": "PROPOSER_ROLE",
      "outputs": [
        {
          "internalType": "bytes32",
          "name": "",
          "type": "bytes32"
        }
      ],
      "stateMutability": "view",
      "type": "function"
    },
    {
      "inputs": [
        {
          "internalType": "bytes32",
          "name": "id",
          "type": "bytes32"
        }
      ],
      "name": "cancel",
      "outputs": [],
      "stateMutability": "nonpayable",
      "type": "function"
    },
    {
      "inputs": [
        {
          "internalType": "address",
          "name": "target",
          "type": "address"
        },
        {
          "internalType": "uint256",
          "name": "value",
          "type": "uint256"
        },
        {
          "internalType": "bytes",
          "name": "payload",
          "type": "bytes"
        },
        {
          "internalType": "bytes32",
          "name": "predecessor",
          "type": "bytes32"
        },
        {
          "internalType": "bytes32",
          "name": "salt",
          "type": "bytes32"
        }
      ],
      "name": "execute",
      "outputs": [],
      "stateMutability": "payable",
      "type": "function"
    },
    {
      "inputs": [
        {
          "internalType": "address[]",
          "name": "targets",
          "type": "address[]"
        },
        {
          "internalType": "uint256[]",
          "name": "values",
          "type": "uint256[]"
        },
        {
          "internalType": "bytes[]",
          "name": "payloads",
          "type": "bytes[]"
        },
        {
          "internalType": "bytes32",
          "name": "predecessor",
          "type": "bytes32"
        },
        {
          "internalType": "bytes32",
          "name": "salt",
          "type": "bytes32"
        }
      ],
      "name": "executeBatch",
      "outputs": [],
      "stateMutability": "payable",
      "type": "function"
    },
    {
      "inputs": [],
      "name": "getMinDelay",
      "outputs": [
        {
          "internalType": "uint256",
          "name": "",
          "type": "uint256"
        }
      ],
      "stateMutability": "view",
      "type": "function"
    },
    {
      "inputs": [
        {
          "internalType": "bytes32",
          "name": "id",
          "type": "bytes32"
        }
      ],
      "name": "getOperationState",
      "outputs": [
        {
          "internalType": "enum TimelockController.OperationState",
          "name": "",
          "type": "uint8"
        }
      ],
      "stateMutability": "view",
      "type": "function"
    },
    {
      "inputs": [
        {
          "internalType": "bytes32",
          "name": "role",
          "type": "bytes32"
        }
      ],
      "name": "getRoleAdmin",
      "outputs": [
        {
          "internalType": "bytes32",
          "name": "",
          "type": "bytes32"
        }
      ],
      "stateMutability": "view",
      "type": "function"
    },
    {
      "inputs": [
        {
          "internalType": "bytes32",
          "name": "id",
          "type": "bytes32"
        }
      ],
      "name": "getTimestamp",
      "outputs": [
        {
          "internalType": "uint256",
          "name": "",
          "type": "uint256"
        }
      ],
      "stateMutability": "view",
      "type": "function"
    },
    {
      "inputs": [
        {
          "internalType": "bytes32",
          "name": "role",
          "type": "bytes32"
        },
        {
          "internalType": "address",
          "name": "account",
          "type": "address"
        }
      ],
      "name": "grantRole",
      "outputs": [],
      "stateMutability": "nonpayable",
      "type": "function"
    },
    {
      "inputs": [
        {
          "internalType": "bytes32",
          "name": "role",
          "type": "bytes32"
        },
        {
          "internalType": "address",
          "name": "account",
          "type": "address"
        }
      ],
      "name": "hasRole",
      "outputs": [
        {
          "internalType": "bool",
          "name": "",
          "type": "bool"
        }
      ],
      "stateMutability": "view",
      "type": "function"
    },
    {
      "inputs": [
        {
          "internalType": "address",
          "name": "target",
          "type": "address"
        },
        {
          "internalType": "uint256",
          "name": "value",
          "type": "uint256"
        },
        {
          "internalType": "bytes",
          "name": "data",
          "type": "bytes"
        },
        {
          "internalType": "bytes32",
          "name": "predecessor",
          "type": "bytes32"
        },
        {
          "internalType": "bytes32",
          "name": "salt",
          "type": "bytes32"
        }
      ],
      "name": "hashOperation",
      "outputs": [
        {
          "internalType": "bytes32",
          "name": "",
          "type": "bytes32"
        }
      ],
      "stateMutability": "pure",
      "type": "function"
    },
    {
      "inputs": [
        {
          "internalType": "address[]",
          "name": "targets",
          "type": "address[]"
        },
        {
          "internalType": "uint256[]",
          "name": "values",
          "type": "uint256[]"
        },
        {
          "internalType": "bytes[]",
          "name": "payloads",
          "type": "bytes[]"
        },
        {
          "internalType": "bytes32",
          "name": "predecessor",
          "type": "bytes32"
        },
        {
          "internalType": "bytes32",
          "name": "salt",
          "type": "bytes32"
        }
      ],
      "name": "hashOperationBatch",
      "outputs": [
        {
          "internalType": "bytes32",
          "name": "",
          "type": "bytes32"
        }
      ],
      "stateMutability": "pure",
      "type": "function"
    },
    {
      "inputs": [
        {
          "internalType": "bytes32",
          "name": "id",
          "type": "bytes32"
        }
      ],
      "name": "isOperation",
      "outputs": [
        {
          "internalType": "bool",
          "name": "",
          "type": "bool"
        }
      ],
      "stateMutability": "view",
      "type": "function"
    },
    {
      "inputs": [
        {
          "internalType": "bytes32",
          "name": "id",
          "type": "bytes32"
        }
      ],
      "name": "isOperationDone",
      "outputs": [
        {
          "internalType": "bool",
          "name": "",
          "type": "bool"
        }
      ],
      "stateMutability": "view",
      "type": "function"
    },
    {
      "inputs": [
        {
          "internalType": "bytes32",
          "name": "id",
          "type": "bytes32"
        }
      ],
      "name": "isOperationPending",
      "outputs": [
        {
          "internalType": "bool",
          "name": "",
          "type": "bool"
        }
      ],
      "stateMutability": "view",
      "type": "function"
    },
    {
      "inputs": [
        {
          "internalType": "bytes32",
          "name": "id",
          "type": "bytes32"
        }
      ],
      "name": "isOperationReady",
      "outputs": [
        {
          "internalType": "bool",
          "name": "",
          "type": "bool"
        }
      ],
      "stateMutability": "view",
      "type": "function"
    },
    {
      "inputs": [
        {
          "internalType": "address",
          "name": "",
          "type": "address"
        },
        {
          "internalType": "address",
          "name": "",
          "type": "address"
        },
        {
          "internalType": "uint256[]",
          "name": "",
          "type": "uint256[]"
        },
        {
          "internalType": "uint256[]",
          "name": "",
          "type": "uint256[]"
        },
        {
          "internalType": "bytes",
          "name": "",
          "type": "bytes"
        }
      ],
      "name": "onERC1155BatchReceived",
      "outputs": [
        {
          "internalType": "bytes4",
          "name": "",
          "type": "bytes4"
        }
      ],
      "stateMutability": "nonpayable",
      "type": "function"
    },
    {
      "inputs": [
        {
          "internalType": "address",
          "name": "",
          "type": "address"
        },
        {
          "internalType": "address",
          "name": "",
          "type": "address"
        },
        {
          "internalType": "uint256",
          "name": "",
          "type": "uint256"
        },
        {
          "internalType": "uint256",
          "name": "",
          "type": "uint256"
        },
        {
          "internalType": "bytes",
          "name": "",
          "type": "bytes"
        }
      ],
      "name": "onERC1155Received",
      "outputs": [
        {
          "internalType": "bytes4",
          "name": "",
          "type": "bytes4"
        }
      ],
      "stateMutability": "nonpayable",
      "type": "function"
    },
    {
      "inputs": [
        {
          "internalType": "address",
          "name": "",
          "type": "address"
        },
        {
          "internalType": "address",
          "name": "",
          "type": "address"
        },
        {
          "internalType": "uint256",
          "name": "",
          "type": "uint256"
        },
        {
          "internalType": "bytes",
          "name": "",
          "type": "bytes"
        }
      ],
      "name": "onERC721Received",
      "outputs": [
        {
          "internalType": "bytes4",
          "name": "",
          "type": "bytes4"
        }
      ],
      "stateMutability": "nonpayable",
      "type": "function"
    },
    {
      "inputs": [
        {
          "internalType": "bytes32",
          "name": "role",
          "type": "bytes32"
        },
        {
          "internalType": "address",
          "name": "callerConfirmation",
          "type": "address"
        }
      ],
      "name": "renounceRole",
      "outputs": [],
      "stateMutability": "nonpayable",
      "type": "function"
    },
    {
      "inputs": [
        {
          "internalType": "bytes32",
          "name": "role",
          "type": "bytes32"
        },
        {
          "internalType": "address",
          "name": "account",
          "type": "address"
        }
      ],
      "name": "revokeRole",
      "outputs": [],
      "stateMutability": "nonpayable",
      "type": "function"
    },
    {
      "inputs": [
        {
          "internalType": "address",
          "name": "target",
          "type": "address"
        },
        {
          "internalType": "uint256",
          "name": "value",
          "type": "uint256"
        },
        {
          "internalType": "bytes",
          "name": "data",
          "type": "bytes"
        },
        {
          "internalType": "bytes32",
          "name": "predecessor",
          "type": "bytes32"
        },
        {
          "internalType": "bytes32",
          "name": "salt",
          "type": "bytes32"
        },
        {
          "internalType": "uint256",
          "name": "delay",
          "type": "uint256"
        }
      ],
      "name": "schedule",
      "outputs": [],
      "stateMutability": "nonpayable",
      "type": "function"
    },
    {
      "inputs": [
        {
          "internalType": "address[]",
          "name": "targets",
          "type": "address[]"
        },
        {
          "internalType": "uint256[]",
          "name": "values",
          "type": "uint256[]"
        },
        {
          "internalType": "bytes[]",
          "name": "payloads",
          "type": "bytes[]"
        },
        {
          "internalType": "bytes32",
          "name": "predecessor",
          "type": "bytes32"
        },
        {
          "internalType": "bytes32",
          "name": "salt",
          "type": "bytes32"
        },
        {
          "internalType": "uint256",
          "name": "delay",
          "type": "uint256"
        }
      ],
      "name": "scheduleBatch",
      "outputs": [],
      "stateMutability": "nonpayable",
      "type": "function"
    },
    {
      "inputs": [
        {
          "internalType": "bytes4",
          "name": "interfaceId",
          "type": "bytes4"
        }
      ],
      "name": "supportsInterface",
      "outputs": [
        {
          "internalType": "bool",
          "name": "",
          "type": "bool"
        }
      ],
      "stateMutability": "view",
      "type": "function"
    },
    {
      "inputs": [
        {
          "internalType": "uint256",
          "name": "newDelay",
          "type": "uint256"
        }
      ],
      "name": "updateDelay",
      "outputs": [],
      "stateMutability": "nonpayable",
      "type": "function"
    },
    {
      "stateMutability": "payable",
      "type": "receive"
    }
  ],
  "bytecode": "0x608060405234801561001057600080fd5b506040516138a43803806138a48339818101604052810190610032919061055a565b6100456000801b306101ea60201b60201c565b50600073ffffffffffffffffffffffffffffffffffffffff168173ffffffffffffffffffffffffffffffffffffffff161461008f5761008d6000801b826101ea60201b60201c565b505b60005b835181101561013c576100e57fb09aa5aeb3702cfd50b6b62bc4532604938f21248a27a1d5ca736082b6819cc18583815181106100d2576100d16105f9565b5b60200260200101516101ea60201b60201c565b506101307ffd643c72710c63c0180259aba6b2d05451e3591a24e58b62239378085726f78385838151811061011d5761011c6105f9565b5b60200260200101516101ea60201b60201c565b50806001019050610092565b5060005b825181101561019f576101937fd8aa0f3194971a2a116679f7c2090f6939c8d4e01a2a8d7e41d55e5351469e638483815181106101805761017f6105f9565b5b60200260200101516101ea60201b60201c565b50806001019050610140565b50836002819055507f11c24f4ead16507c69ac467fbd5e4eed5fb5c699626d2cc6d66421df253886d56000856040516101d992919061067c565b60405180910390a1505050506106a5565b60006101fc83836102e760201b60201c565b6102dc57600160008085815260200190815260200160002060000160008473ffffffffffffffffffffffffffffffffffffffff1673ffffffffffffffffffffffffffffffffffffffff16815260200190815260200160002060006101000a81548160ff02191690831515021790555061027961035160201b60201c565b73ffffffffffffffffffffffffffffffffffffffff168273ffffffffffffffffffffffffffffffffffffffff16847f2f8788117e7eff1d82e926ec794901d17c78024a50270940304540a733656f0d60405160405180910390a4600190506102e1565b600090505b92915050565b600080600084815260200190815260200160002060000160008373ffffffffffffffffffffffffffffffffffffffff1673ffffffffffffffffffffffffffffffffffffffff16815260200190815260200160002060009054906101000a900460ff16905092915050565b600033905090565b6000604051905090565b600080fd5b600080fd5b6000819050919050565b6103808161036d565b811461038b57600080fd5b50565b60008151905061039d81610377565b92915050565b600080fd5b6000601f19601f8301169050919050565b7f4e487b7100000000000000000000000000000000000000000000000000000000600052604160045260246000fd5b6103f1826103a8565b810181811067ffffffffffffffff821117156104105761040f6103b9565b5b80604052505050565b6000610423610359565b905061042f82826103e8565b919050565b600067ffffffffffffffff82111561044f5761044e6103b9565b5b602082029050602081019050919050565b600080fd5b600073ffffffffffffffffffffffffffffffffffffffff82169050919050565b600061049082610465565b9050919050565b6104a081610485565b81146104ab57600080fd5b50565b6000815190506104bd81610497565b92915050565b60006104d66104d184610434565b610419565b905080838252602082019050602084028301858111156104f9576104f8610460565b5b835b81811015610522578061050e88826104ae565b8452602084019350506020810190506104fb565b5050509392505050565b600082601f830112610541576105406103a3565b5b81516105518482602086016104c3565b91505092915050565b6000806000806080858703121561057457610573610363565b5b60006105828782880161038e565b945050602085015167ffffffffffffffff8111156105a3576105a2610368565b5b6105af8782880161052c565b935050604085015167ffffffffffffffff8111156105d0576105cf610368565b5b6105dc8782880161052c565b92505060606105ed878288016104ae565b91505092959194509250565b7f4e487b7100000000000000000000000000000000000000000000000000000000600052603260045260246000fd5b6000819050919050565b6000819050919050565b600061065761065261064d84610628565b610632565b61036d565b9050919050565b6106678161063c565b82525050565b6106768161036d565b82525050565b6000604082019050610691600083018561065e565b61069e602083018461066d565b9392505050565b6131f0806106b46000396000f3fe6080604052600436106101bb5760003560e01c80638065657f116100ec578063bc197c811161008a578063d547741f11610064578063d547741f1461069e578063e38335e5146106c7578063f23a6e61146106e3578063f27a0c9214610720576101c2565b8063bc197c81146105fb578063c4d252f514610638578063d45c443514610661576101c2565b806391d14854116100c657806391d148541461052b578063a217fddf14610568578063b08e51c014610593578063b1c5f427146105be576101c2565b80638065657f1461049a5780638f2a0bb0146104d75780638f61f4f514610500576101c2565b80632ab0f5291161015957806336568abe1161013357806336568abe146103ce578063584b153e146103f757806364d62353146104345780637958004c1461045d576101c2565b80632ab0f5291461032b5780632f2ff15d1461036857806331d5075014610391576101c2565b8063134008d311610195578063134008d31461025857806313bc9f2014610274578063150b7a02146102b1578063248a9ca3146102ee576101c2565b806301d5062a146101c757806301ffc9a7146101f057806307bd02651461022d576101c2565b366101c257005b600080fd5b3480156101d357600080fd5b506101ee60048036038101906101e99190611f79565b61074b565b005b3480156101fc57600080fd5b5061021760048036038101906102129190612080565b610823565b60405161022491906120c8565b60405180910390f35b34801561023957600080fd5b50610242610835565b60405161024f91906120f2565b60405180910390f35b610272600480360381019061026d919061210d565b610859565b005b34801561028057600080fd5b5061029b600480360381019061029691906121a7565b610aec565b6040516102a891906120c8565b60405180910390f35b3480156102bd57600080fd5b506102d860048036038101906102d39190612315565b610b25565b6040516102e591906123a7565b60405180910390f35b3480156102fa57600080fd5b50610315600480360381019061031091906121a7565b610b39565b60405161032291906120f2565b60405180910390f35b34801561033757600080fd5b50610352600480360381019061034d91906121a7565b610b58565b60405161035f91906120c8565b60405180910390f35b34801561037457600080fd5b5061038f600480360381019061038a91906123c2565b610b90565b005b34801561039d57600080fd5b506103b860048036038101906103b391906121a7565b610bb2565b6040516103c591906120c8565b60405180910390f35b3480156103da57600080fd5b506103f560048036038101906103f091906123c2565b610beb565b005b34801561040357600080fd5b5061041e600480360381019061041991906121a7565b610c66565b60405161042b91906120c8565b60405180910390f35b34801561044057600080fd5b5061045b60048036038101906104569190612402565b610cd3565b005b34801561046957600080fd5b50610484600480360381019061047f91906121a7565b610d95565b60405161049191906124a6565b60405180910390f35b3480156104a657600080fd5b506104c160048036038101906104bc919061210d565b610de4565b6040516104ce91906120f2565b60405180910390f35b3480156104e357600080fd5b506104fe60048036038101906104f991906125c3565b610e23565b005b34801561050c57600080fd5b50610515610fe5565b60405161052291906120f2565b60405180910390f35b34801561053757600080fd5b50610552600480360381019061054d91906123c2565b611009565b60405161055f91906120c8565b60405180910390f35b34801561057457600080fd5b5061057d611073565b60405161058a91906120f2565b60405180910390f35b34801561059f57600080fd5b506105a861107a565b6040516105b591906120f2565b60405180910390f35b3480156105ca57600080fd5b506105e560048036038101906105e091906126b2565b61109e565b6040516105f291906120f2565b60405180910390f35b34801561060757600080fd5b50610622600480360381019061061d9190612851565b6110e3565b60405161062f91906123a7565b60405180910390f35b34801561064457600080fd5b5061065f600480360381019061065a91906121a7565b6110f8565b005b34801561066d57600080fd5b50610688600480360381019061068391906121a7565b6111ca565b604051610695919061292f565b60405180910390f35b3480156106aa57600080fd5b506106c560048036038101906106c091906123c2565b6111e7565b005b6106e160048036038101906106dc91906126b2565b611209565b005b3480156106ef57600080fd5b5061070a6004803603810190610705919061294a565b61159d565b60405161071791906123a7565b60405180910390f35b34801561072c57600080fd5b506107356115b2565b604051610742919061292f565b60405180910390f35b7fb09aa5aeb3702cfd50b6b62bc4532604938f21248a27a1d5ca736082b6819cc1610775816115bc565b6000610785898989898989610de4565b905061079181846115d0565b6000817f4cf4410cc57040e44862ef0f45f3dd5a5e02db8eb8add648d4b0e236f1d07dca8b8b8b8b8b8a6040516107cd96959493929190612a2e565b60405180910390a36000801b841461081857807f20fda5fd27a1ea7bf5b9567f143ac5470bb059374a27e8f67cb44f946f6d03878560405161080f91906120f2565b60405180910390a25b505050505050505050565b600061082e826116a1565b9050919050565b7fd8aa0f3194971a2a116679f7c2090f6939c8d4e01a2a8d7e41d55e5351469e6381565b7fd8aa0f3194971a2a116679f7c2090f6939c8d4e01a2a8d7e41d55e5351469e63610885816000611009565b61089b5761089a8161089561171b565b611723565b5b60005b60208160ff161080156108f05750600060f81b828260ff16602081106108c7576108c6612a8a565b5b1a60f81b7effffffffffffffffffffffffffffffffffffffffffffffffffffffffffffff191614155b1561090857808061090090612af5565b91505061089e565b60008160ff1667ffffffffffffffff811115610927576109266121ea565b5b6040519080825280601f01601f1916602001820160405280156109595781602001600182028036833780820191505090505b509050600091505b60208260ff161080156109b35750600060f81b838360ff166020811061098a57610989612a8a565b5b1a60f81b7effffffffffffffffffffffffffffffffffffffffffffffffffffffffffffff191614155b15610a2a57828260ff16602081106109ce576109cd612a8a565b5b1a60f81b818360ff16815181106109e8576109e7612a8a565b5b60200101907effffffffffffffffffffffffffffffffffffffffffffffffffffffffffffff1916908160001a9053508180610a2290612af5565b925050610961565b6000819050610a6e6040518060400160405280600b81526020017f726f6c655f537472696e6700000000000000000000000000000000000000000081525082611774565b6000610a7e8b8b8b8b8b8b610de4565b9050610a8a8188611810565b610a968b8b8b8b6118c4565b6000817fc2617efa69bab66782fa219543714338489c4e9e178271560a91b82c3f612b588d8d8d8d604051610ace9493929190612b1e565b60405180910390a3610adf81611949565b5050505050505050505050565b600060026003811115610b0257610b0161242f565b5b610b0b83610d95565b6003811115610b1d57610b1c61242f565b5b149050919050565b600063150b7a0260e01b9050949350505050565b6000806000838152602001908152602001600020600101549050919050565b6000600380811115610b6d57610b6c61242f565b5b610b7683610d95565b6003811115610b8857610b8761242f565b5b149050919050565b610b9982610b39565b610ba2816115bc565b610bac83836119b9565b50505050565b6000806003811115610bc757610bc661242f565b5b610bd083610d95565b6003811115610be257610be161242f565b5b14159050919050565b610bf361171b565b73ffffffffffffffffffffffffffffffffffffffff168173ffffffffffffffffffffffffffffffffffffffff1614610c57576040517f6697b23200000000000000000000000000000000000000000000000000000000815260040160405180910390fd5b610c618282611aaa565b505050565b600080610c7283610d95565b905060016003811115610c8857610c8761242f565b5b816003811115610c9b57610c9a61242f565b5b1480610ccb575060026003811115610cb657610cb561242f565b5b816003811115610cc957610cc861242f565b5b145b915050919050565b6000610cdd61171b565b90503073ffffffffffffffffffffffffffffffffffffffff168173ffffffffffffffffffffffffffffffffffffffff1614610d4f57806040517fe2850c59000000000000000000000000000000000000000000000000000000008152600401610d469190612b5e565b60405180910390fd5b7f11c24f4ead16507c69ac467fbd5e4eed5fb5c699626d2cc6d66421df253886d560025483604051610d82929190612b79565b60405180910390a1816002819055505050565b600080610da1836111ca565b905060008103610db5576000915050610ddf565b60018103610dc7576003915050610ddf565b42811115610dd9576001915050610ddf565b60029150505b919050565b6000868686868686604051602001610e0196959493929190612ba2565b6040516020818303038152906040528051906020012090509695505050505050565b7fb09aa5aeb3702cfd50b6b62bc4532604938f21248a27a1d5ca736082b6819cc1610e4d816115bc565b878790508a8a9050141580610e685750858590508a8a905014155b15610eb7578989905086869050898990506040517fffb03211000000000000000000000000000000000000000000000000000000008152600401610eae93929190612bfe565b60405180910390fd5b6000610ec98b8b8b8b8b8b8b8b61109e565b9050610ed581846115d0565b60005b8b8b9050811015610f945780827f4cf4410cc57040e44862ef0f45f3dd5a5e02db8eb8add648d4b0e236f1d07dca8e8e85818110610f1957610f18612a8a565b5b9050602002016020810190610f2e9190612c35565b8d8d86818110610f4157610f40612a8a565b5b905060200201358c8c87818110610f5b57610f5a612a8a565b5b9050602002810190610f6d9190612c71565b8c8b604051610f8196959493929190612a2e565b60405180910390a3806001019050610ed8565b506000801b8414610fd857807f20fda5fd27a1ea7bf5b9567f143ac5470bb059374a27e8f67cb44f946f6d038785604051610fcf91906120f2565b60405180910390a25b5050505050505050505050565b7fb09aa5aeb3702cfd50b6b62bc4532604938f21248a27a1d5ca736082b6819cc181565b600080600084815260200190815260200160002060000160008373ffffffffffffffffffffffffffffffffffffffff1673ffffffffffffffffffffffffffffffffffffffff16815260200190815260200160002060009054906101000a900460ff16905092915050565b6000801b81565b7ffd643c72710c63c0180259aba6b2d05451e3591a24e58b62239378085726f78381565b600088888888888888886040516020016110bf989796959493929190612f76565b60405160208183030381529060405280519060200120905098975050505050505050565b600063bc197c8160e01b905095945050505050565b7ffd643c72710c63c0180259aba6b2d05451e3591a24e58b62239378085726f783611122816115bc565b61112b82610c66565b611182578161113a6002611b9c565b6111446001611b9c565b176040517f5ead8eb5000000000000000000000000000000000000000000000000000000008152600401611179929190612fe4565b60405180910390fd5b6001600083815260200190815260200160002060009055817fbaa1eb22f2a492ba1a5fea61b8df4d27c6c8b5f3971e63bb58fa14ff72eedb7060405160405180910390a25050565b600060016000838152602001908152602001600020549050919050565b6111f082610b39565b6111f9816115bc565b6112038383611aaa565b50505050565b7fd8aa0f3194971a2a116679f7c2090f6939c8d4e01a2a8d7e41d55e5351469e63611235816000611009565b61124b5761124a8161124561171b565b611723565b5b60005b60208160ff161080156112a05750600060f81b828260ff166020811061127757611276612a8a565b5b1a60f81b7effffffffffffffffffffffffffffffffffffffffffffffffffffffffffffff191614155b156112b85780806112b090612af5565b91505061124e565b60008160ff1667ffffffffffffffff8111156112d7576112d66121ea565b5b6040519080825280601f01601f1916602001820160405280156113095781602001600182028036833780820191505090505b509050600091505b60208260ff161080156113635750600060f81b838360ff166020811061133a57611339612a8a565b5b1a60f81b7effffffffffffffffffffffffffffffffffffffffffffffffffffffffffffff191614155b156113da57828260ff166020811061137e5761137d612a8a565b5b1a60f81b818360ff168151811061139857611397612a8a565b5b60200101907effffffffffffffffffffffffffffffffffffffffffffffffffffffffffffff1916908160001a90535081806113d290612af5565b925050611311565b600081905061141e6040518060400160405280600b81526020017f726f6c655f537472696e6700000000000000000000000000000000000000000081525082611774565b898990508c8c90501415806114395750878790508c8c905014155b15611488578b8b9050888890508b8b90506040517fffb0321100000000000000000000000000000000000000000000000000000000815260040161147f93929190612bfe565b60405180910390fd5b600061149a8d8d8d8d8d8d8d8d61109e565b90506114a68188611810565b60005b8d8d90508110156115845760008e8e838181106114c9576114c8612a8a565b5b90506020020160208101906114de9190612c35565b905060008d8d848181106114f5576114f4612a8a565b5b9050602002013590503660008d8d8681811061151457611513612a8a565b5b90506020028101906115269190612c71565b91509150611536848484846118c4565b84867fc2617efa69bab66782fa219543714338489c4e9e178271560a91b82c3f612b588686868660405161156d9493929190612b1e565b60405180910390a3505050508060010190506114a9565b5061158e81611949565b50505050505050505050505050565b600063f23a6e6160e01b905095945050505050565b6000600254905090565b6115cd816115c861171b565b611723565b50565b6115d982610bb2565b1561162657816115e96000611b9c565b6040517f5ead8eb500000000000000000000000000000000000000000000000000000000815260040161161d929190612fe4565b60405180910390fd5b60006116306115b2565b9050808210156116795781816040517f54336609000000000000000000000000000000000000000000000000000000008152600401611670929190612b79565b60405180910390fd5b8142611685919061300d565b6001600085815260200190815260200160002081905550505050565b60007f4e2312e0000000000000000000000000000000000000000000000000000000007bffffffffffffffffffffffffffffffffffffffffffffffffffffffff1916827bffffffffffffffffffffffffffffffffffffffffffffffffffffffff19161480611714575061171382611bc2565b5b9050919050565b600033905090565b61172d8282611009565b6117705780826040517fe2517d3f000000000000000000000000000000000000000000000000000000008152600401611767929190613041565b60405180910390fd5b5050565b61180c828260405160240161178a9291906130e9565b6040516020818303038152906040527f4b5c4277000000000000000000000000000000000000000000000000000000007bffffffffffffffffffffffffffffffffffffffffffffffffffffffff19166020820180517bffffffffffffffffffffffffffffffffffffffffffffffffffffffff8381831617835250505050611c3c565b5050565b61181982610aec565b61186557816118286002611b9c565b6040517f5ead8eb500000000000000000000000000000000000000000000000000000000815260040161185c929190612fe4565b60405180910390fd5b6000801b811415801561187e575061187c81610b58565b155b156118c057806040517f90a9a6180000000000000000000000000000000000000000000000000000000081526004016118b791906120f2565b60405180910390fd5b5050565b6000808573ffffffffffffffffffffffffffffffffffffffff168585856040516118ef929190613150565b60006040518083038185875af1925050503d806000811461192c576040519150601f19603f3d011682016040523d82523d6000602084013e611931565b606091505b50915091506119408282611c56565b50505050505050565b61195281610aec565b61199e57806119616002611b9c565b6040517f5ead8eb5000000000000000000000000000000000000000000000000000000008152600401611995929190612fe4565b60405180910390fd5b60018060008381526020019081526020016000208190555050565b60006119c58383611009565b611a9f57600160008085815260200190815260200160002060000160008473ffffffffffffffffffffffffffffffffffffffff1673ffffffffffffffffffffffffffffffffffffffff16815260200190815260200160002060006101000a81548160ff021916908315150217905550611a3c61171b565b73ffffffffffffffffffffffffffffffffffffffff168273ffffffffffffffffffffffffffffffffffffffff16847f2f8788117e7eff1d82e926ec794901d17c78024a50270940304540a733656f0d60405160405180910390a460019050611aa4565b600090505b92915050565b6000611ab68383611009565b15611b9157600080600085815260200190815260200160002060000160008473ffffffffffffffffffffffffffffffffffffffff1673ffffffffffffffffffffffffffffffffffffffff16815260200190815260200160002060006101000a81548160ff021916908315150217905550611b2e61171b565b73ffffffffffffffffffffffffffffffffffffffff168273ffffffffffffffffffffffffffffffffffffffff16847ff6391f5c32d9c69d2a47ea670b442974b53935d1edc7fd64eb21e047a839171b60405160405180910390a460019050611b96565b600090505b92915050565b6000816003811115611bb157611bb061242f565b5b60ff166001901b60001b9050919050565b60007f7965db0b000000000000000000000000000000000000000000000000000000007bffffffffffffffffffffffffffffffffffffffffffffffffffffffff1916827bffffffffffffffffffffffffffffffffffffffffffffffffffffffff19161480611c355750611c3482611cb8565b5b9050919050565b611c5381611c4b611d22611d43565b63ffffffff16565b50565b6060611c966040518060400160405280601e81526020017f416464726573732d76657269667943616c6c526573756c7428292d3131310000815250611d4e565b82611ca957611ca482611de7565b611cb1565b819050611cb2565b5b92915050565b60007f01ffc9a7000000000000000000000000000000000000000000000000000000007bffffffffffffffffffffffffffffffffffffffffffffffffffffffff1916827bffffffffffffffffffffffffffffffffffffffffffffffffffffffff1916149050919050565b60006a636f6e736f6c652e6c6f679050600080835160208501845afa505050565b611e2c819050919050565b611de481604051602401611d629190613169565b6040516020818303038152906040527f41304fac000000000000000000000000000000000000000000000000000000007bffffffffffffffffffffffffffffffffffffffffffffffffffffffff19166020820180517bffffffffffffffffffffffffffffffffffffffffffffffffffffffff8381831617835250505050611c3c565b50565b600081511115611dfa5780518082602001fd5b6040517fd6bda27500000000000000000000000000000000000000000000000000000000815260040160405180910390fd5b611e3461318b565b565b6000604051905090565b600080fd5b600080fd5b600073ffffffffffffffffffffffffffffffffffffffff82169050919050565b6000611e7582611e4a565b9050919050565b611e8581611e6a565b8114611e9057600080fd5b50565b600081359050611ea281611e7c565b92915050565b6000819050919050565b611ebb81611ea8565b8114611ec657600080fd5b50565b600081359050611ed881611eb2565b92915050565b600080fd5b600080fd5b600080fd5b60008083601f840112611f0357611f02611ede565b5b8235905067ffffffffffffffff811115611f2057611f1f611ee3565b5b602083019150836001820283011115611f3c57611f3b611ee8565b5b9250929050565b6000819050919050565b611f5681611f43565b8114611f6157600080fd5b50565b600081359050611f7381611f4d565b92915050565b600080600080600080600060c0888a031215611f9857611f97611e40565b5b6000611fa68a828b01611e93565b9750506020611fb78a828b01611ec9565b965050604088013567ffffffffffffffff811115611fd857611fd7611e45565b5b611fe48a828b01611eed565b95509550506060611ff78a828b01611f64565b93505060806120088a828b01611f64565b92505060a06120198a828b01611ec9565b91505092959891949750929550565b60007fffffffff0000000000000000000000000000000000000000000000000000000082169050919050565b61205d81612028565b811461206857600080fd5b50565b60008135905061207a81612054565b92915050565b60006020828403121561209657612095611e40565b5b60006120a48482850161206b565b91505092915050565b60008115159050919050565b6120c2816120ad565b82525050565b60006020820190506120dd60008301846120b9565b92915050565b6120ec81611f43565b82525050565b600060208201905061210760008301846120e3565b92915050565b60008060008060008060a0878903121561212a57612129611e40565b5b600061213889828a01611e93565b965050602061214989828a01611ec9565b955050604087013567ffffffffffffffff81111561216a57612169611e45565b5b61217689828a01611eed565b9450945050606061218989828a01611f64565b925050608061219a89828a01611f64565b9150509295509295509295565b6000602082840312156121bd576121bc611e40565b5b60006121cb84828501611f64565b91505092915050565b600080fd5b6000601f19601f8301169050919050565b7f4e487b7100000000000000000000000000000000000000000000000000000000600052604160045260246000fd5b612222826121d9565b810181811067ffffffffffffffff82111715612241576122406121ea565b5b80604052505050565b6000612254611e36565b90506122608282612219565b919050565b600067ffffffffffffffff8211156122805761227f6121ea565b5b612289826121d9565b9050602081019050919050565b82818337600083830152505050565b60006122b86122b384612265565b61224a565b9050828152602081018484840111156122d4576122d36121d4565b5b6122df848285612296565b509392505050565b600082601f8301126122fc576122fb611ede565b5b813561230c8482602086016122a5565b91505092915050565b6000806000806080858703121561232f5761232e611e40565b5b600061233d87828801611e93565b945050602061234e87828801611e93565b935050604061235f87828801611ec9565b925050606085013567ffffffffffffffff8111156123805761237f611e45565b5b61238c878288016122e7565b91505092959194509250565b6123a181612028565b82525050565b60006020820190506123bc6000830184612398565b92915050565b600080604083850312156123d9576123d8611e40565b5b60006123e785828601611f64565b92505060206123f885828601611e93565b9150509250929050565b60006020828403121561241857612417611e40565b5b600061242684828501611ec9565b91505092915050565b7f4e487b7100000000000000000000000000000000000000000000000000000000600052602160045260246000fd5b6004811061246f5761246e61242f565b5b50565b60008190506124808261245e565b919050565b600061249082612472565b9050919050565b6124a081612485565b82525050565b60006020820190506124bb6000830184612497565b92915050565b60008083601f8401126124d7576124d6611ede565b5b8235905067ffffffffffffffff8111156124f4576124f3611ee3565b5b6020830191508360208202830111156125105761250f611ee8565b5b9250929050565b60008083601f84011261252d5761252c611ede565b5b8235905067ffffffffffffffff81111561254a57612549611ee3565b5b60208301915083602082028301111561256657612565611ee8565b5b9250929050565b60008083601f84011261258357612582611ede565b5b8235905067ffffffffffffffff8111156125a05761259f611ee3565b5b6020830191508360208202830111156125bc576125bb611ee8565b5b9250929050565b600080600080600080600080600060c08a8c0312156125e5576125e4611e40565b5b60008a013567ffffffffffffffff81111561260357612602611e45565b5b61260f8c828d016124c1565b995099505060208a013567ffffffffffffffff81111561263257612631611e45565b5b61263e8c828d01612517565b975097505060408a013567ffffffffffffffff81111561266157612660611e45565b5b61266d8c828d0161256d565b955095505060606126808c828d01611f64565b93505060806126918c828d01611f64565b92505060a06126a28c828d01611ec9565b9150509295985092959850929598565b60008060008060008060008060a0898b0312156126d2576126d1611e40565b5b600089013567ffffffffffffffff8111156126f0576126ef611e45565b5b6126fc8b828c016124c1565b9850985050602089013567ffffffffffffffff81111561271f5761271e611e45565b5b61272b8b828c01612517565b9650965050604089013567ffffffffffffffff81111561274e5761274d611e45565b5b61275a8b828c0161256d565b9450945050606061276d8b828c01611f64565b925050608061277e8b828c01611f64565b9150509295985092959890939650565b600067ffffffffffffffff8211156127a9576127a86121ea565b5b602082029050602081019050919050565b60006127cd6127c88461278e565b61224a565b905080838252602082019050602084028301858111156127f0576127ef611ee8565b5b835b8181101561281957806128058882611ec9565b8452602084019350506020810190506127f2565b5050509392505050565b600082601f83011261283857612837611ede565b5b81356128488482602086016127ba565b91505092915050565b600080600080600060a0868803121561286d5761286c611e40565b5b600061287b88828901611e93565b955050602061288c88828901611e93565b945050604086013567ffffffffffffffff8111156128ad576128ac611e45565b5b6128b988828901612823565b935050606086013567ffffffffffffffff8111156128da576128d9611e45565b5b6128e688828901612823565b925050608086013567ffffffffffffffff81111561290757612906611e45565b5b612913888289016122e7565b9150509295509295909350565b61292981611ea8565b82525050565b60006020820190506129446000830184612920565b92915050565b600080600080600060a0868803121561296657612965611e40565b5b600061297488828901611e93565b955050602061298588828901611e93565b945050604061299688828901611ec9565b93505060606129a788828901611ec9565b925050608086013567ffffffffffffffff8111156129c8576129c7611e45565b5b6129d4888289016122e7565b9150509295509295909350565b6129ea81611e6a565b82525050565b600082825260208201905092915050565b6000612a0d83856129f0565b9350612a1a838584612296565b612a23836121d9565b840190509392505050565b600060a082019050612a4360008301896129e1565b612a506020830188612920565b8181036040830152612a63818688612a01565b9050612a7260608301856120e3565b612a7f6080830184612920565b979650505050505050565b7f4e487b7100000000000000000000000000000000000000000000000000000000600052603260045260246000fd5b7f4e487b7100000000000000000000000000000000000000000000000000000000600052601160045260246000fd5b600060ff82169050919050565b6000612b0082612ae8565b915060ff8203612b1357612b12612ab9565b5b600182019050919050565b6000606082019050612b3360008301876129e1565b612b406020830186612920565b8181036040830152612b53818486612a01565b905095945050505050565b6000602082019050612b7360008301846129e1565b92915050565b6000604082019050612b8e6000830185612920565b612b9b6020830184612920565b9392505050565b600060a082019050612bb760008301896129e1565b612bc46020830188612920565b8181036040830152612bd7818688612a01565b9050612be660608301856120e3565b612bf360808301846120e3565b979650505050505050565b6000606082019050612c136000830186612920565b612c206020830185612920565b612c2d6040830184612920565b949350505050565b600060208284031215612c4b57612c4a611e40565b5b6000612c5984828501611e93565b91505092915050565b600080fd5b600080fd5b600080fd5b60008083356001602003843603038112612c8e57612c8d612c62565b5b80840192508235915067ffffffffffffffff821115612cb057612caf612c67565b5b602083019250600182023603831315612ccc57612ccb612c6c565b5b509250929050565b600082825260208201905092915050565b6000819050919050565b612cf881611e6a565b82525050565b6000612d0a8383612cef565b60208301905092915050565b6000612d256020840184611e93565b905092915050565b6000602082019050919050565b6000612d468385612cd4565b9350612d5182612ce5565b8060005b85811015612d8a57612d678284612d16565b612d718882612cfe565b9750612d7c83612d2d565b925050600181019050612d55565b5085925050509392505050565b600082825260208201905092915050565b600080fd5b82818337505050565b6000612dc28385612d97565b93507f07ffffffffffffffffffffffffffffffffffffffffffffffffffffffffffffff831115612df557612df4612da8565b5b602083029250612e06838584612dad565b82840190509392505050565b600082825260208201905092915050565b6000819050919050565b600082825260208201905092915050565b6000612e4a8385612e2d565b9350612e57838584612296565b612e60836121d9565b840190509392505050565b6000612e78848484612e3e565b90509392505050565b600080fd5b600080fd5b600080fd5b60008083356001602003843603038112612ead57612eac612e8b565b5b83810192508235915060208301925067ffffffffffffffff821115612ed557612ed4612e81565b5b600182023603831315612eeb57612eea612e86565b5b509250929050565b6000602082019050919050565b6000612f0c8385612e12565b935083602084028501612f1e84612e23565b8060005b87811015612f64578484038952612f398284612e90565b612f44868284612e6b565b9550612f4f84612ef3565b935060208b019a505050600181019050612f22565b50829750879450505050509392505050565b600060a0820190508181036000830152612f91818a8c612d3a565b90508181036020830152612fa681888a612db6565b90508181036040830152612fbb818688612f00565b9050612fca60608301856120e3565b612fd760808301846120e3565b9998505050505050505050565b6000604082019050612ff960008301856120e3565b61300660208301846120e3565b9392505050565b600061301882611ea8565b915061302383611ea8565b925082820190508082111561303b5761303a612ab9565b5b92915050565b600060408201905061305660008301856129e1565b61306360208301846120e3565b9392505050565b600081519050919050565b600082825260208201905092915050565b60005b838110156130a4578082015181840152602081019050613089565b60008484015250505050565b60006130bb8261306a565b6130c58185613075565b93506130d5818560208601613086565b6130de816121d9565b840191505092915050565b6000604082019050818103600083015261310381856130b0565b9050818103602083015261311781846130b0565b90509392505050565b600081905092915050565b60006131378385613120565b9350613144838584612296565b82840190509392505050565b600061315d82848661312b565b91508190509392505050565b6000602082019050818103600083015261318381846130b0565b905092915050565b7f4e487b7100000000000000000000000000000000000000000000000000000000600052605160045260246000fdfea2646970667358221220c56aec2a9703d8878d43c9bbed113272e7e04787169f5cfcc5d583485cca39df64736f6c634300081c0033",
  "linkReferences": {},
  "deployedLinkReferences": {}
}