{
  "_format": "hh-sol-artifact-1",
  "contractName": "AccessManager",
  "sourceName": "contracts/openzeppelin/access/manager/AccessManager.sol",
  "abi": [
    {
      "inputs": [
        {
          "internalType": "address",
          "name": "initialAdmin",
          "type": "address"
        }
      ],
      "stateMutability": "nonpayable",
      "type": "constructor"
    },
    {
      "inputs": [
        {
          "internalType": "bytes32",
          "name": "operationId",
          "type": "bytes32"
        }
      ],
      "name": "AccessManagerAlreadyScheduled",
      "type": "error"
    },
    {
      "inputs": [],
      "name": "AccessManagerBadConfirmation",
      "type": "error"
    },
    {
      "inputs": [
        {
          "internalType": "bytes32",
          "name": "operationId",
          "type": "bytes32"
        }
      ],
      "name": "AccessManagerExpired",
      "type": "error"
    },
    {
      "inputs": [
        {
          "internalType": "address",
          "name": "initialAdmin",
          "type": "address"
        }
      ],
      "name": "AccessManagerInvalidInitialAdmin",
      "type": "error"
    },
    {
      "inputs": [
        {
          "internalType": "uint64",
          "name": "roleId",
          "type": "uint64"
        }
      ],
      "name": "AccessManagerLockedRole",
      "type": "error"
    },
    {
      "inputs": [
        {
          "internalType": "bytes32",
          "name": "operationId",
          "type": "bytes32"
        }
      ],
      "name": "AccessManagerNotReady",
      "type": "error"
    },
    {
      "inputs": [
        {
          "internalType": "bytes32",
          "name": "operationId",
          "type": "bytes32"
        }
      ],
      "name": "AccessManagerNotScheduled",
      "type": "error"
    },
    {
      "inputs": [
        {
          "internalType": "address",
          "name": "msgsender",
          "type": "address"
        },
        {
          "internalType": "uint64",
          "name": "roleId",
          "type": "uint64"
        }
      ],
      "name": "AccessManagerUnauthorizedAccount",
      "type": "error"
    },
    {
      "inputs": [
        {
          "internalType": "address",
          "name": "caller",
          "type": "address"
        },
        {
          "internalType": "address",
          "name": "target",
          "type": "address"
        },
        {
          "internalType": "bytes4",
          "name": "selector",
          "type": "bytes4"
        }
      ],
      "name": "AccessManagerUnauthorizedCall",
      "type": "error"
    },
    {
      "inputs": [
        {
          "internalType": "address",
          "name": "msgsender",
          "type": "address"
        },
        {
          "internalType": "address",
          "name": "caller",
          "type": "address"
        },
        {
          "internalType": "address",
          "name": "target",
          "type": "address"
        },
        {
          "internalType": "bytes4",
          "name": "selector",
          "type": "bytes4"
        }
      ],
      "name": "AccessManagerUnauthorizedCancel",
      "type": "error"
    },
    {
      "inputs": [
        {
          "internalType": "address",
          "name": "target",
          "type": "address"
        }
      ],
      "name": "AccessManagerUnauthorizedConsume",
      "type": "error"
    },
    {
      "inputs": [
        {
          "internalType": "address",
          "name": "target",
          "type": "address"
        }
      ],
      "name": "AddressEmptyCode",
      "type": "error"
    },
    {
      "inputs": [],
      "name": "FailedCall",
      "type": "error"
    },
    {
      "inputs": [
        {
          "internalType": "uint256",
          "name": "balance",
          "type": "uint256"
        },
        {
          "internalType": "uint256",
          "name": "needed",
          "type": "uint256"
        }
      ],
      "name": "InsufficientBalance",
      "type": "error"
    },
    {
      "inputs": [
        {
          "internalType": "uint8",
          "name": "bits",
          "type": "uint8"
        },
        {
          "internalType": "uint256",
          "name": "value",
          "type": "uint256"
        }
      ],
      "name": "SafeCastOverflowedUintDowncast",
      "type": "error"
    },
    {
      "anonymous": false,
      "inputs": [
        {
          "indexed": true,
          "internalType": "bytes32",
          "name": "operationId",
          "type": "bytes32"
        },
        {
          "indexed": true,
          "internalType": "uint32",
          "name": "nonce",
          "type": "uint32"
        }
      ],
      "name": "OperationCanceled",
      "type": "event"
    },
    {
      "anonymous": false,
      "inputs": [
        {
          "indexed": true,
          "internalType": "bytes32",
          "name": "operationId",
          "type": "bytes32"
        },
        {
          "indexed": true,
          "internalType": "uint32",
          "name": "nonce",
          "type": "uint32"
        }
      ],
      "name": "OperationExecuted",
      "type": "event"
    },
    {
      "anonymous": false,
      "inputs": [
        {
          "indexed": true,
          "internalType": "bytes32",
          "name": "operationId",
          "type": "bytes32"
        },
        {
          "indexed": true,
          "internalType": "uint32",
          "name": "nonce",
          "type": "uint32"
        },
        {
          "indexed": false,
          "internalType": "uint48",
          "name": "schedule",
          "type": "uint48"
        },
        {
          "indexed": false,
          "internalType": "address",
          "name": "caller",
          "type": "address"
        },
        {
          "indexed": false,
          "internalType": "address",
          "name": "target",
          "type": "address"
        },
        {
          "indexed": false,
          "internalType": "bytes",
          "name": "data",
          "type": "bytes"
        }
      ],
      "name": "OperationScheduled",
      "type": "event"
    },
    {
      "anonymous": false,
      "inputs": [
        {
          "indexed": true,
          "internalType": "uint64",
          "name": "roleId",
          "type": "uint64"
        },
        {
          "indexed": true,
          "internalType": "uint64",
          "name": "admin",
          "type": "uint64"
        }
      ],
      "name": "RoleAdminChanged",
      "type": "event"
    },
    {
      "anonymous": false,
      "inputs": [
        {
          "indexed": true,
          "internalType": "uint64",
          "name": "roleId",
          "type": "uint64"
        },
        {
          "indexed": false,
          "internalType": "uint32",
          "name": "delay",
          "type": "uint32"
        },
        {
          "indexed": false,
          "internalType": "uint48",
          "name": "since",
          "type": "uint48"
        }
      ],
      "name": "RoleGrantDelayChanged",
      "type": "event"
    },
    {
      "anonymous": false,
      "inputs": [
        {
          "indexed": true,
          "internalType": "uint64",
          "name": "roleId",
          "type": "uint64"
        },
        {
          "indexed": true,
          "internalType": "address",
          "name": "account",
          "type": "address"
        },
        {
          "indexed": false,
          "internalType": "uint32",
          "name": "delay",
          "type": "uint32"
        },
        {
          "indexed": false,
          "internalType": "uint48",
          "name": "since",
          "type": "uint48"
        },
        {
          "indexed": false,
          "internalType": "bool",
          "name": "newMember",
          "type": "bool"
        }
      ],
      "name": "RoleGranted",
      "type": "event"
    },
    {
      "anonymous": false,
      "inputs": [
        {
          "indexed": true,
          "internalType": "uint64",
          "name": "roleId",
          "type": "uint64"
        },
        {
          "indexed": true,
          "internalType": "uint64",
          "name": "guardian",
          "type": "uint64"
        }
      ],
      "name": "RoleGuardianChanged",
      "type": "event"
    },
    {
      "anonymous": false,
      "inputs": [
        {
          "indexed": true,
          "internalType": "uint64",
          "name": "roleId",
          "type": "uint64"
        },
        {
          "indexed": false,
          "internalType": "string",
          "name": "label",
          "type": "string"
        }
      ],
      "name": "RoleLabel",
      "type": "event"
    },
    {
      "anonymous": false,
      "inputs": [
        {
          "indexed": true,
          "internalType": "uint64",
          "name": "roleId",
          "type": "uint64"
        },
        {
          "indexed": true,
          "internalType": "address",
          "name": "account",
          "type": "address"
        }
      ],
      "name": "RoleRevoked",
      "type": "event"
    },
    {
      "anonymous": false,
      "inputs": [
        {
          "indexed": true,
          "internalType": "address",
          "name": "target",
          "type": "address"
        },
        {
          "indexed": false,
          "internalType": "uint32",
          "name": "delay",
          "type": "uint32"
        },
        {
          "indexed": false,
          "internalType": "uint48",
          "name": "since",
          "type": "uint48"
        }
      ],
      "name": "TargetAdminDelayUpdated",
      "type": "event"
    },
    {
      "anonymous": false,
      "inputs": [
        {
          "indexed": true,
          "internalType": "address",
          "name": "target",
          "type": "address"
        },
        {
          "indexed": false,
          "internalType": "bool",
          "name": "closed",
          "type": "bool"
        }
      ],
      "name": "TargetClosed",
      "type": "event"
    },
    {
      "anonymous": false,
      "inputs": [
        {
          "indexed": true,
          "internalType": "address",
          "name": "target",
          "type": "address"
        },
        {
          "indexed": false,
          "internalType": "bytes4",
          "name": "selector",
          "type": "bytes4"
        },
        {
          "indexed": true,
          "internalType": "uint64",
          "name": "roleId",
          "type": "uint64"
        }
      ],
      "name": "TargetFunctionRoleUpdated",
      "type": "event"
    },
    {
      "inputs": [],
      "name": "ADMIN_ROLE",
      "outputs": [
        {
          "internalType": "uint64",
          "name": "",
          "type": "uint64"
        }
      ],
      "stateMutability": "view",
      "type": "function"
    },
    {
      "inputs": [],
      "name": "PUBLIC_ROLE",
      "outputs": [
        {
          "internalType": "uint64",
          "name": "",
          "type": "uint64"
        }
      ],
      "stateMutability": "view",
      "type": "function"
    },
    {
      "inputs": [
        {
          "internalType": "address",
          "name": "caller",
          "type": "address"
        },
        {
          "internalType": "address",
          "name": "target",
          "type": "address"
        },
        {
          "internalType": "bytes4",
          "name": "selector",
          "type": "bytes4"
        }
      ],
      "name": "canCall",
      "outputs": [
        {
          "internalType": "bool",
          "name": "immediate",
          "type": "bool"
        },
        {
          "internalType": "uint32",
          "name": "delay",
          "type": "uint32"
        }
      ],
      "stateMutability": "view",
      "type": "function"
    },
    {
      "inputs": [
        {
          "internalType": "address",
          "name": "caller",
          "type": "address"
        },
        {
          "internalType": "address",
          "name": "target",
          "type": "address"
        },
        {
          "internalType": "bytes",
          "name": "data",
          "type": "bytes"
        }
      ],
      "name": "cancel",
      "outputs": [
        {
          "internalType": "uint32",
          "name": "",
          "type": "uint32"
        }
      ],
      "stateMutability": "nonpayable",
      "type": "function"
    },
    {
      "inputs": [
        {
          "internalType": "address",
          "name": "caller",
          "type": "address"
        },
        {
          "internalType": "bytes",
          "name": "data",
          "type": "bytes"
        }
      ],
      "name": "consumeScheduledOp",
      "outputs": [],
      "stateMutability": "nonpayable",
      "type": "function"
    },
    {
      "inputs": [
        {
          "internalType": "address",
          "name": "target",
          "type": "address"
        },
        {
          "internalType": "bytes",
          "name": "data",
          "type": "bytes"
        }
      ],
      "name": "execute",
      "outputs": [
        {
          "internalType": "uint32",
          "name": "",
          "type": "uint32"
        }
      ],
      "stateMutability": "payable",
      "type": "function"
    },
    {
      "inputs": [],
      "name": "expiration",
      "outputs": [
        {
          "internalType": "uint32",
          "name": "",
          "type": "uint32"
        }
      ],
      "stateMutability": "view",
      "type": "function"
    },
    {
      "inputs": [
        {
          "internalType": "uint64",
          "name": "roleId",
          "type": "uint64"
        },
        {
          "internalType": "address",
          "name": "account",
          "type": "address"
        }
      ],
      "name": "getAccess",
      "outputs": [
        {
          "internalType": "uint48",
          "name": "since",
          "type": "uint48"
        },
        {
          "internalType": "uint32",
          "name": "currentDelay",
          "type": "uint32"
        },
        {
          "internalType": "uint32",
          "name": "pendingDelay",
          "type": "uint32"
        },
        {
          "internalType": "uint48",
          "name": "effect",
          "type": "uint48"
        }
      ],
      "stateMutability": "view",
      "type": "function"
    },
    {
      "inputs": [
        {
          "internalType": "bytes32",
          "name": "id",
          "type": "bytes32"
        }
      ],
      "name": "getNonce",
      "outputs": [
        {
          "internalType": "uint32",
          "name": "",
          "type": "uint32"
        }
      ],
      "stateMutability": "view",
      "type": "function"
    },
    {
      "inputs": [
        {
          "internalType": "uint64",
          "name": "roleId",
          "type": "uint64"
        }
      ],
      "name": "getRoleAdmin",
      "outputs": [
        {
          "internalType": "uint64",
          "name": "",
          "type": "uint64"
        }
      ],
      "stateMutability": "view",
      "type": "function"
    },
    {
      "inputs": [
        {
          "internalType": "uint64",
          "name": "roleId",
          "type": "uint64"
        }
      ],
      "name": "getRoleGrantDelay",
      "outputs": [
        {
          "internalType": "uint32",
          "name": "",
          "type": "uint32"
        }
      ],
      "stateMutability": "view",
      "type": "function"
    },
    {
      "inputs": [
        {
          "internalType": "uint64",
          "name": "roleId",
          "type": "uint64"
        }
      ],
      "name": "getRoleGuardian",
      "outputs": [
        {
          "internalType": "uint64",
          "name": "",
          "type": "uint64"
        }
      ],
      "stateMutability": "view",
      "type": "function"
    },
    {
      "inputs": [
        {
          "internalType": "bytes32",
          "name": "id",
          "type": "bytes32"
        }
      ],
      "name": "getSchedule",
      "outputs": [
        {
          "internalType": "uint48",
          "name": "",
          "type": "uint48"
        }
      ],
      "stateMutability": "view",
      "type": "function"
    },
    {
      "inputs": [
        {
          "internalType": "address",
          "name": "target",
          "type": "address"
        }
      ],
      "name": "getTargetAdminDelay",
      "outputs": [
        {
          "internalType": "uint32",
          "name": "",
          "type": "uint32"
        }
      ],
      "stateMutability": "view",
      "type": "function"
    },
    {
      "inputs": [
        {
          "internalType": "address",
          "name": "target",
          "type": "address"
        },
        {
          "internalType": "bytes4",
          "name": "selector",
          "type": "bytes4"
        }
      ],
      "name": "getTargetFunctionRole",
      "outputs": [
        {
          "internalType": "uint64",
          "name": "",
          "type": "uint64"
        }
      ],
      "stateMutability": "view",
      "type": "function"
    },
    {
      "inputs": [
        {
          "internalType": "uint64",
          "name": "roleId",
          "type": "uint64"
        },
        {
          "internalType": "address",
          "name": "account",
          "type": "address"
        },
        {
          "internalType": "uint32",
          "name": "executionDelay",
          "type": "uint32"
        }
      ],
      "name": "grantRole",
      "outputs": [],
      "stateMutability": "nonpayable",
      "type": "function"
    },
    {
      "inputs": [
        {
          "internalType": "uint64",
          "name": "roleId",
          "type": "uint64"
        },
        {
          "internalType": "address",
          "name": "account",
          "type": "address"
        }
      ],
      "name": "hasRole",
      "outputs": [
        {
          "internalType": "bool",
          "name": "isMember",
          "type": "bool"
        },
        {
          "internalType": "uint32",
          "name": "executionDelay",
          "type": "uint32"
        }
      ],
      "stateMutability": "view",
      "type": "function"
    },
    {
      "inputs": [
        {
          "internalType": "address",
          "name": "caller",
          "type": "address"
        },
        {
          "internalType": "address",
          "name": "target",
          "type": "address"
        },
        {
          "internalType": "bytes",
          "name": "data",
          "type": "bytes"
        }
      ],
      "name": "hashOperation",
      "outputs": [
        {
          "internalType": "bytes32",
          "name": "",
          "type": "bytes32"
        }
      ],
      "stateMutability": "view",
      "type": "function"
    },
    {
      "inputs": [
        {
          "internalType": "address",
          "name": "target",
          "type": "address"
        }
      ],
      "name": "isTargetClosed",
      "outputs": [
        {
          "internalType": "bool",
          "name": "",
          "type": "bool"
        }
      ],
      "stateMutability": "view",
      "type": "function"
    },
    {
      "inputs": [
        {
          "internalType": "uint64",
          "name": "roleId",
          "type": "uint64"
        },
        {
          "internalType": "string",
          "name": "label",
          "type": "string"
        }
      ],
      "name": "labelRole",
      "outputs": [],
      "stateMutability": "nonpayable",
      "type": "function"
    },
    {
      "inputs": [],
      "name": "minSetback",
      "outputs": [
        {
          "internalType": "uint32",
          "name": "",
          "type": "uint32"
        }
      ],
      "stateMutability": "view",
      "type": "function"
    },
    {
      "inputs": [
        {
          "internalType": "bytes[]",
          "name": "data",
          "type": "bytes[]"
        }
      ],
      "name": "multicall",
      "outputs": [
        {
          "internalType": "bytes[]",
          "name": "results",
          "type": "bytes[]"
        }
      ],
      "stateMutability": "nonpayable",
      "type": "function"
    },
    {
      "inputs": [
        {
          "internalType": "uint64",
          "name": "roleId",
          "type": "uint64"
        },
        {
          "internalType": "address",
          "name": "callerConfirmation",
          "type": "address"
        }
      ],
      "name": "renounceRole",
      "outputs": [],
      "stateMutability": "nonpayable",
      "type": "function"
    },
    {
      "inputs": [
        {
          "internalType": "uint64",
          "name": "roleId",
          "type": "uint64"
        },
        {
          "internalType": "address",
          "name": "account",
          "type": "address"
        }
      ],
      "name": "revokeRole",
      "outputs": [],
      "stateMutability": "nonpayable",
      "type": "function"
    },
    {
      "inputs": [
        {
          "internalType": "address",
          "name": "target",
          "type": "address"
        },
        {
          "internalType": "bytes",
          "name": "data",
          "type": "bytes"
        },
        {
          "internalType": "uint48",
          "name": "when",
          "type": "uint48"
        }
      ],
      "name": "schedule",
      "outputs": [
        {
          "internalType": "bytes32",
          "name": "operationId",
          "type": "bytes32"
        },
        {
          "internalType": "uint32",
          "name": "nonce",
          "type": "uint32"
        }
      ],
      "stateMutability": "nonpayable",
      "type": "function"
    },
    {
      "inputs": [
        {
          "internalType": "uint64",
          "name": "roleId",
          "type": "uint64"
        },
        {
          "internalType": "uint32",
          "name": "newDelay",
          "type": "uint32"
        }
      ],
      "name": "setGrantDelay",
      "outputs": [],
      "stateMutability": "nonpayable",
      "type": "function"
    },
    {
      "inputs": [
        {
          "internalType": "uint64",
          "name": "roleId",
          "type": "uint64"
        },
        {
          "internalType": "uint64",
          "name": "admin",
          "type": "uint64"
        }
      ],
      "name": "setRoleAdmin",
      "outputs": [],
      "stateMutability": "nonpayable",
      "type": "function"
    },
    {
      "inputs": [
        {
          "internalType": "uint64",
          "name": "roleId",
          "type": "uint64"
        },
        {
          "internalType": "uint64",
          "name": "guardian",
          "type": "uint64"
        }
      ],
      "name": "setRoleGuardian",
      "outputs": [],
      "stateMutability": "nonpayable",
      "type": "function"
    },
    {
      "inputs": [
        {
          "internalType": "address",
          "name": "target",
          "type": "address"
        },
        {
          "internalType": "uint32",
          "name": "newDelay",
          "type": "uint32"
        }
      ],
      "name": "setTargetAdminDelay",
      "outputs": [],
      "stateMutability": "nonpayable",
      "type": "function"
    },
    {
      "inputs": [
        {
          "internalType": "address",
          "name": "target",
          "type": "address"
        },
        {
          "internalType": "bool",
          "name": "closed",
          "type": "bool"
        }
      ],
      "name": "setTargetClosed",
      "outputs": [],
      "stateMutability": "nonpayable",
      "type": "function"
    },
    {
      "inputs": [
        {
          "internalType": "address",
          "name": "target",
          "type": "address"
        },
        {
          "internalType": "bytes4[]",
          "name": "selectors",
          "type": "bytes4[]"
        },
        {
          "internalType": "uint64",
          "name": "roleId",
          "type": "uint64"
        }
      ],
      "name": "setTargetFunctionRole",
      "outputs": [],
      "stateMutability": "nonpayable",
      "type": "function"
    },
    {
      "inputs": [
        {
          "internalType": "address",
          "name": "target",
          "type": "address"
        },
        {
          "internalType": "address",
          "name": "newAuthority",
          "type": "address"
        }
      ],
      "name": "updateAuthority",
      "outputs": [],
      "stateMutability": "nonpayable",
      "type": "function"
    }
  ],
  "bytecode": "0x608060405234801561001057600080fd5b506040516151e03803806151e0833981810160405281019061003291906107c0565b600073ffffffffffffffffffffffffffffffffffffffff168173ffffffffffffffffffffffffffffffffffffffff16036100a45760006040517f0813ada200000000000000000000000000000000000000000000000000000000815260040161009b91906107fc565b60405180910390fd5b6100b86000826000806100bf60201b60201c565b5050610a1c565b600067ffffffffffffffff80168567ffffffffffffffff160361011957846040517f1871a90c000000000000000000000000000000000000000000000000000000008152600401610110919061083a565b60405180910390fd5b600080600160008867ffffffffffffffff1667ffffffffffffffff16815260200190815260200160002060000160008773ffffffffffffffffffffffffffffffffffffffff1673ffffffffffffffffffffffffffffffffffffffff16815260200190815260200160002060000160009054906101000a900465ffffffffffff1665ffffffffffff16149050600081156102e3578463ffffffff166101c161049c60201b60201c565b6101cb9190610896565b905060405180604001604052808265ffffffffffff1681526020016101fb8663ffffffff166104b260201b60201c565b6dffffffffffffffffffffffffffff16815250600160008967ffffffffffffffff1667ffffffffffffffff16815260200190815260200160002060000160008873ffffffffffffffffffffffffffffffffffffffff1673ffffffffffffffffffffffffffffffffffffffff16815260200190815260200160002060008201518160000160006101000a81548165ffffffffffff021916908365ffffffffffff16021790555060208201518160000160066101000a8154816dffffffffffffffffffffffffffff02191690836dffffffffffffffffffffffffffff160217905550905050610432565b61038d846000600160008b67ffffffffffffffff1667ffffffffffffffff16815260200190815260200160002060000160008a73ffffffffffffffffffffffffffffffffffffffff1673ffffffffffffffffffffffffffffffffffffffff16815260200190815260200160002060000160069054906101000a90046dffffffffffffffffffffffffffff166dffffffffffffffffffffffffffff166104c260201b9092919060201c565b600160008a67ffffffffffffffff1667ffffffffffffffff16815260200190815260200160002060000160008973ffffffffffffffffffffffffffffffffffffffff1673ffffffffffffffffffffffffffffffffffffffff16815260200190815260200160002060000160068294508391906101000a8154816dffffffffffffffffffffffffffff02191690836dffffffffffffffffffffffffffff16021790555050505b8573ffffffffffffffffffffffffffffffffffffffff168767ffffffffffffffff167ff98448b987f1428e0e230e1f3c6e2ce15b5693eaf31827fbd0b1ec4b424ae7cf86848660405161048793929190610919565b60405180910390a38192505050949350505050565b60006104ad4261056c60201b60201c565b905090565b60008163ffffffff169050919050565b60008060006104e6866dffffffffffffffffffffffffffff166105c660201b60201c565b9050600061052c8563ffffffff168763ffffffff168463ffffffff161161050e57600061051b565b878461051a9190610950565b5b63ffffffff166105f560201b60201c565b90508063ffffffff1661054361049c60201b60201c565b61054d9190610896565b925061056082878561061260201b60201c565b93505050935093915050565b600065ffffffffffff80168211156105be576030826040517f6dfcc6500000000000000000000000000000000000000000000000000000000081526004016105b59291906109f3565b60405180910390fd5b819050919050565b6000806105e8836dffffffffffffffffffffffffffff1661065e60201b60201c565b5050905080915050919050565b600061060a828411848461068d60201b60201c565b905092915050565b60008263ffffffff1660208563ffffffff166dffffffffffffffffffffffffffff16901b60408465ffffffffffff166dffffffffffffffffffffffffffff16901b171790509392505050565b60008060006106808461067561049c60201b60201c565b6106ad60201b60201c565b9250925092509193909250565b600061069e8461070f60201b60201c565b82841802821890509392505050565b60008060006106d1856dffffffffffffffffffffffffffff1661071b60201b60201c565b8093508194508295505050508365ffffffffffff168165ffffffffffff1611156106fd57828282610702565b816000805b9250925092509250925092565b60008115159050919050565b6000806000808490508092506020816dffffffffffffffffffffffffffff16901c93506040816dffffffffffffffffffffffffffff16901c9150509193909250565b600080fd5b600073ffffffffffffffffffffffffffffffffffffffff82169050919050565b600061078d82610762565b9050919050565b61079d81610782565b81146107a857600080fd5b50565b6000815190506107ba81610794565b92915050565b6000602082840312156107d6576107d561075d565b5b60006107e4848285016107ab565b91505092915050565b6107f681610782565b82525050565b600060208201905061081160008301846107ed565b92915050565b600067ffffffffffffffff82169050919050565b61083481610817565b82525050565b600060208201905061084f600083018461082b565b92915050565b600065ffffffffffff82169050919050565b7f4e487b7100000000000000000000000000000000000000000000000000000000600052601160045260246000fd5b60006108a182610855565b91506108ac83610855565b9250828201905065ffffffffffff8111156108ca576108c9610867565b5b92915050565b600063ffffffff82169050919050565b6108e9816108d0565b82525050565b6108f881610855565b82525050565b60008115159050919050565b610913816108fe565b82525050565b600060608201905061092e60008301866108e0565b61093b60208301856108ef565b610948604083018461090a565b949350505050565b600061095b826108d0565b9150610966836108d0565b9250828203905063ffffffff81111561098257610981610867565b5b92915050565b6000819050919050565b600060ff82169050919050565b6000819050919050565b60006109c46109bf6109ba84610988565b61099f565b610992565b9050919050565b6109d4816109a9565b82525050565b6000819050919050565b6109ed816109da565b82525050565b6000604082019050610a0860008301856109cb565b610a1560208301846109e4565b9392505050565b6147b580610a2b6000396000f3fe6080604052600436106101e35760003560e01c80636d5115bd11610102578063b700961311610095578063d22b598911610064578063d22b59891461077c578063d6bb62c6146107a5578063f801a698146107e2578063fe0776f514610820576101e3565b8063b7009613146106ac578063b7d2b162146106ea578063cc1b6c8114610713578063d1f856ee1461073e576101e3565b8063a166aa89116100d1578063a166aa89146105cc578063a64d95ce14610609578063abd9bd2a14610632578063ac9650d81461066f576101e3565b80636d5115bd1461051257806375b238fc1461054f578063853551b81461057a57806394c7d7ee146105a3576101e3565b806330cae1871161017a5780634665096d116101495780634665096d146104445780634c1da1e21461046f57806352962952146104ac578063530dd456146104d5576101e3565b806330cae187146103765780633adc277a1461039f5780633ca7c02a146103dc5780634136a33c14610407576101e3565b806318ff183c116101b657806318ff183c146102b45780631cff79cd146102dd57806325c471a01461030d5780633078f11414610336576101e3565b806308d6122d146101e85780630b0a93ba1461021157806312be87271461024e578063167bd3951461028b575b600080fd5b3480156101f457600080fd5b5061020f600480360381019061020a91906134e5565b610849565b005b34801561021d57600080fd5b5061023860048036038101906102339190613559565b6108a3565b6040516102459190613595565b60405180910390f35b34801561025a57600080fd5b5061027560048036038101906102709190613559565b6108eb565b60405161028291906135cf565b60405180910390f35b34801561029757600080fd5b506102b260048036038101906102ad9190613622565b610951565b005b3480156102c057600080fd5b506102db60048036038101906102d69190613662565b610967565b005b6102f760048036038101906102f291906136f8565b6109de565b60405161030491906135cf565b60405180910390f35b34801561031957600080fd5b50610334600480360381019061032f9190613784565b610b31565b005b34801561034257600080fd5b5061035d600480360381019061035891906137d7565b610b53565b60405161036d9493929190613838565b60405180910390f35b34801561038257600080fd5b5061039d6004803603810190610398919061387d565b610c2a565b005b3480156103ab57600080fd5b506103c660048036038101906103c191906138f3565b610c40565b6040516103d39190613920565b60405180910390f35b3480156103e857600080fd5b506103f1610c8c565b6040516103fe9190613595565b60405180910390f35b34801561041357600080fd5b5061042e600480360381019061042991906138f3565b610c98565b60405161043b91906135cf565b60405180910390f35b34801561045057600080fd5b50610459610cc8565b60405161046691906135cf565b60405180910390f35b34801561047b57600080fd5b506104966004803603810190610491919061393b565b610cd3565b6040516104a391906135cf565b60405180910390f35b3480156104b857600080fd5b506104d360048036038101906104ce919061387d565b610d50565b005b3480156104e157600080fd5b506104fc60048036038101906104f79190613559565b610d66565b6040516105099190613595565b60405180910390f35b34801561051e57600080fd5b50610539600480360381019061053491906139c0565b610dae565b6040516105469190613595565b60405180910390f35b34801561055b57600080fd5b50610564610e5d565b6040516105719190613595565b60405180910390f35b34801561058657600080fd5b506105a1600480360381019061059c9190613a56565b610e62565b005b3480156105af57600080fd5b506105ca60048036038101906105c591906136f8565b610f2b565b005b3480156105d857600080fd5b506105f360048036038101906105ee919061393b565b611049565b6040516106009190613ac5565b60405180910390f35b34801561061557600080fd5b50610630600480360381019061062b9190613ae0565b6110a1565b005b34801561063e57600080fd5b5061065960048036038101906106549190613b20565b6110b7565b6040516106669190613ba3565b60405180910390f35b34801561067b57600080fd5b5061069660048036038101906106919190613c14565b6110f0565b6040516106a39190613db3565b60405180910390f35b3480156106b857600080fd5b506106d360048036038101906106ce9190613dd5565b6112d4565b6040516106e1929190613e28565b60405180910390f35b3480156106f657600080fd5b50610711600480360381019061070c91906137d7565b611381565b005b34801561071f57600080fd5b50610728611398565b60405161073591906135cf565b60405180910390f35b34801561074a57600080fd5b50610765600480360381019061076091906137d7565b6113a3565b604051610773929190613e28565b60405180910390f35b34801561078857600080fd5b506107a3600480360381019061079e9190613e51565b611420565b005b3480156107b157600080fd5b506107cc60048036038101906107c79190613b20565b611436565b6040516107d991906135cf565b60405180910390f35b3480156107ee57600080fd5b5061080960048036038101906108049190613ebd565b611629565b604051610817929190613f31565b60405180910390f35b34801561082c57600080fd5b50610847600480360381019061084291906137d7565b61180d565b005b610851611888565b60005b8383905081101561089c576108918585858481811061087657610875613f5a565b5b905060200201602081019061088b9190613f89565b84611935565b806001019050610854565b5050505050565b6000600160008367ffffffffffffffff1667ffffffffffffffff16815260200190815260200160002060010160089054906101000a900467ffffffffffffffff169050919050565b600061094a600160008467ffffffffffffffff1667ffffffffffffffff16815260200190815260200160002060010160109054906101000a90046dffffffffffffffffffffffffffff166dffffffffffffffffffffffffffff16611a4a565b9050919050565b610959611888565b6109638282611a73565b5050565b61096f611888565b8173ffffffffffffffffffffffffffffffffffffffff16637a9e5e4b826040518263ffffffff1660e01b81526004016109a89190613fc5565b600060405180830381600087803b1580156109c257600080fd5b505af11580156109d6573d6000803e3d6000fd5b505050505050565b6000806109e9611b1e565b90506000806109fa83888888611b26565b9150915081158015610a12575060008163ffffffff16145b15610a61578287610a238888611ba6565b6040517f81c6f24b000000000000000000000000000000000000000000000000000000008152600401610a5893929190613fef565b60405180910390fd5b6000610a6f848989896110b7565b90506000808363ffffffff16141580610a9957506000610a8e83610c40565b65ffffffffffff1614155b15610aaa57610aa782611bcf565b90505b60006003549050610ac48a610abf8b8b611ba6565b611d85565b600381905550610b198a8a8a8080601f016020809104026020016040519081016040528093929190818152602001838380828437600081840152601f19601f8201169050808301925050505050505034611db8565b50806003819055508196505050505050509392505050565b610b39611888565b610b4d8383610b47866108eb565b84611e87565b50505050565b6000806000806000600160008867ffffffffffffffff1667ffffffffffffffff16815260200190815260200160002060000160008773ffffffffffffffffffffffffffffffffffffffff1673ffffffffffffffffffffffffffffffffffffffff16815260200190815260200160002090508060000160009054906101000a900465ffffffffffff169450610c148160000160069054906101000a90046dffffffffffffffffffffffffffff166dffffffffffffffffffffffffffff16612258565b8094508195508296505050505092959194509250565b610c32611888565b610c3c828261227b565b5050565b6000806002600084815260200190815260200160002060000160009054906101000a900465ffffffffffff169050610c778161238a565b610c815780610c84565b60005b915050919050565b67ffffffffffffffff81565b60006002600083815260200190815260200160002060000160069054906101000a900463ffffffff169050919050565b600062093a80905090565b6000610d496000808473ffffffffffffffffffffffffffffffffffffffff1673ffffffffffffffffffffffffffffffffffffffff16815260200190815260200160002060010160009054906101000a90046dffffffffffffffffffffffffffff166dffffffffffffffffffffffffffff16611a4a565b9050919050565b610d58611888565b610d6282826123c6565b5050565b6000600160008367ffffffffffffffff1667ffffffffffffffff16815260200190815260200160002060010160009054906101000a900467ffffffffffffffff169050919050565b60008060008473ffffffffffffffffffffffffffffffffffffffff1673ffffffffffffffffffffffffffffffffffffffff1681526020019081526020016000206000016000837bffffffffffffffffffffffffffffffffffffffffffffffffffffffff19167bffffffffffffffffffffffffffffffffffffffffffffffffffffffff1916815260200190815260200160002060009054906101000a900467ffffffffffffffff16905092915050565b600081565b610e6a611888565b600067ffffffffffffffff168367ffffffffffffffff161480610ea0575067ffffffffffffffff80168367ffffffffffffffff16145b15610ee257826040517f1871a90c000000000000000000000000000000000000000000000000000000008152600401610ed99190613595565b60405180910390fd5b8267ffffffffffffffff167f1256f5b5ecb89caec12db449738f2fbcd1ba5806cf38f35413f4e5c15bf6a4508383604051610f1e929190614073565b60405180910390a2505050565b6000610f35611b1e565b9050638fb3603760e01b7bffffffffffffffffffffffffffffffffffffffffffffffffffffffff19168173ffffffffffffffffffffffffffffffffffffffff16638fb360376040518163ffffffff1660e01b8152600401602060405180830381865afa158015610fa9573d6000803e3d6000fd5b505050506040513d601f19601f82011682018060405250810190610fcd91906140ac565b7bffffffffffffffffffffffffffffffffffffffffffffffffffffffff19161461102e57806040517f320ff7480000000000000000000000000000000000000000000000000000000081526004016110259190613fc5565b60405180910390fd5b61104261103d858386866110b7565b611bcf565b5050505050565b60008060008373ffffffffffffffffffffffffffffffffffffffff1673ffffffffffffffffffffffffffffffffffffffff168152602001908152602001600020600101600e9054906101000a900460ff169050919050565b6110a9611888565b6110b382826124d5565b5050565b6000848484846040516020016110d09493929190614117565b604051602081830303815290604052805190602001209050949350505050565b606060006110fc611b1e565b73ffffffffffffffffffffffffffffffffffffffff163373ffffffffffffffffffffffffffffffffffffffff161461119f5760003661113961264c565b60003690506111489190614190565b908092611157939291906141ce565b8080601f016020809104026020016040519081016040528093929190818152602001838380828437600081840152601f19601f820116905080830192505050505050506111ee565b600067ffffffffffffffff8111156111ba576111b9614209565b5b6040519080825280601f01601f1916602001820160405280156111ec5781602001600182028036833780820191505090505b505b90508383905067ffffffffffffffff81111561120d5761120c614209565b5b60405190808252806020026020018201604052801561124057816020015b606081526020019060019003908161122b5790505b50915060005b848490508110156112cc576112a13086868481811061126857611267613f5a565b5b905060200281019061127a9190614247565b8560405160200161128d9392919061430b565b604051602081830303815290604052612651565b8382815181106112b4576112b3613f5a565b5b60200260200101819052508080600101915050611246565b505092915050565b6000806112e084611049565b156112f15760008091509150611379565b3073ffffffffffffffffffffffffffffffffffffffff168573ffffffffffffffffffffffffffffffffffffffff16036113395761132e84846126d5565b600091509150611379565b60006113458585610dae565b905060008061135483896113a3565b915091508161136557600080611371565b60008163ffffffff1614815b945094505050505b935093915050565b611389611888565b61139382826126ed565b505050565b600062069780905090565b60008067ffffffffffffffff80168467ffffffffffffffff16036113ce576001600091509150611419565b6000806113db8686610b53565b50509150915060008265ffffffffffff161415801561141157506113fd6128d9565b65ffffffffffff168265ffffffffffff1611155b819350935050505b9250929050565b611428611888565b61143282826128e9565b5050565b600080611441611b1e565b9050600061144f8585611ba6565b9050600061145f888888886110b7565b905060006002600083815260200190815260200160002060000160009054906101000a900465ffffffffffff1665ffffffffffff16036114d657806040517f60a299b00000000000000000000000000000000000000000000000000000000081526004016114cd9190613ba3565b60405180910390fd5b8273ffffffffffffffffffffffffffffffffffffffff168873ffffffffffffffffffffffffffffffffffffffff16146115905760006115166000856113a3565b509050600061153661153061152b8b87610dae565b6108a3565b866113a3565b50905081158015611545575080155b1561158d57848a8a866040517f3fe2751c0000000000000000000000000000000000000000000000000000000081526004016115849493929190614331565b60405180910390fd5b50505b6002600082815260200190815260200160002060000160006101000a81549065ffffffffffff021916905560006002600083815260200190815260200160002060000160069054906101000a900463ffffffff1690508063ffffffff16827fbd9ac67a6e2f6463b80927326310338bcbb4bdb7936ce1365ea3e01067e7b9f760405160405180910390a380945050505050949350505050565b6000806000611636611b1e565b9050600061164682898989611b26565b91505060008163ffffffff1661165a6128d9565b6116649190614376565b905060008263ffffffff16148061169e575060008665ffffffffffff1611801561169d57508065ffffffffffff168665ffffffffffff16105b5b156116ed5782896116af8a8a611ba6565b6040517f81c6f24b0000000000000000000000000000000000000000000000000000000081526004016116e493929190613fef565b60405180910390fd5b6117078665ffffffffffff168265ffffffffffff16612a42565b9550611715838a8a8a6110b7565b945061172085612a59565b60016002600087815260200190815260200160002060000160069054906101000a900463ffffffff16019350856002600087815260200190815260200160002060000160006101000a81548165ffffffffffff021916908365ffffffffffff160217905550836002600087815260200190815260200160002060000160066101000a81548163ffffffff021916908363ffffffff1602179055508363ffffffff16857f82a2da5dee54ea8021c6545b4444620291e07ee83be6dd57edb175062715f3b488868d8d8d6040516117f99594939291906143b0565b60405180910390a350505094509492505050565b611815611b1e565b73ffffffffffffffffffffffffffffffffffffffff168173ffffffffffffffffffffffffffffffffffffffff1614611879576040517f5f159e6300000000000000000000000000000000000000000000000000000000815260040160405180910390fd5b61188382826126ed565b505050565b6000611892611b1e565b90506000806118a8836118a3612aeb565b612af8565b91509150816119305760008163ffffffff16036119145760006118d16118cc612aeb565b612bf9565b5091505083816040517ff07e038f00000000000000000000000000000000000000000000000000000000815260040161190b9291906143fe565b60405180910390fd5b61192e6119298430611924612aeb565b6110b7565b611bcf565b505b505050565b806000808573ffffffffffffffffffffffffffffffffffffffff1673ffffffffffffffffffffffffffffffffffffffff1681526020019081526020016000206000016000847bffffffffffffffffffffffffffffffffffffffffffffffffffffffff19167bffffffffffffffffffffffffffffffffffffffffffffffffffffffff1916815260200190815260200160002060006101000a81548167ffffffffffffffff021916908367ffffffffffffffff1602179055508067ffffffffffffffff168373ffffffffffffffffffffffffffffffffffffffff167f9ea6790c7dadfd01c9f8b9762b3682607af2c7e79e05a9f9fdf5580dde94915184604051611a3d9190614427565b60405180910390a3505050565b600080611a66836dffffffffffffffffffffffffffff16612258565b5050905080915050919050565b806000808473ffffffffffffffffffffffffffffffffffffffff1673ffffffffffffffffffffffffffffffffffffffff168152602001908152602001600020600101600e6101000a81548160ff0219169083151502179055508173ffffffffffffffffffffffffffffffffffffffff167f90d4e7bb7e5d933792b3562e1741306f8be94837e1348dacef9b6f1df56eb13882604051611b129190613ac5565b60405180910390a25050565b600033905090565b6000803073ffffffffffffffffffffffffffffffffffffffff168573ffffffffffffffffffffffffffffffffffffffff1603611b7057611b67868585612af8565b91509150611b9d565b60048484905010611b9457611b8f8686611b8a8787611ba6565b6112d4565b611b98565b6000805b915091505b94509492505050565b60008282600090600492611bbc939291906141ce565b90611bc7919061445a565b905092915050565b6000806002600084815260200190815260200160002060000160009054906101000a900465ffffffffffff16905060006002600085815260200190815260200160002060000160069054906101000a900463ffffffff16905060008265ffffffffffff1603611c7557836040517f60a299b0000000000000000000000000000000000000000000000000000000008152600401611c6c9190613ba3565b60405180910390fd5b611c7d6128d9565b65ffffffffffff168265ffffffffffff161115611cd157836040517f18cb6b7a000000000000000000000000000000000000000000000000000000008152600401611cc89190613ba3565b60405180910390fd5b611cda8261238a565b15611d1c57836040517f78a5d6e4000000000000000000000000000000000000000000000000000000008152600401611d139190613ba3565b60405180910390fd5b6002600085815260200190815260200160002060000160006101000a81549065ffffffffffff02191690558063ffffffff16847f76a2a46953689d4861a5d3f6ed883ad7e6af674a21f8e162707159fc9dde614d60405160405180910390a38092505050919050565b60008282604051602001611d9a9291906144b9565b60405160208183030381529060405280519060200120905092915050565b606081471015611e015747826040517fcf479181000000000000000000000000000000000000000000000000000000008152600401611df89291906144f1565b60405180910390fd5b6000808573ffffffffffffffffffffffffffffffffffffffff168486604051611e2a919061451a565b60006040518083038185875af1925050503d8060008114611e67576040519150601f19603f3d011682016040523d82523d6000602084013e611e6c565b606091505b5091509150611e7c868383612fea565b925050509392505050565b600067ffffffffffffffff80168567ffffffffffffffff1603611ee157846040517f1871a90c000000000000000000000000000000000000000000000000000000008152600401611ed89190613595565b60405180910390fd5b600080600160008867ffffffffffffffff1667ffffffffffffffff16815260200190815260200160002060000160008773ffffffffffffffffffffffffffffffffffffffff1673ffffffffffffffffffffffffffffffffffffffff16815260200190815260200160002060000160009054906101000a900465ffffffffffff1665ffffffffffff161490506000811561209f578463ffffffff16611f836128d9565b611f8d9190614376565b905060405180604001604052808265ffffffffffff168152602001611fb78663ffffffff1661309b565b6dffffffffffffffffffffffffffff16815250600160008967ffffffffffffffff1667ffffffffffffffff16815260200190815260200160002060000160008873ffffffffffffffffffffffffffffffffffffffff1673ffffffffffffffffffffffffffffffffffffffff16815260200190815260200160002060008201518160000160006101000a81548165ffffffffffff021916908365ffffffffffff16021790555060208201518160000160066101000a8154816dffffffffffffffffffffffffffff02191690836dffffffffffffffffffffffffffff1602179055509050506121ee565b612149846000600160008b67ffffffffffffffff1667ffffffffffffffff16815260200190815260200160002060000160008a73ffffffffffffffffffffffffffffffffffffffff1673ffffffffffffffffffffffffffffffffffffffff16815260200190815260200160002060000160069054906101000a90046dffffffffffffffffffffffffffff166dffffffffffffffffffffffffffff166130ab9092919063ffffffff16565b600160008a67ffffffffffffffff1667ffffffffffffffff16815260200190815260200160002060000160008973ffffffffffffffffffffffffffffffffffffffff1673ffffffffffffffffffffffffffffffffffffffff16815260200190815260200160002060000160068294508391906101000a8154816dffffffffffffffffffffffffffff02191690836dffffffffffffffffffffffffffff16021790555050505b8573ffffffffffffffffffffffffffffffffffffffff168767ffffffffffffffff167ff98448b987f1428e0e230e1f3c6e2ce15b5693eaf31827fbd0b1ec4b424ae7cf86848660405161224393929190614531565b60405180910390a38192505050949350505050565b600080600061226e846122696128d9565b61313d565b9250925092509193909250565b600067ffffffffffffffff168267ffffffffffffffff1614806122b1575067ffffffffffffffff80168267ffffffffffffffff16145b156122f357816040517f1871a90c0000000000000000000000000000000000000000000000000000000081526004016122ea9190613595565b60405180910390fd5b80600160008467ffffffffffffffff1667ffffffffffffffff16815260200190815260200160002060010160006101000a81548167ffffffffffffffff021916908367ffffffffffffffff1602179055508067ffffffffffffffff168267ffffffffffffffff167f1fd6dd7631312dfac2205b52913f99de03b4d7e381d5d27d3dbfe0713e6e634060405160405180910390a35050565b60006123946128d9565b65ffffffffffff166123a4610cc8565b63ffffffff16836123b59190614376565b65ffffffffffff1611159050919050565b600067ffffffffffffffff168267ffffffffffffffff1614806123fc575067ffffffffffffffff80168267ffffffffffffffff16145b1561243e57816040517f1871a90c0000000000000000000000000000000000000000000000000000000081526004016124359190613595565b60405180910390fd5b80600160008467ffffffffffffffff1667ffffffffffffffff16815260200190815260200160002060010160086101000a81548167ffffffffffffffff021916908367ffffffffffffffff1602179055508067ffffffffffffffff168267ffffffffffffffff167f7a8059630b897b5de4c08ade69f8b90c3ead1f8596d62d10b6c4d14a0afb4ae260405160405180910390a35050565b67ffffffffffffffff80168267ffffffffffffffff160361252d57816040517f1871a90c0000000000000000000000000000000000000000000000000000000081526004016125249190613595565b60405180910390fd5b600061259f8261253b611398565b600160008767ffffffffffffffff1667ffffffffffffffff16815260200190815260200160002060010160109054906101000a90046dffffffffffffffffffffffffffff166dffffffffffffffffffffffffffff166130ab9092919063ffffffff16565b600160008667ffffffffffffffff1667ffffffffffffffff16815260200190815260200160002060010160108294508391906101000a8154816dffffffffffffffffffffffffffff02191690836dffffffffffffffffffffffffffff16021790555050508267ffffffffffffffff167ffeb69018ee8b8fd50ea86348f1267d07673379f72cffdeccec63853ee8ce8b48838360405161263f929190614568565b60405180910390a2505050565b600090565b60606000808473ffffffffffffffffffffffffffffffffffffffff168460405161267b919061451a565b600060405180830381855af49150503d80600081146126b6576040519150601f19603f3d011682016040523d82523d6000602084013e6126bb565b606091505b50915091506126cb858383612fea565b9250505092915050565b60006126e18383611d85565b60035414905092915050565b600067ffffffffffffffff80168367ffffffffffffffff160361274757826040517f1871a90c00000000000000000000000000000000000000000000000000000000815260040161273e9190613595565b60405180910390fd5b6000600160008567ffffffffffffffff1667ffffffffffffffff16815260200190815260200160002060000160008473ffffffffffffffffffffffffffffffffffffffff1673ffffffffffffffffffffffffffffffffffffffff16815260200190815260200160002060000160009054906101000a900465ffffffffffff1665ffffffffffff16036127dc57600090506128d3565b600160008467ffffffffffffffff1667ffffffffffffffff16815260200190815260200160002060000160008373ffffffffffffffffffffffffffffffffffffffff1673ffffffffffffffffffffffffffffffffffffffff168152602001908152602001600020600080820160006101000a81549065ffffffffffff02191690556000820160066101000a8154906dffffffffffffffffffffffffffff021916905550508173ffffffffffffffffffffffffffffffffffffffff168367ffffffffffffffff167ff229baa593af28c41b1d16b748cd7688f0c83aaf92d4be41c44005defe84c16660405160405180910390a3600190505b92915050565b60006128e442613199565b905090565b6000612972826128f7611398565b6000808773ffffffffffffffffffffffffffffffffffffffff1673ffffffffffffffffffffffffffffffffffffffff16815260200190815260200160002060010160009054906101000a90046dffffffffffffffffffffffffffff166dffffffffffffffffffffffffffff166130ab9092919063ffffffff16565b6000808673ffffffffffffffffffffffffffffffffffffffff1673ffffffffffffffffffffffffffffffffffffffff16815260200190815260200160002060010160008294508391906101000a8154816dffffffffffffffffffffffffffff02191690836dffffffffffffffffffffffffffff16021790555050508273ffffffffffffffffffffffffffffffffffffffff167fa56b76017453f399ec2327ba00375dbfb1fd070ff854341ad6191e6a2e2de19c8383604051612a35929190614568565b60405180910390a2505050565b6000612a5182841184846131f3565b905092915050565b60006002600083815260200190815260200160002060000160009054906101000a900465ffffffffffff16905060008165ffffffffffff1614158015612aa55750612aa38161238a565b155b15612ae757816040517f813e9459000000000000000000000000000000000000000000000000000000008152600401612ade9190613ba3565b60405180910390fd5b5050565b3660008036915091509091565b6000806004848490501015612b135760008091509150612bf1565b3073ffffffffffffffffffffffffffffffffffffffff168573ffffffffffffffffffffffffffffffffffffffff1603612b6457612b5930612b548686611ba6565b6126d5565b600091509150612bf1565b6000806000612b738787612bf9565b92509250925082158015612b8c5750612b8b30611049565b5b15612ba05760008094509450505050612bf1565b600080612bad848b6113a3565b9150915081612bc757600080965096505050505050612bf1565b612bdd8363ffffffff168263ffffffff16612a42565b955060008663ffffffff1614965050505050505b935093915050565b60008060006004858590501015612c1a576000806000925092509250612fe3565b6000612c268686611ba6565b905063853551b860e01b7bffffffffffffffffffffffffffffffffffffffffffffffffffffffff1916817bffffffffffffffffffffffffffffffffffffffffffffffffffffffff19161480612cbf57506330cae18760e01b7bffffffffffffffffffffffffffffffffffffffffffffffffffffffff1916817bffffffffffffffffffffffffffffffffffffffffffffffffffffffff1916145b80612d0e5750635296295260e01b7bffffffffffffffffffffffffffffffffffffffffffffffffffffffff1916817bffffffffffffffffffffffffffffffffffffffffffffffffffffffff1916145b80612d5d575063a64d95ce60e01b7bffffffffffffffffffffffffffffffffffffffffffffffffffffffff1916817bffffffffffffffffffffffffffffffffffffffffffffffffffffffff1916145b80612dac575063d22b598960e01b7bffffffffffffffffffffffffffffffffffffffffffffffffffffffff1916817bffffffffffffffffffffffffffffffffffffffffffffffffffffffff1916145b15612dc257600160008093509350935050612fe3565b6318ff183c60e01b7bffffffffffffffffffffffffffffffffffffffffffffffffffffffff1916817bffffffffffffffffffffffffffffffffffffffffffffffffffffffff19161480612e59575063167bd39560e01b7bffffffffffffffffffffffffffffffffffffffffffffffffffffffff1916817bffffffffffffffffffffffffffffffffffffffffffffffffffffffff1916145b80612ea857506308d6122d60e01b7bffffffffffffffffffffffffffffffffffffffffffffffffffffffff1916817bffffffffffffffffffffffffffffffffffffffffffffffffffffffff1916145b15612ef25760008686600490602492612ec3939291906141ce565b810190612ed091906145cf565b90506000612edd82610cd3565b90506001600082955095509550505050612fe3565b6325c471a060e01b7bffffffffffffffffffffffffffffffffffffffffffffffffffffffff1916817bffffffffffffffffffffffffffffffffffffffffffffffffffffffff19161480612f89575063b7d2b16260e01b7bffffffffffffffffffffffffffffffffffffffffffffffffffffffff1916817bffffffffffffffffffffffffffffffffffffffffffffffffffffffff1916145b15612fcd5760008686600490602492612fa4939291906141ce565b810190612fb19190613559565b90506001612fbe82610d66565b60009450945094505050612fe3565b6000612fd93083610dae565b6000935093509350505b9250925092565b606061300e6040518060600160405280602d8152602001614753602d91398461320d565b826130215761301c826132a9565b613093565b60008251148015613049575060008473ffffffffffffffffffffffffffffffffffffffff163b145b1561308b57836040517f9996b3150000000000000000000000000000000000000000000000000000000081526004016130829190613fc5565b60405180910390fd5b819050613094565b5b9392505050565b60008163ffffffff169050919050565b60008060006130c9866dffffffffffffffffffffffffffff16611a4a565b905060006131098563ffffffff168763ffffffff168463ffffffff16116130f15760006130fe565b87846130fd91906145fc565b5b63ffffffff16612a42565b90508063ffffffff1661311a6128d9565b6131249190614376565b92506131318287856132ee565b93505050935093915050565b600080600061315b856dffffffffffffffffffffffffffff1661333a565b8093508194508295505050508365ffffffffffff168165ffffffffffff1611156131875782828261318c565b816000805b9250925092509250925092565b600065ffffffffffff80168211156131eb576030826040517f6dfcc6500000000000000000000000000000000000000000000000000000000081526004016131e2929190614686565b60405180910390fd5b819050919050565b60006131fe8461337c565b82841802821890509392505050565b6132a582826040516024016132239291906146f3565b6040516020818303038152906040527fc3b55635000000000000000000000000000000000000000000000000000000007bffffffffffffffffffffffffffffffffffffffffffffffffffffffff19166020820180517bffffffffffffffffffffffffffffffffffffffffffffffffffffffff8381831617835250505050613388565b5050565b6000815111156132bc5780518082602001fd5b6040517fd6bda27500000000000000000000000000000000000000000000000000000000815260040160405180910390fd5b60008263ffffffff1660208563ffffffff166dffffffffffffffffffffffffffff16901b60408465ffffffffffff166dffffffffffffffffffffffffffff16901b171790509392505050565b6000806000808490508092506020816dffffffffffffffffffffffffffff16901c93506040816dffffffffffffffffffffffffffff16901c9150509193909250565b60008115159050919050565b61339f816133976133a26133c3565b63ffffffff16565b50565b60006a636f6e736f6c652e6c6f679050600080835160208501845afa505050565b6133ce819050919050565b6133d6614723565b565b600080fd5b600080fd5b600073ffffffffffffffffffffffffffffffffffffffff82169050919050565b600061340d826133e2565b9050919050565b61341d81613402565b811461342857600080fd5b50565b60008135905061343a81613414565b92915050565b600080fd5b600080fd5b600080fd5b60008083601f84011261346557613464613440565b5b8235905067ffffffffffffffff81111561348257613481613445565b5b60208301915083602082028301111561349e5761349d61344a565b5b9250929050565b600067ffffffffffffffff82169050919050565b6134c2816134a5565b81146134cd57600080fd5b50565b6000813590506134df816134b9565b92915050565b600080600080606085870312156134ff576134fe6133d8565b5b600061350d8782880161342b565b945050602085013567ffffffffffffffff81111561352e5761352d6133dd565b5b61353a8782880161344f565b9350935050604061354d878288016134d0565b91505092959194509250565b60006020828403121561356f5761356e6133d8565b5b600061357d848285016134d0565b91505092915050565b61358f816134a5565b82525050565b60006020820190506135aa6000830184613586565b92915050565b600063ffffffff82169050919050565b6135c9816135b0565b82525050565b60006020820190506135e460008301846135c0565b92915050565b60008115159050919050565b6135ff816135ea565b811461360a57600080fd5b50565b60008135905061361c816135f6565b92915050565b60008060408385031215613639576136386133d8565b5b60006136478582860161342b565b92505060206136588582860161360d565b9150509250929050565b60008060408385031215613679576136786133d8565b5b60006136878582860161342b565b92505060206136988582860161342b565b9150509250929050565b60008083601f8401126136b8576136b7613440565b5b8235905067ffffffffffffffff8111156136d5576136d4613445565b5b6020830191508360018202830111156136f1576136f061344a565b5b9250929050565b600080600060408486031215613711576137106133d8565b5b600061371f8682870161342b565b935050602084013567ffffffffffffffff8111156137405761373f6133dd565b5b61374c868287016136a2565b92509250509250925092565b613761816135b0565b811461376c57600080fd5b50565b60008135905061377e81613758565b92915050565b60008060006060848603121561379d5761379c6133d8565b5b60006137ab868287016134d0565b93505060206137bc8682870161342b565b92505060406137cd8682870161376f565b9150509250925092565b600080604083850312156137ee576137ed6133d8565b5b60006137fc858286016134d0565b925050602061380d8582860161342b565b9150509250929050565b600065ffffffffffff82169050919050565b61383281613817565b82525050565b600060808201905061384d6000830187613829565b61385a60208301866135c0565b61386760408301856135c0565b6138746060830184613829565b95945050505050565b60008060408385031215613894576138936133d8565b5b60006138a2858286016134d0565b92505060206138b3858286016134d0565b9150509250929050565b6000819050919050565b6138d0816138bd565b81146138db57600080fd5b50565b6000813590506138ed816138c7565b92915050565b600060208284031215613909576139086133d8565b5b6000613917848285016138de565b91505092915050565b60006020820190506139356000830184613829565b92915050565b600060208284031215613951576139506133d8565b5b600061395f8482850161342b565b91505092915050565b60007fffffffff0000000000000000000000000000000000000000000000000000000082169050919050565b61399d81613968565b81146139a857600080fd5b50565b6000813590506139ba81613994565b92915050565b600080604083850312156139d7576139d66133d8565b5b60006139e58582860161342b565b92505060206139f6858286016139ab565b9150509250929050565b60008083601f840112613a1657613a15613440565b5b8235905067ffffffffffffffff811115613a3357613a32613445565b5b602083019150836001820283011115613a4f57613a4e61344a565b5b9250929050565b600080600060408486031215613a6f57613a6e6133d8565b5b6000613a7d868287016134d0565b935050602084013567ffffffffffffffff811115613a9e57613a9d6133dd565b5b613aaa86828701613a00565b92509250509250925092565b613abf816135ea565b82525050565b6000602082019050613ada6000830184613ab6565b92915050565b60008060408385031215613af757613af66133d8565b5b6000613b05858286016134d0565b9250506020613b168582860161376f565b9150509250929050565b60008060008060608587031215613b3a57613b396133d8565b5b6000613b488782880161342b565b9450506020613b598782880161342b565b935050604085013567ffffffffffffffff811115613b7a57613b796133dd565b5b613b86878288016136a2565b925092505092959194509250565b613b9d816138bd565b82525050565b6000602082019050613bb86000830184613b94565b92915050565b60008083601f840112613bd457613bd3613440565b5b8235905067ffffffffffffffff811115613bf157613bf0613445565b5b602083019150836020820283011115613c0d57613c0c61344a565b5b9250929050565b60008060208385031215613c2b57613c2a6133d8565b5b600083013567ffffffffffffffff811115613c4957613c486133dd565b5b613c5585828601613bbe565b92509250509250929050565b600081519050919050565b600082825260208201905092915050565b6000819050602082019050919050565b600081519050919050565b600082825260208201905092915050565b60005b83811015613cc7578082015181840152602081019050613cac565b60008484015250505050565b6000601f19601f8301169050919050565b6000613cef82613c8d565b613cf98185613c98565b9350613d09818560208601613ca9565b613d1281613cd3565b840191505092915050565b6000613d298383613ce4565b905092915050565b6000602082019050919050565b6000613d4982613c61565b613d538185613c6c565b935083602082028501613d6585613c7d565b8060005b85811015613da15784840389528151613d828582613d1d565b9450613d8d83613d31565b925060208a01995050600181019050613d69565b50829750879550505050505092915050565b60006020820190508181036000830152613dcd8184613d3e565b905092915050565b600080600060608486031215613dee57613ded6133d8565b5b6000613dfc8682870161342b565b9350506020613e0d8682870161342b565b9250506040613e1e868287016139ab565b9150509250925092565b6000604082019050613e3d6000830185613ab6565b613e4a60208301846135c0565b9392505050565b60008060408385031215613e6857613e676133d8565b5b6000613e768582860161342b565b9250506020613e878582860161376f565b9150509250929050565b613e9a81613817565b8114613ea557600080fd5b50565b600081359050613eb781613e91565b92915050565b60008060008060608587031215613ed757613ed66133d8565b5b6000613ee58782880161342b565b945050602085013567ffffffffffffffff811115613f0657613f056133dd565b5b613f12878288016136a2565b93509350506040613f2587828801613ea8565b91505092959194509250565b6000604082019050613f466000830185613b94565b613f5360208301846135c0565b9392505050565b7f4e487b7100000000000000000000000000000000000000000000000000000000600052603260045260246000fd5b600060208284031215613f9f57613f9e6133d8565b5b6000613fad848285016139ab565b91505092915050565b613fbf81613402565b82525050565b6000602082019050613fda6000830184613fb6565b92915050565b613fe981613968565b82525050565b60006060820190506140046000830186613fb6565b6140116020830185613fb6565b61401e6040830184613fe0565b949350505050565b600082825260208201905092915050565b82818337600083830152505050565b60006140528385614026565b935061405f838584614037565b61406883613cd3565b840190509392505050565b6000602082019050818103600083015261408e818486614046565b90509392505050565b6000815190506140a681613994565b92915050565b6000602082840312156140c2576140c16133d8565b5b60006140d084828501614097565b91505092915050565b600082825260208201905092915050565b60006140f683856140d9565b9350614103838584614037565b61410c83613cd3565b840190509392505050565b600060608201905061412c6000830187613fb6565b6141396020830186613fb6565b818103604083015261414c8184866140ea565b905095945050505050565b6000819050919050565b7f4e487b7100000000000000000000000000000000000000000000000000000000600052601160045260246000fd5b600061419b82614157565b91506141a683614157565b92508282039050818111156141be576141bd614161565b5b92915050565b600080fd5b600080fd5b600080858511156141e2576141e16141c4565b5b838611156141f3576141f26141c9565b5b6001850283019150848603905094509492505050565b7f4e487b7100000000000000000000000000000000000000000000000000000000600052604160045260246000fd5b600080fd5b600080fd5b600080fd5b6000808335600160200384360303811261426457614263614238565b5b80840192508235915067ffffffffffffffff8211156142865761428561423d565b5b6020830192506001820236038313156142a2576142a1614242565b5b509250929050565b600081905092915050565b60006142c183856142aa565b93506142ce838584614037565b82840190509392505050565b60006142e582613c8d565b6142ef81856142aa565b93506142ff818560208601613ca9565b80840191505092915050565b60006143188285876142b5565b915061432482846142da565b9150819050949350505050565b60006080820190506143466000830187613fb6565b6143536020830186613fb6565b6143606040830185613fb6565b61436d6060830184613fe0565b95945050505050565b600061438182613817565b915061438c83613817565b9250828201905065ffffffffffff8111156143aa576143a9614161565b5b92915050565b60006080820190506143c56000830188613829565b6143d26020830187613fb6565b6143df6040830186613fb6565b81810360608301526143f28184866140ea565b90509695505050505050565b60006040820190506144136000830185613fb6565b6144206020830184613586565b9392505050565b600060208201905061443c6000830184613fe0565b92915050565b600082905092915050565b600082821b905092915050565b60006144668383614442565b826144718135613968565b925060048210156144b1576144ac7fffffffff000000000000000000000000000000000000000000000000000000008360040360080261444d565b831692505b505092915050565b60006040820190506144ce6000830185613fb6565b6144db6020830184613fe0565b9392505050565b6144eb81614157565b82525050565b600060408201905061450660008301856144e2565b61451360208301846144e2565b9392505050565b600061452682846142da565b915081905092915050565b600060608201905061454660008301866135c0565b6145536020830185613829565b6145606040830184613ab6565b949350505050565b600060408201905061457d60008301856135c0565b61458a6020830184613829565b9392505050565b600061459c826133e2565b9050919050565b6145ac81614591565b81146145b757600080fd5b50565b6000813590506145c9816145a3565b92915050565b6000602082840312156145e5576145e46133d8565b5b60006145f3848285016145ba565b91505092915050565b6000614607826135b0565b9150614612836135b0565b9250828203905063ffffffff81111561462e5761462d614161565b5b92915050565b6000819050919050565b600060ff82169050919050565b6000819050919050565b600061467061466b61466684614634565b61464b565b61463e565b9050919050565b61468081614655565b82525050565b600060408201905061469b6000830185614677565b6146a860208301846144e2565b9392505050565b600081519050919050565b60006146c5826146af565b6146cf8185614026565b93506146df818560208601613ca9565b6146e881613cd3565b840191505092915050565b6000604082019050818103600083015261470d81856146ba565b905061471c6020830184613ab6565b9392505050565b7f4e487b7100000000000000000000000000000000000000000000000000000000600052605160045260246000fdfe416464726573732d76657269667943616c6c526573756c7446726f6d54617267657428292d737563636573733aa2646970667358221220bdcf3ff1432fc59cab16b6219758af0d449bfc5099ba6b91a9073e0b990c0d8164736f6c634300081c0033",
  "linkReferences": {},
  "deployedLinkReferences": {}
}