{
  "_format": "hh-sol-artifact-1",
  "contractName": "kokoNFT",
  "sourceName": "contracts/catNFT/kokoNFT.sol",
  "abi": [
    {
      "inputs": [
        {
          "internalType": "string",
          "name": "tokenURI",
          "type": "string"
        }
      ],
      "stateMutability": "nonpayable",
      "type": "constructor"
    },
    {
      "inputs": [
        {
          "internalType": "address",
          "name": "owner",
          "type": "address"
        },
        {
          "internalType": "address",
          "name": "operator",
          "type": "address"
        },
        {
          "internalType": "bool",
          "name": "approved",
          "type": "bool"
        }
      ],
      "name": "_setApprovalForAll",
      "outputs": [
        {
          "internalType": "bool",
          "name": "",
          "type": "bool"
        }
      ],
      "stateMutability": "nonpayable",
      "type": "function"
    },
    {
      "inputs": [
        {
          "internalType": "address",
          "name": "owner",
          "type": "address"
        }
      ],
      "name": "balanceOf",
      "outputs": [
        {
          "internalType": "uint256",
          "name": "",
          "type": "uint256"
        }
      ],
      "stateMutability": "view",
      "type": "function"
    },
    {
      "inputs": [
        {
          "internalType": "uint256",
          "name": "tokenId",
          "type": "uint256"
        }
      ],
      "name": "checkgetApproved",
      "outputs": [
        {
          "internalType": "address",
          "name": "",
          "type": "address"
        }
      ],
      "stateMutability": "view",
      "type": "function"
    },
    {
      "inputs": [
        {
          "internalType": "uint256",
          "name": "tokenId",
          "type": "uint256"
        }
      ],
      "name": "checkgetOwner",
      "outputs": [
        {
          "internalType": "address",
          "name": "",
          "type": "address"
        }
      ],
      "stateMutability": "view",
      "type": "function"
    },
    {
      "inputs": [
        {
          "internalType": "uint256",
          "name": "tokenId",
          "type": "uint256"
        }
      ],
      "name": "getTokenURI",
      "outputs": [
        {
          "internalType": "string",
          "name": "",
          "type": "string"
        }
      ],
      "stateMutability": "view",
      "type": "function"
    },
    {
      "inputs": [
        {
          "internalType": "address",
          "name": "owner",
          "type": "address"
        },
        {
          "internalType": "address",
          "name": "operator",
          "type": "address"
        }
      ],
      "name": "isApprovalForAll",
      "outputs": [
        {
          "internalType": "bool",
          "name": "",
          "type": "bool"
        }
      ],
      "stateMutability": "view",
      "type": "function"
    },
    {
      "inputs": [],
      "name": "name",
      "outputs": [
        {
          "internalType": "string",
          "name": "",
          "type": "string"
        }
      ],
      "stateMutability": "view",
      "type": "function"
    },
    {
      "inputs": [
        {
          "internalType": "address",
          "name": "to",
          "type": "address"
        },
        {
          "internalType": "uint256",
          "name": "tokenId",
          "type": "uint256"
        }
      ],
      "name": "setApprove",
      "outputs": [
        {
          "internalType": "bool",
          "name": "",
          "type": "bool"
        }
      ],
      "stateMutability": "nonpayable",
      "type": "function"
    },
    {
      "inputs": [],
      "name": "symbol",
      "outputs": [
        {
          "internalType": "string",
          "name": "",
          "type": "string"
        }
      ],
      "stateMutability": "view",
      "type": "function"
    },
    {
      "inputs": [
        {
          "internalType": "address",
          "name": "to",
          "type": "address"
        },
        {
          "internalType": "uint256",
          "name": "tokenId",
          "type": "uint256"
        }
      ],
      "name": "transfer",
      "outputs": [
        {
          "internalType": "bool",
          "name": "",
          "type": "bool"
        }
      ],
      "stateMutability": "nonpayable",
      "type": "function"
    },
    {
      "inputs": [
        {
          "internalType": "address",
          "name": "to",
          "type": "address"
        },
        {
          "internalType": "uint256",
          "name": "tokenId",
          "type": "uint256"
        }
      ],
      "name": "transferFrom",
      "outputs": [
        {
          "internalType": "bool",
          "name": "",
          "type": "bool"
        }
      ],
      "stateMutability": "nonpayable",
      "type": "function"
    }
  ],
  "bytecode": "0x608060405261636660075534801561001657600080fd5b506040516121c03803806121c083398181016040528101906100389190610663565b6040518060400160405280600c81526020017f4361742050726f706572747900000000000000000000000000000000000000008152506040518060400160405280600681526020017f4361744e4654000000000000000000000000000000000000000000000000000081525081600090816100b391906108cd565b5080600190816100c391906108cd565b506101086040518060400160405280601b81526020017f45524337323120636f6e74726163742069732063616c6c65647e7e000000000081525061013060201b60201c565b505061012933600160075461011d91906109ce565b836101cf60201b60201c565b5050610bc1565b6101cc816040516024016101449190610a4c565b6040516020818303038152906040527f41304fac000000000000000000000000000000000000000000000000000000007bffffffffffffffffffffffffffffffffffffffffffffffffffffffff19166020820180517bffffffffffffffffffffffffffffffffffffffffffffffffffffffff83818316178352505050506101eb60201b60201c565b50565b60006101e284848461020f60201b60201c565b90509392505050565b61020c8161020761035760201b610bb81761037860201b60201c565b60201c565b50565b60008073ffffffffffffffffffffffffffffffffffffffff168473ffffffffffffffffffffffffffffffffffffffff161461034b57610254838361038a60201b60201c565b506001600360008673ffffffffffffffffffffffffffffffffffffffff1673ffffffffffffffffffffffffffffffffffffffff16815260200190815260200160002060008282546102a591906109ce565b92505081905550836002600085815260200190815260200160002060006101000a81548173ffffffffffffffffffffffffffffffffffffffff021916908373ffffffffffffffffffffffffffffffffffffffff1602179055506103426040518060400160405280601181526020017f6d696e7420636f6d706c657465647e7e7e00000000000000000000000000000081525061013060201b60201c565b60019050610350565b600090505b9392505050565b60006a636f6e736f6c652e6c6f679050600080835160208501845afa505050565b6104e460201b610f0d17819050919050565b60003373ffffffffffffffffffffffffffffffffffffffff166103b28461043360201b60201c565b73ffffffffffffffffffffffffffffffffffffffff1614610408576040517f08c379a00000000000000000000000000000000000000000000000000000000081526004016103ff90610ae0565b60405180910390fd5b8160046000858152602001908152602001600020908161042891906108cd565b506001905092915050565b6000806002600084815260200190815260200160002060009054906101000a900473ffffffffffffffffffffffffffffffffffffffff169050600073ffffffffffffffffffffffffffffffffffffffff168173ffffffffffffffffffffffffffffffffffffffff16036104db576040517f08c379a00000000000000000000000000000000000000000000000000000000081526004016104d290610b72565b60405180910390fd5b80915050919050565b6104ec610b92565b565b6000604051905090565b600080fd5b600080fd5b600080fd5b600080fd5b6000601f19601f8301169050919050565b7f4e487b7100000000000000000000000000000000000000000000000000000000600052604160045260246000fd5b6105558261050c565b810181811067ffffffffffffffff821117156105745761057361051d565b5b80604052505050565b60006105876104ee565b9050610593828261054c565b919050565b600067ffffffffffffffff8211156105b3576105b261051d565b5b6105bc8261050c565b9050602081019050919050565b60005b838110156105e75780820151818401526020810190506105cc565b60008484015250505050565b600061060661060184610598565b61057d565b90508281526020810184848401111561062257610621610507565b5b61062d8482856105c9565b509392505050565b600082601f83011261064a57610649610502565b5b815161065a8482602086016105f3565b91505092915050565b600060208284031215610679576106786104f8565b5b600082015167ffffffffffffffff811115610697576106966104fd565b5b6106a384828501610635565b91505092915050565b600081519050919050565b7f4e487b7100000000000000000000000000000000000000000000000000000000600052602260045260246000fd5b600060028204905060018216806106fe57607f821691505b602082108103610711576107106106b7565b5b50919050565b60008190508160005260206000209050919050565b60006020601f8301049050919050565b600082821b905092915050565b6000600883026107797fffffffffffffffffffffffffffffffffffffffffffffffffffffffffffffffff8261073c565b610783868361073c565b95508019841693508086168417925050509392505050565b6000819050919050565b6000819050919050565b60006107ca6107c56107c08461079b565b6107a5565b61079b565b9050919050565b6000819050919050565b6107e4836107af565b6107f86107f0826107d1565b848454610749565b825550505050565b600090565b61080d610800565b6108188184846107db565b505050565b5b8181101561083c57610831600082610805565b60018101905061081e565b5050565b601f8211156108815761085281610717565b61085b8461072c565b8101602085101561086a578190505b61087e6108768561072c565b83018261081d565b50505b505050565b600082821c905092915050565b60006108a460001984600802610886565b1980831691505092915050565b60006108bd8383610893565b9150826002028217905092915050565b6108d6826106ac565b67ffffffffffffffff8111156108ef576108ee61051d565b5b6108f982546106e6565b610904828285610840565b600060209050601f8311600181146109375760008415610925578287015190505b61092f85826108b1565b865550610997565b601f19841661094586610717565b60005b8281101561096d57848901518255600182019150602085019450602081019050610948565b8683101561098a5784890151610986601f891682610893565b8355505b6001600288020188555050505b505050505050565b7f4e487b7100000000000000000000000000000000000000000000000000000000600052601160045260246000fd5b60006109d98261079b565b91506109e48361079b565b92508282019050808211156109fc576109fb61099f565b5b92915050565b600082825260208201905092915050565b6000610a1e826106ac565b610a288185610a02565b9350610a388185602086016105c9565b610a418161050c565b840191505092915050565b60006020820190508181036000830152610a668184610a13565b905092915050565b7f4552524f5220636865636b6765744f776e65723a206d73672e73656e6465722060008201527f6973206e6f74206f776e65720000000000000000000000000000000000000000602082015250565b6000610aca602c83610a02565b9150610ad582610a6e565b604082019050919050565b60006020820190508181036000830152610af981610abd565b9050919050565b7f4552524f5220636865636b6765744f776e65723a206f776e6572206973206e7560008201527f6c6c300000000000000000000000000000000000000000000000000000000000602082015250565b6000610b5c602383610a02565b9150610b6782610b00565b604082019050919050565b60006020820190508181036000830152610b8b81610b4f565b9050919050565b7f4e487b7100000000000000000000000000000000000000000000000000000000600052605160045260246000fd5b6115f080610bd06000396000f3fe608060405234801561001057600080fd5b50600436106100a95760003560e01c806395d89b411161007157806395d89b411461018c578063a9059cbb146101aa578063c4925fea146101da578063eace37cb1461020a578063ebd1d3591461023a578063f0308b031461026a576100a9565b806301c6adc3146100ae57806306fdde03146100de5780633bb3a24d146100fc57806370a082311461012c5780638c4e3f321461015c575b600080fd5b6100c860048036038101906100c39190610fb0565b61029a565b6040516100d5919061100b565b60405180910390f35b6100e6610399565b6040516100f391906110b6565b60405180910390f35b610116600480360381019061011191906110d8565b61042b565b60405161012391906110b6565b60405180910390f35b61014660048036038101906101419190611105565b6104e0565b6040516101539190611141565b60405180910390f35b61017660048036038101906101719190611188565b610529565b604051610183919061100b565b60405180910390f35b610194610667565b6040516101a191906110b6565b60405180910390f35b6101c460048036038101906101bf9190610fb0565b6106f9565b6040516101d1919061100b565b60405180910390f35b6101f460048036038101906101ef9190610fb0565b610851565b604051610201919061100b565b60405180910390f35b610224600480360381019061021f91906110d8565b6109c2565b60405161023191906111ea565b60405180910390f35b610254600480360381019061024f9190611205565b610a73565b604051610261919061100b565b60405180910390f35b610284600480360381019061027f91906110d8565b610b07565b60405161029191906111ea565b60405180910390f35b600080600033905060006102ad85610b07565b9050600073ffffffffffffffffffffffffffffffffffffffff166102d0866109c2565b73ffffffffffffffffffffffffffffffffffffffff161415806102f957506102f88183610a73565b5b1561034e57610309818787610bd9565b92506103496040518060400160405280601981526020017f7472616e73666572466f726d20636f6d706c65746564207e7e00000000000000815250610e4f565b61038d565b61038c6040518060400160405280601e81526020017f4552524f52207472616e7366657246726f6d3a206e6f20617070726f76650000815250610e4f565b5b82935050505092915050565b6060600080546103a890611274565b80601f01602080910402602001604051908101604052809291908181526020018280546103d490611274565b80156104215780601f106103f657610100808354040283529160200191610421565b820191906000526020600020905b81548152906001019060200180831161040457829003601f168201915b5050505050905090565b606061043682610b07565b50600060046000848152602001908152602001600020805461045790611274565b80601f016020809104026020016040519081016040528092919081815260200182805461048390611274565b80156104d05780601f106104a5576101008083540402835291602001916104d0565b820191906000526020600020905b8154815290600101906020018083116104b357829003601f168201915b5050505050905080915050919050565b6000600360008373ffffffffffffffffffffffffffffffffffffffff1673ffffffffffffffffffffffffffffffffffffffff168152602001908152602001600020549050919050565b60008073ffffffffffffffffffffffffffffffffffffffff168373ffffffffffffffffffffffffffffffffffffffff16036105885761057f6040518060600160405280602a8152602001611522602a9139610e4f565b60009050610660565b6001600660008673ffffffffffffffffffffffffffffffffffffffff1673ffffffffffffffffffffffffffffffffffffffff16815260200190815260200160002060008573ffffffffffffffffffffffffffffffffffffffff1673ffffffffffffffffffffffffffffffffffffffff16815260200190815260200160002060006101000a81548160ff02191690831515021790555061065b6040518060400160405280601f81526020017f5f736574417070726f76616c466f72416c6c20636f6d706c657465647e7e7e00815250610e4f565b600190505b9392505050565b60606001805461067690611274565b80601f01602080910402602001604051908101604052809291908181526020018280546106a290611274565b80156106ef5780601f106106c4576101008083540402835291602001916106ef565b820191906000526020600020905b8154815290600101906020018083116106d257829003601f168201915b5050505050905090565b600080600073ffffffffffffffffffffffffffffffffffffffff168473ffffffffffffffffffffffffffffffffffffffff160361076b576040517f08c379a000000000000000000000000000000000000000000000000000000000815260040161076290611317565b60405180910390fd5b6002600084815260200190815260200160002060009054906101000a900473ffffffffffffffffffffffffffffffffffffffff1673ffffffffffffffffffffffffffffffffffffffff163373ffffffffffffffffffffffffffffffffffffffff1603610825576107dc338585610bd9565b905061081c6040518060400160405280601581526020017f7472616e7366657220636f6d706c657465647e7e7e0000000000000000000000815250610e4f565b8091505061084b565b61084660405180606001604052806021815260200161157460219139610e4f565b809150505b92915050565b600061085c82610b07565b73ffffffffffffffffffffffffffffffffffffffff163373ffffffffffffffffffffffffffffffffffffffff16146108c9576040517f08c379a00000000000000000000000000000000000000000000000000000000081526004016108c0906113a9565b60405180910390fd5b600073ffffffffffffffffffffffffffffffffffffffff168373ffffffffffffffffffffffffffffffffffffffff16036109275761091e60405180606001604052806026815260200161159560269139610e4f565b600090506109bc565b826005600084815260200190815260200160002060006101000a81548173ffffffffffffffffffffffffffffffffffffffff021916908373ffffffffffffffffffffffffffffffffffffffff1602179055506109b76040518060400160405280601881526020017f5f736574417070726f766520636f6d706c657465647e7e7e0000000000000000815250610e4f565b600190505b92915050565b6000806109ce83610b07565b905060006005600085815260200190815260200160002060009054906101000a900473ffffffffffffffffffffffffffffffffffffffff169050600073ffffffffffffffffffffffffffffffffffffffff168173ffffffffffffffffffffffffffffffffffffffff1603610a6857610a5d60405180606001604052806028815260200161154c60289139610e4f565b600092505050610a6e565b80925050505b919050565b6000600660008473ffffffffffffffffffffffffffffffffffffffff1673ffffffffffffffffffffffffffffffffffffffff16815260200190815260200160002060008373ffffffffffffffffffffffffffffffffffffffff1673ffffffffffffffffffffffffffffffffffffffff16815260200190815260200160002060009054906101000a900460ff16905092915050565b6000806002600084815260200190815260200160002060009054906101000a900473ffffffffffffffffffffffffffffffffffffffff169050600073ffffffffffffffffffffffffffffffffffffffff168173ffffffffffffffffffffffffffffffffffffffff1603610baf576040517f08c379a0000000000000000000000000000000000000000000000000000000008152600401610ba69061143b565b60405180910390fd5b80915050919050565b60006a636f6e736f6c652e6c6f679050600080835160208501845afa505050565b60008073ffffffffffffffffffffffffffffffffffffffff168473ffffffffffffffffffffffffffffffffffffffff1614158015610c445750600073ffffffffffffffffffffffffffffffffffffffff168373ffffffffffffffffffffffffffffffffffffffff1614155b15610e43576002600083815260200190815260200160002060009054906101000a900473ffffffffffffffffffffffffffffffffffffffff1673ffffffffffffffffffffffffffffffffffffffff168473ffffffffffffffffffffffffffffffffffffffff16148015610cf657506000600360008673ffffffffffffffffffffffffffffffffffffffff1673ffffffffffffffffffffffffffffffffffffffff16815260200190815260200160002054115b15610e42576001600360008673ffffffffffffffffffffffffffffffffffffffff1673ffffffffffffffffffffffffffffffffffffffff1681526020019081526020016000206000828254610d4b919061148a565b925050819055506001600360008573ffffffffffffffffffffffffffffffffffffffff1673ffffffffffffffffffffffffffffffffffffffff1681526020019081526020016000206000828254610da291906114be565b92505081905550826002600084815260200190815260200160002060006101000a81548173ffffffffffffffffffffffffffffffffffffffff021916908373ffffffffffffffffffffffffffffffffffffffff160217905550610e396040518060400160405280601381526020017f75706461746520636f6d706c657465647e7e7e00000000000000000000000000815250610e4f565b60019050610e48565b5b600090505b9392505050565b610ee581604051602401610e6391906110b6565b6040516020818303038152906040527f41304fac000000000000000000000000000000000000000000000000000000007bffffffffffffffffffffffffffffffffffffffffffffffffffffffff19166020820180517bffffffffffffffffffffffffffffffffffffffffffffffffffffffff8381831617835250505050610ee8565b50565b610eff81610ef7610bb8610f02565b63ffffffff16565b50565b610f0d819050919050565b610f156114f2565b565b600080fd5b600073ffffffffffffffffffffffffffffffffffffffff82169050919050565b6000610f4782610f1c565b9050919050565b610f5781610f3c565b8114610f6257600080fd5b50565b600081359050610f7481610f4e565b92915050565b6000819050919050565b610f8d81610f7a565b8114610f9857600080fd5b50565b600081359050610faa81610f84565b92915050565b60008060408385031215610fc757610fc6610f17565b5b6000610fd585828601610f65565b9250506020610fe685828601610f9b565b9150509250929050565b60008115159050919050565b61100581610ff0565b82525050565b60006020820190506110206000830184610ffc565b92915050565b600081519050919050565b600082825260208201905092915050565b60005b83811015611060578082015181840152602081019050611045565b60008484015250505050565b6000601f19601f8301169050919050565b600061108882611026565b6110928185611031565b93506110a2818560208601611042565b6110ab8161106c565b840191505092915050565b600060208201905081810360008301526110d0818461107d565b905092915050565b6000602082840312156110ee576110ed610f17565b5b60006110fc84828501610f9b565b91505092915050565b60006020828403121561111b5761111a610f17565b5b600061112984828501610f65565b91505092915050565b61113b81610f7a565b82525050565b60006020820190506111566000830184611132565b92915050565b61116581610ff0565b811461117057600080fd5b50565b6000813590506111828161115c565b92915050565b6000806000606084860312156111a1576111a0610f17565b5b60006111af86828701610f65565b93505060206111c086828701610f65565b92505060406111d186828701611173565b9150509250925092565b6111e481610f3c565b82525050565b60006020820190506111ff60008301846111db565b92915050565b6000806040838503121561121c5761121b610f17565b5b600061122a85828601610f65565b925050602061123b85828601610f65565b9150509250929050565b7f4e487b7100000000000000000000000000000000000000000000000000000000600052602260045260246000fd5b6000600282049050600182168061128c57607f821691505b60208210810361129f5761129e611245565b5b50919050565b7f4552524f52207472616e736665723a20746f2061646472657373206973206e7560008201527f6c6c000000000000000000000000000000000000000000000000000000000000602082015250565b6000611301602283611031565b915061130c826112a5565b604082019050919050565b60006020820190508181036000830152611330816112f4565b9050919050565b7f4552524f52205f736574417070726f76653a796f7520617265206e6f74206f7760008201527f6e65720000000000000000000000000000000000000000000000000000000000602082015250565b6000611393602383611031565b915061139e82611337565b604082019050919050565b600060208201905081810360008301526113c281611386565b9050919050565b7f4552524f5220636865636b6765744f776e65723a206f776e6572206973206e7560008201527f6c6c300000000000000000000000000000000000000000000000000000000000602082015250565b6000611425602383611031565b9150611430826113c9565b604082019050919050565b6000602082019050818103600083015261145481611418565b9050919050565b7f4e487b7100000000000000000000000000000000000000000000000000000000600052601160045260246000fd5b600061149582610f7a565b91506114a083610f7a565b92508282039050818111156114b8576114b761145b565b5b92915050565b60006114c982610f7a565b91506114d483610f7a565b92508282019050808211156114ec576114eb61145b565b5b92915050565b7f4e487b7100000000000000000000000000000000000000000000000000000000600052605160045260246000fdfe4552524f52205f736574417070726f76616c466f72416c6c3a6f70657261746f72206973206e756c6c304552524f5220636865636b676574417070726f7665643a206f70657261746f72206973206e756c6c4552524f52207472616e736665723a20596f7520617265206e6f74206f776e65724552524f52205f736574417070726f76653a20746f2061646472657373206973206e756c6c30a26469706673582212200a39faaee554a4c3a62c38a2f1b1c1bbe83545c49fe3371127b8e80223a2890264736f6c634300081c0033",
  "linkReferences": {},
  "deployedLinkReferences": {}
}