{
  "_format": "hh-sol-artifact-1",
  "contractName": "kokoCatNFT",
  "sourceName": "contracts/catNFT/kokoCatNFT.sol",
  "abi": [
    {
      "inputs": [
        {
          "internalType": "address",
          "name": "defaultAdmin",
          "type": "address"
        },
        {
          "internalType": "address",
          "name": "minter",
          "type": "address"
        },
        {
          "internalType": "address",
          "name": "_kokoTokenAddress",
          "type": "address"
        }
      ],
      "stateMutability": "nonpayable",
      "type": "constructor"
    },
    {
      "inputs": [],
      "name": "AccessControlBadConfirmation",
      "type": "error"
    },
    {
      "inputs": [
        {
          "internalType": "address",
          "name": "account",
          "type": "address"
        },
        {
          "internalType": "bytes32",
          "name": "neededRole",
          "type": "bytes32"
        }
      ],
      "name": "AccessControlUnauthorizedAccount",
      "type": "error"
    },
    {
      "inputs": [
        {
          "internalType": "address",
          "name": "sender",
          "type": "address"
        },
        {
          "internalType": "uint256",
          "name": "tokenId",
          "type": "uint256"
        },
        {
          "internalType": "address",
          "name": "owner",
          "type": "address"
        }
      ],
      "name": "ERC721IncorrectOwner",
      "type": "error"
    },
    {
      "inputs": [
        {
          "internalType": "address",
          "name": "operator",
          "type": "address"
        },
        {
          "internalType": "uint256",
          "name": "tokenId",
          "type": "uint256"
        }
      ],
      "name": "ERC721InsufficientApproval",
      "type": "error"
    },
    {
      "inputs": [
        {
          "internalType": "address",
          "name": "approver",
          "type": "address"
        }
      ],
      "name": "ERC721InvalidApprover",
      "type": "error"
    },
    {
      "inputs": [
        {
          "internalType": "address",
          "name": "operator",
          "type": "address"
        }
      ],
      "name": "ERC721InvalidOperator",
      "type": "error"
    },
    {
      "inputs": [
        {
          "internalType": "address",
          "name": "owner",
          "type": "address"
        }
      ],
      "name": "ERC721InvalidOwner",
      "type": "error"
    },
    {
      "inputs": [
        {
          "internalType": "address",
          "name": "receiver",
          "type": "address"
        }
      ],
      "name": "ERC721InvalidReceiver",
      "type": "error"
    },
    {
      "inputs": [
        {
          "internalType": "address",
          "name": "sender",
          "type": "address"
        }
      ],
      "name": "ERC721InvalidSender",
      "type": "error"
    },
    {
      "inputs": [
        {
          "internalType": "uint256",
          "name": "tokenId",
          "type": "uint256"
        }
      ],
      "name": "ERC721NonexistentToken",
      "type": "error"
    },
    {
      "anonymous": false,
      "inputs": [
        {
          "indexed": true,
          "internalType": "address",
          "name": "owner",
          "type": "address"
        },
        {
          "indexed": true,
          "internalType": "address",
          "name": "approved",
          "type": "address"
        },
        {
          "indexed": true,
          "internalType": "uint256",
          "name": "tokenId",
          "type": "uint256"
        }
      ],
      "name": "Approval",
      "type": "event"
    },
    {
      "anonymous": false,
      "inputs": [
        {
          "indexed": true,
          "internalType": "address",
          "name": "owner",
          "type": "address"
        },
        {
          "indexed": true,
          "internalType": "address",
          "name": "operator",
          "type": "address"
        },
        {
          "indexed": false,
          "internalType": "bool",
          "name": "approved",
          "type": "bool"
        }
      ],
      "name": "ApprovalForAll",
      "type": "event"
    },
    {
      "anonymous": false,
      "inputs": [
        {
          "indexed": false,
          "internalType": "uint256",
          "name": "_fromTokenId",
          "type": "uint256"
        },
        {
          "indexed": false,
          "internalType": "uint256",
          "name": "_toTokenId",
          "type": "uint256"
        }
      ],
      "name": "BatchMetadataUpdate",
      "type": "event"
    },
    {
      "anonymous": false,
      "inputs": [
        {
          "indexed": false,
          "internalType": "uint256",
          "name": "_tokenId",
          "type": "uint256"
        }
      ],
      "name": "MetadataUpdate",
      "type": "event"
    },
    {
      "anonymous": false,
      "inputs": [
        {
          "indexed": true,
          "internalType": "bytes32",
          "name": "role",
          "type": "bytes32"
        },
        {
          "indexed": true,
          "internalType": "bytes32",
          "name": "previousAdminRole",
          "type": "bytes32"
        },
        {
          "indexed": true,
          "internalType": "bytes32",
          "name": "newAdminRole",
          "type": "bytes32"
        }
      ],
      "name": "RoleAdminChanged",
      "type": "event"
    },
    {
      "anonymous": false,
      "inputs": [
        {
          "indexed": true,
          "internalType": "bytes32",
          "name": "role",
          "type": "bytes32"
        },
        {
          "indexed": true,
          "internalType": "address",
          "name": "account",
          "type": "address"
        },
        {
          "indexed": true,
          "internalType": "address",
          "name": "sender",
          "type": "address"
        }
      ],
      "name": "RoleGranted",
      "type": "event"
    },
    {
      "anonymous": false,
      "inputs": [
        {
          "indexed": true,
          "internalType": "bytes32",
          "name": "role",
          "type": "bytes32"
        },
        {
          "indexed": true,
          "internalType": "address",
          "name": "account",
          "type": "address"
        },
        {
          "indexed": true,
          "internalType": "address",
          "name": "sender",
          "type": "address"
        }
      ],
      "name": "RoleRevoked",
      "type": "event"
    },
    {
      "anonymous": false,
      "inputs": [
        {
          "indexed": true,
          "internalType": "address",
          "name": "from",
          "type": "address"
        },
        {
          "indexed": true,
          "internalType": "address",
          "name": "to",
          "type": "address"
        },
        {
          "indexed": true,
          "internalType": "uint256",
          "name": "tokenId",
          "type": "uint256"
        }
      ],
      "name": "Transfer",
      "type": "event"
    },
    {
      "inputs": [],
      "name": "DEFAULT_ADMIN_ROLE",
      "outputs": [
        {
          "internalType": "bytes32",
          "name": "",
          "type": "bytes32"
        }
      ],
      "stateMutability": "view",
      "type": "function"
    },
    {
      "inputs": [],
      "name": "MINTER_ROLE",
      "outputs": [
        {
          "internalType": "bytes32",
          "name": "",
          "type": "bytes32"
        }
      ],
      "stateMutability": "view",
      "type": "function"
    },
    {
      "inputs": [
        {
          "internalType": "address",
          "name": "to",
          "type": "address"
        },
        {
          "internalType": "uint256",
          "name": "tokenId",
          "type": "uint256"
        }
      ],
      "name": "approve",
      "outputs": [],
      "stateMutability": "nonpayable",
      "type": "function"
    },
    {
      "inputs": [
        {
          "internalType": "address",
          "name": "owner",
          "type": "address"
        }
      ],
      "name": "balanceOf",
      "outputs": [
        {
          "internalType": "uint256",
          "name": "",
          "type": "uint256"
        }
      ],
      "stateMutability": "view",
      "type": "function"
    },
    {
      "inputs": [
        {
          "internalType": "uint256",
          "name": "tokenId",
          "type": "uint256"
        }
      ],
      "name": "burn",
      "outputs": [],
      "stateMutability": "nonpayable",
      "type": "function"
    },
    {
      "inputs": [
        {
          "internalType": "uint256",
          "name": "",
          "type": "uint256"
        }
      ],
      "name": "cats",
      "outputs": [
        {
          "internalType": "string",
          "name": "name",
          "type": "string"
        },
        {
          "internalType": "uint256",
          "name": "chipId",
          "type": "uint256"
        },
        {
          "internalType": "uint256",
          "name": "donateMinValue",
          "type": "uint256"
        }
      ],
      "stateMutability": "view",
      "type": "function"
    },
    {
      "inputs": [
        {
          "internalType": "uint256",
          "name": "",
          "type": "uint256"
        }
      ],
      "name": "catsAmount",
      "outputs": [
        {
          "internalType": "uint256",
          "name": "",
          "type": "uint256"
        }
      ],
      "stateMutability": "view",
      "type": "function"
    },
    {
      "inputs": [
        {
          "internalType": "uint256",
          "name": "tokenId",
          "type": "uint256"
        },
        {
          "internalType": "uint256",
          "name": "donateValueInWei",
          "type": "uint256"
        }
      ],
      "name": "donate",
      "outputs": [],
      "stateMutability": "payable",
      "type": "function"
    },
    {
      "inputs": [
        {
          "internalType": "uint256",
          "name": "tokenId",
          "type": "uint256"
        }
      ],
      "name": "getApproved",
      "outputs": [
        {
          "internalType": "address",
          "name": "",
          "type": "address"
        }
      ],
      "stateMutability": "view",
      "type": "function"
    },
    {
      "inputs": [
        {
          "internalType": "uint256",
          "name": "tokenId",
          "type": "uint256"
        }
      ],
      "name": "getCatProperty",
      "outputs": [
        {
          "components": [
            {
              "internalType": "string",
              "name": "name",
              "type": "string"
            },
            {
              "internalType": "uint256",
              "name": "chipId",
              "type": "uint256"
            },
            {
              "internalType": "uint256",
              "name": "donateMinValue",
              "type": "uint256"
            }
          ],
          "internalType": "struct kokoCatNFT.Property",
          "name": "",
          "type": "tuple"
        }
      ],
      "stateMutability": "view",
      "type": "function"
    },
    {
      "inputs": [
        {
          "internalType": "bytes32",
          "name": "role",
          "type": "bytes32"
        }
      ],
      "name": "getRoleAdmin",
      "outputs": [
        {
          "internalType": "bytes32",
          "name": "",
          "type": "bytes32"
        }
      ],
      "stateMutability": "view",
      "type": "function"
    },
    {
      "inputs": [],
      "name": "getTokenId",
      "outputs": [
        {
          "internalType": "uint256",
          "name": "",
          "type": "uint256"
        }
      ],
      "stateMutability": "view",
      "type": "function"
    },
    {
      "inputs": [],
      "name": "getTotalMintSupply",
      "outputs": [
        {
          "internalType": "uint256",
          "name": "",
          "type": "uint256"
        }
      ],
      "stateMutability": "view",
      "type": "function"
    },
    {
      "inputs": [
        {
          "internalType": "bytes32",
          "name": "role",
          "type": "bytes32"
        },
        {
          "internalType": "address",
          "name": "account",
          "type": "address"
        }
      ],
      "name": "grantRole",
      "outputs": [],
      "stateMutability": "nonpayable",
      "type": "function"
    },
    {
      "inputs": [
        {
          "internalType": "bytes32",
          "name": "role",
          "type": "bytes32"
        },
        {
          "internalType": "address",
          "name": "account",
          "type": "address"
        }
      ],
      "name": "hasRole",
      "outputs": [
        {
          "internalType": "bool",
          "name": "",
          "type": "bool"
        }
      ],
      "stateMutability": "view",
      "type": "function"
    },
    {
      "inputs": [
        {
          "internalType": "uint256",
          "name": "tokenId",
          "type": "uint256"
        },
        {
          "internalType": "string",
          "name": "_name",
          "type": "string"
        },
        {
          "internalType": "uint256",
          "name": "_chipId",
          "type": "uint256"
        },
        {
          "internalType": "uint256",
          "name": "_donateMinValue",
          "type": "uint256"
        }
      ],
      "name": "initCatProperty",
      "outputs": [],
      "stateMutability": "nonpayable",
      "type": "function"
    },
    {
      "inputs": [
        {
          "internalType": "address",
          "name": "owner",
          "type": "address"
        },
        {
          "internalType": "address",
          "name": "operator",
          "type": "address"
        }
      ],
      "name": "isApprovedForAll",
      "outputs": [
        {
          "internalType": "bool",
          "name": "",
          "type": "bool"
        }
      ],
      "stateMutability": "view",
      "type": "function"
    },
    {
      "inputs": [],
      "name": "kokoToken",
      "outputs": [
        {
          "internalType": "contract IERC20",
          "name": "",
          "type": "address"
        }
      ],
      "stateMutability": "view",
      "type": "function"
    },
    {
      "inputs": [],
      "name": "kokoTokenAddress",
      "outputs": [
        {
          "internalType": "address",
          "name": "",
          "type": "address"
        }
      ],
      "stateMutability": "view",
      "type": "function"
    },
    {
      "inputs": [],
      "name": "name",
      "outputs": [
        {
          "internalType": "string",
          "name": "",
          "type": "string"
        }
      ],
      "stateMutability": "view",
      "type": "function"
    },
    {
      "inputs": [],
      "name": "newtokenId",
      "outputs": [
        {
          "internalType": "uint256",
          "name": "",
          "type": "uint256"
        }
      ],
      "stateMutability": "view",
      "type": "function"
    },
    {
      "inputs": [
        {
          "internalType": "uint256",
          "name": "tokenId",
          "type": "uint256"
        }
      ],
      "name": "ownerOf",
      "outputs": [
        {
          "internalType": "address",
          "name": "",
          "type": "address"
        }
      ],
      "stateMutability": "view",
      "type": "function"
    },
    {
      "inputs": [
        {
          "internalType": "bytes32",
          "name": "role",
          "type": "bytes32"
        },
        {
          "internalType": "address",
          "name": "callerConfirmation",
          "type": "address"
        }
      ],
      "name": "renounceRole",
      "outputs": [],
      "stateMutability": "nonpayable",
      "type": "function"
    },
    {
      "inputs": [
        {
          "internalType": "bytes32",
          "name": "role",
          "type": "bytes32"
        },
        {
          "internalType": "address",
          "name": "account",
          "type": "address"
        }
      ],
      "name": "revokeRole",
      "outputs": [],
      "stateMutability": "nonpayable",
      "type": "function"
    },
    {
      "inputs": [
        {
          "internalType": "address",
          "name": "to",
          "type": "address"
        },
        {
          "internalType": "string",
          "name": "uri",
          "type": "string"
        }
      ],
      "name": "safeMint",
      "outputs": [],
      "stateMutability": "nonpayable",
      "type": "function"
    },
    {
      "inputs": [
        {
          "internalType": "address",
          "name": "from",
          "type": "address"
        },
        {
          "internalType": "address",
          "name": "to",
          "type": "address"
        },
        {
          "internalType": "uint256",
          "name": "tokenId",
          "type": "uint256"
        }
      ],
      "name": "safeTransferFrom",
      "outputs": [],
      "stateMutability": "nonpayable",
      "type": "function"
    },
    {
      "inputs": [
        {
          "internalType": "address",
          "name": "from",
          "type": "address"
        },
        {
          "internalType": "address",
          "name": "to",
          "type": "address"
        },
        {
          "internalType": "uint256",
          "name": "tokenId",
          "type": "uint256"
        },
        {
          "internalType": "bytes",
          "name": "data",
          "type": "bytes"
        }
      ],
      "name": "safeTransferFrom",
      "outputs": [],
      "stateMutability": "nonpayable",
      "type": "function"
    },
    {
      "inputs": [
        {
          "internalType": "address",
          "name": "operator",
          "type": "address"
        },
        {
          "internalType": "bool",
          "name": "approved",
          "type": "bool"
        }
      ],
      "name": "setApprovalForAll",
      "outputs": [],
      "stateMutability": "nonpayable",
      "type": "function"
    },
    {
      "inputs": [
        {
          "internalType": "uint256",
          "name": "donateValueInWei",
          "type": "uint256"
        }
      ],
      "name": "setApprove",
      "outputs": [],
      "stateMutability": "nonpayable",
      "type": "function"
    },
    {
      "inputs": [
        {
          "internalType": "uint256",
          "name": "tokenId",
          "type": "uint256"
        },
        {
          "internalType": "string",
          "name": "_name",
          "type": "string"
        },
        {
          "internalType": "uint256",
          "name": "_chipId",
          "type": "uint256"
        },
        {
          "internalType": "uint256",
          "name": "_donateMinValue",
          "type": "uint256"
        }
      ],
      "name": "setCatProperty",
      "outputs": [],
      "stateMutability": "nonpayable",
      "type": "function"
    },
    {
      "inputs": [
        {
          "internalType": "bytes4",
          "name": "interfaceId",
          "type": "bytes4"
        }
      ],
      "name": "supportsInterface",
      "outputs": [
        {
          "internalType": "bool",
          "name": "",
          "type": "bool"
        }
      ],
      "stateMutability": "view",
      "type": "function"
    },
    {
      "inputs": [],
      "name": "symbol",
      "outputs": [
        {
          "internalType": "string",
          "name": "",
          "type": "string"
        }
      ],
      "stateMutability": "view",
      "type": "function"
    },
    {
      "inputs": [
        {
          "internalType": "uint256",
          "name": "tokenId",
          "type": "uint256"
        }
      ],
      "name": "tokenURI",
      "outputs": [
        {
          "internalType": "string",
          "name": "",
          "type": "string"
        }
      ],
      "stateMutability": "view",
      "type": "function"
    },
    {
      "inputs": [],
      "name": "totalMintSupply",
      "outputs": [
        {
          "internalType": "uint256",
          "name": "",
          "type": "uint256"
        }
      ],
      "stateMutability": "view",
      "type": "function"
    },
    {
      "inputs": [
        {
          "internalType": "address",
          "name": "from",
          "type": "address"
        },
        {
          "internalType": "address",
          "name": "to",
          "type": "address"
        },
        {
          "internalType": "uint256",
          "name": "tokenId",
          "type": "uint256"
        }
      ],
      "name": "transferFrom",
      "outputs": [],
      "stateMutability": "nonpayable",
      "type": "function"
    },
    {
      "inputs": [
        {
          "internalType": "uint256",
          "name": "amount",
          "type": "uint256"
        },
        {
          "internalType": "address payable",
          "name": "to",
          "type": "address"
        }
      ],
      "name": "withdraw",
      "outputs": [],
      "stateMutability": "nonpayable",
      "type": "function"
    }
  ],
  "bytecode": "0x608060405234801561001057600080fd5b5060405161292a38038061292a83398101604081905261002f916101ce565b6040518060400160405280600c81526020016b4361742050726f706572747960a01b815250604051806040016040528060078152602001661adbdadbd0d05560ca1b815250816000908161008391906102b0565b50600161009082826102b0565b506100a091506000905084610102565b506100cb7f9f2df0fed2c77648de5860a4cc508cd0818c85b8b8a1ab4ceeef8d981c8956a683610102565b50600a80546001600160a01b039092166001600160a01b03199283168117909155600b80549092161790555050600060095561036e565b60008281526007602090815260408083206001600160a01b038516845290915281205460ff166101a85760008381526007602090815260408083206001600160a01b03861684529091529020805460ff191660011790556101603390565b6001600160a01b0316826001600160a01b0316847f2f8788117e7eff1d82e926ec794901d17c78024a50270940304540a733656f0d60405160405180910390a45060016101ac565b5060005b92915050565b80516001600160a01b03811681146101c957600080fd5b919050565b6000806000606084860312156101e357600080fd5b6101ec846101b2565b92506101fa602085016101b2565b9150610208604085016101b2565b90509250925092565b634e487b7160e01b600052604160045260246000fd5b600181811c9082168061023b57607f821691505b60208210810361025b57634e487b7160e01b600052602260045260246000fd5b50919050565b601f8211156102ab57806000526020600020601f840160051c810160208510156102885750805b601f840160051c820191505b818110156102a85760008155600101610294565b50505b505050565b81516001600160401b038111156102c9576102c9610211565b6102dd816102d78454610227565b84610261565b6020601f82116001811461031157600083156102f95750848201515b600019600385901b1c1916600184901b1784556102a8565b600084815260208120601f198516915b828110156103415787850151825560209485019460019092019101610321565b508482101561035f5786840151600019600387901b60f8161c191681555b50505050600190811b01905550565b6125ad8061037d6000396000f3fe60806040526004361061024e5760003560e01c80638c049b8c11610138578063d204c45e116100b0578063da18e49d1161007f578063e985e9c511610064578063e985e9c5146106d2578063ed1f56c01461071b578063f71c584c1461073057600080fd5b8063da18e49d14610692578063dadfabe3146106b257600080fd5b8063d204c45e146105f1578063d539139314610611578063d547741f14610645578063d94baa461461066557600080fd5b8063a217fddf11610107578063b88d4fde116100ec578063b88d4fde14610582578063c6df962d146105a2578063c87b56dd146105d157600080fd5b8063a217fddf1461054d578063a22cb4651461056257600080fd5b80638c049b8c146104b25780638e7cef89146104d257806391d14854146104f257806395d89b411461053857600080fd5b80632f2ff15d116101cb57806359af0f6a1161019a57806370a082311161017f57806370a082311461046657806371a3da6e1461048657806385e0832c1461049c57600080fd5b806359af0f6a146104265780636352211e1461044657600080fd5b80632f2ff15d146103a657806336568abe146103c657806342842e0e146103e657806342966c681461040657600080fd5b8063081812fc116102225780630cdd53f6116102075780630cdd53f61461034357806323b872dd14610356578063248a9ca31461037657600080fd5b8063081812fc146102eb578063095ea7b31461032357600080fd5b8062f714ce14610253578063010a38f51461027557806301ffc9a71461029957806306fdde03146102c9575b600080fd5b34801561025f57600080fd5b5061027361026e366004611ed2565b61075d565b005b34801561028157600080fd5b50600e545b6040519081526020015b60405180910390f35b3480156102a557600080fd5b506102b96102b4366004611f18565b61081e565b6040519015158152602001610290565b3480156102d557600080fd5b506102de61082f565b6040516102909190611f85565b3480156102f757600080fd5b5061030b610306366004611f98565b6108c1565b6040516001600160a01b039091168152602001610290565b34801561032f57600080fd5b5061027361033e366004611fb1565b6108ea565b610273610351366004611fdd565b6108f9565b34801561036257600080fd5b50610273610371366004611fff565b610ba7565b34801561038257600080fd5b50610286610391366004611f98565b60009081526007602052604090206001015490565b3480156103b257600080fd5b506102736103c1366004611ed2565b610c45565b3480156103d257600080fd5b506102736103e1366004611ed2565b610c6a565b3480156103f257600080fd5b50610273610401366004611fff565b610cbb565b34801561041257600080fd5b50610273610421366004611f98565b610cd6565b34801561043257600080fd5b50600b5461030b906001600160a01b031681565b34801561045257600080fd5b5061030b610461366004611f98565b610d5b565b34801561047257600080fd5b50610286610481366004612040565b610d66565b34801561049257600080fd5b50610286600e5481565b3480156104a857600080fd5b5061028660095481565b3480156104be57600080fd5b50600a5461030b906001600160a01b031681565b3480156104de57600080fd5b506102736104ed36600461210d565b610dc7565b3480156104fe57600080fd5b506102b961050d366004611ed2565b60009182526007602090815260408084206001600160a01b0393909316845291905290205460ff1690565b34801561054457600080fd5b506102de610e7f565b34801561055957600080fd5b50610286600081565b34801561056e57600080fd5b5061027361057d366004612172565b610e8e565b34801561058e57600080fd5b5061027361059d3660046121a0565b610e99565b3480156105ae57600080fd5b506105c26105bd366004611f98565b610eb1565b60405161029093929190612220565b3480156105dd57600080fd5b506102de6105ec366004611f98565b610f5b565b3480156105fd57600080fd5b5061027361060c366004612245565b610f66565b34801561061d57600080fd5b506102867f9f2df0fed2c77648de5860a4cc508cd0818c85b8b8a1ab4ceeef8d981c8956a681565b34801561065157600080fd5b50610273610660366004611ed2565b610fd7565b34801561067157600080fd5b50610685610680366004611f98565b610ffc565b6040516102909190612295565b34801561069e57600080fd5b506102736106ad36600461210d565b6110e5565b3480156106be57600080fd5b506102736106cd366004611f98565b61114d565b3480156106de57600080fd5b506102b96106ed3660046122d1565b6001600160a01b03918216600090815260056020908152604080832093909416825291909152205460ff1690565b34801561072757600080fd5b50600954610286565b34801561073c57600080fd5b5061028661074b366004611f98565b600d6020526000908152604090205481565b600061076881611268565b824710156107e25760405162461bcd60e51b8152602060048201526024808201527f496e73756666696369656e742062616c616e636520696e2074686520636f6e7460448201527f726163740000000000000000000000000000000000000000000000000000000060648201526084015b60405180910390fd5b6040516001600160a01b0383169084156108fc029085906000818181858888f19350505050158015610818573d6000803e3d6000fd5b50505050565b600061082982611275565b92915050565b60606000805461083e906122ff565b80601f016020809104026020016040519081016040528092919081815260200182805461086a906122ff565b80156108b75780601f1061088c576101008083540402835291602001916108b7565b820191906000526020600020905b81548152906001019060200180831161089a57829003601f168201915b5050505050905090565b60006108cc826112b3565b506000828152600460205260409020546001600160a01b0316610829565b6108f58282336112ec565b5050565b6000828152600c6020526040902060020154808210156109815760405162461bcd60e51b815260206004820152602d60248201527f446f6e6174696f6e20616d6f756e742069732062656c6f7720746865206d696e60448201527f696d756d2072657175697265640000000000000000000000000000000000000060648201526084016107d9565b600b546040517fdd62ed3e00000000000000000000000000000000000000000000000000000000815233600482015230602482015260009184916001600160a01b039091169063dd62ed3e90604401602060405180830381865afa1580156109ed573d6000803e3d6000fd5b505050506040513d601f19601f82011682018060405250810190610a119190612339565b1015610a855760405162461bcd60e51b815260206004820152602360248201527f496e73756666696369656e7420616c6c6f77616e636520666f7220646f6e617460448201527f696f6e000000000000000000000000000000000000000000000000000000000060648201526084016107d9565b600b546040517f23b872dd000000000000000000000000000000000000000000000000000000008152336004820152733c86b2d477b07e8984802f8ddf9a9d58131cedcb6024820181905260448201869052916001600160a01b0316906323b872dd906064016020604051808303816000875af1158015610b0a573d6000803e3d6000fd5b505050506040513d601f19601f82011682018060405250810190610b2e9190612352565b915081610b7d5760405162461bcd60e51b815260206004820152601560248201527f546f6b656e207472616e73666572206661696c6564000000000000000000000060448201526064016107d9565b6000858152600d602052604081208054869290610b9b908490612385565b90915550505050505050565b6001600160a01b038216610bd157604051633250574960e11b8152600060048201526024016107d9565b6000610bde8383336112f9565b9050836001600160a01b0316816001600160a01b031614610818576040517f64283d7b0000000000000000000000000000000000000000000000000000000081526001600160a01b03808616600483015260248201849052821660448201526064016107d9565b600082815260076020526040902060010154610c6081611268565b61081883836113ff565b6001600160a01b0381163314610cac576040517f6697b23200000000000000000000000000000000000000000000000000000000815260040160405180910390fd5b610cb682826114ad565b505050565b610cb683838360405180602001604052806000815250610e99565b610cdf81611534565b6000818152600260205260409020546001600160a01b0316610d435760405162461bcd60e51b815260206004820152601460248201527f546f6b656e20646f6573206e6f7420657869737400000000000000000000000060448201526064016107d9565b60098054906000610d5383612398565b919050555050565b6000610829826112b3565b60006001600160a01b038216610dab576040517f89c62b64000000000000000000000000000000000000000000000000000000008152600060048201526024016107d9565b506001600160a01b031660009081526003602052604090205490565b6000848152600260205260409020546001600160a01b0316610e2b5760405162461bcd60e51b815260206004820152601260248201527f43617420646f6573206e6f74206578697374000000000000000000000000000060448201526064016107d9565b6040805160608101825284815260208082018590528183018490526000878152600c9091529190912081518190610e6290826123f6565b506020820151600182015560409091015160029091015550505050565b60606001805461083e906122ff565b6108f5338383611540565b610ea4848484610ba7565b61081833858585856115f8565b600c60205260009081526040902080548190610ecc906122ff565b80601f0160208091040260200160405190810160405280929190818152602001828054610ef8906122ff565b8015610f455780601f10610f1a57610100808354040283529160200191610f45565b820191906000526020600020905b815481529060010190602001808311610f2857829003601f168201915b5050505050908060010154908060020154905083565b606061082982611723565b7f9f2df0fed2c77648de5860a4cc508cd0818c85b8b8a1ab4ceeef8d981c8956a6610f9081611268565b6008805460009182610fa1836124b5565b919050559050610fb18482611834565b610fbb818461184e565b600e819055600954610fce906001612385565b60095550505050565b600082815260076020526040902060010154610ff281611268565b61081883836114ad565b61102060405180606001604052806060815260200160008152602001600081525090565b6000828152600c6020526040808220815160608101909252805482908290611047906122ff565b80601f0160208091040260200160405190810160405280929190818152602001828054611073906122ff565b80156110c05780601f10611095576101008083540402835291602001916110c0565b820191906000526020600020905b8154815290600101906020018083116110a357829003601f168201915b5050509183525050600182015460208201526002909101546040909101529392505050565b6000848152600c6020526040902080546110fe906122ff565b159050610e2b5760405162461bcd60e51b815260206004820181905260248201527f4361742070726f706572747920616c726561647920696e697469616c697a656460448201526064016107d9565b600a54604051306024820152604481018390526000916001600160a01b03169060640160408051601f198184030181529181526020820180517bffffffffffffffffffffffffffffffffffffffffffffffffffffffff167f095ea7b300000000000000000000000000000000000000000000000000000000179052516111d391906124ce565b6000604051808303816000865af19150503d8060008114611210576040519150601f19603f3d011682016040523d82523d6000602084013e611215565b606091505b505080915050806108f55760405162461bcd60e51b815260206004820152601460248201527f546f6b656e20617070726f7665206661696c656400000000000000000000000060448201526064016107d9565b611272813361189e565b50565b60006001600160e01b031982167f7965db0b00000000000000000000000000000000000000000000000000000000148061082957506108298261190c565b6000818152600260205260408120546001600160a01b03168061082957604051637e27328960e01b8152600481018490526024016107d9565b610cb6838383600161194a565b6000828152600260205260408120546001600160a01b039081169083161561132657611326818486611a95565b6001600160a01b038116156113645761134360008560008061194a565b6001600160a01b038116600090815260036020526040902080546000190190555b6001600160a01b03851615611393576001600160a01b0385166000908152600360205260409020805460010190555b600084815260026020526040808220805473ffffffffffffffffffffffffffffffffffffffff19166001600160a01b0389811691821790925591518793918516917fddf252ad1be2c89b69c2b068fc378daa952ba7f163c4a11628f55a4df523b3ef91a4949350505050565b60008281526007602090815260408083206001600160a01b038516845290915281205460ff166114a55760008381526007602090815260408083206001600160a01b03861684529091529020805460ff1916600117905561145d3390565b6001600160a01b0316826001600160a01b0316847f2f8788117e7eff1d82e926ec794901d17c78024a50270940304540a733656f0d60405160405180910390a4506001610829565b506000610829565b60008281526007602090815260408083206001600160a01b038516845290915281205460ff16156114a55760008381526007602090815260408083206001600160a01b0386168085529252808320805460ff1916905551339286917ff6391f5c32d9c69d2a47ea670b442974b53935d1edc7fd64eb21e047a839171b9190a4506001610829565b6108f5600082336112f9565b6001600160a01b03821661158b576040517f5b08ba180000000000000000000000000000000000000000000000000000000081526001600160a01b03831660048201526024016107d9565b6001600160a01b03838116600081815260056020908152604080832094871680845294825291829020805460ff191686151590811790915591519182527f17307eab39ab6107e8899845ad3d59bd9653f200f220920489ca2b5937696c31910160405180910390a3505050565b6001600160a01b0383163b1561171c57604051630a85bd0160e11b81526001600160a01b0384169063150b7a029061163a9088908890879087906004016124ea565b6020604051808303816000875af1925050508015611675575060408051601f3d908101601f191682019092526116729181019061252b565b60015b6116de573d8080156116a3576040519150601f19603f3d011682016040523d82523d6000602084013e6116a8565b606091505b5080516000036116d657604051633250574960e11b81526001600160a01b03851660048201526024016107d9565b805181602001fd5b6001600160e01b03198116630a85bd0160e11b1461171a57604051633250574960e11b81526001600160a01b03851660048201526024016107d9565b505b5050505050565b606061172e826112b3565b5060008281526006602052604081208054611748906122ff565b80601f0160208091040260200160405190810160405280929190818152602001828054611774906122ff565b80156117c15780601f10611796576101008083540402835291602001916117c1565b820191906000526020600020905b8154815290600101906020018083116117a457829003601f168201915b5050505050905060006117df60408051602081019091526000815290565b905080516000036117f1575092915050565b81511561182357808260405160200161180b929190612548565b60405160208183030381529060405292505050919050565b61182c84611b12565b949350505050565b6108f5828260405180602001604052806000815250611b87565b600082815260066020526040902061186682826123f6565b506040518281527ff8e1a15aba9398e019f0b49df1a4fde98ee17ae345cb5f6b5e2c27f5033e8ce79060200160405180910390a15050565b60008281526007602090815260408083206001600160a01b038516845290915290205460ff166108f5576040517fe2517d3f0000000000000000000000000000000000000000000000000000000081526001600160a01b0382166004820152602481018390526044016107d9565b60006001600160e01b031982167f49064906000000000000000000000000000000000000000000000000000000001480610829575061082982611b9f565b808061195e57506001600160a01b03821615155b15611a5857600061196e846112b3565b90506001600160a01b0383161580159061199a5750826001600160a01b0316816001600160a01b031614155b80156119cc57506001600160a01b0380821660009081526005602090815260408083209387168352929052205460ff16155b15611a0e576040517fa9fbf51f0000000000000000000000000000000000000000000000000000000081526001600160a01b03841660048201526024016107d9565b8115611a565783856001600160a01b0316826001600160a01b03167f8c5be1e5ebec7d5bd14f71427d1e84f3dd0314c0f7b2291e5b200ac8c7c3b92560405160405180910390a45b505b50506000908152600460205260409020805473ffffffffffffffffffffffffffffffffffffffff19166001600160a01b0392909216919091179055565b611aa0838383611c3a565b610cb6576001600160a01b038316611ace57604051637e27328960e01b8152600481018290526024016107d9565b6040517f177e802f0000000000000000000000000000000000000000000000000000000081526001600160a01b0383166004820152602481018290526044016107d9565b6060611b1d826112b3565b506000611b3560408051602081019091526000815290565b90506000815111611b555760405180602001604052806000815250611b80565b80611b5f84611cbd565b604051602001611b70929190612548565b6040516020818303038152906040525b9392505050565b611b918383611d5d565b610cb63360008585856115f8565b60006001600160e01b031982167f80ac58cd000000000000000000000000000000000000000000000000000000001480611c0257506001600160e01b031982167f5b5e139f00000000000000000000000000000000000000000000000000000000145b8061082957507f01ffc9a7000000000000000000000000000000000000000000000000000000006001600160e01b0319831614610829565b60006001600160a01b0383161580159061182c5750826001600160a01b0316846001600160a01b03161480611c9457506001600160a01b0380851660009081526005602090815260408083209387168352929052205460ff165b8061182c5750506000908152600460205260409020546001600160a01b03908116911614919050565b60606000611cca83611ddb565b600101905060008167ffffffffffffffff811115611cea57611cea61205d565b6040519080825280601f01601f191660200182016040528015611d14576020820181803683370190505b5090508181016020015b600019017f3031323334353637383961626364656600000000000000000000000000000000600a86061a8153600a8504945084611d1e57509392505050565b6001600160a01b038216611d8757604051633250574960e11b8152600060048201526024016107d9565b6000611d95838360006112f9565b90506001600160a01b03811615610cb6576040517f73c6ac6e000000000000000000000000000000000000000000000000000000008152600060048201526024016107d9565b6000807a184f03e93ff9f4daa797ed6e38ed64bf6a1f0100000000000000008310611e24577a184f03e93ff9f4daa797ed6e38ed64bf6a1f010000000000000000830492506040015b6d04ee2d6d415b85acef81000000008310611e50576d04ee2d6d415b85acef8100000000830492506020015b662386f26fc100008310611e6e57662386f26fc10000830492506010015b6305f5e1008310611e86576305f5e100830492506008015b6127108310611e9a57612710830492506004015b60648310611eac576064830492506002015b600a83106108295760010192915050565b6001600160a01b038116811461127257600080fd5b60008060408385031215611ee557600080fd5b823591506020830135611ef781611ebd565b809150509250929050565b6001600160e01b03198116811461127257600080fd5b600060208284031215611f2a57600080fd5b8135611b8081611f02565b60005b83811015611f50578181015183820152602001611f38565b50506000910152565b60008151808452611f71816020860160208601611f35565b601f01601f19169290920160200192915050565b602081526000611b806020830184611f59565b600060208284031215611faa57600080fd5b5035919050565b60008060408385031215611fc457600080fd5b8235611fcf81611ebd565b946020939093013593505050565b60008060408385031215611ff057600080fd5b50508035926020909101359150565b60008060006060848603121561201457600080fd5b833561201f81611ebd565b9250602084013561202f81611ebd565b929592945050506040919091013590565b60006020828403121561205257600080fd5b8135611b8081611ebd565b634e487b7160e01b600052604160045260246000fd5b60008067ffffffffffffffff84111561208e5761208e61205d565b50604051601f19601f85018116603f0116810181811067ffffffffffffffff821117156120bd576120bd61205d565b6040528381529050808284018510156120d557600080fd5b83836020830137600060208583010152509392505050565b600082601f8301126120fe57600080fd5b611b8083833560208501612073565b6000806000806080858703121561212357600080fd5b84359350602085013567ffffffffffffffff81111561214157600080fd5b61214d878288016120ed565b949794965050505060408301359260600135919050565b801515811461127257600080fd5b6000806040838503121561218557600080fd5b823561219081611ebd565b91506020830135611ef781612164565b600080600080608085870312156121b657600080fd5b84356121c181611ebd565b935060208501356121d181611ebd565b925060408501359150606085013567ffffffffffffffff8111156121f457600080fd5b8501601f8101871361220557600080fd5b61221487823560208401612073565b91505092959194509250565b6060815260006122336060830186611f59565b60208301949094525060400152919050565b6000806040838503121561225857600080fd5b823561226381611ebd565b9150602083013567ffffffffffffffff81111561227f57600080fd5b61228b858286016120ed565b9150509250929050565b6020815260008251606060208401526122b16080840182611f59565b905060208401516040840152604084015160608401528091505092915050565b600080604083850312156122e457600080fd5b82356122ef81611ebd565b91506020830135611ef781611ebd565b600181811c9082168061231357607f821691505b60208210810361233357634e487b7160e01b600052602260045260246000fd5b50919050565b60006020828403121561234b57600080fd5b5051919050565b60006020828403121561236457600080fd5b8151611b8081612164565b634e487b7160e01b600052601160045260246000fd5b808201808211156108295761082961236f565b6000816123a7576123a761236f565b506000190190565b601f821115610cb657806000526020600020601f840160051c810160208510156123d65750805b601f840160051c820191505b8181101561171c57600081556001016123e2565b815167ffffffffffffffff8111156124105761241061205d565b6124248161241e84546122ff565b846123af565b6020601f82116001811461245857600083156124405750848201515b600019600385901b1c1916600184901b17845561171c565b600084815260208120601f198516915b828110156124885787850151825560209485019460019092019101612468565b50848210156124a65786840151600019600387901b60f8161c191681555b50505050600190811b01905550565b6000600182016124c7576124c761236f565b5060010190565b600082516124e0818460208701611f35565b9190910192915050565b6001600160a01b03851681526001600160a01b03841660208201528260408201526080606082015260006125216080830184611f59565b9695505050505050565b60006020828403121561253d57600080fd5b8151611b8081611f02565b6000835161255a818460208801611f35565b83519083019061256e818360208801611f35565b0194935050505056fea2646970667358221220f9a905ff104fa5d5cb31ebb7ed9c8ff22809c8a16e61d05c34925ba9ffcbb46f64736f6c634300081b0033",
  "linkReferences": {},
  "deployedLinkReferences": {}
}