{
  "_format": "hh-sol-artifact-1",
  "contractName": "kokoCatNFT",
  "sourceName": "contracts/catNFT/kokoCatNFT.sol",
  "abi": [
    {
      "inputs": [
        {
          "internalType": "address",
          "name": "_defaultAdmin",
          "type": "address"
        },
        {
          "internalType": "address",
          "name": "_minter",
          "type": "address"
        },
        {
          "internalType": "address",
          "name": "_kokoTokenAddress",
          "type": "address"
        }
      ],
      "stateMutability": "nonpayable",
      "type": "constructor"
    },
    {
      "inputs": [],
      "name": "AccessControlBadConfirmation",
      "type": "error"
    },
    {
      "inputs": [
        {
          "internalType": "address",
          "name": "account",
          "type": "address"
        },
        {
          "internalType": "bytes32",
          "name": "neededRole",
          "type": "bytes32"
        }
      ],
      "name": "AccessControlUnauthorizedAccount",
      "type": "error"
    },
    {
      "inputs": [
        {
          "internalType": "address",
          "name": "sender",
          "type": "address"
        },
        {
          "internalType": "uint256",
          "name": "tokenId",
          "type": "uint256"
        },
        {
          "internalType": "address",
          "name": "owner",
          "type": "address"
        }
      ],
      "name": "ERC721IncorrectOwner",
      "type": "error"
    },
    {
      "inputs": [
        {
          "internalType": "address",
          "name": "operator",
          "type": "address"
        },
        {
          "internalType": "uint256",
          "name": "tokenId",
          "type": "uint256"
        }
      ],
      "name": "ERC721InsufficientApproval",
      "type": "error"
    },
    {
      "inputs": [
        {
          "internalType": "address",
          "name": "approver",
          "type": "address"
        }
      ],
      "name": "ERC721InvalidApprover",
      "type": "error"
    },
    {
      "inputs": [
        {
          "internalType": "address",
          "name": "operator",
          "type": "address"
        }
      ],
      "name": "ERC721InvalidOperator",
      "type": "error"
    },
    {
      "inputs": [
        {
          "internalType": "address",
          "name": "owner",
          "type": "address"
        }
      ],
      "name": "ERC721InvalidOwner",
      "type": "error"
    },
    {
      "inputs": [
        {
          "internalType": "address",
          "name": "receiver",
          "type": "address"
        }
      ],
      "name": "ERC721InvalidReceiver",
      "type": "error"
    },
    {
      "inputs": [
        {
          "internalType": "address",
          "name": "sender",
          "type": "address"
        }
      ],
      "name": "ERC721InvalidSender",
      "type": "error"
    },
    {
      "inputs": [
        {
          "internalType": "uint256",
          "name": "tokenId",
          "type": "uint256"
        }
      ],
      "name": "ERC721NonexistentToken",
      "type": "error"
    },
    {
      "anonymous": false,
      "inputs": [
        {
          "indexed": true,
          "internalType": "address",
          "name": "owner",
          "type": "address"
        },
        {
          "indexed": true,
          "internalType": "address",
          "name": "approved",
          "type": "address"
        },
        {
          "indexed": true,
          "internalType": "uint256",
          "name": "tokenId",
          "type": "uint256"
        }
      ],
      "name": "Approval",
      "type": "event"
    },
    {
      "anonymous": false,
      "inputs": [
        {
          "indexed": true,
          "internalType": "address",
          "name": "owner",
          "type": "address"
        },
        {
          "indexed": true,
          "internalType": "address",
          "name": "operator",
          "type": "address"
        },
        {
          "indexed": false,
          "internalType": "bool",
          "name": "approved",
          "type": "bool"
        }
      ],
      "name": "ApprovalForAll",
      "type": "event"
    },
    {
      "anonymous": false,
      "inputs": [
        {
          "indexed": false,
          "internalType": "uint256",
          "name": "_fromTokenId",
          "type": "uint256"
        },
        {
          "indexed": false,
          "internalType": "uint256",
          "name": "_toTokenId",
          "type": "uint256"
        }
      ],
      "name": "BatchMetadataUpdate",
      "type": "event"
    },
    {
      "anonymous": false,
      "inputs": [
        {
          "indexed": false,
          "internalType": "uint256",
          "name": "_tokenId",
          "type": "uint256"
        }
      ],
      "name": "MetadataUpdate",
      "type": "event"
    },
    {
      "anonymous": false,
      "inputs": [
        {
          "indexed": true,
          "internalType": "bytes32",
          "name": "role",
          "type": "bytes32"
        },
        {
          "indexed": true,
          "internalType": "bytes32",
          "name": "previousAdminRole",
          "type": "bytes32"
        },
        {
          "indexed": true,
          "internalType": "bytes32",
          "name": "newAdminRole",
          "type": "bytes32"
        }
      ],
      "name": "RoleAdminChanged",
      "type": "event"
    },
    {
      "anonymous": false,
      "inputs": [
        {
          "indexed": true,
          "internalType": "bytes32",
          "name": "role",
          "type": "bytes32"
        },
        {
          "indexed": true,
          "internalType": "address",
          "name": "account",
          "type": "address"
        },
        {
          "indexed": true,
          "internalType": "address",
          "name": "sender",
          "type": "address"
        }
      ],
      "name": "RoleGranted",
      "type": "event"
    },
    {
      "anonymous": false,
      "inputs": [
        {
          "indexed": true,
          "internalType": "bytes32",
          "name": "role",
          "type": "bytes32"
        },
        {
          "indexed": true,
          "internalType": "address",
          "name": "account",
          "type": "address"
        },
        {
          "indexed": true,
          "internalType": "address",
          "name": "sender",
          "type": "address"
        }
      ],
      "name": "RoleRevoked",
      "type": "event"
    },
    {
      "anonymous": false,
      "inputs": [
        {
          "indexed": true,
          "internalType": "address",
          "name": "from",
          "type": "address"
        },
        {
          "indexed": true,
          "internalType": "address",
          "name": "to",
          "type": "address"
        },
        {
          "indexed": true,
          "internalType": "uint256",
          "name": "tokenId",
          "type": "uint256"
        }
      ],
      "name": "Transfer",
      "type": "event"
    },
    {
      "inputs": [],
      "name": "DEFAULT_ADMIN_ROLE",
      "outputs": [
        {
          "internalType": "bytes32",
          "name": "",
          "type": "bytes32"
        }
      ],
      "stateMutability": "view",
      "type": "function"
    },
    {
      "inputs": [],
      "name": "MINTER_ROLE",
      "outputs": [
        {
          "internalType": "bytes32",
          "name": "",
          "type": "bytes32"
        }
      ],
      "stateMutability": "view",
      "type": "function"
    },
    {
      "inputs": [
        {
          "internalType": "address",
          "name": "to",
          "type": "address"
        },
        {
          "internalType": "uint256",
          "name": "tokenId",
          "type": "uint256"
        }
      ],
      "name": "approve",
      "outputs": [],
      "stateMutability": "nonpayable",
      "type": "function"
    },
    {
      "inputs": [
        {
          "internalType": "address",
          "name": "owner",
          "type": "address"
        }
      ],
      "name": "balanceOf",
      "outputs": [
        {
          "internalType": "uint256",
          "name": "",
          "type": "uint256"
        }
      ],
      "stateMutability": "view",
      "type": "function"
    },
    {
      "inputs": [
        {
          "internalType": "uint256",
          "name": "tokenId",
          "type": "uint256"
        }
      ],
      "name": "burn",
      "outputs": [],
      "stateMutability": "nonpayable",
      "type": "function"
    },
    {
      "inputs": [
        {
          "internalType": "uint256",
          "name": "",
          "type": "uint256"
        }
      ],
      "name": "cats",
      "outputs": [
        {
          "internalType": "string",
          "name": "name",
          "type": "string"
        },
        {
          "internalType": "uint256",
          "name": "chipId",
          "type": "uint256"
        },
        {
          "internalType": "uint256",
          "name": "donateMinValue",
          "type": "uint256"
        }
      ],
      "stateMutability": "view",
      "type": "function"
    },
    {
      "inputs": [
        {
          "internalType": "uint256",
          "name": "",
          "type": "uint256"
        }
      ],
      "name": "catsAmount",
      "outputs": [
        {
          "internalType": "uint256",
          "name": "",
          "type": "uint256"
        }
      ],
      "stateMutability": "view",
      "type": "function"
    },
    {
      "inputs": [],
      "name": "defaultAdmin",
      "outputs": [
        {
          "internalType": "address",
          "name": "",
          "type": "address"
        }
      ],
      "stateMutability": "view",
      "type": "function"
    },
    {
      "inputs": [
        {
          "internalType": "uint256",
          "name": "tokenId",
          "type": "uint256"
        },
        {
          "internalType": "uint256",
          "name": "donateValueInWei",
          "type": "uint256"
        }
      ],
      "name": "donate",
      "outputs": [],
      "stateMutability": "payable",
      "type": "function"
    },
    {
      "inputs": [
        {
          "internalType": "uint256",
          "name": "tokenId",
          "type": "uint256"
        }
      ],
      "name": "getApproved",
      "outputs": [
        {
          "internalType": "address",
          "name": "",
          "type": "address"
        }
      ],
      "stateMutability": "view",
      "type": "function"
    },
    {
      "inputs": [
        {
          "internalType": "uint256",
          "name": "tokenId",
          "type": "uint256"
        }
      ],
      "name": "getCatProperty",
      "outputs": [
        {
          "components": [
            {
              "internalType": "string",
              "name": "name",
              "type": "string"
            },
            {
              "internalType": "uint256",
              "name": "chipId",
              "type": "uint256"
            },
            {
              "internalType": "uint256",
              "name": "donateMinValue",
              "type": "uint256"
            }
          ],
          "internalType": "struct kokoCatNFT.Property",
          "name": "",
          "type": "tuple"
        }
      ],
      "stateMutability": "view",
      "type": "function"
    },
    {
      "inputs": [
        {
          "internalType": "bytes32",
          "name": "role",
          "type": "bytes32"
        }
      ],
      "name": "getRoleAdmin",
      "outputs": [
        {
          "internalType": "bytes32",
          "name": "",
          "type": "bytes32"
        }
      ],
      "stateMutability": "view",
      "type": "function"
    },
    {
      "inputs": [],
      "name": "getTokenId",
      "outputs": [
        {
          "internalType": "uint256",
          "name": "",
          "type": "uint256"
        }
      ],
      "stateMutability": "view",
      "type": "function"
    },
    {
      "inputs": [],
      "name": "getTotalMintSupply",
      "outputs": [
        {
          "internalType": "uint256",
          "name": "",
          "type": "uint256"
        }
      ],
      "stateMutability": "view",
      "type": "function"
    },
    {
      "inputs": [
        {
          "internalType": "bytes32",
          "name": "role",
          "type": "bytes32"
        },
        {
          "internalType": "address",
          "name": "account",
          "type": "address"
        }
      ],
      "name": "grantRole",
      "outputs": [],
      "stateMutability": "nonpayable",
      "type": "function"
    },
    {
      "inputs": [
        {
          "internalType": "bytes32",
          "name": "role",
          "type": "bytes32"
        },
        {
          "internalType": "address",
          "name": "account",
          "type": "address"
        }
      ],
      "name": "hasRole",
      "outputs": [
        {
          "internalType": "bool",
          "name": "",
          "type": "bool"
        }
      ],
      "stateMutability": "view",
      "type": "function"
    },
    {
      "inputs": [
        {
          "internalType": "uint256",
          "name": "tokenId",
          "type": "uint256"
        },
        {
          "internalType": "string",
          "name": "_name",
          "type": "string"
        },
        {
          "internalType": "uint256",
          "name": "_chipId",
          "type": "uint256"
        },
        {
          "internalType": "uint256",
          "name": "_donateMinValue",
          "type": "uint256"
        }
      ],
      "name": "initCatProperty",
      "outputs": [],
      "stateMutability": "nonpayable",
      "type": "function"
    },
    {
      "inputs": [
        {
          "internalType": "address",
          "name": "owner",
          "type": "address"
        },
        {
          "internalType": "address",
          "name": "operator",
          "type": "address"
        }
      ],
      "name": "isApprovedForAll",
      "outputs": [
        {
          "internalType": "bool",
          "name": "",
          "type": "bool"
        }
      ],
      "stateMutability": "view",
      "type": "function"
    },
    {
      "inputs": [],
      "name": "kokoToken",
      "outputs": [
        {
          "internalType": "contract IERC20",
          "name": "",
          "type": "address"
        }
      ],
      "stateMutability": "view",
      "type": "function"
    },
    {
      "inputs": [],
      "name": "kokoTokenAddress",
      "outputs": [
        {
          "internalType": "address",
          "name": "",
          "type": "address"
        }
      ],
      "stateMutability": "view",
      "type": "function"
    },
    {
      "inputs": [],
      "name": "minter",
      "outputs": [
        {
          "internalType": "address",
          "name": "",
          "type": "address"
        }
      ],
      "stateMutability": "view",
      "type": "function"
    },
    {
      "inputs": [],
      "name": "name",
      "outputs": [
        {
          "internalType": "string",
          "name": "",
          "type": "string"
        }
      ],
      "stateMutability": "view",
      "type": "function"
    },
    {
      "inputs": [],
      "name": "newtokenId",
      "outputs": [
        {
          "internalType": "uint256",
          "name": "",
          "type": "uint256"
        }
      ],
      "stateMutability": "view",
      "type": "function"
    },
    {
      "inputs": [
        {
          "internalType": "uint256",
          "name": "tokenId",
          "type": "uint256"
        }
      ],
      "name": "ownerOf",
      "outputs": [
        {
          "internalType": "address",
          "name": "",
          "type": "address"
        }
      ],
      "stateMutability": "view",
      "type": "function"
    },
    {
      "inputs": [
        {
          "internalType": "bytes32",
          "name": "role",
          "type": "bytes32"
        },
        {
          "internalType": "address",
          "name": "callerConfirmation",
          "type": "address"
        }
      ],
      "name": "renounceRole",
      "outputs": [],
      "stateMutability": "nonpayable",
      "type": "function"
    },
    {
      "inputs": [
        {
          "internalType": "bytes32",
          "name": "role",
          "type": "bytes32"
        },
        {
          "internalType": "address",
          "name": "account",
          "type": "address"
        }
      ],
      "name": "revokeRole",
      "outputs": [],
      "stateMutability": "nonpayable",
      "type": "function"
    },
    {
      "inputs": [
        {
          "internalType": "address",
          "name": "to",
          "type": "address"
        },
        {
          "internalType": "string",
          "name": "uri",
          "type": "string"
        }
      ],
      "name": "safeMint",
      "outputs": [],
      "stateMutability": "nonpayable",
      "type": "function"
    },
    {
      "inputs": [
        {
          "internalType": "address",
          "name": "from",
          "type": "address"
        },
        {
          "internalType": "address",
          "name": "to",
          "type": "address"
        },
        {
          "internalType": "uint256",
          "name": "tokenId",
          "type": "uint256"
        }
      ],
      "name": "safeTransferFrom",
      "outputs": [],
      "stateMutability": "nonpayable",
      "type": "function"
    },
    {
      "inputs": [
        {
          "internalType": "address",
          "name": "from",
          "type": "address"
        },
        {
          "internalType": "address",
          "name": "to",
          "type": "address"
        },
        {
          "internalType": "uint256",
          "name": "tokenId",
          "type": "uint256"
        },
        {
          "internalType": "bytes",
          "name": "data",
          "type": "bytes"
        }
      ],
      "name": "safeTransferFrom",
      "outputs": [],
      "stateMutability": "nonpayable",
      "type": "function"
    },
    {
      "inputs": [
        {
          "internalType": "address",
          "name": "operator",
          "type": "address"
        },
        {
          "internalType": "bool",
          "name": "approved",
          "type": "bool"
        }
      ],
      "name": "setApprovalForAll",
      "outputs": [],
      "stateMutability": "nonpayable",
      "type": "function"
    },
    {
      "inputs": [
        {
          "internalType": "uint256",
          "name": "tokenId",
          "type": "uint256"
        },
        {
          "internalType": "string",
          "name": "_name",
          "type": "string"
        },
        {
          "internalType": "uint256",
          "name": "_chipId",
          "type": "uint256"
        },
        {
          "internalType": "uint256",
          "name": "_donateMinValue",
          "type": "uint256"
        }
      ],
      "name": "setCatProperty",
      "outputs": [],
      "stateMutability": "nonpayable",
      "type": "function"
    },
    {
      "inputs": [
        {
          "internalType": "bytes4",
          "name": "interfaceId",
          "type": "bytes4"
        }
      ],
      "name": "supportsInterface",
      "outputs": [
        {
          "internalType": "bool",
          "name": "",
          "type": "bool"
        }
      ],
      "stateMutability": "view",
      "type": "function"
    },
    {
      "inputs": [],
      "name": "symbol",
      "outputs": [
        {
          "internalType": "string",
          "name": "",
          "type": "string"
        }
      ],
      "stateMutability": "view",
      "type": "function"
    },
    {
      "inputs": [
        {
          "internalType": "uint256",
          "name": "tokenId",
          "type": "uint256"
        }
      ],
      "name": "tokenURI",
      "outputs": [
        {
          "internalType": "string",
          "name": "",
          "type": "string"
        }
      ],
      "stateMutability": "view",
      "type": "function"
    },
    {
      "inputs": [],
      "name": "totalMintSupply",
      "outputs": [
        {
          "internalType": "uint256",
          "name": "",
          "type": "uint256"
        }
      ],
      "stateMutability": "view",
      "type": "function"
    },
    {
      "inputs": [
        {
          "internalType": "address",
          "name": "from",
          "type": "address"
        },
        {
          "internalType": "address",
          "name": "to",
          "type": "address"
        },
        {
          "internalType": "uint256",
          "name": "tokenId",
          "type": "uint256"
        }
      ],
      "name": "transferFrom",
      "outputs": [],
      "stateMutability": "nonpayable",
      "type": "function"
    },
    {
      "inputs": [
        {
          "internalType": "uint256",
          "name": "amount",
          "type": "uint256"
        },
        {
          "internalType": "address payable",
          "name": "to",
          "type": "address"
        }
      ],
      "name": "withdraw",
      "outputs": [],
      "stateMutability": "nonpayable",
      "type": "function"
    }
  ],
  "bytecode": "0x608060405234801561001057600080fd5b50604051612b4c380380612b4c83398101604081905261002f916101eb565b6040518060400160405280600c81526020016b4361742050726f706572747960a01b815250604051806040016040528060078152602001661adbdadbd0d05560ca1b815250816000908161008391906102cd565b50600161009082826102cd565b506100a09150600090508461011f565b506100cb7f9f2df0fed2c77648de5860a4cc508cd0818c85b8b8a1ab4ceeef8d981c8956a68361011f565b50600a80546001600160a01b03199081166001600160a01b03938416908117909255600b805482169092179091556000600955600c8054821694831694909417909355600d8054909316911617905561038b565b60008281526007602090815260408083206001600160a01b038516845290915281205460ff166101c55760008381526007602090815260408083206001600160a01b03861684529091529020805460ff1916600117905561017d3390565b6001600160a01b0316826001600160a01b0316847f2f8788117e7eff1d82e926ec794901d17c78024a50270940304540a733656f0d60405160405180910390a45060016101c9565b5060005b92915050565b80516001600160a01b03811681146101e657600080fd5b919050565b60008060006060848603121561020057600080fd5b610209846101cf565b9250610217602085016101cf565b9150610225604085016101cf565b90509250925092565b634e487b7160e01b600052604160045260246000fd5b600181811c9082168061025857607f821691505b60208210810361027857634e487b7160e01b600052602260045260246000fd5b50919050565b601f8211156102c857806000526020600020601f840160051c810160208510156102a55750805b601f840160051c820191505b818110156102c557600081556001016102b1565b50505b505050565b81516001600160401b038111156102e6576102e661022e565b6102fa816102f48454610244565b8461027e565b6020601f82116001811461032e57600083156103165750848201515b600019600385901b1c1916600184901b1784556102c5565b600084815260208120601f198516915b8281101561035e578785015182556020948501946001909201910161033e565b508482101561037c5786840151600019600387901b60f8161c191681555b50505050600190811b01905550565b6127b28061039a6000396000f3fe6080604052600436106102695760003560e01c806384ef8ffc11610153578063c6df962d116100cb578063d94baa461161007f578063e985e9c511610064578063e985e9c51461070d578063ed1f56c014610756578063f71c584c1461076b57600080fd5b8063d94baa46146106c0578063da18e49d146106ed57600080fd5b8063d204c45e116100b0578063d204c45e1461064c578063d53913931461066c578063d547741f146106a057600080fd5b8063c6df962d146105fd578063c87b56dd1461062c57600080fd5b806391d1485411610122578063a217fddf11610107578063a217fddf146105a8578063a22cb465146105bd578063b88d4fde146105dd57600080fd5b806391d148541461054d57806395d89b411461059357600080fd5b806384ef8ffc146104d757806385e0832c146104f75780638c049b8c1461050d5780638e7cef891461052d57600080fd5b8063248a9ca3116101e657806342966c68116101b55780636352211e1161019a5780636352211e1461048157806370a08231146104a157806371a3da6e146104c157600080fd5b806342966c681461044157806359af0f6a1461046157600080fd5b8063248a9ca3146103b15780632f2ff15d146103e157806336568abe1461040157806342842e0e1461042157600080fd5b8063075461721161023d578063095ea7b311610222578063095ea7b31461035e5780630cdd53f61461037e57806323b872dd1461039157600080fd5b80630754617214610306578063081812fc1461033e57600080fd5b8062f714ce1461026e578063010a38f51461029057806301ffc9a7146102b457806306fdde03146102e4575b600080fd5b34801561027a57600080fd5b5061028e610289366004612006565b610798565b005b34801561029c57600080fd5b506010545b6040519081526020015b60405180910390f35b3480156102c057600080fd5b506102d46102cf36600461204c565b610859565b60405190151581526020016102ab565b3480156102f057600080fd5b506102f961086a565b6040516102ab91906120b9565b34801561031257600080fd5b50600d54610326906001600160a01b031681565b6040516001600160a01b0390911681526020016102ab565b34801561034a57600080fd5b506103266103593660046120cc565b6108fc565b34801561036a57600080fd5b5061028e6103793660046120e5565b610925565b61028e61038c366004612111565b610934565b34801561039d57600080fd5b5061028e6103ac366004612133565b610ce6565b3480156103bd57600080fd5b506102a16103cc3660046120cc565b60009081526007602052604090206001015490565b3480156103ed57600080fd5b5061028e6103fc366004612006565b610d84565b34801561040d57600080fd5b5061028e61041c366004612006565b610da9565b34801561042d57600080fd5b5061028e61043c366004612133565b610dfa565b34801561044d57600080fd5b5061028e61045c3660046120cc565b610e15565b34801561046d57600080fd5b50600b54610326906001600160a01b031681565b34801561048d57600080fd5b5061032661049c3660046120cc565b610e9a565b3480156104ad57600080fd5b506102a16104bc366004612174565b610ea5565b3480156104cd57600080fd5b506102a160105481565b3480156104e357600080fd5b50600c54610326906001600160a01b031681565b34801561050357600080fd5b506102a160095481565b34801561051957600080fd5b50600a54610326906001600160a01b031681565b34801561053957600080fd5b5061028e610548366004612241565b610f06565b34801561055957600080fd5b506102d4610568366004612006565b60009182526007602090815260408084206001600160a01b0393909316845291905290205460ff1690565b34801561059f57600080fd5b506102f9610fbe565b3480156105b457600080fd5b506102a1600081565b3480156105c957600080fd5b5061028e6105d83660046122a6565b610fcd565b3480156105e957600080fd5b5061028e6105f83660046122d4565b610fd8565b34801561060957600080fd5b5061061d6106183660046120cc565b610ff0565b6040516102ab93929190612354565b34801561063857600080fd5b506102f96106473660046120cc565b61109a565b34801561065857600080fd5b5061028e610667366004612379565b6110a5565b34801561067857600080fd5b506102a17f9f2df0fed2c77648de5860a4cc508cd0818c85b8b8a1ab4ceeef8d981c8956a681565b3480156106ac57600080fd5b5061028e6106bb366004612006565b611116565b3480156106cc57600080fd5b506106e06106db3660046120cc565b61113b565b6040516102ab91906123c9565b3480156106f957600080fd5b5061028e610708366004612241565b611224565b34801561071957600080fd5b506102d4610728366004612405565b6001600160a01b03918216600090815260056020908152604080832093909416825291909152205460ff1690565b34801561076257600080fd5b506009546102a1565b34801561077757600080fd5b506102a16107863660046120cc565b600f6020526000908152604090205481565b60006107a38161128c565b8247101561081d5760405162461bcd60e51b8152602060048201526024808201527f496e73756666696369656e742062616c616e636520696e2074686520636f6e7460448201527f726163740000000000000000000000000000000000000000000000000000000060648201526084015b60405180910390fd5b6040516001600160a01b0383169084156108fc029085906000818181858888f19350505050158015610853573d6000803e3d6000fd5b50505050565b600061086482611299565b92915050565b60606000805461087990612433565b80601f01602080910402602001604051908101604052809291908181526020018280546108a590612433565b80156108f25780601f106108c7576101008083540402835291602001916108f2565b820191906000526020600020905b8154815290600101906020018083116108d557829003601f168201915b5050505050905090565b6000610907826112d7565b506000828152600460205260409020546001600160a01b0316610864565b610930828233611310565b5050565b600030905061096660405180606001604052806025815260200161270460259139600b546001600160a01b031661131d565b6109886040518060600160405280602781526020016126dd602791393361131d565b600b546040516370a0823160e01b81526001600160a01b03838116600483015260009216906370a0823190602401602060405180830381865afa1580156109d3573d6000803e3d6000fd5b505050506040513d601f19601f820116820180604052508101906109f7919061246d565b9050610a1b6040518060600160405280602681526020016127296026913982611390565b600b546040516370a0823160e01b81526001600160a01b03848116600483015260009216906370a0823190602401602060405180830381865afa158015610a66573d6000803e3d6000fd5b505050506040513d601f19601f82011682018060405250810190610a8a919061246d565b9050610aae6040518060600160405280602e815260200161274f602e913982611390565b600b546000906001600160a01b03166323b872dd336040516001600160e01b031960e084901b1681526001600160a01b0391821660048201529087166024820152604481018890526064016020604051808303816000875af1158015610b18573d6000803e3d6000fd5b505050506040513d601f19601f82011682018060405250810190610b3c9190612486565b905080610b8b5760405162461bcd60e51b815260206004820152601560248201527f546f6b656e207472616e73666572206661696c656400000000000000000000006044820152606401610814565b600b546001600160a01b03166370a08231336040516001600160e01b031960e084901b1681526001600160a01b039091166004820152602401602060405180830381865afa158015610be1573d6000803e3d6000fd5b505050506040513d601f19601f82011682018060405250810190610c05919061246d565b9250610c296040518060600160405280602681526020016127296026913984611390565b600b546040516370a0823160e01b81526001600160a01b038681166004830152909116906370a0823190602401602060405180830381865afa158015610c73573d6000803e3d6000fd5b505050506040513d601f19601f82011682018060405250810190610c97919061246d565b9150610cbb6040518060600160405280602e815260200161274f602e913983611390565b6000868152600f602052604081208054879290610cd99084906124b9565b9091555050505050505050565b6001600160a01b038216610d1057604051633250574960e11b815260006004820152602401610814565b6000610d1d838333611403565b9050836001600160a01b0316816001600160a01b031614610853576040517f64283d7b0000000000000000000000000000000000000000000000000000000081526001600160a01b0380861660048301526024820184905282166044820152606401610814565b600082815260076020526040902060010154610d9f8161128c565b6108538383611509565b6001600160a01b0381163314610deb576040517f6697b23200000000000000000000000000000000000000000000000000000000815260040160405180910390fd5b610df582826115b7565b505050565b610df583838360405180602001604052806000815250610fd8565b610e1e8161163e565b6000818152600260205260409020546001600160a01b0316610e825760405162461bcd60e51b815260206004820152601460248201527f546f6b656e20646f6573206e6f742065786973740000000000000000000000006044820152606401610814565b60098054906000610e92836124cc565b919050555050565b6000610864826112d7565b60006001600160a01b038216610eea576040517f89c62b6400000000000000000000000000000000000000000000000000000000815260006004820152602401610814565b506001600160a01b031660009081526003602052604090205490565b6000848152600260205260409020546001600160a01b0316610f6a5760405162461bcd60e51b815260206004820152601260248201527f43617420646f6573206e6f7420657869737400000000000000000000000000006044820152606401610814565b6040805160608101825284815260208082018590528183018490526000878152600e9091529190912081518190610fa1908261252a565b506020820151600182015560409091015160029091015550505050565b60606001805461087990612433565b61093033838361164a565b610fe3848484610ce6565b6108533385858585611702565b600e6020526000908152604090208054819061100b90612433565b80601f016020809104026020016040519081016040528092919081815260200182805461103790612433565b80156110845780601f1061105957610100808354040283529160200191611084565b820191906000526020600020905b81548152906001019060200180831161106757829003601f168201915b5050505050908060010154908060020154905083565b60606108648261182d565b7f9f2df0fed2c77648de5860a4cc508cd0818c85b8b8a1ab4ceeef8d981c8956a66110cf8161128c565b60088054600091826110e0836125e9565b9190505590506110f0848261193e565b6110fa8184611958565b601081905560095461110d9060016124b9565b60095550505050565b6000828152600760205260409020600101546111318161128c565b61085383836115b7565b61115f60405180606001604052806060815260200160008152602001600081525090565b6000828152600e602052604080822081516060810190925280548290829061118690612433565b80601f01602080910402602001604051908101604052809291908181526020018280546111b290612433565b80156111ff5780601f106111d4576101008083540402835291602001916111ff565b820191906000526020600020905b8154815290600101906020018083116111e257829003601f168201915b5050509183525050600182015460208201526002909101546040909101529392505050565b6000848152600e60205260409020805461123d90612433565b159050610f6a5760405162461bcd60e51b815260206004820181905260248201527f4361742070726f706572747920616c726561647920696e697469616c697a65646044820152606401610814565b61129681336119a8565b50565b60006001600160e01b031982167f7965db0b000000000000000000000000000000000000000000000000000000001480610864575061086482611a16565b6000818152600260205260408120546001600160a01b03168061086457604051637e27328960e01b815260048101849052602401610814565b610df58383836001611a54565b6109308282604051602401611333929190612602565b60408051601f198184030181529190526020810180517bffffffffffffffffffffffffffffffffffffffffffffffffffffffff167f319af33300000000000000000000000000000000000000000000000000000000179052611b9f565b61093082826040516024016113a692919061262d565b60408051601f198184030181529190526020810180517bffffffffffffffffffffffffffffffffffffffffffffffffffffffff167fb60e72cc00000000000000000000000000000000000000000000000000000000179052611b9f565b6000828152600260205260408120546001600160a01b039081169083161561143057611430818486611ba8565b6001600160a01b0381161561146e5761144d600085600080611a54565b6001600160a01b038116600090815260036020526040902080546000190190555b6001600160a01b0385161561149d576001600160a01b0385166000908152600360205260409020805460010190555b600084815260026020526040808220805473ffffffffffffffffffffffffffffffffffffffff19166001600160a01b0389811691821790925591518793918516917fddf252ad1be2c89b69c2b068fc378daa952ba7f163c4a11628f55a4df523b3ef91a4949350505050565b60008281526007602090815260408083206001600160a01b038516845290915281205460ff166115af5760008381526007602090815260408083206001600160a01b03861684529091529020805460ff191660011790556115673390565b6001600160a01b0316826001600160a01b0316847f2f8788117e7eff1d82e926ec794901d17c78024a50270940304540a733656f0d60405160405180910390a4506001610864565b506000610864565b60008281526007602090815260408083206001600160a01b038516845290915281205460ff16156115af5760008381526007602090815260408083206001600160a01b0386168085529252808320805460ff1916905551339286917ff6391f5c32d9c69d2a47ea670b442974b53935d1edc7fd64eb21e047a839171b9190a4506001610864565b61093060008233611403565b6001600160a01b038216611695576040517f5b08ba180000000000000000000000000000000000000000000000000000000081526001600160a01b0383166004820152602401610814565b6001600160a01b03838116600081815260056020908152604080832094871680845294825291829020805460ff191686151590811790915591519182527f17307eab39ab6107e8899845ad3d59bd9653f200f220920489ca2b5937696c31910160405180910390a3505050565b6001600160a01b0383163b1561182657604051630a85bd0160e11b81526001600160a01b0384169063150b7a029061174490889088908790879060040161264f565b6020604051808303816000875af192505050801561177f575060408051601f3d908101601f1916820190925261177c91810190612690565b60015b6117e8573d8080156117ad576040519150601f19603f3d011682016040523d82523d6000602084013e6117b2565b606091505b5080516000036117e057604051633250574960e11b81526001600160a01b0385166004820152602401610814565b805181602001fd5b6001600160e01b03198116630a85bd0160e11b1461182457604051633250574960e11b81526001600160a01b0385166004820152602401610814565b505b5050505050565b6060611838826112d7565b506000828152600660205260408120805461185290612433565b80601f016020809104026020016040519081016040528092919081815260200182805461187e90612433565b80156118cb5780601f106118a0576101008083540402835291602001916118cb565b820191906000526020600020905b8154815290600101906020018083116118ae57829003601f168201915b5050505050905060006118e960408051602081019091526000815290565b905080516000036118fb575092915050565b81511561192d5780826040516020016119159291906126ad565b60405160208183030381529060405292505050919050565b61193684611c25565b949350505050565b610930828260405180602001604052806000815250611c9a565b6000828152600660205260409020611970828261252a565b506040518281527ff8e1a15aba9398e019f0b49df1a4fde98ee17ae345cb5f6b5e2c27f5033e8ce79060200160405180910390a15050565b60008281526007602090815260408083206001600160a01b038516845290915290205460ff16610930576040517fe2517d3f0000000000000000000000000000000000000000000000000000000081526001600160a01b038216600482015260248101839052604401610814565b60006001600160e01b031982167f49064906000000000000000000000000000000000000000000000000000000001480610864575061086482611cb2565b8080611a6857506001600160a01b03821615155b15611b62576000611a78846112d7565b90506001600160a01b03831615801590611aa45750826001600160a01b0316816001600160a01b031614155b8015611ad657506001600160a01b0380821660009081526005602090815260408083209387168352929052205460ff16155b15611b18576040517fa9fbf51f0000000000000000000000000000000000000000000000000000000081526001600160a01b0384166004820152602401610814565b8115611b605783856001600160a01b0316826001600160a01b03167f8c5be1e5ebec7d5bd14f71427d1e84f3dd0314c0f7b2291e5b200ac8c7c3b92560405160405180910390a45b505b50506000908152600460205260409020805473ffffffffffffffffffffffffffffffffffffffff19166001600160a01b0392909216919091179055565b61129681611d4d565b611bb3838383611d6e565b610df5576001600160a01b038316611be157604051637e27328960e01b815260048101829052602401610814565b6040517f177e802f0000000000000000000000000000000000000000000000000000000081526001600160a01b038316600482015260248101829052604401610814565b6060611c30826112d7565b506000611c4860408051602081019091526000815290565b90506000815111611c685760405180602001604052806000815250611c93565b80611c7284611df1565b604051602001611c839291906126ad565b6040516020818303038152906040525b9392505050565b611ca48383611e91565b610df5336000858585611702565b60006001600160e01b031982167f80ac58cd000000000000000000000000000000000000000000000000000000001480611d1557506001600160e01b031982167f5b5e139f00000000000000000000000000000000000000000000000000000000145b8061086457507f01ffc9a7000000000000000000000000000000000000000000000000000000006001600160e01b0319831614610864565b60006a636f6e736f6c652e6c6f679050600080835160208501845afa505050565b60006001600160a01b038316158015906119365750826001600160a01b0316846001600160a01b03161480611dc857506001600160a01b0380851660009081526005602090815260408083209387168352929052205460ff165b806119365750506000908152600460205260409020546001600160a01b03908116911614919050565b60606000611dfe83611f0f565b600101905060008167ffffffffffffffff811115611e1e57611e1e612191565b6040519080825280601f01601f191660200182016040528015611e48576020820181803683370190505b5090508181016020015b600019017f3031323334353637383961626364656600000000000000000000000000000000600a86061a8153600a8504945084611e5257509392505050565b6001600160a01b038216611ebb57604051633250574960e11b815260006004820152602401610814565b6000611ec983836000611403565b90506001600160a01b03811615610df5576040517f73c6ac6e00000000000000000000000000000000000000000000000000000000815260006004820152602401610814565b6000807a184f03e93ff9f4daa797ed6e38ed64bf6a1f0100000000000000008310611f58577a184f03e93ff9f4daa797ed6e38ed64bf6a1f010000000000000000830492506040015b6d04ee2d6d415b85acef81000000008310611f84576d04ee2d6d415b85acef8100000000830492506020015b662386f26fc100008310611fa257662386f26fc10000830492506010015b6305f5e1008310611fba576305f5e100830492506008015b6127108310611fce57612710830492506004015b60648310611fe0576064830492506002015b600a83106108645760010192915050565b6001600160a01b038116811461129657600080fd5b6000806040838503121561201957600080fd5b82359150602083013561202b81611ff1565b809150509250929050565b6001600160e01b03198116811461129657600080fd5b60006020828403121561205e57600080fd5b8135611c9381612036565b60005b8381101561208457818101518382015260200161206c565b50506000910152565b600081518084526120a5816020860160208601612069565b601f01601f19169290920160200192915050565b602081526000611c93602083018461208d565b6000602082840312156120de57600080fd5b5035919050565b600080604083850312156120f857600080fd5b823561210381611ff1565b946020939093013593505050565b6000806040838503121561212457600080fd5b50508035926020909101359150565b60008060006060848603121561214857600080fd5b833561215381611ff1565b9250602084013561216381611ff1565b929592945050506040919091013590565b60006020828403121561218657600080fd5b8135611c9381611ff1565b634e487b7160e01b600052604160045260246000fd5b60008067ffffffffffffffff8411156121c2576121c2612191565b50604051601f19601f85018116603f0116810181811067ffffffffffffffff821117156121f1576121f1612191565b60405283815290508082840185101561220957600080fd5b83836020830137600060208583010152509392505050565b600082601f83011261223257600080fd5b611c93838335602085016121a7565b6000806000806080858703121561225757600080fd5b84359350602085013567ffffffffffffffff81111561227557600080fd5b61228187828801612221565b949794965050505060408301359260600135919050565b801515811461129657600080fd5b600080604083850312156122b957600080fd5b82356122c481611ff1565b9150602083013561202b81612298565b600080600080608085870312156122ea57600080fd5b84356122f581611ff1565b9350602085013561230581611ff1565b925060408501359150606085013567ffffffffffffffff81111561232857600080fd5b8501601f8101871361233957600080fd5b612348878235602084016121a7565b91505092959194509250565b606081526000612367606083018661208d565b60208301949094525060400152919050565b6000806040838503121561238c57600080fd5b823561239781611ff1565b9150602083013567ffffffffffffffff8111156123b357600080fd5b6123bf85828601612221565b9150509250929050565b6020815260008251606060208401526123e5608084018261208d565b905060208401516040840152604084015160608401528091505092915050565b6000806040838503121561241857600080fd5b823561242381611ff1565b9150602083013561202b81611ff1565b600181811c9082168061244757607f821691505b60208210810361246757634e487b7160e01b600052602260045260246000fd5b50919050565b60006020828403121561247f57600080fd5b5051919050565b60006020828403121561249857600080fd5b8151611c9381612298565b634e487b7160e01b600052601160045260246000fd5b80820180821115610864576108646124a3565b6000816124db576124db6124a3565b506000190190565b601f821115610df557806000526020600020601f840160051c8101602085101561250a5750805b601f840160051c820191505b818110156118265760008155600101612516565b815167ffffffffffffffff81111561254457612544612191565b612558816125528454612433565b846124e3565b6020601f82116001811461258c57600083156125745750848201515b600019600385901b1c1916600184901b178455611826565b600084815260208120601f198516915b828110156125bc578785015182556020948501946001909201910161259c565b50848210156125da5786840151600019600387901b60f8161c191681555b50505050600190811b01905550565b6000600182016125fb576125fb6124a3565b5060010190565b604081526000612615604083018561208d565b90506001600160a01b03831660208301529392505050565b604081526000612640604083018561208d565b90508260208301529392505050565b6001600160a01b03851681526001600160a01b0384166020820152826040820152608060608201526000612686608083018461208d565b9695505050505050565b6000602082840312156126a257600080fd5b8151611c9381612036565b600083516126bf818460208801612069565b8351908301906126d3818360208801612069565b0194935050505056fe6b6f6b6f4361744e46542d646f6e61746528292d6d73672e73656e64657220616464726573733a6b6f6b6f4361744e46542d646f6e61746528292d6b6f6b6f546f6b656e416464726573733a6b6f6b6f4361744e46542d646f6e61746528292d5f6d736773656e64657242616c616e63653a6b6f6b6f4361744e46542d646f6e61746528292d5f6b6f6b6f4361744e46544164647265737342616c616e63653aa2646970667358221220ff0e839c52dcd460ba570aadad9122ddda3c247ab569948f984466082021d72e64736f6c634300081b0033",
  "linkReferences": {},
  "deployedLinkReferences": {}
}