{
  "_format": "hh-sol-artifact-1",
  "contractName": "kokoCatNFT",
  "sourceName": "contracts/catNFT/kokoCatNFT.sol",
  "abi": [
    {
      "inputs": [
        {
          "internalType": "address",
          "name": "defaultAdmin",
          "type": "address"
        },
        {
          "internalType": "address",
          "name": "minter",
          "type": "address"
        },
        {
          "internalType": "address",
          "name": "_kokoTokenAddress",
          "type": "address"
        }
      ],
      "stateMutability": "nonpayable",
      "type": "constructor"
    },
    {
      "inputs": [],
      "name": "AccessControlBadConfirmation",
      "type": "error"
    },
    {
      "inputs": [
        {
          "internalType": "address",
          "name": "account",
          "type": "address"
        },
        {
          "internalType": "bytes32",
          "name": "neededRole",
          "type": "bytes32"
        }
      ],
      "name": "AccessControlUnauthorizedAccount",
      "type": "error"
    },
    {
      "inputs": [
        {
          "internalType": "address",
          "name": "sender",
          "type": "address"
        },
        {
          "internalType": "uint256",
          "name": "tokenId",
          "type": "uint256"
        },
        {
          "internalType": "address",
          "name": "owner",
          "type": "address"
        }
      ],
      "name": "ERC721IncorrectOwner",
      "type": "error"
    },
    {
      "inputs": [
        {
          "internalType": "address",
          "name": "operator",
          "type": "address"
        },
        {
          "internalType": "uint256",
          "name": "tokenId",
          "type": "uint256"
        }
      ],
      "name": "ERC721InsufficientApproval",
      "type": "error"
    },
    {
      "inputs": [
        {
          "internalType": "address",
          "name": "approver",
          "type": "address"
        }
      ],
      "name": "ERC721InvalidApprover",
      "type": "error"
    },
    {
      "inputs": [
        {
          "internalType": "address",
          "name": "operator",
          "type": "address"
        }
      ],
      "name": "ERC721InvalidOperator",
      "type": "error"
    },
    {
      "inputs": [
        {
          "internalType": "address",
          "name": "owner",
          "type": "address"
        }
      ],
      "name": "ERC721InvalidOwner",
      "type": "error"
    },
    {
      "inputs": [
        {
          "internalType": "address",
          "name": "receiver",
          "type": "address"
        }
      ],
      "name": "ERC721InvalidReceiver",
      "type": "error"
    },
    {
      "inputs": [
        {
          "internalType": "address",
          "name": "sender",
          "type": "address"
        }
      ],
      "name": "ERC721InvalidSender",
      "type": "error"
    },
    {
      "inputs": [
        {
          "internalType": "uint256",
          "name": "tokenId",
          "type": "uint256"
        }
      ],
      "name": "ERC721NonexistentToken",
      "type": "error"
    },
    {
      "anonymous": false,
      "inputs": [
        {
          "indexed": true,
          "internalType": "address",
          "name": "owner",
          "type": "address"
        },
        {
          "indexed": true,
          "internalType": "address",
          "name": "approved",
          "type": "address"
        },
        {
          "indexed": true,
          "internalType": "uint256",
          "name": "tokenId",
          "type": "uint256"
        }
      ],
      "name": "Approval",
      "type": "event"
    },
    {
      "anonymous": false,
      "inputs": [
        {
          "indexed": true,
          "internalType": "address",
          "name": "owner",
          "type": "address"
        },
        {
          "indexed": true,
          "internalType": "address",
          "name": "operator",
          "type": "address"
        },
        {
          "indexed": false,
          "internalType": "bool",
          "name": "approved",
          "type": "bool"
        }
      ],
      "name": "ApprovalForAll",
      "type": "event"
    },
    {
      "anonymous": false,
      "inputs": [
        {
          "indexed": false,
          "internalType": "uint256",
          "name": "_fromTokenId",
          "type": "uint256"
        },
        {
          "indexed": false,
          "internalType": "uint256",
          "name": "_toTokenId",
          "type": "uint256"
        }
      ],
      "name": "BatchMetadataUpdate",
      "type": "event"
    },
    {
      "anonymous": false,
      "inputs": [
        {
          "indexed": false,
          "internalType": "uint256",
          "name": "_tokenId",
          "type": "uint256"
        }
      ],
      "name": "MetadataUpdate",
      "type": "event"
    },
    {
      "anonymous": false,
      "inputs": [
        {
          "indexed": true,
          "internalType": "bytes32",
          "name": "role",
          "type": "bytes32"
        },
        {
          "indexed": true,
          "internalType": "bytes32",
          "name": "previousAdminRole",
          "type": "bytes32"
        },
        {
          "indexed": true,
          "internalType": "bytes32",
          "name": "newAdminRole",
          "type": "bytes32"
        }
      ],
      "name": "RoleAdminChanged",
      "type": "event"
    },
    {
      "anonymous": false,
      "inputs": [
        {
          "indexed": true,
          "internalType": "bytes32",
          "name": "role",
          "type": "bytes32"
        },
        {
          "indexed": true,
          "internalType": "address",
          "name": "account",
          "type": "address"
        },
        {
          "indexed": true,
          "internalType": "address",
          "name": "sender",
          "type": "address"
        }
      ],
      "name": "RoleGranted",
      "type": "event"
    },
    {
      "anonymous": false,
      "inputs": [
        {
          "indexed": true,
          "internalType": "bytes32",
          "name": "role",
          "type": "bytes32"
        },
        {
          "indexed": true,
          "internalType": "address",
          "name": "account",
          "type": "address"
        },
        {
          "indexed": true,
          "internalType": "address",
          "name": "sender",
          "type": "address"
        }
      ],
      "name": "RoleRevoked",
      "type": "event"
    },
    {
      "anonymous": false,
      "inputs": [
        {
          "indexed": true,
          "internalType": "address",
          "name": "from",
          "type": "address"
        },
        {
          "indexed": true,
          "internalType": "address",
          "name": "to",
          "type": "address"
        },
        {
          "indexed": true,
          "internalType": "uint256",
          "name": "tokenId",
          "type": "uint256"
        }
      ],
      "name": "Transfer",
      "type": "event"
    },
    {
      "inputs": [],
      "name": "DEFAULT_ADMIN_ROLE",
      "outputs": [
        {
          "internalType": "bytes32",
          "name": "",
          "type": "bytes32"
        }
      ],
      "stateMutability": "view",
      "type": "function"
    },
    {
      "inputs": [],
      "name": "MINTER_ROLE",
      "outputs": [
        {
          "internalType": "bytes32",
          "name": "",
          "type": "bytes32"
        }
      ],
      "stateMutability": "view",
      "type": "function"
    },
    {
      "inputs": [
        {
          "internalType": "address",
          "name": "to",
          "type": "address"
        },
        {
          "internalType": "uint256",
          "name": "tokenId",
          "type": "uint256"
        }
      ],
      "name": "approve",
      "outputs": [],
      "stateMutability": "nonpayable",
      "type": "function"
    },
    {
      "inputs": [
        {
          "internalType": "address",
          "name": "owner",
          "type": "address"
        }
      ],
      "name": "balanceOf",
      "outputs": [
        {
          "internalType": "uint256",
          "name": "",
          "type": "uint256"
        }
      ],
      "stateMutability": "view",
      "type": "function"
    },
    {
      "inputs": [
        {
          "internalType": "uint256",
          "name": "tokenId",
          "type": "uint256"
        }
      ],
      "name": "burn",
      "outputs": [],
      "stateMutability": "nonpayable",
      "type": "function"
    },
    {
      "inputs": [
        {
          "internalType": "uint256",
          "name": "",
          "type": "uint256"
        }
      ],
      "name": "cats",
      "outputs": [
        {
          "internalType": "string",
          "name": "name",
          "type": "string"
        },
        {
          "internalType": "uint256",
          "name": "chipId",
          "type": "uint256"
        },
        {
          "internalType": "uint256",
          "name": "donateMinValue",
          "type": "uint256"
        }
      ],
      "stateMutability": "view",
      "type": "function"
    },
    {
      "inputs": [
        {
          "internalType": "uint256",
          "name": "",
          "type": "uint256"
        }
      ],
      "name": "catsAmount",
      "outputs": [
        {
          "internalType": "uint256",
          "name": "",
          "type": "uint256"
        }
      ],
      "stateMutability": "view",
      "type": "function"
    },
    {
      "inputs": [
        {
          "internalType": "uint256",
          "name": "tokenId",
          "type": "uint256"
        }
      ],
      "name": "donate",
      "outputs": [],
      "stateMutability": "payable",
      "type": "function"
    },
    {
      "inputs": [
        {
          "internalType": "uint256",
          "name": "tokenId",
          "type": "uint256"
        }
      ],
      "name": "getApproved",
      "outputs": [
        {
          "internalType": "address",
          "name": "",
          "type": "address"
        }
      ],
      "stateMutability": "view",
      "type": "function"
    },
    {
      "inputs": [
        {
          "internalType": "uint256",
          "name": "tokenId",
          "type": "uint256"
        }
      ],
      "name": "getCatProperty",
      "outputs": [
        {
          "components": [
            {
              "internalType": "string",
              "name": "name",
              "type": "string"
            },
            {
              "internalType": "uint256",
              "name": "chipId",
              "type": "uint256"
            },
            {
              "internalType": "uint256",
              "name": "donateMinValue",
              "type": "uint256"
            }
          ],
          "internalType": "struct kokoCatNFT.Property",
          "name": "",
          "type": "tuple"
        }
      ],
      "stateMutability": "view",
      "type": "function"
    },
    {
      "inputs": [
        {
          "internalType": "bytes32",
          "name": "role",
          "type": "bytes32"
        }
      ],
      "name": "getRoleAdmin",
      "outputs": [
        {
          "internalType": "bytes32",
          "name": "",
          "type": "bytes32"
        }
      ],
      "stateMutability": "view",
      "type": "function"
    },
    {
      "inputs": [],
      "name": "getTokenId",
      "outputs": [
        {
          "internalType": "uint256",
          "name": "",
          "type": "uint256"
        }
      ],
      "stateMutability": "view",
      "type": "function"
    },
    {
      "inputs": [],
      "name": "getTotalMintSupply",
      "outputs": [
        {
          "internalType": "uint256",
          "name": "",
          "type": "uint256"
        }
      ],
      "stateMutability": "view",
      "type": "function"
    },
    {
      "inputs": [
        {
          "internalType": "bytes32",
          "name": "role",
          "type": "bytes32"
        },
        {
          "internalType": "address",
          "name": "account",
          "type": "address"
        }
      ],
      "name": "grantRole",
      "outputs": [],
      "stateMutability": "nonpayable",
      "type": "function"
    },
    {
      "inputs": [
        {
          "internalType": "bytes32",
          "name": "role",
          "type": "bytes32"
        },
        {
          "internalType": "address",
          "name": "account",
          "type": "address"
        }
      ],
      "name": "hasRole",
      "outputs": [
        {
          "internalType": "bool",
          "name": "",
          "type": "bool"
        }
      ],
      "stateMutability": "view",
      "type": "function"
    },
    {
      "inputs": [
        {
          "internalType": "uint256",
          "name": "tokenId",
          "type": "uint256"
        },
        {
          "internalType": "string",
          "name": "_name",
          "type": "string"
        },
        {
          "internalType": "uint256",
          "name": "_chipId",
          "type": "uint256"
        },
        {
          "internalType": "uint256",
          "name": "_donateMinValue",
          "type": "uint256"
        }
      ],
      "name": "initCatProperty",
      "outputs": [],
      "stateMutability": "nonpayable",
      "type": "function"
    },
    {
      "inputs": [
        {
          "internalType": "address",
          "name": "owner",
          "type": "address"
        },
        {
          "internalType": "address",
          "name": "operator",
          "type": "address"
        }
      ],
      "name": "isApprovedForAll",
      "outputs": [
        {
          "internalType": "bool",
          "name": "",
          "type": "bool"
        }
      ],
      "stateMutability": "view",
      "type": "function"
    },
    {
      "inputs": [],
      "name": "kokoToken",
      "outputs": [
        {
          "internalType": "contract IERC20",
          "name": "",
          "type": "address"
        }
      ],
      "stateMutability": "view",
      "type": "function"
    },
    {
      "inputs": [],
      "name": "kokoTokenAddress",
      "outputs": [
        {
          "internalType": "address",
          "name": "",
          "type": "address"
        }
      ],
      "stateMutability": "view",
      "type": "function"
    },
    {
      "inputs": [],
      "name": "name",
      "outputs": [
        {
          "internalType": "string",
          "name": "",
          "type": "string"
        }
      ],
      "stateMutability": "view",
      "type": "function"
    },
    {
      "inputs": [],
      "name": "newtokenId",
      "outputs": [
        {
          "internalType": "uint256",
          "name": "",
          "type": "uint256"
        }
      ],
      "stateMutability": "view",
      "type": "function"
    },
    {
      "inputs": [
        {
          "internalType": "uint256",
          "name": "tokenId",
          "type": "uint256"
        }
      ],
      "name": "ownerOf",
      "outputs": [
        {
          "internalType": "address",
          "name": "",
          "type": "address"
        }
      ],
      "stateMutability": "view",
      "type": "function"
    },
    {
      "inputs": [
        {
          "internalType": "bytes32",
          "name": "role",
          "type": "bytes32"
        },
        {
          "internalType": "address",
          "name": "callerConfirmation",
          "type": "address"
        }
      ],
      "name": "renounceRole",
      "outputs": [],
      "stateMutability": "nonpayable",
      "type": "function"
    },
    {
      "inputs": [
        {
          "internalType": "bytes32",
          "name": "role",
          "type": "bytes32"
        },
        {
          "internalType": "address",
          "name": "account",
          "type": "address"
        }
      ],
      "name": "revokeRole",
      "outputs": [],
      "stateMutability": "nonpayable",
      "type": "function"
    },
    {
      "inputs": [
        {
          "internalType": "address",
          "name": "to",
          "type": "address"
        },
        {
          "internalType": "string",
          "name": "uri",
          "type": "string"
        }
      ],
      "name": "safeMint",
      "outputs": [],
      "stateMutability": "nonpayable",
      "type": "function"
    },
    {
      "inputs": [
        {
          "internalType": "address",
          "name": "from",
          "type": "address"
        },
        {
          "internalType": "address",
          "name": "to",
          "type": "address"
        },
        {
          "internalType": "uint256",
          "name": "tokenId",
          "type": "uint256"
        }
      ],
      "name": "safeTransferFrom",
      "outputs": [],
      "stateMutability": "nonpayable",
      "type": "function"
    },
    {
      "inputs": [
        {
          "internalType": "address",
          "name": "from",
          "type": "address"
        },
        {
          "internalType": "address",
          "name": "to",
          "type": "address"
        },
        {
          "internalType": "uint256",
          "name": "tokenId",
          "type": "uint256"
        },
        {
          "internalType": "bytes",
          "name": "data",
          "type": "bytes"
        }
      ],
      "name": "safeTransferFrom",
      "outputs": [],
      "stateMutability": "nonpayable",
      "type": "function"
    },
    {
      "inputs": [
        {
          "internalType": "address",
          "name": "operator",
          "type": "address"
        },
        {
          "internalType": "bool",
          "name": "approved",
          "type": "bool"
        }
      ],
      "name": "setApprovalForAll",
      "outputs": [],
      "stateMutability": "nonpayable",
      "type": "function"
    },
    {
      "inputs": [
        {
          "internalType": "uint256",
          "name": "tokenId",
          "type": "uint256"
        },
        {
          "internalType": "string",
          "name": "_name",
          "type": "string"
        },
        {
          "internalType": "uint256",
          "name": "_chipId",
          "type": "uint256"
        },
        {
          "internalType": "uint256",
          "name": "_donateMinValue",
          "type": "uint256"
        }
      ],
      "name": "setCatProperty",
      "outputs": [],
      "stateMutability": "nonpayable",
      "type": "function"
    },
    {
      "inputs": [
        {
          "internalType": "bytes4",
          "name": "interfaceId",
          "type": "bytes4"
        }
      ],
      "name": "supportsInterface",
      "outputs": [
        {
          "internalType": "bool",
          "name": "",
          "type": "bool"
        }
      ],
      "stateMutability": "view",
      "type": "function"
    },
    {
      "inputs": [],
      "name": "symbol",
      "outputs": [
        {
          "internalType": "string",
          "name": "",
          "type": "string"
        }
      ],
      "stateMutability": "view",
      "type": "function"
    },
    {
      "inputs": [
        {
          "internalType": "uint256",
          "name": "tokenId",
          "type": "uint256"
        }
      ],
      "name": "tokenURI",
      "outputs": [
        {
          "internalType": "string",
          "name": "",
          "type": "string"
        }
      ],
      "stateMutability": "view",
      "type": "function"
    },
    {
      "inputs": [],
      "name": "totalMintSupply",
      "outputs": [
        {
          "internalType": "uint256",
          "name": "",
          "type": "uint256"
        }
      ],
      "stateMutability": "view",
      "type": "function"
    },
    {
      "inputs": [
        {
          "internalType": "address",
          "name": "from",
          "type": "address"
        },
        {
          "internalType": "address",
          "name": "to",
          "type": "address"
        },
        {
          "internalType": "uint256",
          "name": "tokenId",
          "type": "uint256"
        }
      ],
      "name": "transferFrom",
      "outputs": [],
      "stateMutability": "nonpayable",
      "type": "function"
    }
  ],
  "bytecode": "0x608060405234801561001057600080fd5b5060405161410e38038061410e8339818101604052810190610032919061038d565b6040518060400160405280600c81526020017f4361742050726f706572747900000000000000000000000000000000000000008152506040518060400160405280600781526020017f6b6f6b6f4341540000000000000000000000000000000000000000000000000081525081600090816100ad9190610630565b5080600190816100bd9190610630565b5050506100d36000801b846101b960201b60201c565b506101047f9f2df0fed2c77648de5860a4cc508cd0818c85b8b8a1ab4ceeef8d981c8956a6836101b960201b60201c565b5080600a60006101000a81548173ffffffffffffffffffffffffffffffffffffffff021916908373ffffffffffffffffffffffffffffffffffffffff160217905550600a60009054906101000a900473ffffffffffffffffffffffffffffffffffffffff16600b60006101000a81548173ffffffffffffffffffffffffffffffffffffffff021916908373ffffffffffffffffffffffffffffffffffffffff1602179055506000600981905550505050610702565b60006101cb83836102b760201b60201c565b6102ac5760016007600085815260200190815260200160002060000160008473ffffffffffffffffffffffffffffffffffffffff1673ffffffffffffffffffffffffffffffffffffffff16815260200190815260200160002060006101000a81548160ff02191690831515021790555061024961032260201b60201c565b73ffffffffffffffffffffffffffffffffffffffff168273ffffffffffffffffffffffffffffffffffffffff16847f2f8788117e7eff1d82e926ec794901d17c78024a50270940304540a733656f0d60405160405180910390a4600190506102b1565b600090505b92915050565b60006007600084815260200190815260200160002060000160008373ffffffffffffffffffffffffffffffffffffffff1673ffffffffffffffffffffffffffffffffffffffff16815260200190815260200160002060009054906101000a900460ff16905092915050565b600033905090565b600080fd5b600073ffffffffffffffffffffffffffffffffffffffff82169050919050565b600061035a8261032f565b9050919050565b61036a8161034f565b811461037557600080fd5b50565b60008151905061038781610361565b92915050565b6000806000606084860312156103a6576103a561032a565b5b60006103b486828701610378565b93505060206103c586828701610378565b92505060406103d686828701610378565b9150509250925092565b600081519050919050565b7f4e487b7100000000000000000000000000000000000000000000000000000000600052604160045260246000fd5b7f4e487b7100000000000000000000000000000000000000000000000000000000600052602260045260246000fd5b6000600282049050600182168061046157607f821691505b6020821081036104745761047361041a565b5b50919050565b60008190508160005260206000209050919050565b60006020601f8301049050919050565b600082821b905092915050565b6000600883026104dc7fffffffffffffffffffffffffffffffffffffffffffffffffffffffffffffffff8261049f565b6104e6868361049f565b95508019841693508086168417925050509392505050565b6000819050919050565b6000819050919050565b600061052d610528610523846104fe565b610508565b6104fe565b9050919050565b6000819050919050565b61054783610512565b61055b61055382610534565b8484546104ac565b825550505050565b600090565b610570610563565b61057b81848461053e565b505050565b5b8181101561059f57610594600082610568565b600181019050610581565b5050565b601f8211156105e4576105b58161047a565b6105be8461048f565b810160208510156105cd578190505b6105e16105d98561048f565b830182610580565b50505b505050565b600082821c905092915050565b6000610607600019846008026105e9565b1980831691505092915050565b600061062083836105f6565b9150826002028217905092915050565b610639826103e0565b67ffffffffffffffff811115610652576106516103eb565b5b61065c8254610449565b6106678282856105a3565b600060209050601f83116001811461069a5760008415610688578287015190505b6106928582610614565b8655506106fa565b601f1984166106a88661047a565b60005b828110156106d0578489015182556001820191506020850194506020810190506106ab565b868310156106ed57848901516106e9601f8916826105f6565b8355505b6001600288020188555050505b505050505050565b6139fd806107116000396000f3fe6080604052600436106101f95760003560e01c80638e7cef891161010d578063d204c45e116100a0578063da18e49d1161006f578063da18e49d1461076b578063e985e9c514610794578063ed1f56c0146107d1578063f14faf6f146107fc578063f71c584c14610818576101f9565b8063d204c45e146106b1578063d5391393146106da578063d547741f14610705578063d94baa461461072e576101f9565b8063a22cb465116100dc578063a22cb465146105e3578063b88d4fde1461060c578063c6df962d14610635578063c87b56dd14610674576101f9565b80638e7cef891461052757806391d148541461055057806395d89b411461058d578063a217fddf146105b8576101f9565b806336568abe116101905780636352211e1161015f5780636352211e1461042c57806370a082311461046957806371a3da6e146104a657806385e0832c146104d15780638c049b8c146104fc576101f9565b806336568abe1461038657806342842e0e146103af57806342966c68146103d857806359af0f6a14610401576101f9565b8063095ea7b3116101cc578063095ea7b3146102ce57806323b872dd146102f7578063248a9ca3146103205780632f2ff15d1461035d576101f9565b8063010a38f5146101fe57806301ffc9a71461022957806306fdde0314610266578063081812fc14610291575b600080fd5b34801561020a57600080fd5b50610213610855565b60405161022091906127f8565b60405180910390f35b34801561023557600080fd5b50610250600480360381019061024b919061287f565b61085f565b60405161025d91906128c7565b60405180910390f35b34801561027257600080fd5b5061027b610871565b6040516102889190612972565b60405180910390f35b34801561029d57600080fd5b506102b860048036038101906102b391906129c0565b610903565b6040516102c59190612a2e565b60405180910390f35b3480156102da57600080fd5b506102f560048036038101906102f09190612a75565b61091f565b005b34801561030357600080fd5b5061031e60048036038101906103199190612ab5565b610935565b005b34801561032c57600080fd5b5061034760048036038101906103429190612b3e565b610a37565b6040516103549190612b7a565b60405180910390f35b34801561036957600080fd5b50610384600480360381019061037f9190612b95565b610a57565b005b34801561039257600080fd5b506103ad60048036038101906103a89190612b95565b610a79565b005b3480156103bb57600080fd5b506103d660048036038101906103d19190612ab5565b610af4565b005b3480156103e457600080fd5b506103ff60048036038101906103fa91906129c0565b610b14565b005b34801561040d57600080fd5b50610416610baf565b6040516104239190612c34565b60405180910390f35b34801561043857600080fd5b50610453600480360381019061044e91906129c0565b610bd5565b6040516104609190612a2e565b60405180910390f35b34801561047557600080fd5b50610490600480360381019061048b9190612c4f565b610be7565b60405161049d91906127f8565b60405180910390f35b3480156104b257600080fd5b506104bb610ca1565b6040516104c891906127f8565b60405180910390f35b3480156104dd57600080fd5b506104e6610ca7565b6040516104f391906127f8565b60405180910390f35b34801561050857600080fd5b50610511610cad565b60405161051e9190612a2e565b60405180910390f35b34801561053357600080fd5b5061054e60048036038101906105499190612db1565b610cd3565b005b34801561055c57600080fd5b5061057760048036038101906105729190612b95565b610dab565b60405161058491906128c7565b60405180910390f35b34801561059957600080fd5b506105a2610e16565b6040516105af9190612972565b60405180910390f35b3480156105c457600080fd5b506105cd610ea8565b6040516105da9190612b7a565b60405180910390f35b3480156105ef57600080fd5b5061060a60048036038101906106059190612e60565b610eaf565b005b34801561061857600080fd5b50610633600480360381019061062e9190612f41565b610ec5565b005b34801561064157600080fd5b5061065c600480360381019061065791906129c0565b610eea565b60405161066b93929190612fc4565b60405180910390f35b34801561068057600080fd5b5061069b600480360381019061069691906129c0565b610f9c565b6040516106a89190612972565b60405180910390f35b3480156106bd57600080fd5b506106d860048036038101906106d39190613002565b610fae565b005b3480156106e657600080fd5b506106ef611029565b6040516106fc9190612b7a565b60405180910390f35b34801561071157600080fd5b5061072c60048036038101906107279190612b95565b61104d565b005b34801561073a57600080fd5b50610755600480360381019061075091906129c0565b61106f565b6040516107629190613107565b60405180910390f35b34801561077757600080fd5b50610792600480360381019061078d9190612db1565b611148565b005b3480156107a057600080fd5b506107bb60048036038101906107b69190613129565b61120e565b6040516107c891906128c7565b60405180910390f35b3480156107dd57600080fd5b506107e66112a2565b6040516107f391906127f8565b60405180910390f35b610816600480360381019061081191906129c0565b6112ac565b005b34801561082457600080fd5b5061083f600480360381019061083a91906129c0565b611433565b60405161084c91906127f8565b60405180910390f35b6000600e54905090565b600061086a8261144b565b9050919050565b60606000805461088090613198565b80601f01602080910402602001604051908101604052809291908181526020018280546108ac90613198565b80156108f95780601f106108ce576101008083540402835291602001916108f9565b820191906000526020600020905b8154815290600101906020018083116108dc57829003601f168201915b5050505050905090565b600061090e826114c5565b506109188261154d565b9050919050565b610931828261092c61158a565b611592565b5050565b600073ffffffffffffffffffffffffffffffffffffffff168273ffffffffffffffffffffffffffffffffffffffff16036109a75760006040517f64a0ae9200000000000000000000000000000000000000000000000000000000815260040161099e9190612a2e565b60405180910390fd5b60006109bb83836109b661158a565b6115a4565b90508373ffffffffffffffffffffffffffffffffffffffff168173ffffffffffffffffffffffffffffffffffffffff1614610a31578382826040517f64283d7b000000000000000000000000000000000000000000000000000000008152600401610a28939291906131c9565b60405180910390fd5b50505050565b600060076000838152602001908152602001600020600101549050919050565b610a6082610a37565b610a69816117be565b610a7383836117d2565b50505050565b610a8161158a565b73ffffffffffffffffffffffffffffffffffffffff168173ffffffffffffffffffffffffffffffffffffffff1614610ae5576040517f6697b23200000000000000000000000000000000000000000000000000000000815260040160405180910390fd5b610aef82826118c4565b505050565b610b0f83838360405180602001604052806000815250610ec5565b505050565b610b1d816119b7565b600073ffffffffffffffffffffffffffffffffffffffff16610b3e826119ce565b73ffffffffffffffffffffffffffffffffffffffff1603610b94576040517f08c379a0000000000000000000000000000000000000000000000000000000008152600401610b8b9061324c565b60405180910390fd5b60096000815480929190610ba79061329b565b919050555050565b600b60009054906101000a900473ffffffffffffffffffffffffffffffffffffffff1681565b6000610be0826114c5565b9050919050565b60008073ffffffffffffffffffffffffffffffffffffffff168273ffffffffffffffffffffffffffffffffffffffff1603610c5a5760006040517f89c62b64000000000000000000000000000000000000000000000000000000008152600401610c519190612a2e565b60405180910390fd5b600360008373ffffffffffffffffffffffffffffffffffffffff1673ffffffffffffffffffffffffffffffffffffffff168152602001908152602001600020549050919050565b600e5481565b60095481565b600a60009054906101000a900473ffffffffffffffffffffffffffffffffffffffff1681565b600073ffffffffffffffffffffffffffffffffffffffff16610cf4856119ce565b73ffffffffffffffffffffffffffffffffffffffff1603610d4a576040517f08c379a0000000000000000000000000000000000000000000000000000000008152600401610d4190613310565b60405180910390fd5b604051806060016040528084815260200183815260200182815250600c60008681526020019081526020016000206000820151816000019081610d8d91906134d2565b50602082015181600101556040820151816002015590505050505050565b60006007600084815260200190815260200160002060000160008373ffffffffffffffffffffffffffffffffffffffff1673ffffffffffffffffffffffffffffffffffffffff16815260200190815260200160002060009054906101000a900460ff16905092915050565b606060018054610e2590613198565b80601f0160208091040260200160405190810160405280929190818152602001828054610e5190613198565b8015610e9e5780601f10610e7357610100808354040283529160200191610e9e565b820191906000526020600020905b815481529060010190602001808311610e8157829003601f168201915b5050505050905090565b6000801b81565b610ec1610eba61158a565b8383611a0b565b5050565b610ed0848484610935565b610ee4610edb61158a565b85858585611b7a565b50505050565b600c602052806000526040600020600091509050806000018054610f0d90613198565b80601f0160208091040260200160405190810160405280929190818152602001828054610f3990613198565b8015610f865780601f10610f5b57610100808354040283529160200191610f86565b820191906000526020600020905b815481529060010190602001808311610f6957829003601f168201915b5050505050908060010154908060020154905083565b6060610fa782611d2b565b9050919050565b7f9f2df0fed2c77648de5860a4cc508cd0818c85b8b8a1ab4ceeef8d981c8956a6610fd8816117be565b600060086000815480929190610fed906135a4565b919050559050610ffd8482611e3e565b6110078184611e5c565b80600e81905550600160095461101d91906135ec565b60098190555050505050565b7f9f2df0fed2c77648de5860a4cc508cd0818c85b8b8a1ab4ceeef8d981c8956a681565b61105682610a37565b61105f816117be565b61106983836118c4565b50505050565b6110776127be565b6000600c60008481526020019081526020016000206040518060600160405290816000820180546110a790613198565b80601f01602080910402602001604051908101604052809291908181526020018280546110d390613198565b80156111205780601f106110f557610100808354040283529160200191611120565b820191906000526020600020905b81548152906001019060200180831161110357829003601f168201915b5050505050815260200160018201548152602001600282015481525050905080915050919050565b6000600c6000868152602001908152602001600020600001805461116b90613198565b9050146111ad576040517f08c379a00000000000000000000000000000000000000000000000000000000081526004016111a49061366c565b60405180910390fd5b604051806060016040528084815260200183815260200182815250600c600086815260200190815260200160002060008201518160000190816111f091906134d2565b50602082015181600101556040820151816002015590505050505050565b6000600560008473ffffffffffffffffffffffffffffffffffffffff1673ffffffffffffffffffffffffffffffffffffffff16815260200190815260200160002060008373ffffffffffffffffffffffffffffffffffffffff1673ffffffffffffffffffffffffffffffffffffffff16815260200190815260200160002060009054906101000a900460ff16905092915050565b6000600954905090565b6000600c60008381526020019081526020016000206002015490508034101561130a576040517f08c379a0000000000000000000000000000000000000000000000000000000008152600401611301906136fe565b60405180910390fd5b60007390f79bf6eb2c4f870365e785982e1f101e93b9069050600b60009054906101000a900473ffffffffffffffffffffffffffffffffffffffff1673ffffffffffffffffffffffffffffffffffffffff166323b872dd3383346040518463ffffffff1660e01b81526004016113829392919061371e565b6020604051808303816000875af11580156113a1573d6000803e3d6000fd5b505050506040513d601f19601f820116820180604052508101906113c5919061376a565b611404576040517f08c379a00000000000000000000000000000000000000000000000000000000081526004016113fb906137e3565b60405180910390fd5b34600d6000858152602001908152602001600020600082825461142791906135ec565b92505081905550505050565b600d6020528060005260406000206000915090505481565b60007f7965db0b000000000000000000000000000000000000000000000000000000007bffffffffffffffffffffffffffffffffffffffffffffffffffffffff1916827bffffffffffffffffffffffffffffffffffffffffffffffffffffffff191614806114be57506114bd82611eb8565b5b9050919050565b6000806114d1836119ce565b9050600073ffffffffffffffffffffffffffffffffffffffff168173ffffffffffffffffffffffffffffffffffffffff160361154457826040517f7e27328900000000000000000000000000000000000000000000000000000000815260040161153b91906127f8565b60405180910390fd5b80915050919050565b60006004600083815260200190815260200160002060009054906101000a900473ffffffffffffffffffffffffffffffffffffffff169050919050565b600033905090565b61159f8383836001611f19565b505050565b6000806115b0846119ce565b9050600073ffffffffffffffffffffffffffffffffffffffff168373ffffffffffffffffffffffffffffffffffffffff16146115f2576115f18184866120de565b5b600073ffffffffffffffffffffffffffffffffffffffff168173ffffffffffffffffffffffffffffffffffffffff161461168357611634600085600080611f19565b6001600360008373ffffffffffffffffffffffffffffffffffffffff1673ffffffffffffffffffffffffffffffffffffffff168152602001908152602001600020600082825403925050819055505b600073ffffffffffffffffffffffffffffffffffffffff168573ffffffffffffffffffffffffffffffffffffffff1614611706576001600360008773ffffffffffffffffffffffffffffffffffffffff1673ffffffffffffffffffffffffffffffffffffffff168152602001908152602001600020600082825401925050819055505b846002600086815260200190815260200160002060006101000a81548173ffffffffffffffffffffffffffffffffffffffff021916908373ffffffffffffffffffffffffffffffffffffffff160217905550838573ffffffffffffffffffffffffffffffffffffffff168273ffffffffffffffffffffffffffffffffffffffff167fddf252ad1be2c89b69c2b068fc378daa952ba7f163c4a11628f55a4df523b3ef60405160405180910390a4809150509392505050565b6117cf816117ca61158a565b6121a2565b50565b60006117de8383610dab565b6118b95760016007600085815260200190815260200160002060000160008473ffffffffffffffffffffffffffffffffffffffff1673ffffffffffffffffffffffffffffffffffffffff16815260200190815260200160002060006101000a81548160ff02191690831515021790555061185661158a565b73ffffffffffffffffffffffffffffffffffffffff168273ffffffffffffffffffffffffffffffffffffffff16847f2f8788117e7eff1d82e926ec794901d17c78024a50270940304540a733656f0d60405160405180910390a4600190506118be565b600090505b92915050565b60006118d08383610dab565b156119ac5760006007600085815260200190815260200160002060000160008473ffffffffffffffffffffffffffffffffffffffff1673ffffffffffffffffffffffffffffffffffffffff16815260200190815260200160002060006101000a81548160ff02191690831515021790555061194961158a565b73ffffffffffffffffffffffffffffffffffffffff168273ffffffffffffffffffffffffffffffffffffffff16847ff6391f5c32d9c69d2a47ea670b442974b53935d1edc7fd64eb21e047a839171b60405160405180910390a4600190506119b1565b600090505b92915050565b6119ca6000826119c561158a565b6115a4565b5050565b60006002600083815260200190815260200160002060009054906101000a900473ffffffffffffffffffffffffffffffffffffffff169050919050565b600073ffffffffffffffffffffffffffffffffffffffff168273ffffffffffffffffffffffffffffffffffffffff1603611a7c57816040517f5b08ba18000000000000000000000000000000000000000000000000000000008152600401611a739190612a2e565b60405180910390fd5b80600560008573ffffffffffffffffffffffffffffffffffffffff1673ffffffffffffffffffffffffffffffffffffffff16815260200190815260200160002060008473ffffffffffffffffffffffffffffffffffffffff1673ffffffffffffffffffffffffffffffffffffffff16815260200190815260200160002060006101000a81548160ff0219169083151502179055508173ffffffffffffffffffffffffffffffffffffffff168373ffffffffffffffffffffffffffffffffffffffff167f17307eab39ab6107e8899845ad3d59bd9653f200f220920489ca2b5937696c3183604051611b6d91906128c7565b60405180910390a3505050565b60008373ffffffffffffffffffffffffffffffffffffffff163b1115611d24578273ffffffffffffffffffffffffffffffffffffffff1663150b7a02868685856040518563ffffffff1660e01b8152600401611bd99493929190613858565b6020604051808303816000875af1925050508015611c1557506040513d601f19601f82011682018060405250810190611c1291906138b9565b60015b611c99573d8060008114611c45576040519150601f19603f3d011682016040523d82523d6000602084013e611c4a565b606091505b506000815103611c9157836040517f64a0ae92000000000000000000000000000000000000000000000000000000008152600401611c889190612a2e565b60405180910390fd5b805181602001fd5b63150b7a0260e01b7bffffffffffffffffffffffffffffffffffffffffffffffffffffffff1916817bffffffffffffffffffffffffffffffffffffffffffffffffffffffff191614611d2257836040517f64a0ae92000000000000000000000000000000000000000000000000000000008152600401611d199190612a2e565b60405180910390fd5b505b5050505050565b6060611d36826114c5565b506000600660008481526020019081526020016000208054611d5790613198565b80601f0160208091040260200160405190810160405280929190818152602001828054611d8390613198565b8015611dd05780601f10611da557610100808354040283529160200191611dd0565b820191906000526020600020905b815481529060010190602001808311611db357829003601f168201915b505050505090506000611de16121f3565b90506000815103611df6578192505050611e39565b600082511115611e2b578082604051602001611e13929190613922565b60405160208183030381529060405292505050611e39565b611e348461220a565b925050505b919050565b611e58828260405180602001604052806000815250612273565b5050565b80600660008481526020019081526020016000209081611e7c91906134d2565b507ff8e1a15aba9398e019f0b49df1a4fde98ee17ae345cb5f6b5e2c27f5033e8ce782604051611eac91906127f8565b60405180910390a15050565b6000634906490660e01b7bffffffffffffffffffffffffffffffffffffffffffffffffffffffff1916827bffffffffffffffffffffffffffffffffffffffffffffffffffffffff19161480611f125750611f1182612297565b5b9050919050565b8080611f525750600073ffffffffffffffffffffffffffffffffffffffff168273ffffffffffffffffffffffffffffffffffffffff1614155b15612086576000611f62846114c5565b9050600073ffffffffffffffffffffffffffffffffffffffff168373ffffffffffffffffffffffffffffffffffffffff1614158015611fcd57508273ffffffffffffffffffffffffffffffffffffffff168173ffffffffffffffffffffffffffffffffffffffff1614155b8015611fe05750611fde818461120e565b155b1561202257826040517fa9fbf51f0000000000000000000000000000000000000000000000000000000081526004016120199190612a2e565b60405180910390fd5b811561208457838573ffffffffffffffffffffffffffffffffffffffff168273ffffffffffffffffffffffffffffffffffffffff167f8c5be1e5ebec7d5bd14f71427d1e84f3dd0314c0f7b2291e5b200ac8c7c3b92560405160405180910390a45b505b836004600085815260200190815260200160002060006101000a81548173ffffffffffffffffffffffffffffffffffffffff021916908373ffffffffffffffffffffffffffffffffffffffff16021790555050505050565b6120e9838383612379565b61219d57600073ffffffffffffffffffffffffffffffffffffffff168373ffffffffffffffffffffffffffffffffffffffff160361215e57806040517f7e27328900000000000000000000000000000000000000000000000000000000815260040161215591906127f8565b60405180910390fd5b81816040517f177e802f000000000000000000000000000000000000000000000000000000008152600401612194929190613946565b60405180910390fd5b505050565b6121ac8282610dab565b6121ef5780826040517fe2517d3f0000000000000000000000000000000000000000000000000000000081526004016121e692919061396f565b60405180910390fd5b5050565b606060405180602001604052806000815250905090565b6060612215826114c5565b5060006122206121f3565b90506000815111612240576040518060200160405280600081525061226b565b8061224a8461243a565b60405160200161225b929190613922565b6040516020818303038152906040525b915050919050565b61227d8383612508565b61229261228861158a565b6000858585611b7a565b505050565b60007f80ac58cd000000000000000000000000000000000000000000000000000000007bffffffffffffffffffffffffffffffffffffffffffffffffffffffff1916827bffffffffffffffffffffffffffffffffffffffffffffffffffffffff1916148061236257507f5b5e139f000000000000000000000000000000000000000000000000000000007bffffffffffffffffffffffffffffffffffffffffffffffffffffffff1916827bffffffffffffffffffffffffffffffffffffffffffffffffffffffff1916145b80612372575061237182612601565b5b9050919050565b60008073ffffffffffffffffffffffffffffffffffffffff168373ffffffffffffffffffffffffffffffffffffffff161415801561243157508273ffffffffffffffffffffffffffffffffffffffff168473ffffffffffffffffffffffffffffffffffffffff1614806123f257506123f1848461120e565b5b8061243057508273ffffffffffffffffffffffffffffffffffffffff166124188361154d565b73ffffffffffffffffffffffffffffffffffffffff16145b5b90509392505050565b6060600060016124498461266b565b01905060008167ffffffffffffffff81111561246857612467612c86565b5b6040519080825280601f01601f19166020018201604052801561249a5781602001600182028036833780820191505090505b509050600082602001820190505b6001156124fd578080600190039150507f3031323334353637383961626364656600000000000000000000000000000000600a86061a8153600a85816124f1576124f0613998565b5b049450600085036124a8575b819350505050919050565b600073ffffffffffffffffffffffffffffffffffffffff168273ffffffffffffffffffffffffffffffffffffffff160361257a5760006040517f64a0ae920000000000000000000000000000000000000000000000000000000081526004016125719190612a2e565b60405180910390fd5b6000612588838360006115a4565b9050600073ffffffffffffffffffffffffffffffffffffffff168173ffffffffffffffffffffffffffffffffffffffff16146125fc5760006040517f73c6ac6e0000000000000000000000000000000000000000000000000000000081526004016125f39190612a2e565b60405180910390fd5b505050565b60007f01ffc9a7000000000000000000000000000000000000000000000000000000007bffffffffffffffffffffffffffffffffffffffffffffffffffffffff1916827bffffffffffffffffffffffffffffffffffffffffffffffffffffffff1916149050919050565b600080600090507a184f03e93ff9f4daa797ed6e38ed64bf6a1f01000000000000000083106126c9577a184f03e93ff9f4daa797ed6e38ed64bf6a1f01000000000000000083816126bf576126be613998565b5b0492506040810190505b6d04ee2d6d415b85acef81000000008310612706576d04ee2d6d415b85acef810000000083816126fc576126fb613998565b5b0492506020810190505b662386f26fc10000831061273557662386f26fc10000838161272b5761272a613998565b5b0492506010810190505b6305f5e100831061275e576305f5e100838161275457612753613998565b5b0492506008810190505b612710831061278357612710838161277957612778613998565b5b0492506004810190505b606483106127a6576064838161279c5761279b613998565b5b0492506002810190505b600a83106127b5576001810190505b80915050919050565b60405180606001604052806060815260200160008152602001600081525090565b6000819050919050565b6127f2816127df565b82525050565b600060208201905061280d60008301846127e9565b92915050565b6000604051905090565b600080fd5b600080fd5b60007fffffffff0000000000000000000000000000000000000000000000000000000082169050919050565b61285c81612827565b811461286757600080fd5b50565b60008135905061287981612853565b92915050565b6000602082840312156128955761289461281d565b5b60006128a38482850161286a565b91505092915050565b60008115159050919050565b6128c1816128ac565b82525050565b60006020820190506128dc60008301846128b8565b92915050565b600081519050919050565b600082825260208201905092915050565b60005b8381101561291c578082015181840152602081019050612901565b60008484015250505050565b6000601f19601f8301169050919050565b6000612944826128e2565b61294e81856128ed565b935061295e8185602086016128fe565b61296781612928565b840191505092915050565b6000602082019050818103600083015261298c8184612939565b905092915050565b61299d816127df565b81146129a857600080fd5b50565b6000813590506129ba81612994565b92915050565b6000602082840312156129d6576129d561281d565b5b60006129e4848285016129ab565b91505092915050565b600073ffffffffffffffffffffffffffffffffffffffff82169050919050565b6000612a18826129ed565b9050919050565b612a2881612a0d565b82525050565b6000602082019050612a436000830184612a1f565b92915050565b612a5281612a0d565b8114612a5d57600080fd5b50565b600081359050612a6f81612a49565b92915050565b60008060408385031215612a8c57612a8b61281d565b5b6000612a9a85828601612a60565b9250506020612aab858286016129ab565b9150509250929050565b600080600060608486031215612ace57612acd61281d565b5b6000612adc86828701612a60565b9350506020612aed86828701612a60565b9250506040612afe868287016129ab565b9150509250925092565b6000819050919050565b612b1b81612b08565b8114612b2657600080fd5b50565b600081359050612b3881612b12565b92915050565b600060208284031215612b5457612b5361281d565b5b6000612b6284828501612b29565b91505092915050565b612b7481612b08565b82525050565b6000602082019050612b8f6000830184612b6b565b92915050565b60008060408385031215612bac57612bab61281d565b5b6000612bba85828601612b29565b9250506020612bcb85828601612a60565b9150509250929050565b6000819050919050565b6000612bfa612bf5612bf0846129ed565b612bd5565b6129ed565b9050919050565b6000612c0c82612bdf565b9050919050565b6000612c1e82612c01565b9050919050565b612c2e81612c13565b82525050565b6000602082019050612c496000830184612c25565b92915050565b600060208284031215612c6557612c6461281d565b5b6000612c7384828501612a60565b91505092915050565b600080fd5b600080fd5b7f4e487b7100000000000000000000000000000000000000000000000000000000600052604160045260246000fd5b612cbe82612928565b810181811067ffffffffffffffff82111715612cdd57612cdc612c86565b5b80604052505050565b6000612cf0612813565b9050612cfc8282612cb5565b919050565b600067ffffffffffffffff821115612d1c57612d1b612c86565b5b612d2582612928565b9050602081019050919050565b82818337600083830152505050565b6000612d54612d4f84612d01565b612ce6565b905082815260208101848484011115612d7057612d6f612c81565b5b612d7b848285612d32565b509392505050565b600082601f830112612d9857612d97612c7c565b5b8135612da8848260208601612d41565b91505092915050565b60008060008060808587031215612dcb57612dca61281d565b5b6000612dd9878288016129ab565b945050602085013567ffffffffffffffff811115612dfa57612df9612822565b5b612e0687828801612d83565b9350506040612e17878288016129ab565b9250506060612e28878288016129ab565b91505092959194509250565b612e3d816128ac565b8114612e4857600080fd5b50565b600081359050612e5a81612e34565b92915050565b60008060408385031215612e7757612e7661281d565b5b6000612e8585828601612a60565b9250506020612e9685828601612e4b565b9150509250929050565b600067ffffffffffffffff821115612ebb57612eba612c86565b5b612ec482612928565b9050602081019050919050565b6000612ee4612edf84612ea0565b612ce6565b905082815260208101848484011115612f0057612eff612c81565b5b612f0b848285612d32565b509392505050565b600082601f830112612f2857612f27612c7c565b5b8135612f38848260208601612ed1565b91505092915050565b60008060008060808587031215612f5b57612f5a61281d565b5b6000612f6987828801612a60565b9450506020612f7a87828801612a60565b9350506040612f8b878288016129ab565b925050606085013567ffffffffffffffff811115612fac57612fab612822565b5b612fb887828801612f13565b91505092959194509250565b60006060820190508181036000830152612fde8186612939565b9050612fed60208301856127e9565b612ffa60408301846127e9565b949350505050565b600080604083850312156130195761301861281d565b5b600061302785828601612a60565b925050602083013567ffffffffffffffff81111561304857613047612822565b5b61305485828601612d83565b9150509250929050565b600082825260208201905092915050565b600061307a826128e2565b613084818561305e565b93506130948185602086016128fe565b61309d81612928565b840191505092915050565b6130b1816127df565b82525050565b600060608301600083015184820360008601526130d4828261306f565b91505060208301516130e960208601826130a8565b5060408301516130fc60408601826130a8565b508091505092915050565b6000602082019050818103600083015261312181846130b7565b905092915050565b600080604083850312156131405761313f61281d565b5b600061314e85828601612a60565b925050602061315f85828601612a60565b9150509250929050565b7f4e487b7100000000000000000000000000000000000000000000000000000000600052602260045260246000fd5b600060028204905060018216806131b057607f821691505b6020821081036131c3576131c2613169565b5b50919050565b60006060820190506131de6000830186612a1f565b6131eb60208301856127e9565b6131f86040830184612a1f565b949350505050565b7f546f6b656e20646f6573206e6f74206578697374000000000000000000000000600082015250565b60006132366014836128ed565b915061324182613200565b602082019050919050565b6000602082019050818103600083015261326581613229565b9050919050565b7f4e487b7100000000000000000000000000000000000000000000000000000000600052601160045260246000fd5b60006132a6826127df565b9150600082036132b9576132b861326c565b5b600182039050919050565b7f43617420646f6573206e6f742065786973740000000000000000000000000000600082015250565b60006132fa6012836128ed565b9150613305826132c4565b602082019050919050565b60006020820190508181036000830152613329816132ed565b9050919050565b60008190508160005260206000209050919050565b60006020601f8301049050919050565b600082821b905092915050565b6000600883026133927fffffffffffffffffffffffffffffffffffffffffffffffffffffffffffffffff82613355565b61339c8683613355565b95508019841693508086168417925050509392505050565b60006133cf6133ca6133c5846127df565b612bd5565b6127df565b9050919050565b6000819050919050565b6133e9836133b4565b6133fd6133f5826133d6565b848454613362565b825550505050565b600090565b613412613405565b61341d8184846133e0565b505050565b5b818110156134415761343660008261340a565b600181019050613423565b5050565b601f8211156134865761345781613330565b61346084613345565b8101602085101561346f578190505b61348361347b85613345565b830182613422565b50505b505050565b600082821c905092915050565b60006134a96000198460080261348b565b1980831691505092915050565b60006134c28383613498565b9150826002028217905092915050565b6134db826128e2565b67ffffffffffffffff8111156134f4576134f3612c86565b5b6134fe8254613198565b613509828285613445565b600060209050601f83116001811461353c576000841561352a578287015190505b61353485826134b6565b86555061359c565b601f19841661354a86613330565b60005b828110156135725784890151825560018201915060208501945060208101905061354d565b8683101561358f578489015161358b601f891682613498565b8355505b6001600288020188555050505b505050505050565b60006135af826127df565b91507fffffffffffffffffffffffffffffffffffffffffffffffffffffffffffffffff82036135e1576135e061326c565b5b600182019050919050565b60006135f7826127df565b9150613602836127df565b925082820190508082111561361a5761361961326c565b5b92915050565b7f4361742070726f706572747920616c726561647920696e697469616c697a6564600082015250565b60006136566020836128ed565b915061366182613620565b602082019050919050565b6000602082019050818103600083015261368581613649565b9050919050565b7f446f6e6174696f6e20616d6f756e742069732062656c6f7720746865206d696e60008201527f696d756d20726571756972656400000000000000000000000000000000000000602082015250565b60006136e8602d836128ed565b91506136f38261368c565b604082019050919050565b60006020820190508181036000830152613717816136db565b9050919050565b60006060820190506137336000830186612a1f565b6137406020830185612a1f565b61374d60408301846127e9565b949350505050565b60008151905061376481612e34565b92915050565b6000602082840312156137805761377f61281d565b5b600061378e84828501613755565b91505092915050565b7f546f6b656e207472616e73666572206661696c65640000000000000000000000600082015250565b60006137cd6015836128ed565b91506137d882613797565b602082019050919050565b600060208201905081810360008301526137fc816137c0565b9050919050565b600081519050919050565b600082825260208201905092915050565b600061382a82613803565b613834818561380e565b93506138448185602086016128fe565b61384d81612928565b840191505092915050565b600060808201905061386d6000830187612a1f565b61387a6020830186612a1f565b61388760408301856127e9565b8181036060830152613899818461381f565b905095945050505050565b6000815190506138b381612853565b92915050565b6000602082840312156138cf576138ce61281d565b5b60006138dd848285016138a4565b91505092915050565b600081905092915050565b60006138fc826128e2565b61390681856138e6565b93506139168185602086016128fe565b80840191505092915050565b600061392e82856138f1565b915061393a82846138f1565b91508190509392505050565b600060408201905061395b6000830185612a1f565b61396860208301846127e9565b9392505050565b60006040820190506139846000830185612a1f565b6139916020830184612b6b565b9392505050565b7f4e487b7100000000000000000000000000000000000000000000000000000000600052601260045260246000fdfea2646970667358221220e41e1ed8b33b0de66f48e3bd580f822a86c6bc7f3b11c71bc96b1f6f568ceb3a64736f6c634300081c0033",
  "linkReferences": {},
  "deployedLinkReferences": {}
}