{
  "_format": "hh-sol-artifact-1",
  "contractName": "kokoCatNFT",
  "sourceName": "contracts/catNFT/kokoCatNFT.sol",
  "abi": [
    {
      "inputs": [
        {
          "internalType": "address",
          "name": "defaultAdmin",
          "type": "address"
        },
        {
          "internalType": "address",
          "name": "minter",
          "type": "address"
        },
        {
          "internalType": "address",
          "name": "_kokoTokenAddress",
          "type": "address"
        }
      ],
      "stateMutability": "nonpayable",
      "type": "constructor"
    },
    {
      "inputs": [],
      "name": "AccessControlBadConfirmation",
      "type": "error"
    },
    {
      "inputs": [
        {
          "internalType": "address",
          "name": "account",
          "type": "address"
        },
        {
          "internalType": "bytes32",
          "name": "neededRole",
          "type": "bytes32"
        }
      ],
      "name": "AccessControlUnauthorizedAccount",
      "type": "error"
    },
    {
      "inputs": [
        {
          "internalType": "address",
          "name": "sender",
          "type": "address"
        },
        {
          "internalType": "uint256",
          "name": "tokenId",
          "type": "uint256"
        },
        {
          "internalType": "address",
          "name": "owner",
          "type": "address"
        }
      ],
      "name": "ERC721IncorrectOwner",
      "type": "error"
    },
    {
      "inputs": [
        {
          "internalType": "address",
          "name": "operator",
          "type": "address"
        },
        {
          "internalType": "uint256",
          "name": "tokenId",
          "type": "uint256"
        }
      ],
      "name": "ERC721InsufficientApproval",
      "type": "error"
    },
    {
      "inputs": [
        {
          "internalType": "address",
          "name": "approver",
          "type": "address"
        }
      ],
      "name": "ERC721InvalidApprover",
      "type": "error"
    },
    {
      "inputs": [
        {
          "internalType": "address",
          "name": "operator",
          "type": "address"
        }
      ],
      "name": "ERC721InvalidOperator",
      "type": "error"
    },
    {
      "inputs": [
        {
          "internalType": "address",
          "name": "owner",
          "type": "address"
        }
      ],
      "name": "ERC721InvalidOwner",
      "type": "error"
    },
    {
      "inputs": [
        {
          "internalType": "address",
          "name": "receiver",
          "type": "address"
        }
      ],
      "name": "ERC721InvalidReceiver",
      "type": "error"
    },
    {
      "inputs": [
        {
          "internalType": "address",
          "name": "sender",
          "type": "address"
        }
      ],
      "name": "ERC721InvalidSender",
      "type": "error"
    },
    {
      "inputs": [
        {
          "internalType": "uint256",
          "name": "tokenId",
          "type": "uint256"
        }
      ],
      "name": "ERC721NonexistentToken",
      "type": "error"
    },
    {
      "anonymous": false,
      "inputs": [
        {
          "indexed": true,
          "internalType": "address",
          "name": "owner",
          "type": "address"
        },
        {
          "indexed": true,
          "internalType": "address",
          "name": "approved",
          "type": "address"
        },
        {
          "indexed": true,
          "internalType": "uint256",
          "name": "tokenId",
          "type": "uint256"
        }
      ],
      "name": "Approval",
      "type": "event"
    },
    {
      "anonymous": false,
      "inputs": [
        {
          "indexed": true,
          "internalType": "address",
          "name": "owner",
          "type": "address"
        },
        {
          "indexed": true,
          "internalType": "address",
          "name": "operator",
          "type": "address"
        },
        {
          "indexed": false,
          "internalType": "bool",
          "name": "approved",
          "type": "bool"
        }
      ],
      "name": "ApprovalForAll",
      "type": "event"
    },
    {
      "anonymous": false,
      "inputs": [
        {
          "indexed": false,
          "internalType": "uint256",
          "name": "_fromTokenId",
          "type": "uint256"
        },
        {
          "indexed": false,
          "internalType": "uint256",
          "name": "_toTokenId",
          "type": "uint256"
        }
      ],
      "name": "BatchMetadataUpdate",
      "type": "event"
    },
    {
      "anonymous": false,
      "inputs": [
        {
          "indexed": false,
          "internalType": "uint256",
          "name": "_tokenId",
          "type": "uint256"
        }
      ],
      "name": "MetadataUpdate",
      "type": "event"
    },
    {
      "anonymous": false,
      "inputs": [
        {
          "indexed": true,
          "internalType": "bytes32",
          "name": "role",
          "type": "bytes32"
        },
        {
          "indexed": true,
          "internalType": "bytes32",
          "name": "previousAdminRole",
          "type": "bytes32"
        },
        {
          "indexed": true,
          "internalType": "bytes32",
          "name": "newAdminRole",
          "type": "bytes32"
        }
      ],
      "name": "RoleAdminChanged",
      "type": "event"
    },
    {
      "anonymous": false,
      "inputs": [
        {
          "indexed": true,
          "internalType": "bytes32",
          "name": "role",
          "type": "bytes32"
        },
        {
          "indexed": true,
          "internalType": "address",
          "name": "account",
          "type": "address"
        },
        {
          "indexed": true,
          "internalType": "address",
          "name": "sender",
          "type": "address"
        }
      ],
      "name": "RoleGranted",
      "type": "event"
    },
    {
      "anonymous": false,
      "inputs": [
        {
          "indexed": true,
          "internalType": "bytes32",
          "name": "role",
          "type": "bytes32"
        },
        {
          "indexed": true,
          "internalType": "address",
          "name": "account",
          "type": "address"
        },
        {
          "indexed": true,
          "internalType": "address",
          "name": "sender",
          "type": "address"
        }
      ],
      "name": "RoleRevoked",
      "type": "event"
    },
    {
      "anonymous": false,
      "inputs": [
        {
          "indexed": true,
          "internalType": "address",
          "name": "from",
          "type": "address"
        },
        {
          "indexed": true,
          "internalType": "address",
          "name": "to",
          "type": "address"
        },
        {
          "indexed": true,
          "internalType": "uint256",
          "name": "tokenId",
          "type": "uint256"
        }
      ],
      "name": "Transfer",
      "type": "event"
    },
    {
      "inputs": [],
      "name": "DEFAULT_ADMIN_ROLE",
      "outputs": [
        {
          "internalType": "bytes32",
          "name": "",
          "type": "bytes32"
        }
      ],
      "stateMutability": "view",
      "type": "function"
    },
    {
      "inputs": [],
      "name": "MINTER_ROLE",
      "outputs": [
        {
          "internalType": "bytes32",
          "name": "",
          "type": "bytes32"
        }
      ],
      "stateMutability": "view",
      "type": "function"
    },
    {
      "inputs": [
        {
          "internalType": "address",
          "name": "to",
          "type": "address"
        },
        {
          "internalType": "uint256",
          "name": "tokenId",
          "type": "uint256"
        }
      ],
      "name": "approve",
      "outputs": [],
      "stateMutability": "nonpayable",
      "type": "function"
    },
    {
      "inputs": [
        {
          "internalType": "address",
          "name": "owner",
          "type": "address"
        }
      ],
      "name": "balanceOf",
      "outputs": [
        {
          "internalType": "uint256",
          "name": "",
          "type": "uint256"
        }
      ],
      "stateMutability": "view",
      "type": "function"
    },
    {
      "inputs": [
        {
          "internalType": "uint256",
          "name": "tokenId",
          "type": "uint256"
        }
      ],
      "name": "burn",
      "outputs": [],
      "stateMutability": "nonpayable",
      "type": "function"
    },
    {
      "inputs": [
        {
          "internalType": "uint256",
          "name": "",
          "type": "uint256"
        }
      ],
      "name": "cats",
      "outputs": [
        {
          "internalType": "string",
          "name": "name",
          "type": "string"
        },
        {
          "internalType": "uint256",
          "name": "chipId",
          "type": "uint256"
        },
        {
          "internalType": "uint256",
          "name": "donateMinValue",
          "type": "uint256"
        }
      ],
      "stateMutability": "view",
      "type": "function"
    },
    {
      "inputs": [
        {
          "internalType": "uint256",
          "name": "",
          "type": "uint256"
        }
      ],
      "name": "catsAmount",
      "outputs": [
        {
          "internalType": "uint256",
          "name": "",
          "type": "uint256"
        }
      ],
      "stateMutability": "view",
      "type": "function"
    },
    {
      "inputs": [
        {
          "internalType": "uint256",
          "name": "tokenId",
          "type": "uint256"
        },
        {
          "internalType": "uint256",
          "name": "donateValueInWei",
          "type": "uint256"
        }
      ],
      "name": "donate",
      "outputs": [],
      "stateMutability": "payable",
      "type": "function"
    },
    {
      "inputs": [
        {
          "internalType": "uint256",
          "name": "tokenId",
          "type": "uint256"
        }
      ],
      "name": "getApproved",
      "outputs": [
        {
          "internalType": "address",
          "name": "",
          "type": "address"
        }
      ],
      "stateMutability": "view",
      "type": "function"
    },
    {
      "inputs": [
        {
          "internalType": "uint256",
          "name": "tokenId",
          "type": "uint256"
        }
      ],
      "name": "getCatProperty",
      "outputs": [
        {
          "components": [
            {
              "internalType": "string",
              "name": "name",
              "type": "string"
            },
            {
              "internalType": "uint256",
              "name": "chipId",
              "type": "uint256"
            },
            {
              "internalType": "uint256",
              "name": "donateMinValue",
              "type": "uint256"
            }
          ],
          "internalType": "struct kokoCatNFT.Property",
          "name": "",
          "type": "tuple"
        }
      ],
      "stateMutability": "view",
      "type": "function"
    },
    {
      "inputs": [
        {
          "internalType": "bytes32",
          "name": "role",
          "type": "bytes32"
        }
      ],
      "name": "getRoleAdmin",
      "outputs": [
        {
          "internalType": "bytes32",
          "name": "",
          "type": "bytes32"
        }
      ],
      "stateMutability": "view",
      "type": "function"
    },
    {
      "inputs": [],
      "name": "getTokenId",
      "outputs": [
        {
          "internalType": "uint256",
          "name": "",
          "type": "uint256"
        }
      ],
      "stateMutability": "view",
      "type": "function"
    },
    {
      "inputs": [],
      "name": "getTotalMintSupply",
      "outputs": [
        {
          "internalType": "uint256",
          "name": "",
          "type": "uint256"
        }
      ],
      "stateMutability": "view",
      "type": "function"
    },
    {
      "inputs": [
        {
          "internalType": "bytes32",
          "name": "role",
          "type": "bytes32"
        },
        {
          "internalType": "address",
          "name": "account",
          "type": "address"
        }
      ],
      "name": "grantRole",
      "outputs": [],
      "stateMutability": "nonpayable",
      "type": "function"
    },
    {
      "inputs": [
        {
          "internalType": "bytes32",
          "name": "role",
          "type": "bytes32"
        },
        {
          "internalType": "address",
          "name": "account",
          "type": "address"
        }
      ],
      "name": "hasRole",
      "outputs": [
        {
          "internalType": "bool",
          "name": "",
          "type": "bool"
        }
      ],
      "stateMutability": "view",
      "type": "function"
    },
    {
      "inputs": [
        {
          "internalType": "uint256",
          "name": "tokenId",
          "type": "uint256"
        },
        {
          "internalType": "string",
          "name": "_name",
          "type": "string"
        },
        {
          "internalType": "uint256",
          "name": "_chipId",
          "type": "uint256"
        },
        {
          "internalType": "uint256",
          "name": "_donateMinValue",
          "type": "uint256"
        }
      ],
      "name": "initCatProperty",
      "outputs": [],
      "stateMutability": "nonpayable",
      "type": "function"
    },
    {
      "inputs": [
        {
          "internalType": "address",
          "name": "owner",
          "type": "address"
        },
        {
          "internalType": "address",
          "name": "operator",
          "type": "address"
        }
      ],
      "name": "isApprovedForAll",
      "outputs": [
        {
          "internalType": "bool",
          "name": "",
          "type": "bool"
        }
      ],
      "stateMutability": "view",
      "type": "function"
    },
    {
      "inputs": [],
      "name": "kokoToken",
      "outputs": [
        {
          "internalType": "contract IERC20",
          "name": "",
          "type": "address"
        }
      ],
      "stateMutability": "view",
      "type": "function"
    },
    {
      "inputs": [],
      "name": "kokoTokenAddress",
      "outputs": [
        {
          "internalType": "address",
          "name": "",
          "type": "address"
        }
      ],
      "stateMutability": "view",
      "type": "function"
    },
    {
      "inputs": [],
      "name": "name",
      "outputs": [
        {
          "internalType": "string",
          "name": "",
          "type": "string"
        }
      ],
      "stateMutability": "view",
      "type": "function"
    },
    {
      "inputs": [],
      "name": "newtokenId",
      "outputs": [
        {
          "internalType": "uint256",
          "name": "",
          "type": "uint256"
        }
      ],
      "stateMutability": "view",
      "type": "function"
    },
    {
      "inputs": [
        {
          "internalType": "uint256",
          "name": "tokenId",
          "type": "uint256"
        }
      ],
      "name": "ownerOf",
      "outputs": [
        {
          "internalType": "address",
          "name": "",
          "type": "address"
        }
      ],
      "stateMutability": "view",
      "type": "function"
    },
    {
      "inputs": [
        {
          "internalType": "bytes32",
          "name": "role",
          "type": "bytes32"
        },
        {
          "internalType": "address",
          "name": "callerConfirmation",
          "type": "address"
        }
      ],
      "name": "renounceRole",
      "outputs": [],
      "stateMutability": "nonpayable",
      "type": "function"
    },
    {
      "inputs": [
        {
          "internalType": "bytes32",
          "name": "role",
          "type": "bytes32"
        },
        {
          "internalType": "address",
          "name": "account",
          "type": "address"
        }
      ],
      "name": "revokeRole",
      "outputs": [],
      "stateMutability": "nonpayable",
      "type": "function"
    },
    {
      "inputs": [
        {
          "internalType": "address",
          "name": "to",
          "type": "address"
        },
        {
          "internalType": "string",
          "name": "uri",
          "type": "string"
        }
      ],
      "name": "safeMint",
      "outputs": [],
      "stateMutability": "nonpayable",
      "type": "function"
    },
    {
      "inputs": [
        {
          "internalType": "address",
          "name": "from",
          "type": "address"
        },
        {
          "internalType": "address",
          "name": "to",
          "type": "address"
        },
        {
          "internalType": "uint256",
          "name": "tokenId",
          "type": "uint256"
        }
      ],
      "name": "safeTransferFrom",
      "outputs": [],
      "stateMutability": "nonpayable",
      "type": "function"
    },
    {
      "inputs": [
        {
          "internalType": "address",
          "name": "from",
          "type": "address"
        },
        {
          "internalType": "address",
          "name": "to",
          "type": "address"
        },
        {
          "internalType": "uint256",
          "name": "tokenId",
          "type": "uint256"
        },
        {
          "internalType": "bytes",
          "name": "data",
          "type": "bytes"
        }
      ],
      "name": "safeTransferFrom",
      "outputs": [],
      "stateMutability": "nonpayable",
      "type": "function"
    },
    {
      "inputs": [
        {
          "internalType": "address",
          "name": "operator",
          "type": "address"
        },
        {
          "internalType": "bool",
          "name": "approved",
          "type": "bool"
        }
      ],
      "name": "setApprovalForAll",
      "outputs": [],
      "stateMutability": "nonpayable",
      "type": "function"
    },
    {
      "inputs": [
        {
          "internalType": "uint256",
          "name": "donateValueInWei",
          "type": "uint256"
        }
      ],
      "name": "setApprove",
      "outputs": [],
      "stateMutability": "nonpayable",
      "type": "function"
    },
    {
      "inputs": [
        {
          "internalType": "uint256",
          "name": "tokenId",
          "type": "uint256"
        },
        {
          "internalType": "string",
          "name": "_name",
          "type": "string"
        },
        {
          "internalType": "uint256",
          "name": "_chipId",
          "type": "uint256"
        },
        {
          "internalType": "uint256",
          "name": "_donateMinValue",
          "type": "uint256"
        }
      ],
      "name": "setCatProperty",
      "outputs": [],
      "stateMutability": "nonpayable",
      "type": "function"
    },
    {
      "inputs": [
        {
          "internalType": "bytes4",
          "name": "interfaceId",
          "type": "bytes4"
        }
      ],
      "name": "supportsInterface",
      "outputs": [
        {
          "internalType": "bool",
          "name": "",
          "type": "bool"
        }
      ],
      "stateMutability": "view",
      "type": "function"
    },
    {
      "inputs": [],
      "name": "symbol",
      "outputs": [
        {
          "internalType": "string",
          "name": "",
          "type": "string"
        }
      ],
      "stateMutability": "view",
      "type": "function"
    },
    {
      "inputs": [
        {
          "internalType": "uint256",
          "name": "tokenId",
          "type": "uint256"
        }
      ],
      "name": "tokenURI",
      "outputs": [
        {
          "internalType": "string",
          "name": "",
          "type": "string"
        }
      ],
      "stateMutability": "view",
      "type": "function"
    },
    {
      "inputs": [],
      "name": "totalMintSupply",
      "outputs": [
        {
          "internalType": "uint256",
          "name": "",
          "type": "uint256"
        }
      ],
      "stateMutability": "view",
      "type": "function"
    },
    {
      "inputs": [
        {
          "internalType": "address",
          "name": "from",
          "type": "address"
        },
        {
          "internalType": "address",
          "name": "to",
          "type": "address"
        },
        {
          "internalType": "uint256",
          "name": "tokenId",
          "type": "uint256"
        }
      ],
      "name": "transferFrom",
      "outputs": [],
      "stateMutability": "nonpayable",
      "type": "function"
    }
  ],
  "bytecode": "0x608060405234801561001057600080fd5b506040516128e33803806128e383398101604081905261002f916101ce565b6040518060400160405280600c81526020016b4361742050726f706572747960a01b815250604051806040016040528060078152602001661adbdadbd0d05560ca1b815250816000908161008391906102b0565b50600161009082826102b0565b506100a091506000905084610102565b506100cb7f9f2df0fed2c77648de5860a4cc508cd0818c85b8b8a1ab4ceeef8d981c8956a683610102565b50600a80546001600160a01b039092166001600160a01b03199283168117909155600b80549092161790555050600060095561036e565b60008281526007602090815260408083206001600160a01b038516845290915281205460ff166101a85760008381526007602090815260408083206001600160a01b03861684529091529020805460ff191660011790556101603390565b6001600160a01b0316826001600160a01b0316847f2f8788117e7eff1d82e926ec794901d17c78024a50270940304540a733656f0d60405160405180910390a45060016101ac565b5060005b92915050565b80516001600160a01b03811681146101c957600080fd5b919050565b6000806000606084860312156101e357600080fd5b6101ec846101b2565b92506101fa602085016101b2565b9150610208604085016101b2565b90509250925092565b634e487b7160e01b600052604160045260246000fd5b600181811c9082168061023b57607f821691505b60208210810361025b57634e487b7160e01b600052602260045260246000fd5b50919050565b601f8211156102ab57806000526020600020601f840160051c810160208510156102885750805b601f840160051c820191505b818110156102a85760008155600101610294565b50505b505050565b81516001600160401b038111156102c9576102c9610211565b6102dd816102d78454610227565b84610261565b6020601f82116001811461031157600083156102f95750848201515b600019600385901b1c1916600184901b1784556102a8565b600084815260208120601f198516915b828110156103415787850151825560209485019460019092019101610321565b508482101561035f5786840151600019600387901b60f8161c191681555b50505050600190811b01905550565b6125668061037d6000396000f3fe6080604052600436106102345760003560e01c80638c049b8c11610138578063d204c45e116100b0578063da18e49d1161007f578063e985e9c511610064578063e985e9c514610698578063ed1f56c0146106e1578063f71c584c146106f657600080fd5b8063da18e49d14610658578063dadfabe31461067857600080fd5b8063d204c45e146105b7578063d5391393146105d7578063d547741f1461060b578063d94baa461461062b57600080fd5b8063a217fddf11610107578063b88d4fde116100ec578063b88d4fde14610548578063c6df962d14610568578063c87b56dd1461059757600080fd5b8063a217fddf14610513578063a22cb4651461052857600080fd5b80638c049b8c146104785780638e7cef891461049857806391d14854146104b857806395d89b41146104fe57600080fd5b80632f2ff15d116101cb57806359af0f6a1161019a57806370a082311161017f57806370a082311461042c57806371a3da6e1461044c57806385e0832c1461046257600080fd5b806359af0f6a146103ec5780636352211e1461040c57600080fd5b80632f2ff15d1461036c57806336568abe1461038c57806342842e0e146103ac57806342966c68146103cc57600080fd5b8063095ea7b311610207578063095ea7b3146102e75780630cdd53f61461030957806323b872dd1461031c578063248a9ca31461033c57600080fd5b8063010a38f51461023957806301ffc9a71461025d57806306fdde031461028d578063081812fc146102af575b600080fd5b34801561024557600080fd5b50600e545b6040519081526020015b60405180910390f35b34801561026957600080fd5b5061027d610278366004611e92565b610723565b6040519015158152602001610254565b34801561029957600080fd5b506102a2610734565b6040516102549190611eff565b3480156102bb57600080fd5b506102cf6102ca366004611f12565b6107c6565b6040516001600160a01b039091168152602001610254565b3480156102f357600080fd5b50610307610302366004611f47565b6107ef565b005b610307610317366004611f71565b6107fe565b34801561032857600080fd5b50610307610337366004611f93565b610b60565b34801561034857600080fd5b5061024a610357366004611f12565b60009081526007602052604090206001015490565b34801561037857600080fd5b50610307610387366004611fd0565b610c04565b34801561039857600080fd5b506103076103a7366004611fd0565b610c29565b3480156103b857600080fd5b506103076103c7366004611f93565b610c7a565b3480156103d857600080fd5b506103076103e7366004611f12565b610c95565b3480156103f857600080fd5b50600b546102cf906001600160a01b031681565b34801561041857600080fd5b506102cf610427366004611f12565b610d1a565b34801561043857600080fd5b5061024a610447366004611ffc565b610d25565b34801561045857600080fd5b5061024a600e5481565b34801561046e57600080fd5b5061024a60095481565b34801561048457600080fd5b50600a546102cf906001600160a01b031681565b3480156104a457600080fd5b506103076104b33660046120c7565b610d86565b3480156104c457600080fd5b5061027d6104d3366004611fd0565b60009182526007602090815260408084206001600160a01b0393909316845291905290205460ff1690565b34801561050a57600080fd5b506102a2610e3e565b34801561051f57600080fd5b5061024a600081565b34801561053457600080fd5b5061030761054336600461212c565b610e4d565b34801561055457600080fd5b50610307610563366004612163565b610e58565b34801561057457600080fd5b50610588610583366004611f12565b610e70565b604051610254939291906121df565b3480156105a357600080fd5b506102a26105b2366004611f12565b610f1a565b3480156105c357600080fd5b506103076105d2366004612204565b610f25565b3480156105e357600080fd5b5061024a7f9f2df0fed2c77648de5860a4cc508cd0818c85b8b8a1ab4ceeef8d981c8956a681565b34801561061757600080fd5b50610307610626366004611fd0565b610f96565b34801561063757600080fd5b5061064b610646366004611f12565b610fbb565b6040516102549190612252565b34801561066457600080fd5b506103076106733660046120c7565b6110a4565b34801561068457600080fd5b50610307610693366004611f12565b61110c565b3480156106a457600080fd5b5061027d6106b336600461228e565b6001600160a01b03918216600090815260056020908152604080832093909416825291909152205460ff1690565b3480156106ed57600080fd5b5060095461024a565b34801561070257600080fd5b5061024a610711366004611f12565b600d6020526000908152604090205481565b600061072e82611227565b92915050565b606060008054610743906122b8565b80601f016020809104026020016040519081016040528092919081815260200182805461076f906122b8565b80156107bc5780601f10610791576101008083540402835291602001916107bc565b820191906000526020600020905b81548152906001019060200180831161079f57829003601f168201915b5050505050905090565b60006107d182611265565b506000828152600460205260409020546001600160a01b031661072e565b6107fa82823361129e565b5050565b73f39fd6e51aad88f6f4ce6ab8827279cfffb9226633146108b25760405162461bcd60e51b815260206004820152605060248201527f6b6f6b6f4361744e46542d646f6e61746528292d6d73672e73656e646572206960448201527f73206e6f7420307866333946643665353161616438384636463463653661423860648201527f3832373237396366664662393232363600000000000000000000000000000000608482015260a4015b60405180910390fd5b6000828152600c60205260409020600201548082101561093a5760405162461bcd60e51b815260206004820152602d60248201527f446f6e6174696f6e20616d6f756e742069732062656c6f7720746865206d696e60448201527f696d756d2072657175697265640000000000000000000000000000000000000060648201526084016108a9565b600b546040517fdd62ed3e00000000000000000000000000000000000000000000000000000000815233600482015230602482015260009184916001600160a01b039091169063dd62ed3e90604401602060405180830381865afa1580156109a6573d6000803e3d6000fd5b505050506040513d601f19601f820116820180604052508101906109ca91906122f2565b1015610a3e5760405162461bcd60e51b815260206004820152602360248201527f496e73756666696369656e7420616c6c6f77616e636520666f7220646f6e617460448201527f696f6e000000000000000000000000000000000000000000000000000000000060648201526084016108a9565b600b546040517f23b872dd0000000000000000000000000000000000000000000000000000000081523360048201527390f79bf6eb2c4f870365e785982e1f101e93b9066024820181905260448201869052916001600160a01b0316906323b872dd906064016020604051808303816000875af1158015610ac3573d6000803e3d6000fd5b505050506040513d601f19601f82011682018060405250810190610ae7919061230b565b915081610b365760405162461bcd60e51b815260206004820152601560248201527f546f6b656e207472616e73666572206661696c6564000000000000000000000060448201526064016108a9565b6000858152600d602052604081208054869290610b5490849061233e565b90915550505050505050565b6001600160a01b038216610b8a57604051633250574960e11b8152600060048201526024016108a9565b6000610b978383336112ab565b9050836001600160a01b0316816001600160a01b031614610bfe576040517f64283d7b0000000000000000000000000000000000000000000000000000000081526001600160a01b03808616600483015260248201849052821660448201526064016108a9565b50505050565b600082815260076020526040902060010154610c1f816113b1565b610bfe83836113be565b6001600160a01b0381163314610c6b576040517f6697b23200000000000000000000000000000000000000000000000000000000815260040160405180910390fd5b610c75828261146c565b505050565b610c7583838360405180602001604052806000815250610e58565b610c9e816114f3565b6000818152600260205260409020546001600160a01b0316610d025760405162461bcd60e51b815260206004820152601460248201527f546f6b656e20646f6573206e6f7420657869737400000000000000000000000060448201526064016108a9565b60098054906000610d1283612351565b919050555050565b600061072e82611265565b60006001600160a01b038216610d6a576040517f89c62b64000000000000000000000000000000000000000000000000000000008152600060048201526024016108a9565b506001600160a01b031660009081526003602052604090205490565b6000848152600260205260409020546001600160a01b0316610dea5760405162461bcd60e51b815260206004820152601260248201527f43617420646f6573206e6f74206578697374000000000000000000000000000060448201526064016108a9565b6040805160608101825284815260208082018590528183018490526000878152600c9091529190912081518190610e2190826123af565b506020820151600182015560409091015160029091015550505050565b606060018054610743906122b8565b6107fa3383836114ff565b610e63848484610b60565b610bfe33858585856115b7565b600c60205260009081526040902080548190610e8b906122b8565b80601f0160208091040260200160405190810160405280929190818152602001828054610eb7906122b8565b8015610f045780601f10610ed957610100808354040283529160200191610f04565b820191906000526020600020905b815481529060010190602001808311610ee757829003601f168201915b5050505050908060010154908060020154905083565b606061072e826116e2565b7f9f2df0fed2c77648de5860a4cc508cd0818c85b8b8a1ab4ceeef8d981c8956a6610f4f816113b1565b6008805460009182610f608361246e565b919050559050610f7084826117f3565b610f7a818461180d565b600e819055600954610f8d90600161233e565b60095550505050565b600082815260076020526040902060010154610fb1816113b1565b610bfe838361146c565b610fdf60405180606001604052806060815260200160008152602001600081525090565b6000828152600c6020526040808220815160608101909252805482908290611006906122b8565b80601f0160208091040260200160405190810160405280929190818152602001828054611032906122b8565b801561107f5780601f106110545761010080835404028352916020019161107f565b820191906000526020600020905b81548152906001019060200180831161106257829003601f168201915b5050509183525050600182015460208201526002909101546040909101529392505050565b6000848152600c6020526040902080546110bd906122b8565b159050610dea5760405162461bcd60e51b815260206004820181905260248201527f4361742070726f706572747920616c726561647920696e697469616c697a656460448201526064016108a9565b600a54604051306024820152604481018390526000916001600160a01b03169060640160408051601f198184030181529181526020820180517bffffffffffffffffffffffffffffffffffffffffffffffffffffffff167f095ea7b300000000000000000000000000000000000000000000000000000000179052516111929190612487565b6000604051808303816000865af19150503d80600081146111cf576040519150601f19603f3d011682016040523d82523d6000602084013e6111d4565b606091505b505080915050806107fa5760405162461bcd60e51b815260206004820152601460248201527f546f6b656e20617070726f7665206661696c656400000000000000000000000060448201526064016108a9565b60006001600160e01b031982167f7965db0b00000000000000000000000000000000000000000000000000000000148061072e575061072e8261185d565b6000818152600260205260408120546001600160a01b03168061072e57604051637e27328960e01b8152600481018490526024016108a9565b610c75838383600161189b565b6000828152600260205260408120546001600160a01b03908116908316156112d8576112d88184866119e6565b6001600160a01b03811615611316576112f560008560008061189b565b6001600160a01b038116600090815260036020526040902080546000190190555b6001600160a01b03851615611345576001600160a01b0385166000908152600360205260409020805460010190555b600084815260026020526040808220805473ffffffffffffffffffffffffffffffffffffffff19166001600160a01b0389811691821790925591518793918516917fddf252ad1be2c89b69c2b068fc378daa952ba7f163c4a11628f55a4df523b3ef91a4949350505050565b6113bb8133611a63565b50565b60008281526007602090815260408083206001600160a01b038516845290915281205460ff166114645760008381526007602090815260408083206001600160a01b03861684529091529020805460ff1916600117905561141c3390565b6001600160a01b0316826001600160a01b0316847f2f8788117e7eff1d82e926ec794901d17c78024a50270940304540a733656f0d60405160405180910390a450600161072e565b50600061072e565b60008281526007602090815260408083206001600160a01b038516845290915281205460ff16156114645760008381526007602090815260408083206001600160a01b0386168085529252808320805460ff1916905551339286917ff6391f5c32d9c69d2a47ea670b442974b53935d1edc7fd64eb21e047a839171b9190a450600161072e565b6107fa600082336112ab565b6001600160a01b03821661154a576040517f5b08ba180000000000000000000000000000000000000000000000000000000081526001600160a01b03831660048201526024016108a9565b6001600160a01b03838116600081815260056020908152604080832094871680845294825291829020805460ff191686151590811790915591519182527f17307eab39ab6107e8899845ad3d59bd9653f200f220920489ca2b5937696c31910160405180910390a3505050565b6001600160a01b0383163b156116db57604051630a85bd0160e11b81526001600160a01b0384169063150b7a02906115f99088908890879087906004016124a3565b6020604051808303816000875af1925050508015611634575060408051601f3d908101601f19168201909252611631918101906124e4565b60015b61169d573d808015611662576040519150601f19603f3d011682016040523d82523d6000602084013e611667565b606091505b50805160000361169557604051633250574960e11b81526001600160a01b03851660048201526024016108a9565b805181602001fd5b6001600160e01b03198116630a85bd0160e11b146116d957604051633250574960e11b81526001600160a01b03851660048201526024016108a9565b505b5050505050565b60606116ed82611265565b5060008281526006602052604081208054611707906122b8565b80601f0160208091040260200160405190810160405280929190818152602001828054611733906122b8565b80156117805780601f1061175557610100808354040283529160200191611780565b820191906000526020600020905b81548152906001019060200180831161176357829003601f168201915b50505050509050600061179e60408051602081019091526000815290565b905080516000036117b0575092915050565b8151156117e25780826040516020016117ca929190612501565b60405160208183030381529060405292505050919050565b6117eb84611ad1565b949350505050565b6107fa828260405180602001604052806000815250611b46565b600082815260066020526040902061182582826123af565b506040518281527ff8e1a15aba9398e019f0b49df1a4fde98ee17ae345cb5f6b5e2c27f5033e8ce79060200160405180910390a15050565b60006001600160e01b031982167f4906490600000000000000000000000000000000000000000000000000000000148061072e575061072e82611b5e565b80806118af57506001600160a01b03821615155b156119a95760006118bf84611265565b90506001600160a01b038316158015906118eb5750826001600160a01b0316816001600160a01b031614155b801561191d57506001600160a01b0380821660009081526005602090815260408083209387168352929052205460ff16155b1561195f576040517fa9fbf51f0000000000000000000000000000000000000000000000000000000081526001600160a01b03841660048201526024016108a9565b81156119a75783856001600160a01b0316826001600160a01b03167f8c5be1e5ebec7d5bd14f71427d1e84f3dd0314c0f7b2291e5b200ac8c7c3b92560405160405180910390a45b505b50506000908152600460205260409020805473ffffffffffffffffffffffffffffffffffffffff19166001600160a01b0392909216919091179055565b6119f1838383611bf9565b610c75576001600160a01b038316611a1f57604051637e27328960e01b8152600481018290526024016108a9565b6040517f177e802f0000000000000000000000000000000000000000000000000000000081526001600160a01b0383166004820152602481018290526044016108a9565b60008281526007602090815260408083206001600160a01b038516845290915290205460ff166107fa576040517fe2517d3f0000000000000000000000000000000000000000000000000000000081526001600160a01b0382166004820152602481018390526044016108a9565b6060611adc82611265565b506000611af460408051602081019091526000815290565b90506000815111611b145760405180602001604052806000815250611b3f565b80611b1e84611c7c565b604051602001611b2f929190612501565b6040516020818303038152906040525b9392505050565b611b508383611d1c565b610c753360008585856115b7565b60006001600160e01b031982167f80ac58cd000000000000000000000000000000000000000000000000000000001480611bc157506001600160e01b031982167f5b5e139f00000000000000000000000000000000000000000000000000000000145b8061072e57507f01ffc9a7000000000000000000000000000000000000000000000000000000006001600160e01b031983161461072e565b60006001600160a01b038316158015906117eb5750826001600160a01b0316846001600160a01b03161480611c5357506001600160a01b0380851660009081526005602090815260408083209387168352929052205460ff165b806117eb5750506000908152600460205260409020546001600160a01b03908116911614919050565b60606000611c8983611d9a565b600101905060008167ffffffffffffffff811115611ca957611ca9612017565b6040519080825280601f01601f191660200182016040528015611cd3576020820181803683370190505b5090508181016020015b600019017f3031323334353637383961626364656600000000000000000000000000000000600a86061a8153600a8504945084611cdd57509392505050565b6001600160a01b038216611d4657604051633250574960e11b8152600060048201526024016108a9565b6000611d54838360006112ab565b90506001600160a01b03811615610c75576040517f73c6ac6e000000000000000000000000000000000000000000000000000000008152600060048201526024016108a9565b6000807a184f03e93ff9f4daa797ed6e38ed64bf6a1f0100000000000000008310611de3577a184f03e93ff9f4daa797ed6e38ed64bf6a1f010000000000000000830492506040015b6d04ee2d6d415b85acef81000000008310611e0f576d04ee2d6d415b85acef8100000000830492506020015b662386f26fc100008310611e2d57662386f26fc10000830492506010015b6305f5e1008310611e45576305f5e100830492506008015b6127108310611e5957612710830492506004015b60648310611e6b576064830492506002015b600a831061072e5760010192915050565b6001600160e01b0319811681146113bb57600080fd5b600060208284031215611ea457600080fd5b8135611b3f81611e7c565b60005b83811015611eca578181015183820152602001611eb2565b50506000910152565b60008151808452611eeb816020860160208601611eaf565b601f01601f19169290920160200192915050565b602081526000611b3f6020830184611ed3565b600060208284031215611f2457600080fd5b5035919050565b80356001600160a01b0381168114611f4257600080fd5b919050565b60008060408385031215611f5a57600080fd5b611f6383611f2b565b946020939093013593505050565b60008060408385031215611f8457600080fd5b50508035926020909101359150565b600080600060608486031215611fa857600080fd5b611fb184611f2b565b9250611fbf60208501611f2b565b929592945050506040919091013590565b60008060408385031215611fe357600080fd5b82359150611ff360208401611f2b565b90509250929050565b60006020828403121561200e57600080fd5b611b3f82611f2b565b634e487b7160e01b600052604160045260246000fd5b60008067ffffffffffffffff84111561204857612048612017565b50604051601f19601f85018116603f0116810181811067ffffffffffffffff8211171561207757612077612017565b60405283815290508082840185101561208f57600080fd5b83836020830137600060208583010152509392505050565b600082601f8301126120b857600080fd5b611b3f8383356020850161202d565b600080600080608085870312156120dd57600080fd5b84359350602085013567ffffffffffffffff8111156120fb57600080fd5b612107878288016120a7565b949794965050505060408301359260600135919050565b80151581146113bb57600080fd5b6000806040838503121561213f57600080fd5b61214883611f2b565b915060208301356121588161211e565b809150509250929050565b6000806000806080858703121561217957600080fd5b61218285611f2b565b935061219060208601611f2b565b925060408501359150606085013567ffffffffffffffff8111156121b357600080fd5b8501601f810187136121c457600080fd5b6121d38782356020840161202d565b91505092959194509250565b6060815260006121f26060830186611ed3565b60208301949094525060400152919050565b6000806040838503121561221757600080fd5b61222083611f2b565b9150602083013567ffffffffffffffff81111561223c57600080fd5b612248858286016120a7565b9150509250929050565b60208152600082516060602084015261226e6080840182611ed3565b905060208401516040840152604084015160608401528091505092915050565b600080604083850312156122a157600080fd5b6122aa83611f2b565b9150611ff360208401611f2b565b600181811c908216806122cc57607f821691505b6020821081036122ec57634e487b7160e01b600052602260045260246000fd5b50919050565b60006020828403121561230457600080fd5b5051919050565b60006020828403121561231d57600080fd5b8151611b3f8161211e565b634e487b7160e01b600052601160045260246000fd5b8082018082111561072e5761072e612328565b60008161236057612360612328565b506000190190565b601f821115610c7557806000526020600020601f840160051c8101602085101561238f5750805b601f840160051c820191505b818110156116db576000815560010161239b565b815167ffffffffffffffff8111156123c9576123c9612017565b6123dd816123d784546122b8565b84612368565b6020601f82116001811461241157600083156123f95750848201515b600019600385901b1c1916600184901b1784556116db565b600084815260208120601f198516915b828110156124415787850151825560209485019460019092019101612421565b508482101561245f5786840151600019600387901b60f8161c191681555b50505050600190811b01905550565b60006001820161248057612480612328565b5060010190565b60008251612499818460208701611eaf565b9190910192915050565b6001600160a01b03851681526001600160a01b03841660208201528260408201526080606082015260006124da6080830184611ed3565b9695505050505050565b6000602082840312156124f657600080fd5b8151611b3f81611e7c565b60008351612513818460208801611eaf565b835190830190612527818360208801611eaf565b0194935050505056fea26469706673582212208ed33290539425c6595d9e99458c940d9e0022548cb6ef5f76da7e58984f57d764736f6c634300081b0033",
  "linkReferences": {},
  "deployedLinkReferences": {}
}