{
  "_format": "hh-sol-artifact-1",
  "contractName": "ERC721",
  "sourceName": "contracts/catNFT/ERC721/ERC721.sol",
  "abi": [
    {
      "inputs": [
        {
          "internalType": "string",
          "name": "name1",
          "type": "string"
        },
        {
          "internalType": "string",
          "name": "symbol1",
          "type": "string"
        }
      ],
      "stateMutability": "nonpayable",
      "type": "constructor"
    },
    {
      "inputs": [
        {
          "internalType": "address",
          "name": "owner",
          "type": "address"
        },
        {
          "internalType": "address",
          "name": "operator",
          "type": "address"
        },
        {
          "internalType": "bool",
          "name": "approved",
          "type": "bool"
        }
      ],
      "name": "_setApprovalForAll",
      "outputs": [
        {
          "internalType": "bool",
          "name": "",
          "type": "bool"
        }
      ],
      "stateMutability": "nonpayable",
      "type": "function"
    },
    {
      "inputs": [
        {
          "internalType": "address",
          "name": "owner",
          "type": "address"
        }
      ],
      "name": "balanceOf",
      "outputs": [
        {
          "internalType": "uint256",
          "name": "",
          "type": "uint256"
        }
      ],
      "stateMutability": "view",
      "type": "function"
    },
    {
      "inputs": [
        {
          "internalType": "uint256",
          "name": "tokenId",
          "type": "uint256"
        }
      ],
      "name": "checkgetApproved",
      "outputs": [
        {
          "internalType": "address",
          "name": "",
          "type": "address"
        }
      ],
      "stateMutability": "view",
      "type": "function"
    },
    {
      "inputs": [
        {
          "internalType": "uint256",
          "name": "tokenId",
          "type": "uint256"
        }
      ],
      "name": "checkgetOwner",
      "outputs": [
        {
          "internalType": "address",
          "name": "",
          "type": "address"
        }
      ],
      "stateMutability": "view",
      "type": "function"
    },
    {
      "inputs": [
        {
          "internalType": "uint256",
          "name": "tokenId",
          "type": "uint256"
        }
      ],
      "name": "getTokenURI",
      "outputs": [
        {
          "internalType": "string",
          "name": "",
          "type": "string"
        }
      ],
      "stateMutability": "view",
      "type": "function"
    },
    {
      "inputs": [
        {
          "internalType": "address",
          "name": "owner",
          "type": "address"
        },
        {
          "internalType": "address",
          "name": "operator",
          "type": "address"
        }
      ],
      "name": "isApprovalForAll",
      "outputs": [
        {
          "internalType": "bool",
          "name": "",
          "type": "bool"
        }
      ],
      "stateMutability": "view",
      "type": "function"
    },
    {
      "inputs": [],
      "name": "name",
      "outputs": [
        {
          "internalType": "string",
          "name": "",
          "type": "string"
        }
      ],
      "stateMutability": "view",
      "type": "function"
    },
    {
      "inputs": [
        {
          "internalType": "address",
          "name": "to",
          "type": "address"
        },
        {
          "internalType": "uint256",
          "name": "tokenId",
          "type": "uint256"
        }
      ],
      "name": "setApprove",
      "outputs": [
        {
          "internalType": "bool",
          "name": "",
          "type": "bool"
        }
      ],
      "stateMutability": "nonpayable",
      "type": "function"
    },
    {
      "inputs": [],
      "name": "symbol",
      "outputs": [
        {
          "internalType": "string",
          "name": "",
          "type": "string"
        }
      ],
      "stateMutability": "view",
      "type": "function"
    },
    {
      "inputs": [
        {
          "internalType": "address",
          "name": "to",
          "type": "address"
        },
        {
          "internalType": "uint256",
          "name": "tokenId",
          "type": "uint256"
        }
      ],
      "name": "transfer",
      "outputs": [
        {
          "internalType": "bool",
          "name": "",
          "type": "bool"
        }
      ],
      "stateMutability": "nonpayable",
      "type": "function"
    },
    {
      "inputs": [
        {
          "internalType": "address",
          "name": "to",
          "type": "address"
        },
        {
          "internalType": "uint256",
          "name": "tokenId",
          "type": "uint256"
        }
      ],
      "name": "transferFrom",
      "outputs": [
        {
          "internalType": "bool",
          "name": "",
          "type": "bool"
        }
      ],
      "stateMutability": "nonpayable",
      "type": "function"
    }
  ],
  "bytecode": "0x608060405234801561001057600080fd5b50604051611d17380380611d1783398181016040528101906100329190610312565b816000908161004191906105ab565b50806001908161005191906105ab565b506100966040518060400160405280601b81526020017f45524337323120636f6e74726163742069732063616c6c65647e7e000000000081525061009d60201b60201c565b5050610718565b610139816040516024016100b191906106c7565b6040516020818303038152906040527f41304fac000000000000000000000000000000000000000000000000000000007bffffffffffffffffffffffffffffffffffffffffffffffffffffffff19166020820180517bffffffffffffffffffffffffffffffffffffffffffffffffffffffff838183161783525050505061013c60201b60201c565b50565b61015d8161015861016060201b610bb81761018160201b60201c565b60201c565b50565b60006a636f6e736f6c652e6c6f679050600080835160208501845afa505050565b61019360201b610f0d17819050919050565b61019b6106e9565b565b6000604051905090565b600080fd5b600080fd5b600080fd5b600080fd5b6000601f19601f8301169050919050565b7f4e487b7100000000000000000000000000000000000000000000000000000000600052604160045260246000fd5b610204826101bb565b810181811067ffffffffffffffff82111715610223576102226101cc565b5b80604052505050565b600061023661019d565b905061024282826101fb565b919050565b600067ffffffffffffffff821115610262576102616101cc565b5b61026b826101bb565b9050602081019050919050565b60005b8381101561029657808201518184015260208101905061027b565b60008484015250505050565b60006102b56102b084610247565b61022c565b9050828152602081018484840111156102d1576102d06101b6565b5b6102dc848285610278565b509392505050565b600082601f8301126102f9576102f86101b1565b5b81516103098482602086016102a2565b91505092915050565b60008060408385031215610329576103286101a7565b5b600083015167ffffffffffffffff811115610347576103466101ac565b5b610353858286016102e4565b925050602083015167ffffffffffffffff811115610374576103736101ac565b5b610380858286016102e4565b9150509250929050565b600081519050919050565b7f4e487b7100000000000000000000000000000000000000000000000000000000600052602260045260246000fd5b600060028204905060018216806103dc57607f821691505b6020821081036103ef576103ee610395565b5b50919050565b60008190508160005260206000209050919050565b60006020601f8301049050919050565b600082821b905092915050565b6000600883026104577fffffffffffffffffffffffffffffffffffffffffffffffffffffffffffffffff8261041a565b610461868361041a565b95508019841693508086168417925050509392505050565b6000819050919050565b6000819050919050565b60006104a86104a361049e84610479565b610483565b610479565b9050919050565b6000819050919050565b6104c28361048d565b6104d66104ce826104af565b848454610427565b825550505050565b600090565b6104eb6104de565b6104f68184846104b9565b505050565b5b8181101561051a5761050f6000826104e3565b6001810190506104fc565b5050565b601f82111561055f57610530816103f5565b6105398461040a565b81016020851015610548578190505b61055c6105548561040a565b8301826104fb565b50505b505050565b600082821c905092915050565b600061058260001984600802610564565b1980831691505092915050565b600061059b8383610571565b9150826002028217905092915050565b6105b48261038a565b67ffffffffffffffff8111156105cd576105cc6101cc565b5b6105d782546103c4565b6105e282828561051e565b600060209050601f8311600181146106155760008415610603578287015190505b61060d858261058f565b865550610675565b601f198416610623866103f5565b60005b8281101561064b57848901518255600182019150602085019450602081019050610626565b868310156106685784890151610664601f891682610571565b8355505b6001600288020188555050505b505050505050565b600082825260208201905092915050565b60006106998261038a565b6106a3818561067d565b93506106b3818560208601610278565b6106bc816101bb565b840191505092915050565b600060208201905081810360008301526106e1818461068e565b905092915050565b7f4e487b7100000000000000000000000000000000000000000000000000000000600052605160045260246000fd5b6115f0806107276000396000f3fe608060405234801561001057600080fd5b50600436106100a95760003560e01c806395d89b411161007157806395d89b411461018c578063a9059cbb146101aa578063c4925fea146101da578063eace37cb1461020a578063ebd1d3591461023a578063f0308b031461026a576100a9565b806301c6adc3146100ae57806306fdde03146100de5780633bb3a24d146100fc57806370a082311461012c5780638c4e3f321461015c575b600080fd5b6100c860048036038101906100c39190610fb0565b61029a565b6040516100d5919061100b565b60405180910390f35b6100e6610399565b6040516100f391906110b6565b60405180910390f35b610116600480360381019061011191906110d8565b61042b565b60405161012391906110b6565b60405180910390f35b61014660048036038101906101419190611105565b6104e0565b6040516101539190611141565b60405180910390f35b61017660048036038101906101719190611188565b610529565b604051610183919061100b565b60405180910390f35b610194610667565b6040516101a191906110b6565b60405180910390f35b6101c460048036038101906101bf9190610fb0565b6106f9565b6040516101d1919061100b565b60405180910390f35b6101f460048036038101906101ef9190610fb0565b610851565b604051610201919061100b565b60405180910390f35b610224600480360381019061021f91906110d8565b6109c2565b60405161023191906111ea565b60405180910390f35b610254600480360381019061024f9190611205565b610a73565b604051610261919061100b565b60405180910390f35b610284600480360381019061027f91906110d8565b610b07565b60405161029191906111ea565b60405180910390f35b600080600033905060006102ad85610b07565b9050600073ffffffffffffffffffffffffffffffffffffffff166102d0866109c2565b73ffffffffffffffffffffffffffffffffffffffff161415806102f957506102f88183610a73565b5b1561034e57610309818787610bd9565b92506103496040518060400160405280601981526020017f7472616e73666572466f726d20636f6d706c65746564207e7e00000000000000815250610e4f565b61038d565b61038c6040518060400160405280601e81526020017f4552524f52207472616e7366657246726f6d3a206e6f20617070726f76650000815250610e4f565b5b82935050505092915050565b6060600080546103a890611274565b80601f01602080910402602001604051908101604052809291908181526020018280546103d490611274565b80156104215780601f106103f657610100808354040283529160200191610421565b820191906000526020600020905b81548152906001019060200180831161040457829003601f168201915b5050505050905090565b606061043682610b07565b50600060046000848152602001908152602001600020805461045790611274565b80601f016020809104026020016040519081016040528092919081815260200182805461048390611274565b80156104d05780601f106104a5576101008083540402835291602001916104d0565b820191906000526020600020905b8154815290600101906020018083116104b357829003601f168201915b5050505050905080915050919050565b6000600360008373ffffffffffffffffffffffffffffffffffffffff1673ffffffffffffffffffffffffffffffffffffffff168152602001908152602001600020549050919050565b60008073ffffffffffffffffffffffffffffffffffffffff168373ffffffffffffffffffffffffffffffffffffffff16036105885761057f6040518060600160405280602a8152602001611522602a9139610e4f565b60009050610660565b6001600660008673ffffffffffffffffffffffffffffffffffffffff1673ffffffffffffffffffffffffffffffffffffffff16815260200190815260200160002060008573ffffffffffffffffffffffffffffffffffffffff1673ffffffffffffffffffffffffffffffffffffffff16815260200190815260200160002060006101000a81548160ff02191690831515021790555061065b6040518060400160405280601f81526020017f5f736574417070726f76616c466f72416c6c20636f6d706c657465647e7e7e00815250610e4f565b600190505b9392505050565b60606001805461067690611274565b80601f01602080910402602001604051908101604052809291908181526020018280546106a290611274565b80156106ef5780601f106106c4576101008083540402835291602001916106ef565b820191906000526020600020905b8154815290600101906020018083116106d257829003601f168201915b5050505050905090565b600080600073ffffffffffffffffffffffffffffffffffffffff168473ffffffffffffffffffffffffffffffffffffffff160361076b576040517f08c379a000000000000000000000000000000000000000000000000000000000815260040161076290611317565b60405180910390fd5b6002600084815260200190815260200160002060009054906101000a900473ffffffffffffffffffffffffffffffffffffffff1673ffffffffffffffffffffffffffffffffffffffff163373ffffffffffffffffffffffffffffffffffffffff1603610825576107dc338585610bd9565b905061081c6040518060400160405280601581526020017f7472616e7366657220636f6d706c657465647e7e7e0000000000000000000000815250610e4f565b8091505061084b565b61084660405180606001604052806021815260200161157460219139610e4f565b809150505b92915050565b600061085c82610b07565b73ffffffffffffffffffffffffffffffffffffffff163373ffffffffffffffffffffffffffffffffffffffff16146108c9576040517f08c379a00000000000000000000000000000000000000000000000000000000081526004016108c0906113a9565b60405180910390fd5b600073ffffffffffffffffffffffffffffffffffffffff168373ffffffffffffffffffffffffffffffffffffffff16036109275761091e60405180606001604052806026815260200161159560269139610e4f565b600090506109bc565b826005600084815260200190815260200160002060006101000a81548173ffffffffffffffffffffffffffffffffffffffff021916908373ffffffffffffffffffffffffffffffffffffffff1602179055506109b76040518060400160405280601881526020017f5f736574417070726f766520636f6d706c657465647e7e7e0000000000000000815250610e4f565b600190505b92915050565b6000806109ce83610b07565b905060006005600085815260200190815260200160002060009054906101000a900473ffffffffffffffffffffffffffffffffffffffff169050600073ffffffffffffffffffffffffffffffffffffffff168173ffffffffffffffffffffffffffffffffffffffff1603610a6857610a5d60405180606001604052806028815260200161154c60289139610e4f565b600092505050610a6e565b80925050505b919050565b6000600660008473ffffffffffffffffffffffffffffffffffffffff1673ffffffffffffffffffffffffffffffffffffffff16815260200190815260200160002060008373ffffffffffffffffffffffffffffffffffffffff1673ffffffffffffffffffffffffffffffffffffffff16815260200190815260200160002060009054906101000a900460ff16905092915050565b6000806002600084815260200190815260200160002060009054906101000a900473ffffffffffffffffffffffffffffffffffffffff169050600073ffffffffffffffffffffffffffffffffffffffff168173ffffffffffffffffffffffffffffffffffffffff1603610baf576040517f08c379a0000000000000000000000000000000000000000000000000000000008152600401610ba69061143b565b60405180910390fd5b80915050919050565b60006a636f6e736f6c652e6c6f679050600080835160208501845afa505050565b60008073ffffffffffffffffffffffffffffffffffffffff168473ffffffffffffffffffffffffffffffffffffffff1614158015610c445750600073ffffffffffffffffffffffffffffffffffffffff168373ffffffffffffffffffffffffffffffffffffffff1614155b15610e43576002600083815260200190815260200160002060009054906101000a900473ffffffffffffffffffffffffffffffffffffffff1673ffffffffffffffffffffffffffffffffffffffff168473ffffffffffffffffffffffffffffffffffffffff16148015610cf657506000600360008673ffffffffffffffffffffffffffffffffffffffff1673ffffffffffffffffffffffffffffffffffffffff16815260200190815260200160002054115b15610e42576001600360008673ffffffffffffffffffffffffffffffffffffffff1673ffffffffffffffffffffffffffffffffffffffff1681526020019081526020016000206000828254610d4b919061148a565b925050819055506001600360008573ffffffffffffffffffffffffffffffffffffffff1673ffffffffffffffffffffffffffffffffffffffff1681526020019081526020016000206000828254610da291906114be565b92505081905550826002600084815260200190815260200160002060006101000a81548173ffffffffffffffffffffffffffffffffffffffff021916908373ffffffffffffffffffffffffffffffffffffffff160217905550610e396040518060400160405280601381526020017f75706461746520636f6d706c657465647e7e7e00000000000000000000000000815250610e4f565b60019050610e48565b5b600090505b9392505050565b610ee581604051602401610e6391906110b6565b6040516020818303038152906040527f41304fac000000000000000000000000000000000000000000000000000000007bffffffffffffffffffffffffffffffffffffffffffffffffffffffff19166020820180517bffffffffffffffffffffffffffffffffffffffffffffffffffffffff8381831617835250505050610ee8565b50565b610eff81610ef7610bb8610f02565b63ffffffff16565b50565b610f0d819050919050565b610f156114f2565b565b600080fd5b600073ffffffffffffffffffffffffffffffffffffffff82169050919050565b6000610f4782610f1c565b9050919050565b610f5781610f3c565b8114610f6257600080fd5b50565b600081359050610f7481610f4e565b92915050565b6000819050919050565b610f8d81610f7a565b8114610f9857600080fd5b50565b600081359050610faa81610f84565b92915050565b60008060408385031215610fc757610fc6610f17565b5b6000610fd585828601610f65565b9250506020610fe685828601610f9b565b9150509250929050565b60008115159050919050565b61100581610ff0565b82525050565b60006020820190506110206000830184610ffc565b92915050565b600081519050919050565b600082825260208201905092915050565b60005b83811015611060578082015181840152602081019050611045565b60008484015250505050565b6000601f19601f8301169050919050565b600061108882611026565b6110928185611031565b93506110a2818560208601611042565b6110ab8161106c565b840191505092915050565b600060208201905081810360008301526110d0818461107d565b905092915050565b6000602082840312156110ee576110ed610f17565b5b60006110fc84828501610f9b565b91505092915050565b60006020828403121561111b5761111a610f17565b5b600061112984828501610f65565b91505092915050565b61113b81610f7a565b82525050565b60006020820190506111566000830184611132565b92915050565b61116581610ff0565b811461117057600080fd5b50565b6000813590506111828161115c565b92915050565b6000806000606084860312156111a1576111a0610f17565b5b60006111af86828701610f65565b93505060206111c086828701610f65565b92505060406111d186828701611173565b9150509250925092565b6111e481610f3c565b82525050565b60006020820190506111ff60008301846111db565b92915050565b6000806040838503121561121c5761121b610f17565b5b600061122a85828601610f65565b925050602061123b85828601610f65565b9150509250929050565b7f4e487b7100000000000000000000000000000000000000000000000000000000600052602260045260246000fd5b6000600282049050600182168061128c57607f821691505b60208210810361129f5761129e611245565b5b50919050565b7f4552524f52207472616e736665723a20746f2061646472657373206973206e7560008201527f6c6c000000000000000000000000000000000000000000000000000000000000602082015250565b6000611301602283611031565b915061130c826112a5565b604082019050919050565b60006020820190508181036000830152611330816112f4565b9050919050565b7f4552524f52205f736574417070726f76653a796f7520617265206e6f74206f7760008201527f6e65720000000000000000000000000000000000000000000000000000000000602082015250565b6000611393602383611031565b915061139e82611337565b604082019050919050565b600060208201905081810360008301526113c281611386565b9050919050565b7f4552524f5220636865636b6765744f776e65723a206f776e6572206973206e7560008201527f6c6c300000000000000000000000000000000000000000000000000000000000602082015250565b6000611425602383611031565b9150611430826113c9565b604082019050919050565b6000602082019050818103600083015261145481611418565b9050919050565b7f4e487b7100000000000000000000000000000000000000000000000000000000600052601160045260246000fd5b600061149582610f7a565b91506114a083610f7a565b92508282039050818111156114b8576114b761145b565b5b92915050565b60006114c982610f7a565b91506114d483610f7a565b92508282019050808211156114ec576114eb61145b565b5b92915050565b7f4e487b7100000000000000000000000000000000000000000000000000000000600052605160045260246000fdfe4552524f52205f736574417070726f76616c466f72416c6c3a6f70657261746f72206973206e756c6c304552524f5220636865636b676574417070726f7665643a206f70657261746f72206973206e756c6c4552524f52207472616e736665723a20596f7520617265206e6f74206f776e65724552524f52205f736574417070726f76653a20746f2061646472657373206973206e756c6c30a264697066735822122065139997c1552d99e8d2bad27754d3d003a4869714065906e0bb7e31c4cf752064736f6c634300081c0033",
  "linkReferences": {},
  "deployedLinkReferences": {}
}