{
  "_format": "hh-sol-artifact-1",
  "contractName": "kokoToken",
  "sourceName": "contracts/kokoDao/kokoToken.sol",
  "abi": [
    {
      "inputs": [
        {
          "internalType": "string",
          "name": "_name",
          "type": "string"
        },
        {
          "internalType": "string",
          "name": "_symbol",
          "type": "string"
        }
      ],
      "stateMutability": "nonpayable",
      "type": "constructor"
    },
    {
      "inputs": [],
      "name": "CheckpointUnorderedInsertion",
      "type": "error"
    },
    {
      "inputs": [],
      "name": "ECDSAInvalidSignature",
      "type": "error"
    },
    {
      "inputs": [
        {
          "internalType": "uint256",
          "name": "length",
          "type": "uint256"
        }
      ],
      "name": "ECDSAInvalidSignatureLength",
      "type": "error"
    },
    {
      "inputs": [
        {
          "internalType": "bytes32",
          "name": "s",
          "type": "bytes32"
        }
      ],
      "name": "ECDSAInvalidSignatureS",
      "type": "error"
    },
    {
      "inputs": [
        {
          "internalType": "uint256",
          "name": "increasedSupply",
          "type": "uint256"
        },
        {
          "internalType": "uint256",
          "name": "cap",
          "type": "uint256"
        }
      ],
      "name": "ERC20ExceededSafeSupply",
      "type": "error"
    },
    {
      "inputs": [
        {
          "internalType": "address",
          "name": "spender",
          "type": "address"
        },
        {
          "internalType": "uint256",
          "name": "allowance",
          "type": "uint256"
        },
        {
          "internalType": "uint256",
          "name": "needed",
          "type": "uint256"
        }
      ],
      "name": "ERC20InsufficientAllowance",
      "type": "error"
    },
    {
      "inputs": [
        {
          "internalType": "address",
          "name": "sender",
          "type": "address"
        },
        {
          "internalType": "uint256",
          "name": "balance",
          "type": "uint256"
        },
        {
          "internalType": "uint256",
          "name": "needed",
          "type": "uint256"
        }
      ],
      "name": "ERC20InsufficientBalance",
      "type": "error"
    },
    {
      "inputs": [
        {
          "internalType": "address",
          "name": "approver",
          "type": "address"
        }
      ],
      "name": "ERC20InvalidApprover",
      "type": "error"
    },
    {
      "inputs": [
        {
          "internalType": "address",
          "name": "receiver",
          "type": "address"
        }
      ],
      "name": "ERC20InvalidReceiver",
      "type": "error"
    },
    {
      "inputs": [
        {
          "internalType": "address",
          "name": "sender",
          "type": "address"
        }
      ],
      "name": "ERC20InvalidSender",
      "type": "error"
    },
    {
      "inputs": [
        {
          "internalType": "address",
          "name": "spender",
          "type": "address"
        }
      ],
      "name": "ERC20InvalidSpender",
      "type": "error"
    },
    {
      "inputs": [
        {
          "internalType": "uint256",
          "name": "deadline",
          "type": "uint256"
        }
      ],
      "name": "ERC2612ExpiredSignature",
      "type": "error"
    },
    {
      "inputs": [
        {
          "internalType": "address",
          "name": "signer",
          "type": "address"
        },
        {
          "internalType": "address",
          "name": "owner",
          "type": "address"
        }
      ],
      "name": "ERC2612InvalidSigner",
      "type": "error"
    },
    {
      "inputs": [
        {
          "internalType": "uint256",
          "name": "timepoint",
          "type": "uint256"
        },
        {
          "internalType": "uint48",
          "name": "clock",
          "type": "uint48"
        }
      ],
      "name": "ERC5805FutureLookup",
      "type": "error"
    },
    {
      "inputs": [],
      "name": "ERC6372InconsistentClock",
      "type": "error"
    },
    {
      "inputs": [
        {
          "internalType": "address",
          "name": "account",
          "type": "address"
        },
        {
          "internalType": "uint256",
          "name": "currentNonce",
          "type": "uint256"
        }
      ],
      "name": "InvalidAccountNonce",
      "type": "error"
    },
    {
      "inputs": [],
      "name": "InvalidShortString",
      "type": "error"
    },
    {
      "inputs": [
        {
          "internalType": "uint8",
          "name": "bits",
          "type": "uint8"
        },
        {
          "internalType": "uint256",
          "name": "value",
          "type": "uint256"
        }
      ],
      "name": "SafeCastOverflowedUintDowncast",
      "type": "error"
    },
    {
      "inputs": [
        {
          "internalType": "string",
          "name": "str",
          "type": "string"
        }
      ],
      "name": "StringTooLong",
      "type": "error"
    },
    {
      "inputs": [
        {
          "internalType": "uint256",
          "name": "expiry",
          "type": "uint256"
        }
      ],
      "name": "VotesExpiredSignature",
      "type": "error"
    },
    {
      "anonymous": false,
      "inputs": [
        {
          "indexed": true,
          "internalType": "address",
          "name": "owner",
          "type": "address"
        },
        {
          "indexed": true,
          "internalType": "address",
          "name": "spender",
          "type": "address"
        },
        {
          "indexed": false,
          "internalType": "uint256",
          "name": "value",
          "type": "uint256"
        }
      ],
      "name": "Approval",
      "type": "event"
    },
    {
      "anonymous": false,
      "inputs": [
        {
          "indexed": true,
          "internalType": "address",
          "name": "delegator",
          "type": "address"
        },
        {
          "indexed": true,
          "internalType": "address",
          "name": "fromDelegate",
          "type": "address"
        },
        {
          "indexed": true,
          "internalType": "address",
          "name": "toDelegate",
          "type": "address"
        }
      ],
      "name": "DelegateChanged",
      "type": "event"
    },
    {
      "anonymous": false,
      "inputs": [
        {
          "indexed": true,
          "internalType": "address",
          "name": "delegate",
          "type": "address"
        },
        {
          "indexed": false,
          "internalType": "uint256",
          "name": "previousVotes",
          "type": "uint256"
        },
        {
          "indexed": false,
          "internalType": "uint256",
          "name": "newVotes",
          "type": "uint256"
        }
      ],
      "name": "DelegateVotesChanged",
      "type": "event"
    },
    {
      "anonymous": false,
      "inputs": [],
      "name": "EIP712DomainChanged",
      "type": "event"
    },
    {
      "anonymous": false,
      "inputs": [
        {
          "indexed": true,
          "internalType": "address",
          "name": "from",
          "type": "address"
        },
        {
          "indexed": true,
          "internalType": "address",
          "name": "to",
          "type": "address"
        },
        {
          "indexed": false,
          "internalType": "uint256",
          "name": "value",
          "type": "uint256"
        }
      ],
      "name": "Transfer",
      "type": "event"
    },
    {
      "inputs": [],
      "name": "CLOCK_MODE",
      "outputs": [
        {
          "internalType": "string",
          "name": "",
          "type": "string"
        }
      ],
      "stateMutability": "view",
      "type": "function"
    },
    {
      "inputs": [],
      "name": "DOMAIN_SEPARATOR",
      "outputs": [
        {
          "internalType": "bytes32",
          "name": "",
          "type": "bytes32"
        }
      ],
      "stateMutability": "view",
      "type": "function"
    },
    {
      "inputs": [
        {
          "internalType": "address",
          "name": "owner",
          "type": "address"
        },
        {
          "internalType": "address",
          "name": "spender",
          "type": "address"
        }
      ],
      "name": "allowance",
      "outputs": [
        {
          "internalType": "uint256",
          "name": "",
          "type": "uint256"
        }
      ],
      "stateMutability": "view",
      "type": "function"
    },
    {
      "inputs": [
        {
          "internalType": "address",
          "name": "spender",
          "type": "address"
        },
        {
          "internalType": "uint256",
          "name": "value",
          "type": "uint256"
        }
      ],
      "name": "approve",
      "outputs": [
        {
          "internalType": "bool",
          "name": "",
          "type": "bool"
        }
      ],
      "stateMutability": "nonpayable",
      "type": "function"
    },
    {
      "inputs": [
        {
          "internalType": "address",
          "name": "account",
          "type": "address"
        }
      ],
      "name": "balanceOf",
      "outputs": [
        {
          "internalType": "uint256",
          "name": "",
          "type": "uint256"
        }
      ],
      "stateMutability": "view",
      "type": "function"
    },
    {
      "inputs": [
        {
          "internalType": "address",
          "name": "account",
          "type": "address"
        },
        {
          "internalType": "uint32",
          "name": "pos",
          "type": "uint32"
        }
      ],
      "name": "checkpoints",
      "outputs": [
        {
          "components": [
            {
              "internalType": "uint48",
              "name": "_key",
              "type": "uint48"
            },
            {
              "internalType": "uint208",
              "name": "_value",
              "type": "uint208"
            }
          ],
          "internalType": "struct Checkpoints.Checkpoint208",
          "name": "",
          "type": "tuple"
        }
      ],
      "stateMutability": "view",
      "type": "function"
    },
    {
      "inputs": [],
      "name": "clock",
      "outputs": [
        {
          "internalType": "uint48",
          "name": "",
          "type": "uint48"
        }
      ],
      "stateMutability": "view",
      "type": "function"
    },
    {
      "inputs": [],
      "name": "decimals",
      "outputs": [
        {
          "internalType": "uint8",
          "name": "",
          "type": "uint8"
        }
      ],
      "stateMutability": "view",
      "type": "function"
    },
    {
      "inputs": [
        {
          "internalType": "address",
          "name": "delegatee",
          "type": "address"
        }
      ],
      "name": "delegate",
      "outputs": [],
      "stateMutability": "nonpayable",
      "type": "function"
    },
    {
      "inputs": [
        {
          "internalType": "address",
          "name": "delegatee",
          "type": "address"
        },
        {
          "internalType": "uint256",
          "name": "nonce",
          "type": "uint256"
        },
        {
          "internalType": "uint256",
          "name": "expiry",
          "type": "uint256"
        },
        {
          "internalType": "uint8",
          "name": "v",
          "type": "uint8"
        },
        {
          "internalType": "bytes32",
          "name": "r",
          "type": "bytes32"
        },
        {
          "internalType": "bytes32",
          "name": "s",
          "type": "bytes32"
        }
      ],
      "name": "delegateBySig",
      "outputs": [],
      "stateMutability": "nonpayable",
      "type": "function"
    },
    {
      "inputs": [
        {
          "internalType": "address",
          "name": "account",
          "type": "address"
        }
      ],
      "name": "delegates",
      "outputs": [
        {
          "internalType": "address",
          "name": "",
          "type": "address"
        }
      ],
      "stateMutability": "view",
      "type": "function"
    },
    {
      "inputs": [],
      "name": "eip712Domain",
      "outputs": [
        {
          "internalType": "bytes1",
          "name": "fields",
          "type": "bytes1"
        },
        {
          "internalType": "string",
          "name": "name",
          "type": "string"
        },
        {
          "internalType": "string",
          "name": "version",
          "type": "string"
        },
        {
          "internalType": "uint256",
          "name": "chainId",
          "type": "uint256"
        },
        {
          "internalType": "address",
          "name": "verifyingContract",
          "type": "address"
        },
        {
          "internalType": "bytes32",
          "name": "salt",
          "type": "bytes32"
        },
        {
          "internalType": "uint256[]",
          "name": "extensions",
          "type": "uint256[]"
        }
      ],
      "stateMutability": "view",
      "type": "function"
    },
    {
      "inputs": [
        {
          "internalType": "uint256",
          "name": "timepoint",
          "type": "uint256"
        }
      ],
      "name": "getPastTotalSupply",
      "outputs": [
        {
          "internalType": "uint256",
          "name": "",
          "type": "uint256"
        }
      ],
      "stateMutability": "view",
      "type": "function"
    },
    {
      "inputs": [
        {
          "internalType": "address",
          "name": "account",
          "type": "address"
        },
        {
          "internalType": "uint256",
          "name": "timepoint",
          "type": "uint256"
        }
      ],
      "name": "getPastVotes",
      "outputs": [
        {
          "internalType": "uint256",
          "name": "",
          "type": "uint256"
        }
      ],
      "stateMutability": "view",
      "type": "function"
    },
    {
      "inputs": [
        {
          "internalType": "address",
          "name": "account",
          "type": "address"
        }
      ],
      "name": "getVotes",
      "outputs": [
        {
          "internalType": "uint256",
          "name": "",
          "type": "uint256"
        }
      ],
      "stateMutability": "view",
      "type": "function"
    },
    {
      "inputs": [
        {
          "internalType": "uint256",
          "name": "value",
          "type": "uint256"
        }
      ],
      "name": "mint",
      "outputs": [],
      "stateMutability": "nonpayable",
      "type": "function"
    },
    {
      "inputs": [],
      "name": "name",
      "outputs": [
        {
          "internalType": "string",
          "name": "",
          "type": "string"
        }
      ],
      "stateMutability": "view",
      "type": "function"
    },
    {
      "inputs": [
        {
          "internalType": "address",
          "name": "owner",
          "type": "address"
        }
      ],
      "name": "nonces",
      "outputs": [
        {
          "internalType": "uint256",
          "name": "",
          "type": "uint256"
        }
      ],
      "stateMutability": "view",
      "type": "function"
    },
    {
      "inputs": [
        {
          "internalType": "address",
          "name": "account",
          "type": "address"
        }
      ],
      "name": "numCheckpoints",
      "outputs": [
        {
          "internalType": "uint32",
          "name": "",
          "type": "uint32"
        }
      ],
      "stateMutability": "view",
      "type": "function"
    },
    {
      "inputs": [
        {
          "internalType": "address",
          "name": "owner",
          "type": "address"
        },
        {
          "internalType": "address",
          "name": "spender",
          "type": "address"
        },
        {
          "internalType": "uint256",
          "name": "value",
          "type": "uint256"
        },
        {
          "internalType": "uint256",
          "name": "deadline",
          "type": "uint256"
        },
        {
          "internalType": "uint8",
          "name": "v",
          "type": "uint8"
        },
        {
          "internalType": "bytes32",
          "name": "r",
          "type": "bytes32"
        },
        {
          "internalType": "bytes32",
          "name": "s",
          "type": "bytes32"
        }
      ],
      "name": "permit",
      "outputs": [],
      "stateMutability": "nonpayable",
      "type": "function"
    },
    {
      "inputs": [],
      "name": "symbol",
      "outputs": [
        {
          "internalType": "string",
          "name": "",
          "type": "string"
        }
      ],
      "stateMutability": "view",
      "type": "function"
    },
    {
      "inputs": [],
      "name": "totalSupply",
      "outputs": [
        {
          "internalType": "uint256",
          "name": "",
          "type": "uint256"
        }
      ],
      "stateMutability": "view",
      "type": "function"
    },
    {
      "inputs": [
        {
          "internalType": "address",
          "name": "to",
          "type": "address"
        },
        {
          "internalType": "uint256",
          "name": "value",
          "type": "uint256"
        }
      ],
      "name": "transfer",
      "outputs": [
        {
          "internalType": "bool",
          "name": "",
          "type": "bool"
        }
      ],
      "stateMutability": "nonpayable",
      "type": "function"
    },
    {
      "inputs": [
        {
          "internalType": "address",
          "name": "from",
          "type": "address"
        },
        {
          "internalType": "address",
          "name": "to",
          "type": "address"
        },
        {
          "internalType": "uint256",
          "name": "value",
          "type": "uint256"
        }
      ],
      "name": "transferFrom",
      "outputs": [
        {
          "internalType": "bool",
          "name": "",
          "type": "bool"
        }
      ],
      "stateMutability": "nonpayable",
      "type": "function"
    }
  ],
  "bytecode": "0x61016060405234801561001157600080fd5b50604051615702380380615702833981810160405281019061003391906110e9565b81806040518060400160405280600181526020017f31000000000000000000000000000000000000000000000000000000000000008152508484816003908161007c9190611382565b50806004908161008c9190611382565b5050506100a360058361017960201b90919060201c565b61012081815250506100bf60068261017960201b90919060201c565b6101408181525050818051906020012060e08181525050808051906020012061010081815250504660a081815250506100fc6101c960201b60201c565b608081815250503073ffffffffffffffffffffffffffffffffffffffff1660c08173ffffffffffffffffffffffffffffffffffffffff16815250505050506101723361014c61022460201b60201c565b60ff16600a61015b91906115b6565b60646101679190611601565b61022d60201b60201c565b5050611a97565b600060208351101561019b57610194836102b560201b60201c565b90506101c3565b826101ab8361031d60201b60201c565b60000190816101ba9190611382565b5060ff60001b90505b92915050565b60007f8b73c3c69bb8fe3d512ecc4cf759cc79239f7b179b0ffacaa9a75d522b39400f60e0516101005146306040516020016102099594939291906116ac565b60405160208183030381529060405280519060200120905090565b60006012905090565b600073ffffffffffffffffffffffffffffffffffffffff168273ffffffffffffffffffffffffffffffffffffffff160361029f5760006040517fec442f0500000000000000000000000000000000000000000000000000000000815260040161029691906116ff565b60405180910390fd5b6102b16000838361032760201b60201c565b5050565b600080829050601f8151111561030257826040517f305a27a90000000000000000000000000000000000000000000000000000000081526004016102f99190611764565b60405180910390fd5b80518161030e906117b6565b60001c1760001b915050919050565b6000819050919050565b61033883838361033d60201b60201c565b505050565b61034e83838361040660201b60201c565b600073ffffffffffffffffffffffffffffffffffffffff168373ffffffffffffffffffffffffffffffffffffffff16036103f057600061039261062b60201b60201c565b905060006103a461063560201b60201c565b9050808211156103ed5781816040517f1cb15d260000000000000000000000000000000000000000000000000000000081526004016103e492919061181d565b60405180910390fd5b50505b61040183838361065960201b60201c565b505050565b600073ffffffffffffffffffffffffffffffffffffffff168373ffffffffffffffffffffffffffffffffffffffff160361045857806002600082825461044c9190611846565b9250508190555061052b565b60008060008573ffffffffffffffffffffffffffffffffffffffff1673ffffffffffffffffffffffffffffffffffffffff168152602001908152602001600020549050818110156104e4578381836040517fe450d38c0000000000000000000000000000000000000000000000000000000081526004016104db9392919061187a565b60405180910390fd5b8181036000808673ffffffffffffffffffffffffffffffffffffffff1673ffffffffffffffffffffffffffffffffffffffff16815260200190815260200160002081905550505b600073ffffffffffffffffffffffffffffffffffffffff168273ffffffffffffffffffffffffffffffffffffffff160361057457806002600082825403925050819055506105c1565b806000808473ffffffffffffffffffffffffffffffffffffffff1673ffffffffffffffffffffffffffffffffffffffff168152602001908152602001600020600082825401925050819055505b8173ffffffffffffffffffffffffffffffffffffffff168373ffffffffffffffffffffffffffffffffffffffff167fddf252ad1be2c89b69c2b068fc378daa952ba7f163c4a11628f55a4df523b3ef8360405161061e91906118b1565b60405180910390a3505050565b6000600254905090565b600079ffffffffffffffffffffffffffffffffffffffffffffffffffff8016905090565b600073ffffffffffffffffffffffffffffffffffffffff168373ffffffffffffffffffffffffffffffffffffffff16036106b9576106b6600a61074b60201b610e97176106ab8461076160201b60201c565b6107cf60201b60201c565b50505b600073ffffffffffffffffffffffffffffffffffffffff168273ffffffffffffffffffffffffffffffffffffffff160361071957610716600a61081860201b610ead1761070b8461076160201b60201c565b6107cf60201b60201c565b50505b61074661072b8461082e60201b60201c565b61073a8461082e60201b60201c565b8361089760201b60201c565b505050565b6000818361075991906118f2565b905092915050565b600079ffffffffffffffffffffffffffffffffffffffffffffffffffff80168211156107c75760d0826040517f6dfcc6500000000000000000000000000000000000000000000000000000000081526004016107be929190611988565b60405180910390fd5b819050919050565b60008061080c6107e3610b3660201b60201c565b6107fc6107f588610b4b60201b60201c565b868860201c565b87610bb960201b9092919060201c565b91509150935093915050565b6000818361082691906119b1565b905092915050565b6000600860008373ffffffffffffffffffffffffffffffffffffffff1673ffffffffffffffffffffffffffffffffffffffff16815260200190815260200160002060009054906101000a900473ffffffffffffffffffffffffffffffffffffffff169050919050565b8173ffffffffffffffffffffffffffffffffffffffff168373ffffffffffffffffffffffffffffffffffffffff16141580156108d35750600081115b15610b3157600073ffffffffffffffffffffffffffffffffffffffff168373ffffffffffffffffffffffffffffffffffffffff1614610a0457600080610975600960008773ffffffffffffffffffffffffffffffffffffffff1673ffffffffffffffffffffffffffffffffffffffff16815260200190815260200160002061081860201b610ead1761096a8661076160201b60201c565b6107cf60201b60201c565b79ffffffffffffffffffffffffffffffffffffffffffffffffffff16915079ffffffffffffffffffffffffffffffffffffffffffffffffffff1691508473ffffffffffffffffffffffffffffffffffffffff167fdec2bacdd2f05b59de34da9b523dff8be42e5e38e818c82fdb0bae774387a72483836040516109f992919061181d565b60405180910390a250505b600073ffffffffffffffffffffffffffffffffffffffff168273ffffffffffffffffffffffffffffffffffffffff1614610b3057600080610aa1600960008673ffffffffffffffffffffffffffffffffffffffff1673ffffffffffffffffffffffffffffffffffffffff16815260200190815260200160002061074b60201b610e9717610a968661076160201b60201c565b6107cf60201b60201c565b79ffffffffffffffffffffffffffffffffffffffffffffffffffff16915079ffffffffffffffffffffffffffffffffffffffffffffffffffff1691508373ffffffffffffffffffffffffffffffffffffffff167fdec2bacdd2f05b59de34da9b523dff8be42e5e38e818c82fdb0bae774387a7248383604051610b2592919061181d565b60405180910390a250505b5b505050565b6000610b46610bdc60201b60201c565b905090565b6000808260000180549050905060008114610bae57610b7f83600001600183610b7491906119ff565b610bf260201b60201c565b60000160069054906101000a900479ffffffffffffffffffffffffffffffffffffffffffffffffffff16610bb1565b60005b915050919050565b600080610bd0856000018585610c0760201b60201c565b91509150935093915050565b6000610bed43610f1a60201b60201c565b905090565b60008260005281602060002001905092915050565b6000806000858054905090506000811115610e2a576000610c3a87600184610c2f91906119ff565b610bf260201b60201c565b905060008160000160009054906101000a900465ffffffffffff16905060008260000160069054906101000a900479ffffffffffffffffffffffffffffffffffffffffffffffffffff1690508765ffffffffffff168265ffffffffffff161115610cd0576040517f2520601d00000000000000000000000000000000000000000000000000000000815260040160405180910390fd5b8765ffffffffffff168265ffffffffffff1603610d3b57868360000160066101000a81548179ffffffffffffffffffffffffffffffffffffffffffffffffffff021916908379ffffffffffffffffffffffffffffffffffffffffffffffffffff160217905550610e1b565b8860405180604001604052808a65ffffffffffff1681526020018979ffffffffffffffffffffffffffffffffffffffffffffffffffff168152509080600181540180825580915050600190039060005260206000200160009091909190915060008201518160000160006101000a81548165ffffffffffff021916908365ffffffffffff16021790555060208201518160000160066101000a81548179ffffffffffffffffffffffffffffffffffffffffffffffffffff021916908379ffffffffffffffffffffffffffffffffffffffffffffffffffff16021790555050505b80879550955050505050610f12565b8560405180604001604052808765ffffffffffff1681526020018679ffffffffffffffffffffffffffffffffffffffffffffffffffff168152509080600181540180825580915050600190039060005260206000200160009091909190915060008201518160000160006101000a81548165ffffffffffff021916908365ffffffffffff16021790555060208201518160000160066101000a81548179ffffffffffffffffffffffffffffffffffffffffffffffffffff021916908379ffffffffffffffffffffffffffffffffffffffffffffffffffff160217905550505060008492509250505b935093915050565b600065ffffffffffff8016821115610f6c576030826040517f6dfcc650000000000000000000000000000000000000000000000000000000008152600401610f63929190611a6e565b60405180910390fd5b819050919050565b6000604051905090565b600080fd5b600080fd5b600080fd5b600080fd5b6000601f19601f8301169050919050565b7f4e487b7100000000000000000000000000000000000000000000000000000000600052604160045260246000fd5b610fdb82610f92565b810181811067ffffffffffffffff82111715610ffa57610ff9610fa3565b5b80604052505050565b600061100d610f74565b90506110198282610fd2565b919050565b600067ffffffffffffffff82111561103957611038610fa3565b5b61104282610f92565b9050602081019050919050565b60005b8381101561106d578082015181840152602081019050611052565b60008484015250505050565b600061108c6110878461101e565b611003565b9050828152602081018484840111156110a8576110a7610f8d565b5b6110b384828561104f565b509392505050565b600082601f8301126110d0576110cf610f88565b5b81516110e0848260208601611079565b91505092915050565b60008060408385031215611100576110ff610f7e565b5b600083015167ffffffffffffffff81111561111e5761111d610f83565b5b61112a858286016110bb565b925050602083015167ffffffffffffffff81111561114b5761114a610f83565b5b611157858286016110bb565b9150509250929050565b600081519050919050565b7f4e487b7100000000000000000000000000000000000000000000000000000000600052602260045260246000fd5b600060028204905060018216806111b357607f821691505b6020821081036111c6576111c561116c565b5b50919050565b60008190508160005260206000209050919050565b60006020601f8301049050919050565b600082821b905092915050565b60006008830261122e7fffffffffffffffffffffffffffffffffffffffffffffffffffffffffffffffff826111f1565b61123886836111f1565b95508019841693508086168417925050509392505050565b6000819050919050565b6000819050919050565b600061127f61127a61127584611250565b61125a565b611250565b9050919050565b6000819050919050565b61129983611264565b6112ad6112a582611286565b8484546111fe565b825550505050565b600090565b6112c26112b5565b6112cd818484611290565b505050565b5b818110156112f1576112e66000826112ba565b6001810190506112d3565b5050565b601f82111561133657611307816111cc565b611310846111e1565b8101602085101561131f578190505b61133361132b856111e1565b8301826112d2565b50505b505050565b600082821c905092915050565b60006113596000198460080261133b565b1980831691505092915050565b60006113728383611348565b9150826002028217905092915050565b61138b82611161565b67ffffffffffffffff8111156113a4576113a3610fa3565b5b6113ae825461119b565b6113b98282856112f5565b600060209050601f8311600181146113ec57600084156113da578287015190505b6113e48582611366565b86555061144c565b601f1984166113fa866111cc565b60005b82811015611422578489015182556001820191506020850194506020810190506113fd565b8683101561143f578489015161143b601f891682611348565b8355505b6001600288020188555050505b505050505050565b7f4e487b7100000000000000000000000000000000000000000000000000000000600052601160045260246000fd5b60008160011c9050919050565b6000808291508390505b60018511156114da578086048111156114b6576114b5611454565b5b60018516156114c55780820291505b80810290506114d385611483565b945061149a565b94509492505050565b6000826114f357600190506115af565b8161150157600090506115af565b8160018114611517576002811461152157611550565b60019150506115af565b60ff84111561153357611532611454565b5b8360020a91508482111561154a57611549611454565b5b506115af565b5060208310610133831016604e8410600b84101617156115855782820a9050838111156115805761157f611454565b5b6115af565b6115928484846001611490565b925090508184048111156115a9576115a8611454565b5b81810290505b9392505050565b60006115c182611250565b91506115cc83611250565b92506115f97fffffffffffffffffffffffffffffffffffffffffffffffffffffffffffffffff84846114e3565b905092915050565b600061160c82611250565b915061161783611250565b925082820261162581611250565b9150828204841483151761163c5761163b611454565b5b5092915050565b6000819050919050565b61165681611643565b82525050565b61166581611250565b82525050565b600073ffffffffffffffffffffffffffffffffffffffff82169050919050565b60006116968261166b565b9050919050565b6116a68161168b565b82525050565b600060a0820190506116c1600083018861164d565b6116ce602083018761164d565b6116db604083018661164d565b6116e8606083018561165c565b6116f5608083018461169d565b9695505050505050565b6000602082019050611714600083018461169d565b92915050565b600082825260208201905092915050565b600061173682611161565b611740818561171a565b935061175081856020860161104f565b61175981610f92565b840191505092915050565b6000602082019050818103600083015261177e818461172b565b905092915050565b600081519050919050565b6000819050602082019050919050565b60006117ad8251611643565b80915050919050565b60006117c182611786565b826117cb84611791565b90506117d6816117a1565b92506020821015611816576118117fffffffffffffffffffffffffffffffffffffffffffffffffffffffffffffffff836020036008026111f1565b831692505b5050919050565b6000604082019050611832600083018561165c565b61183f602083018461165c565b9392505050565b600061185182611250565b915061185c83611250565b925082820190508082111561187457611873611454565b5b92915050565b600060608201905061188f600083018661169d565b61189c602083018561165c565b6118a9604083018461165c565b949350505050565b60006020820190506118c6600083018461165c565b92915050565b600079ffffffffffffffffffffffffffffffffffffffffffffffffffff82169050919050565b60006118fd826118cc565b9150611908836118cc565b9250828201905079ffffffffffffffffffffffffffffffffffffffffffffffffffff81111561193a57611939611454565b5b92915050565b6000819050919050565b600060ff82169050919050565b600061197261196d61196884611940565b61125a565b61194a565b9050919050565b61198281611957565b82525050565b600060408201905061199d6000830185611979565b6119aa602083018461165c565b9392505050565b60006119bc826118cc565b91506119c7836118cc565b9250828203905079ffffffffffffffffffffffffffffffffffffffffffffffffffff8111156119f9576119f8611454565b5b92915050565b6000611a0a82611250565b9150611a1583611250565b9250828203905081811115611a2d57611a2c611454565b5b92915050565b6000819050919050565b6000611a58611a53611a4e84611a33565b61125a565b61194a565b9050919050565b611a6881611a3d565b82525050565b6000604082019050611a836000830185611a5f565b611a90602083018461165c565b9392505050565b60805160a05160c05160e051610100516101205161014051613c11611af160003960006115770152600061153c01526000611ab601526000611a9501526000611069015260006110bf015260006110e80152613c116000f3fe608060405234801561001057600080fd5b50600436106101585760003560e01c80637ecebe00116100c3578063a0712d681161007c578063a0712d681461041f578063a9059cbb1461043b578063c3cda5201461046b578063d505accf14610487578063dd62ed3e146104a3578063f1127ed8146104d357610158565b80637ecebe001461032f57806384b0196e1461035f5780638e539e8c1461038357806391ddadf4146103b357806395d89b41146103d15780639ab24eb0146103ef57610158565b80633a46b1a8116101155780633a46b1a8146102355780634bf5d7e914610265578063587cde1e146102835780635c19a95c146102b35780636fcfff45146102cf57806370a08231146102ff57610158565b806306fdde031461015d578063095ea7b31461017b57806318160ddd146101ab57806323b872dd146101c9578063313ce567146101f95780633644e51514610217575b600080fd5b610165610503565b6040516101729190612e2c565b60405180910390f35b61019560048036038101906101909190612ee7565b610595565b6040516101a29190612f42565b60405180910390f35b6101b36105b8565b6040516101c09190612f6c565b60405180910390f35b6101e360048036038101906101de9190612f87565b6105c2565b6040516101f09190612f42565b60405180910390f35b6102016105f1565b60405161020e9190612ff6565b60405180910390f35b61021f6105fa565b60405161022c919061302a565b60405180910390f35b61024f600480360381019061024a9190612ee7565b610609565b60405161025c9190612f6c565b60405180910390f35b61026d610721565b60405161027a9190612e2c565b60405180910390f35b61029d60048036038101906102989190613045565b6107b5565b6040516102aa9190613081565b60405180910390f35b6102cd60048036038101906102c89190613045565b61081e565b005b6102e960048036038101906102e49190613045565b610838565b6040516102f691906130bb565b60405180910390f35b61031960048036038101906103149190613045565b61084a565b6040516103269190612f6c565b60405180910390f35b61034960048036038101906103449190613045565b61090f565b6040516103569190612f6c565b60405180910390f35b610367610921565b60405161037a97969594939291906131cf565b60405180910390f35b61039d60048036038101906103989190613253565b6109cb565b6040516103aa9190612f6c565b60405180910390f35b6103bb610a66565b6040516103c891906132a1565b60405180910390f35b6103d9610a75565b6040516103e69190612e2c565b60405180910390f35b61040960048036038101906104049190613045565b610b07565b6040516104169190612f6c565b60405180910390f35b61043960048036038101906104349190613253565b610b73565b005b61045560048036038101906104509190612ee7565b610bc5565b6040516104629190612f42565b60405180910390f35b61048560048036038101906104809190613314565b610be8565b005b6104a1600480360381019061049c91906133a1565b610cae565b005b6104bd60048036038101906104b89190613443565b610df6565b6040516104ca9190612f6c565b60405180910390f35b6104ed60048036038101906104e891906134af565b610e7d565b6040516104fa9190613562565b60405180910390f35b606060038054610512906135ac565b80601f016020809104026020016040519081016040528092919081815260200182805461053e906135ac565b801561058b5780601f106105605761010080835404028352916020019161058b565b820191906000526020600020905b81548152906001019060200180831161056e57829003601f168201915b5050505050905090565b6000806105a0610ec3565b90506105ad818585610ecb565b600191505092915050565b6000600254905090565b6000806105cd610ec3565b90506105da858285610edd565b6105e5858585610f71565b60019150509392505050565b60006012905090565b6000610604611065565b905090565b60006106496040518060400160405280601281526020017f566f7465732d67657450617374566f746573000000000000000000000000000081525061111c565b6000610653610a66565b90508065ffffffffffff1683106106a35782816040517fecd3f81e00000000000000000000000000000000000000000000000000000000815260040161069a9291906135dd565b60405180910390fd5b6106fc6106af846111b5565b600960008773ffffffffffffffffffffffffffffffffffffffff1673ffffffffffffffffffffffffffffffffffffffff16815260200190815260200160002061120f90919063ffffffff16565b79ffffffffffffffffffffffffffffffffffffffffffffffffffff1691505092915050565b606061072b611309565b65ffffffffffff1661073b610a66565b65ffffffffffff161461077a576040517f6ff0714000000000000000000000000000000000000000000000000000000000815260040160405180910390fd5b6040518060400160405280601d81526020017f6d6f64653d626c6f636b6e756d6265722666726f6d3d64656661756c74000000815250905090565b6000600860008373ffffffffffffffffffffffffffffffffffffffff1673ffffffffffffffffffffffffffffffffffffffff16815260200190815260200160002060009054906101000a900473ffffffffffffffffffffffffffffffffffffffff169050919050565b6000610828610ec3565b90506108348183611319565b5050565b60006108438261142d565b9050919050565b60006108c96040518060400160405280601581526020017f45524332305f62616c616e63654f6628295f31313100000000000000000000008152506000808573ffffffffffffffffffffffffffffffffffffffff1673ffffffffffffffffffffffffffffffffffffffff16815260200190815260200160002054611485565b6000808373ffffffffffffffffffffffffffffffffffffffff1673ffffffffffffffffffffffffffffffffffffffff168152602001908152602001600020549050919050565b600061091a82611521565b9050919050565b600060608060008060006060610935611533565b61093d61156e565b46306000801b600067ffffffffffffffff81111561095e5761095d613606565b5b60405190808252806020026020018201604052801561098c5781602001602082028036833780820191505090505b507f0f00000000000000000000000000000000000000000000000000000000000000959493929190965096509650965096509650965090919293949596565b6000806109d6610a66565b90508065ffffffffffff168310610a265782816040517fecd3f81e000000000000000000000000000000000000000000000000000000008152600401610a1d9291906135dd565b60405180910390fd5b610a42610a32846111b5565b600a61120f90919063ffffffff16565b79ffffffffffffffffffffffffffffffffffffffffffffffffffff16915050919050565b6000610a70611309565b905090565b606060048054610a84906135ac565b80601f0160208091040260200160405190810160405280929190818152602001828054610ab0906135ac565b8015610afd5780601f10610ad257610100808354040283529160200191610afd565b820191906000526020600020905b815481529060010190602001808311610ae057829003601f168201915b5050505050905090565b6000610b50600960008473ffffffffffffffffffffffffffffffffffffffff1673ffffffffffffffffffffffffffffffffffffffff1681526020019081526020016000206115a9565b79ffffffffffffffffffffffffffffffffffffffffffffffffffff169050919050565b610bb26040518060400160405280601c81526020017f6b6f6b6f546f6b656e2d6d696e7428292d6d73672e73656e6465723a0000000081525033611611565b6000339050610bc181836116ad565b5050565b600080610bd0610ec3565b9050610bdd818585610f71565b600191505092915050565b83421115610c2d57836040517f4683af0e000000000000000000000000000000000000000000000000000000008152600401610c249190612f6c565b60405180910390fd5b6000610c8f610c877fe48329057bfd03d55e49b547132e39cffd9c1820ad7b9d4c5307691425d15adf898989604051602001610c6c9493929190613635565b6040516020818303038152906040528051906020012061172f565b858585611749565b9050610c9b8187611779565b610ca58188611319565b50505050505050565b83421115610cf357836040517f62791302000000000000000000000000000000000000000000000000000000008152600401610cea9190612f6c565b60405180910390fd5b60007f6e71edae12b1b97f4d1f60370fef10105fa2faae0126114a169c64845d6126c9888888610d228c6117d1565b89604051602001610d389695949392919061367a565b6040516020818303038152906040528051906020012090506000610d5b8261172f565b90506000610d6b82878787611749565b90508973ffffffffffffffffffffffffffffffffffffffff168173ffffffffffffffffffffffffffffffffffffffff1614610ddf57808a6040517f4b800e46000000000000000000000000000000000000000000000000000000008152600401610dd69291906136db565b60405180910390fd5b610dea8a8a8a610ecb565b50505050505050505050565b6000600160008473ffffffffffffffffffffffffffffffffffffffff1673ffffffffffffffffffffffffffffffffffffffff16815260200190815260200160002060008373ffffffffffffffffffffffffffffffffffffffff1673ffffffffffffffffffffffffffffffffffffffff16815260200190815260200160002054905092915050565b610e85612d54565b610e8f8383611828565b905092915050565b60008183610ea59190613733565b905092915050565b60008183610ebb9190613781565b905092915050565b600033905090565b610ed88383836001611889565b505050565b6000610ee98484610df6565b90507fffffffffffffffffffffffffffffffffffffffffffffffffffffffffffffffff8114610f6b5781811015610f5b578281836040517ffb8f41b2000000000000000000000000000000000000000000000000000000008152600401610f52939291906137cf565b60405180910390fd5b610f6a84848484036000611889565b5b50505050565b600073ffffffffffffffffffffffffffffffffffffffff168373ffffffffffffffffffffffffffffffffffffffff1603610fe35760006040517f96c6fd1e000000000000000000000000000000000000000000000000000000008152600401610fda9190613081565b60405180910390fd5b600073ffffffffffffffffffffffffffffffffffffffff168273ffffffffffffffffffffffffffffffffffffffff16036110555760006040517fec442f0500000000000000000000000000000000000000000000000000000000815260040161104c9190613081565b60405180910390fd5b611060838383611a60565b505050565b60007f000000000000000000000000000000000000000000000000000000000000000073ffffffffffffffffffffffffffffffffffffffff163073ffffffffffffffffffffffffffffffffffffffff161480156110e157507f000000000000000000000000000000000000000000000000000000000000000046145b1561110e577f00000000000000000000000000000000000000000000000000000000000000009050611119565b611116611a70565b90505b90565b6111b2816040516024016111309190612e2c565b6040516020818303038152906040527f41304fac000000000000000000000000000000000000000000000000000000007bffffffffffffffffffffffffffffffffffffffffffffffffffffffff19166020820180517bffffffffffffffffffffffffffffffffffffffffffffffffffffffff8381831617835250505050611b06565b50565b600065ffffffffffff8016821115611207576030826040517f6dfcc6500000000000000000000000000000000000000000000000000000000081526004016111fe92919061384b565b60405180910390fd5b819050919050565b60008083600001805490509050600080829050600583111561129757600061123684611b20565b846112419190613874565b90506112508760000182611cbd565b60000160009054906101000a900465ffffffffffff1665ffffffffffff168665ffffffffffff16101561128557809150611295565b60018161129291906138a8565b92505b505b60006112a887600001878585611cd2565b9050600081146112fa576112cb876000016001836112c69190613874565b611cbd565b60000160069054906101000a900479ffffffffffffffffffffffffffffffffffffffffffffffffffff166112fd565b60005b94505050505092915050565b6000611314436111b5565b905090565b6000611324836107b5565b905081600860008573ffffffffffffffffffffffffffffffffffffffff1673ffffffffffffffffffffffffffffffffffffffff16815260200190815260200160002060006101000a81548173ffffffffffffffffffffffffffffffffffffffff021916908373ffffffffffffffffffffffffffffffffffffffff1602179055508173ffffffffffffffffffffffffffffffffffffffff168173ffffffffffffffffffffffffffffffffffffffff168473ffffffffffffffffffffffffffffffffffffffff167f3134e8a2e6d97e929a7e54011ea5485d7d196dd5f0ba4d4ef95803e8e3fc257f60405160405180910390a4611428818361142386611d4b565b611d5d565b505050565b600061147e611479600960008573ffffffffffffffffffffffffffffffffffffffff1673ffffffffffffffffffffffffffffffffffffffff168152602001908152602001600020611fd6565b611fe7565b9050919050565b61151d828260405160240161149b9291906138dc565b6040516020818303038152906040527fb60e72cc000000000000000000000000000000000000000000000000000000007bffffffffffffffffffffffffffffffffffffffffffffffffffffffff19166020820180517bffffffffffffffffffffffffffffffffffffffffffffffffffffffff8381831617835250505050611b06565b5050565b600061152c8261203f565b9050919050565b606061156960057f000000000000000000000000000000000000000000000000000000000000000061208890919063ffffffff16565b905090565b60606115a460067f000000000000000000000000000000000000000000000000000000000000000061208890919063ffffffff16565b905090565b6000808260000180549050905060008114611606576115d7836000016001836115d29190613874565b611cbd565b60000160069054906101000a900479ffffffffffffffffffffffffffffffffffffffffffffffffffff16611609565b60005b915050919050565b6116a9828260405160240161162792919061390c565b6040516020818303038152906040527f319af333000000000000000000000000000000000000000000000000000000007bffffffffffffffffffffffffffffffffffffffffffffffffffffffff19166020820180517bffffffffffffffffffffffffffffffffffffffffffffffffffffffff8381831617835250505050611b06565b5050565b600073ffffffffffffffffffffffffffffffffffffffff168273ffffffffffffffffffffffffffffffffffffffff160361171f5760006040517fec442f050000000000000000000000000000000000000000000000000000000081526004016117169190613081565b60405180910390fd5b61172b60008383611a60565b5050565b600061174261173c611065565b83612138565b9050919050565b60008060008061175b88888888612179565b92509250925061176b828261226d565b829350505050949350505050565b6000611784836117d1565b90508082146117cc5782816040517f752d88c00000000000000000000000000000000000000000000000000000000081526004016117c392919061393c565b60405180910390fd5b505050565b6000600760008373ffffffffffffffffffffffffffffffffffffffff1673ffffffffffffffffffffffffffffffffffffffff1681526020019081526020016000206000815480929190600101919050559050919050565b611830612d54565b61188182600960008673ffffffffffffffffffffffffffffffffffffffff1673ffffffffffffffffffffffffffffffffffffffff1681526020019081526020016000206123d190919063ffffffff16565b905092915050565b600073ffffffffffffffffffffffffffffffffffffffff168473ffffffffffffffffffffffffffffffffffffffff16036118fb5760006040517fe602df050000000000000000000000000000000000000000000000000000000081526004016118f29190613081565b60405180910390fd5b600073ffffffffffffffffffffffffffffffffffffffff168373ffffffffffffffffffffffffffffffffffffffff160361196d5760006040517f94280d620000000000000000000000000000000000000000000000000000000081526004016119649190613081565b60405180910390fd5b81600160008673ffffffffffffffffffffffffffffffffffffffff1673ffffffffffffffffffffffffffffffffffffffff16815260200190815260200160002060008573ffffffffffffffffffffffffffffffffffffffff1673ffffffffffffffffffffffffffffffffffffffff168152602001908152602001600020819055508015611a5a578273ffffffffffffffffffffffffffffffffffffffff168473ffffffffffffffffffffffffffffffffffffffff167f8c5be1e5ebec7d5bd14f71427d1e84f3dd0314c0f7b2291e5b200ac8c7c3b92584604051611a519190612f6c565b60405180910390a35b50505050565b611a6b8383836124a6565b505050565b60007f8b73c3c69bb8fe3d512ecc4cf759cc79239f7b179b0ffacaa9a75d522b39400f7f00000000000000000000000000000000000000000000000000000000000000007f00000000000000000000000000000000000000000000000000000000000000004630604051602001611aeb959493929190613965565b60405160208183030381529060405280519060200120905090565b611b1d81611b15612557612578565b63ffffffff16565b50565b600060018211611b3257819050611cb8565b60008290506000600190507001000000000000000000000000000000008210611b6457608082901c9150604081901b90505b680100000000000000008210611b8357604082901c9150602081901b90505b6401000000008210611b9e57602082901c9150601081901b90505b620100008210611bb757601082901c9150600881901b90505b6101008210611bcf57600882901c9150600481901b90505b60108210611be657600482901c9150600281901b90505b60048210611bf657600181901b90505b600181600302901c90506001818581611c1257611c116139b8565b5b048201901c90506001818581611c2b57611c2a6139b8565b5b048201901c90506001818581611c4457611c436139b8565b5b048201901c90506001818581611c5d57611c5c6139b8565b5b048201901c90506001818581611c7657611c756139b8565b5b048201901c90506001818581611c8f57611c8e6139b8565b5b048201901c9050611cb1818581611ca957611ca86139b8565b5b048211612583565b8103925050505b919050565b60008260005281602060002001905092915050565b60005b81831015611d40576000611ce9848461258f565b90508465ffffffffffff16611cfe8783611cbd565b60000160009054906101000a900465ffffffffffff1665ffffffffffff161115611d2a57809250611d3a565b600181611d3791906138a8565b93505b50611cd5565b819050949350505050565b6000611d568261084a565b9050919050565b8173ffffffffffffffffffffffffffffffffffffffff168373ffffffffffffffffffffffffffffffffffffffff1614158015611d995750600081115b15611fd157600073ffffffffffffffffffffffffffffffffffffffff168373ffffffffffffffffffffffffffffffffffffffff1614611eb757600080611e28600960008773ffffffffffffffffffffffffffffffffffffffff1673ffffffffffffffffffffffffffffffffffffffff168152602001908152602001600020610ead611e23866125b5565b612623565b79ffffffffffffffffffffffffffffffffffffffffffffffffffff16915079ffffffffffffffffffffffffffffffffffffffffffffffffffff1691508473ffffffffffffffffffffffffffffffffffffffff167fdec2bacdd2f05b59de34da9b523dff8be42e5e38e818c82fdb0bae774387a7248383604051611eac9291906139e7565b60405180910390a250505b600073ffffffffffffffffffffffffffffffffffffffff168273ffffffffffffffffffffffffffffffffffffffff1614611fd057600080611f41600960008673ffffffffffffffffffffffffffffffffffffffff1673ffffffffffffffffffffffffffffffffffffffff168152602001908152602001600020610e97611f3c866125b5565b612623565b79ffffffffffffffffffffffffffffffffffffffffffffffffffff16915079ffffffffffffffffffffffffffffffffffffffffffffffffffff1691508373ffffffffffffffffffffffffffffffffffffffff167fdec2bacdd2f05b59de34da9b523dff8be42e5e38e818c82fdb0bae774387a7248383604051611fc59291906139e7565b60405180910390a250505b5b505050565b600081600001805490509050919050565b600063ffffffff8016821115612037576020826040517f6dfcc65000000000000000000000000000000000000000000000000000000000815260040161202e929190613a4b565b60405180910390fd5b819050919050565b6000600760008373ffffffffffffffffffffffffffffffffffffffff1673ffffffffffffffffffffffffffffffffffffffff168152602001908152602001600020549050919050565b606060ff60001b83146120a55761209e83612663565b9050612132565b8180546120b1906135ac565b80601f01602080910402602001604051908101604052809291908181526020018280546120dd906135ac565b801561212a5780601f106120ff5761010080835404028352916020019161212a565b820191906000526020600020905b81548152906001019060200180831161210d57829003601f168201915b505050505090505b92915050565b60006040517f190100000000000000000000000000000000000000000000000000000000000081528360028201528260228201526042812091505092915050565b60008060007f7fffffffffffffffffffffffffffffff5d576e7357a4501ddfe92f46681b20a08460001c11156121b9576000600385925092509250612263565b6000600188888888604051600081526020016040526040516121de9493929190613a74565b6020604051602081039080840390855afa158015612200573d6000803e3d6000fd5b505050602060405103519050600073ffffffffffffffffffffffffffffffffffffffff168173ffffffffffffffffffffffffffffffffffffffff160361225457600060016000801b93509350935050612263565b8060008060001b935093509350505b9450945094915050565b6000600381111561228157612280613ab9565b5b82600381111561229457612293613ab9565b5b03156123cd57600160038111156122ae576122ad613ab9565b5b8260038111156122c1576122c0613ab9565b5b036122f8576040517ff645eedf00000000000000000000000000000000000000000000000000000000815260040160405180910390fd5b6002600381111561230c5761230b613ab9565b5b82600381111561231f5761231e613ab9565b5b03612364578060001c6040517ffce698f700000000000000000000000000000000000000000000000000000000815260040161235b9190612f6c565b60405180910390fd5b60038081111561237757612376613ab9565b5b82600381111561238a57612389613ab9565b5b036123cc57806040517fd78bce0c0000000000000000000000000000000000000000000000000000000081526004016123c3919061302a565b60405180910390fd5b5b5050565b6123d9612d54565b826000018263ffffffff16815481106123f5576123f4613ae8565b5b906000526020600020016040518060400160405290816000820160009054906101000a900465ffffffffffff1665ffffffffffff1665ffffffffffff1681526020016000820160069054906101000a900479ffffffffffffffffffffffffffffffffffffffffffffffffffff1679ffffffffffffffffffffffffffffffffffffffffffffffffffff1679ffffffffffffffffffffffffffffffffffffffffffffffffffff1681525050905092915050565b6124b18383836126d7565b600073ffffffffffffffffffffffffffffffffffffffff168373ffffffffffffffffffffffffffffffffffffffff16036125475760006124ef6105b8565b905060006124fb6128fc565b9050808211156125445781816040517f1cb15d2600000000000000000000000000000000000000000000000000000000815260040161253b9291906139e7565b60405180910390fd5b50505b612552838383612920565b505050565b60006a636f6e736f6c652e6c6f679050600080835160208501845afa505050565b612d92819050919050565b60008115159050919050565b600060028284186125a09190613b17565b8284166125ad91906138a8565b905092915050565b600079ffffffffffffffffffffffffffffffffffffffffffffffffffff801682111561261b5760d0826040517f6dfcc650000000000000000000000000000000000000000000000000000000008152600401612612929190613b83565b60405180910390fd5b819050919050565b600080612657612631610a66565b61264761263d886115a9565b868863ffffffff16565b876129da9092919063ffffffff16565b91509150935093915050565b60606000612670836129f7565b90506000602067ffffffffffffffff81111561268f5761268e613606565b5b6040519080825280601f01601f1916602001820160405280156126c15781602001600182028036833780820191505090505b5090508181528360208201528092505050919050565b600073ffffffffffffffffffffffffffffffffffffffff168373ffffffffffffffffffffffffffffffffffffffff160361272957806002600082825461271d91906138a8565b925050819055506127fc565b60008060008573ffffffffffffffffffffffffffffffffffffffff1673ffffffffffffffffffffffffffffffffffffffff168152602001908152602001600020549050818110156127b5578381836040517fe450d38c0000000000000000000000000000000000000000000000000000000081526004016127ac939291906137cf565b60405180910390fd5b8181036000808673ffffffffffffffffffffffffffffffffffffffff1673ffffffffffffffffffffffffffffffffffffffff16815260200190815260200160002081905550505b600073ffffffffffffffffffffffffffffffffffffffff168273ffffffffffffffffffffffffffffffffffffffff16036128455780600260008282540392505081905550612892565b806000808473ffffffffffffffffffffffffffffffffffffffff1673ffffffffffffffffffffffffffffffffffffffff168152602001908152602001600020600082825401925050819055505b8173ffffffffffffffffffffffffffffffffffffffff168373ffffffffffffffffffffffffffffffffffffffff167fddf252ad1be2c89b69c2b068fc378daa952ba7f163c4a11628f55a4df523b3ef836040516128ef9190612f6c565b60405180910390a3505050565b600079ffffffffffffffffffffffffffffffffffffffffffffffffffff8016905090565b600073ffffffffffffffffffffffffffffffffffffffff168373ffffffffffffffffffffffffffffffffffffffff160361296d5761296a600a610e97612965846125b5565b612623565b50505b600073ffffffffffffffffffffffffffffffffffffffff168273ffffffffffffffffffffffffffffffffffffffff16036129ba576129b7600a610ead6129b2846125b5565b612623565b50505b6129d56129c6846107b5565b6129cf846107b5565b83611d5d565b505050565b6000806129eb856000018585612a47565b91509150935093915050565b60008060ff8360001c169050601f811115612a3e576040517fb3512b0c00000000000000000000000000000000000000000000000000000000815260040160405180910390fd5b80915050919050565b6000806000858054905090506000811115612c64576000612a7487600184612a6f9190613874565b611cbd565b905060008160000160009054906101000a900465ffffffffffff16905060008260000160069054906101000a900479ffffffffffffffffffffffffffffffffffffffffffffffffffff1690508765ffffffffffff168265ffffffffffff161115612b0a576040517f2520601d00000000000000000000000000000000000000000000000000000000815260040160405180910390fd5b8765ffffffffffff168265ffffffffffff1603612b7557868360000160066101000a81548179ffffffffffffffffffffffffffffffffffffffffffffffffffff021916908379ffffffffffffffffffffffffffffffffffffffffffffffffffff160217905550612c55565b8860405180604001604052808a65ffffffffffff1681526020018979ffffffffffffffffffffffffffffffffffffffffffffffffffff168152509080600181540180825580915050600190039060005260206000200160009091909190915060008201518160000160006101000a81548165ffffffffffff021916908365ffffffffffff16021790555060208201518160000160066101000a81548179ffffffffffffffffffffffffffffffffffffffffffffffffffff021916908379ffffffffffffffffffffffffffffffffffffffffffffffffffff16021790555050505b80879550955050505050612d4c565b8560405180604001604052808765ffffffffffff1681526020018679ffffffffffffffffffffffffffffffffffffffffffffffffffff168152509080600181540180825580915050600190039060005260206000200160009091909190915060008201518160000160006101000a81548165ffffffffffff021916908365ffffffffffff16021790555060208201518160000160066101000a81548179ffffffffffffffffffffffffffffffffffffffffffffffffffff021916908379ffffffffffffffffffffffffffffffffffffffffffffffffffff160217905550505060008492509250505b935093915050565b6040518060400160405280600065ffffffffffff168152602001600079ffffffffffffffffffffffffffffffffffffffffffffffffffff1681525090565b612d9a613bac565b565b600081519050919050565b600082825260208201905092915050565b60005b83811015612dd6578082015181840152602081019050612dbb565b60008484015250505050565b6000601f19601f8301169050919050565b6000612dfe82612d9c565b612e088185612da7565b9350612e18818560208601612db8565b612e2181612de2565b840191505092915050565b60006020820190508181036000830152612e468184612df3565b905092915050565b600080fd5b600073ffffffffffffffffffffffffffffffffffffffff82169050919050565b6000612e7e82612e53565b9050919050565b612e8e81612e73565b8114612e9957600080fd5b50565b600081359050612eab81612e85565b92915050565b6000819050919050565b612ec481612eb1565b8114612ecf57600080fd5b50565b600081359050612ee181612ebb565b92915050565b60008060408385031215612efe57612efd612e4e565b5b6000612f0c85828601612e9c565b9250506020612f1d85828601612ed2565b9150509250929050565b60008115159050919050565b612f3c81612f27565b82525050565b6000602082019050612f576000830184612f33565b92915050565b612f6681612eb1565b82525050565b6000602082019050612f816000830184612f5d565b92915050565b600080600060608486031215612fa057612f9f612e4e565b5b6000612fae86828701612e9c565b9350506020612fbf86828701612e9c565b9250506040612fd086828701612ed2565b9150509250925092565b600060ff82169050919050565b612ff081612fda565b82525050565b600060208201905061300b6000830184612fe7565b92915050565b6000819050919050565b61302481613011565b82525050565b600060208201905061303f600083018461301b565b92915050565b60006020828403121561305b5761305a612e4e565b5b600061306984828501612e9c565b91505092915050565b61307b81612e73565b82525050565b60006020820190506130966000830184613072565b92915050565b600063ffffffff82169050919050565b6130b58161309c565b82525050565b60006020820190506130d060008301846130ac565b92915050565b60007fff0000000000000000000000000000000000000000000000000000000000000082169050919050565b61310b816130d6565b82525050565b600081519050919050565b600082825260208201905092915050565b6000819050602082019050919050565b61314681612eb1565b82525050565b6000613158838361313d565b60208301905092915050565b6000602082019050919050565b600061317c82613111565b613186818561311c565b93506131918361312d565b8060005b838110156131c25781516131a9888261314c565b97506131b483613164565b925050600181019050613195565b5085935050505092915050565b600060e0820190506131e4600083018a613102565b81810360208301526131f68189612df3565b9050818103604083015261320a8188612df3565b90506132196060830187612f5d565b6132266080830186613072565b61323360a083018561301b565b81810360c08301526132458184613171565b905098975050505050505050565b60006020828403121561326957613268612e4e565b5b600061327784828501612ed2565b91505092915050565b600065ffffffffffff82169050919050565b61329b81613280565b82525050565b60006020820190506132b66000830184613292565b92915050565b6132c581612fda565b81146132d057600080fd5b50565b6000813590506132e2816132bc565b92915050565b6132f181613011565b81146132fc57600080fd5b50565b60008135905061330e816132e8565b92915050565b60008060008060008060c0878903121561333157613330612e4e565b5b600061333f89828a01612e9c565b965050602061335089828a01612ed2565b955050604061336189828a01612ed2565b945050606061337289828a016132d3565b935050608061338389828a016132ff565b92505060a061339489828a016132ff565b9150509295509295509295565b600080600080600080600060e0888a0312156133c0576133bf612e4e565b5b60006133ce8a828b01612e9c565b97505060206133df8a828b01612e9c565b96505060406133f08a828b01612ed2565b95505060606134018a828b01612ed2565b94505060806134128a828b016132d3565b93505060a06134238a828b016132ff565b92505060c06134348a828b016132ff565b91505092959891949750929550565b6000806040838503121561345a57613459612e4e565b5b600061346885828601612e9c565b925050602061347985828601612e9c565b9150509250929050565b61348c8161309c565b811461349757600080fd5b50565b6000813590506134a981613483565b92915050565b600080604083850312156134c6576134c5612e4e565b5b60006134d485828601612e9c565b92505060206134e58582860161349a565b9150509250929050565b6134f881613280565b82525050565b600079ffffffffffffffffffffffffffffffffffffffffffffffffffff82169050919050565b61352d816134fe565b82525050565b60408201600082015161354960008501826134ef565b50602082015161355c6020850182613524565b50505050565b60006040820190506135776000830184613533565b92915050565b7f4e487b7100000000000000000000000000000000000000000000000000000000600052602260045260246000fd5b600060028204905060018216806135c457607f821691505b6020821081036135d7576135d661357d565b5b50919050565b60006040820190506135f26000830185612f5d565b6135ff6020830184613292565b9392505050565b7f4e487b7100000000000000000000000000000000000000000000000000000000600052604160045260246000fd5b600060808201905061364a600083018761301b565b6136576020830186613072565b6136646040830185612f5d565b6136716060830184612f5d565b95945050505050565b600060c08201905061368f600083018961301b565b61369c6020830188613072565b6136a96040830187613072565b6136b66060830186612f5d565b6136c36080830185612f5d565b6136d060a0830184612f5d565b979650505050505050565b60006040820190506136f06000830185613072565b6136fd6020830184613072565b9392505050565b7f4e487b7100000000000000000000000000000000000000000000000000000000600052601160045260246000fd5b600061373e826134fe565b9150613749836134fe565b9250828201905079ffffffffffffffffffffffffffffffffffffffffffffffffffff81111561377b5761377a613704565b5b92915050565b600061378c826134fe565b9150613797836134fe565b9250828203905079ffffffffffffffffffffffffffffffffffffffffffffffffffff8111156137c9576137c8613704565b5b92915050565b60006060820190506137e46000830186613072565b6137f16020830185612f5d565b6137fe6040830184612f5d565b949350505050565b6000819050919050565b6000819050919050565b600061383561383061382b84613806565b613810565b612fda565b9050919050565b6138458161381a565b82525050565b6000604082019050613860600083018561383c565b61386d6020830184612f5d565b9392505050565b600061387f82612eb1565b915061388a83612eb1565b92508282039050818111156138a2576138a1613704565b5b92915050565b60006138b382612eb1565b91506138be83612eb1565b92508282019050808211156138d6576138d5613704565b5b92915050565b600060408201905081810360008301526138f68185612df3565b90506139056020830184612f5d565b9392505050565b600060408201905081810360008301526139268185612df3565b90506139356020830184613072565b9392505050565b60006040820190506139516000830185613072565b61395e6020830184612f5d565b9392505050565b600060a08201905061397a600083018861301b565b613987602083018761301b565b613994604083018661301b565b6139a16060830185612f5d565b6139ae6080830184613072565b9695505050505050565b7f4e487b7100000000000000000000000000000000000000000000000000000000600052601260045260246000fd5b60006040820190506139fc6000830185612f5d565b613a096020830184612f5d565b9392505050565b6000819050919050565b6000613a35613a30613a2b84613a10565b613810565b612fda565b9050919050565b613a4581613a1a565b82525050565b6000604082019050613a606000830185613a3c565b613a6d6020830184612f5d565b9392505050565b6000608082019050613a89600083018761301b565b613a966020830186612fe7565b613aa3604083018561301b565b613ab0606083018461301b565b95945050505050565b7f4e487b7100000000000000000000000000000000000000000000000000000000600052602160045260246000fd5b7f4e487b7100000000000000000000000000000000000000000000000000000000600052603260045260246000fd5b6000613b2282612eb1565b9150613b2d83612eb1565b925082613b3d57613b3c6139b8565b5b828204905092915050565b6000819050919050565b6000613b6d613b68613b6384613b48565b613810565b612fda565b9050919050565b613b7d81613b52565b82525050565b6000604082019050613b986000830185613b74565b613ba56020830184612f5d565b9392505050565b7f4e487b7100000000000000000000000000000000000000000000000000000000600052605160045260246000fdfea26469706673582212207a9876701e6b71c86da7d0d345684ba6e335548c33734f510b2445b66c739ab264736f6c634300081c0033",
  "linkReferences": {},
  "deployedLinkReferences": {}
}