{
  "_format": "hh-sol-artifact-1",
  "contractName": "kokoToken",
  "sourceName": "contracts/kokoDao/kokoToken.sol",
  "abi": [
    {
      "inputs": [
        {
          "internalType": "address",
          "name": "defaultAdmin",
          "type": "address"
        },
        {
          "internalType": "address",
          "name": "minter",
          "type": "address"
        }
      ],
      "stateMutability": "nonpayable",
      "type": "constructor"
    },
    {
      "inputs": [],
      "name": "AccessControlBadConfirmation",
      "type": "error"
    },
    {
      "inputs": [
        {
          "internalType": "address",
          "name": "account",
          "type": "address"
        },
        {
          "internalType": "bytes32",
          "name": "neededRole",
          "type": "bytes32"
        }
      ],
      "name": "AccessControlUnauthorizedAccount",
      "type": "error"
    },
    {
      "inputs": [],
      "name": "CheckpointUnorderedInsertion",
      "type": "error"
    },
    {
      "inputs": [],
      "name": "ECDSAInvalidSignature",
      "type": "error"
    },
    {
      "inputs": [
        {
          "internalType": "uint256",
          "name": "length",
          "type": "uint256"
        }
      ],
      "name": "ECDSAInvalidSignatureLength",
      "type": "error"
    },
    {
      "inputs": [
        {
          "internalType": "bytes32",
          "name": "s",
          "type": "bytes32"
        }
      ],
      "name": "ECDSAInvalidSignatureS",
      "type": "error"
    },
    {
      "inputs": [
        {
          "internalType": "uint256",
          "name": "increasedSupply",
          "type": "uint256"
        },
        {
          "internalType": "uint256",
          "name": "cap",
          "type": "uint256"
        }
      ],
      "name": "ERC20ExceededSafeSupply",
      "type": "error"
    },
    {
      "inputs": [
        {
          "internalType": "address",
          "name": "spender",
          "type": "address"
        },
        {
          "internalType": "uint256",
          "name": "allowance",
          "type": "uint256"
        },
        {
          "internalType": "uint256",
          "name": "needed",
          "type": "uint256"
        }
      ],
      "name": "ERC20InsufficientAllowance",
      "type": "error"
    },
    {
      "inputs": [
        {
          "internalType": "address",
          "name": "sender",
          "type": "address"
        },
        {
          "internalType": "uint256",
          "name": "balance",
          "type": "uint256"
        },
        {
          "internalType": "uint256",
          "name": "needed",
          "type": "uint256"
        }
      ],
      "name": "ERC20InsufficientBalance",
      "type": "error"
    },
    {
      "inputs": [
        {
          "internalType": "address",
          "name": "approver",
          "type": "address"
        }
      ],
      "name": "ERC20InvalidApprover",
      "type": "error"
    },
    {
      "inputs": [
        {
          "internalType": "address",
          "name": "receiver",
          "type": "address"
        }
      ],
      "name": "ERC20InvalidReceiver",
      "type": "error"
    },
    {
      "inputs": [
        {
          "internalType": "address",
          "name": "sender",
          "type": "address"
        }
      ],
      "name": "ERC20InvalidSender",
      "type": "error"
    },
    {
      "inputs": [
        {
          "internalType": "address",
          "name": "spender",
          "type": "address"
        }
      ],
      "name": "ERC20InvalidSpender",
      "type": "error"
    },
    {
      "inputs": [
        {
          "internalType": "uint256",
          "name": "deadline",
          "type": "uint256"
        }
      ],
      "name": "ERC2612ExpiredSignature",
      "type": "error"
    },
    {
      "inputs": [
        {
          "internalType": "address",
          "name": "signer",
          "type": "address"
        },
        {
          "internalType": "address",
          "name": "owner",
          "type": "address"
        }
      ],
      "name": "ERC2612InvalidSigner",
      "type": "error"
    },
    {
      "inputs": [
        {
          "internalType": "uint256",
          "name": "timepoint",
          "type": "uint256"
        },
        {
          "internalType": "uint48",
          "name": "clock",
          "type": "uint48"
        }
      ],
      "name": "ERC5805FutureLookup",
      "type": "error"
    },
    {
      "inputs": [],
      "name": "ERC6372InconsistentClock",
      "type": "error"
    },
    {
      "inputs": [
        {
          "internalType": "address",
          "name": "account",
          "type": "address"
        },
        {
          "internalType": "uint256",
          "name": "currentNonce",
          "type": "uint256"
        }
      ],
      "name": "InvalidAccountNonce",
      "type": "error"
    },
    {
      "inputs": [],
      "name": "InvalidShortString",
      "type": "error"
    },
    {
      "inputs": [
        {
          "internalType": "uint8",
          "name": "bits",
          "type": "uint8"
        },
        {
          "internalType": "uint256",
          "name": "value",
          "type": "uint256"
        }
      ],
      "name": "SafeCastOverflowedUintDowncast",
      "type": "error"
    },
    {
      "inputs": [
        {
          "internalType": "string",
          "name": "str",
          "type": "string"
        }
      ],
      "name": "StringTooLong",
      "type": "error"
    },
    {
      "inputs": [
        {
          "internalType": "uint256",
          "name": "expiry",
          "type": "uint256"
        }
      ],
      "name": "VotesExpiredSignature",
      "type": "error"
    },
    {
      "anonymous": false,
      "inputs": [
        {
          "indexed": true,
          "internalType": "address",
          "name": "owner",
          "type": "address"
        },
        {
          "indexed": true,
          "internalType": "address",
          "name": "spender",
          "type": "address"
        },
        {
          "indexed": false,
          "internalType": "uint256",
          "name": "value",
          "type": "uint256"
        }
      ],
      "name": "Approval",
      "type": "event"
    },
    {
      "anonymous": false,
      "inputs": [
        {
          "indexed": true,
          "internalType": "address",
          "name": "delegator",
          "type": "address"
        },
        {
          "indexed": true,
          "internalType": "address",
          "name": "fromDelegate",
          "type": "address"
        },
        {
          "indexed": true,
          "internalType": "address",
          "name": "toDelegate",
          "type": "address"
        }
      ],
      "name": "DelegateChanged",
      "type": "event"
    },
    {
      "anonymous": false,
      "inputs": [
        {
          "indexed": true,
          "internalType": "address",
          "name": "delegate",
          "type": "address"
        },
        {
          "indexed": false,
          "internalType": "uint256",
          "name": "previousVotes",
          "type": "uint256"
        },
        {
          "indexed": false,
          "internalType": "uint256",
          "name": "newVotes",
          "type": "uint256"
        }
      ],
      "name": "DelegateVotesChanged",
      "type": "event"
    },
    {
      "anonymous": false,
      "inputs": [],
      "name": "EIP712DomainChanged",
      "type": "event"
    },
    {
      "anonymous": false,
      "inputs": [
        {
          "indexed": true,
          "internalType": "bytes32",
          "name": "role",
          "type": "bytes32"
        },
        {
          "indexed": true,
          "internalType": "bytes32",
          "name": "previousAdminRole",
          "type": "bytes32"
        },
        {
          "indexed": true,
          "internalType": "bytes32",
          "name": "newAdminRole",
          "type": "bytes32"
        }
      ],
      "name": "RoleAdminChanged",
      "type": "event"
    },
    {
      "anonymous": false,
      "inputs": [
        {
          "indexed": true,
          "internalType": "bytes32",
          "name": "role",
          "type": "bytes32"
        },
        {
          "indexed": true,
          "internalType": "address",
          "name": "account",
          "type": "address"
        },
        {
          "indexed": true,
          "internalType": "address",
          "name": "sender",
          "type": "address"
        }
      ],
      "name": "RoleGranted",
      "type": "event"
    },
    {
      "anonymous": false,
      "inputs": [
        {
          "indexed": true,
          "internalType": "bytes32",
          "name": "role",
          "type": "bytes32"
        },
        {
          "indexed": true,
          "internalType": "address",
          "name": "account",
          "type": "address"
        },
        {
          "indexed": true,
          "internalType": "address",
          "name": "sender",
          "type": "address"
        }
      ],
      "name": "RoleRevoked",
      "type": "event"
    },
    {
      "anonymous": false,
      "inputs": [
        {
          "indexed": true,
          "internalType": "address",
          "name": "from",
          "type": "address"
        },
        {
          "indexed": true,
          "internalType": "address",
          "name": "to",
          "type": "address"
        },
        {
          "indexed": false,
          "internalType": "uint256",
          "name": "value",
          "type": "uint256"
        }
      ],
      "name": "Transfer",
      "type": "event"
    },
    {
      "inputs": [],
      "name": "CLOCK_MODE",
      "outputs": [
        {
          "internalType": "string",
          "name": "",
          "type": "string"
        }
      ],
      "stateMutability": "pure",
      "type": "function"
    },
    {
      "inputs": [],
      "name": "DEFAULT_ADMIN_ROLE",
      "outputs": [
        {
          "internalType": "bytes32",
          "name": "",
          "type": "bytes32"
        }
      ],
      "stateMutability": "view",
      "type": "function"
    },
    {
      "inputs": [],
      "name": "DOMAIN_SEPARATOR",
      "outputs": [
        {
          "internalType": "bytes32",
          "name": "",
          "type": "bytes32"
        }
      ],
      "stateMutability": "view",
      "type": "function"
    },
    {
      "inputs": [],
      "name": "MINTER_ROLE",
      "outputs": [
        {
          "internalType": "bytes32",
          "name": "",
          "type": "bytes32"
        }
      ],
      "stateMutability": "view",
      "type": "function"
    },
    {
      "inputs": [
        {
          "internalType": "address",
          "name": "owner",
          "type": "address"
        },
        {
          "internalType": "address",
          "name": "spender",
          "type": "address"
        }
      ],
      "name": "allowance",
      "outputs": [
        {
          "internalType": "uint256",
          "name": "",
          "type": "uint256"
        }
      ],
      "stateMutability": "view",
      "type": "function"
    },
    {
      "inputs": [
        {
          "internalType": "address",
          "name": "spender",
          "type": "address"
        },
        {
          "internalType": "uint256",
          "name": "value",
          "type": "uint256"
        }
      ],
      "name": "approve",
      "outputs": [
        {
          "internalType": "bool",
          "name": "",
          "type": "bool"
        }
      ],
      "stateMutability": "nonpayable",
      "type": "function"
    },
    {
      "inputs": [
        {
          "internalType": "address",
          "name": "account",
          "type": "address"
        }
      ],
      "name": "balanceOf",
      "outputs": [
        {
          "internalType": "uint256",
          "name": "",
          "type": "uint256"
        }
      ],
      "stateMutability": "view",
      "type": "function"
    },
    {
      "inputs": [
        {
          "internalType": "uint256",
          "name": "value",
          "type": "uint256"
        }
      ],
      "name": "burn",
      "outputs": [],
      "stateMutability": "nonpayable",
      "type": "function"
    },
    {
      "inputs": [
        {
          "internalType": "address",
          "name": "account",
          "type": "address"
        },
        {
          "internalType": "uint256",
          "name": "value",
          "type": "uint256"
        }
      ],
      "name": "burnFrom",
      "outputs": [],
      "stateMutability": "nonpayable",
      "type": "function"
    },
    {
      "inputs": [
        {
          "internalType": "address",
          "name": "account",
          "type": "address"
        },
        {
          "internalType": "uint32",
          "name": "pos",
          "type": "uint32"
        }
      ],
      "name": "checkpoints",
      "outputs": [
        {
          "components": [
            {
              "internalType": "uint48",
              "name": "_key",
              "type": "uint48"
            },
            {
              "internalType": "uint208",
              "name": "_value",
              "type": "uint208"
            }
          ],
          "internalType": "struct Checkpoints.Checkpoint208",
          "name": "",
          "type": "tuple"
        }
      ],
      "stateMutability": "view",
      "type": "function"
    },
    {
      "inputs": [],
      "name": "clock",
      "outputs": [
        {
          "internalType": "uint48",
          "name": "",
          "type": "uint48"
        }
      ],
      "stateMutability": "view",
      "type": "function"
    },
    {
      "inputs": [],
      "name": "decimals",
      "outputs": [
        {
          "internalType": "uint8",
          "name": "",
          "type": "uint8"
        }
      ],
      "stateMutability": "view",
      "type": "function"
    },
    {
      "inputs": [
        {
          "internalType": "address",
          "name": "delegatee",
          "type": "address"
        }
      ],
      "name": "delegate",
      "outputs": [],
      "stateMutability": "nonpayable",
      "type": "function"
    },
    {
      "inputs": [
        {
          "internalType": "address",
          "name": "delegatee",
          "type": "address"
        },
        {
          "internalType": "uint256",
          "name": "nonce",
          "type": "uint256"
        },
        {
          "internalType": "uint256",
          "name": "expiry",
          "type": "uint256"
        },
        {
          "internalType": "uint8",
          "name": "v",
          "type": "uint8"
        },
        {
          "internalType": "bytes32",
          "name": "r",
          "type": "bytes32"
        },
        {
          "internalType": "bytes32",
          "name": "s",
          "type": "bytes32"
        }
      ],
      "name": "delegateBySig",
      "outputs": [],
      "stateMutability": "nonpayable",
      "type": "function"
    },
    {
      "inputs": [
        {
          "internalType": "address",
          "name": "account",
          "type": "address"
        }
      ],
      "name": "delegates",
      "outputs": [
        {
          "internalType": "address",
          "name": "",
          "type": "address"
        }
      ],
      "stateMutability": "view",
      "type": "function"
    },
    {
      "inputs": [],
      "name": "eip712Domain",
      "outputs": [
        {
          "internalType": "bytes1",
          "name": "fields",
          "type": "bytes1"
        },
        {
          "internalType": "string",
          "name": "name",
          "type": "string"
        },
        {
          "internalType": "string",
          "name": "version",
          "type": "string"
        },
        {
          "internalType": "uint256",
          "name": "chainId",
          "type": "uint256"
        },
        {
          "internalType": "address",
          "name": "verifyingContract",
          "type": "address"
        },
        {
          "internalType": "bytes32",
          "name": "salt",
          "type": "bytes32"
        },
        {
          "internalType": "uint256[]",
          "name": "extensions",
          "type": "uint256[]"
        }
      ],
      "stateMutability": "view",
      "type": "function"
    },
    {
      "inputs": [
        {
          "internalType": "uint256",
          "name": "timepoint",
          "type": "uint256"
        }
      ],
      "name": "getPastTotalSupply",
      "outputs": [
        {
          "internalType": "uint256",
          "name": "",
          "type": "uint256"
        }
      ],
      "stateMutability": "view",
      "type": "function"
    },
    {
      "inputs": [
        {
          "internalType": "address",
          "name": "account",
          "type": "address"
        },
        {
          "internalType": "uint256",
          "name": "timepoint",
          "type": "uint256"
        }
      ],
      "name": "getPastVotes",
      "outputs": [
        {
          "internalType": "uint256",
          "name": "",
          "type": "uint256"
        }
      ],
      "stateMutability": "view",
      "type": "function"
    },
    {
      "inputs": [
        {
          "internalType": "bytes32",
          "name": "role",
          "type": "bytes32"
        }
      ],
      "name": "getRoleAdmin",
      "outputs": [
        {
          "internalType": "bytes32",
          "name": "",
          "type": "bytes32"
        }
      ],
      "stateMutability": "view",
      "type": "function"
    },
    {
      "inputs": [
        {
          "internalType": "address",
          "name": "account",
          "type": "address"
        }
      ],
      "name": "getVotes",
      "outputs": [
        {
          "internalType": "uint256",
          "name": "",
          "type": "uint256"
        }
      ],
      "stateMutability": "view",
      "type": "function"
    },
    {
      "inputs": [
        {
          "internalType": "bytes32",
          "name": "role",
          "type": "bytes32"
        },
        {
          "internalType": "address",
          "name": "account",
          "type": "address"
        }
      ],
      "name": "grantRole",
      "outputs": [],
      "stateMutability": "nonpayable",
      "type": "function"
    },
    {
      "inputs": [
        {
          "internalType": "bytes32",
          "name": "role",
          "type": "bytes32"
        },
        {
          "internalType": "address",
          "name": "account",
          "type": "address"
        }
      ],
      "name": "hasRole",
      "outputs": [
        {
          "internalType": "bool",
          "name": "",
          "type": "bool"
        }
      ],
      "stateMutability": "view",
      "type": "function"
    },
    {
      "inputs": [
        {
          "internalType": "address",
          "name": "to",
          "type": "address"
        },
        {
          "internalType": "uint256",
          "name": "amount",
          "type": "uint256"
        }
      ],
      "name": "mint",
      "outputs": [],
      "stateMutability": "nonpayable",
      "type": "function"
    },
    {
      "inputs": [],
      "name": "name",
      "outputs": [
        {
          "internalType": "string",
          "name": "",
          "type": "string"
        }
      ],
      "stateMutability": "view",
      "type": "function"
    },
    {
      "inputs": [
        {
          "internalType": "address",
          "name": "owner",
          "type": "address"
        }
      ],
      "name": "nonces",
      "outputs": [
        {
          "internalType": "uint256",
          "name": "",
          "type": "uint256"
        }
      ],
      "stateMutability": "view",
      "type": "function"
    },
    {
      "inputs": [
        {
          "internalType": "address",
          "name": "account",
          "type": "address"
        }
      ],
      "name": "numCheckpoints",
      "outputs": [
        {
          "internalType": "uint32",
          "name": "",
          "type": "uint32"
        }
      ],
      "stateMutability": "view",
      "type": "function"
    },
    {
      "inputs": [
        {
          "internalType": "address",
          "name": "owner",
          "type": "address"
        },
        {
          "internalType": "address",
          "name": "spender",
          "type": "address"
        },
        {
          "internalType": "uint256",
          "name": "value",
          "type": "uint256"
        },
        {
          "internalType": "uint256",
          "name": "deadline",
          "type": "uint256"
        },
        {
          "internalType": "uint8",
          "name": "v",
          "type": "uint8"
        },
        {
          "internalType": "bytes32",
          "name": "r",
          "type": "bytes32"
        },
        {
          "internalType": "bytes32",
          "name": "s",
          "type": "bytes32"
        }
      ],
      "name": "permit",
      "outputs": [],
      "stateMutability": "nonpayable",
      "type": "function"
    },
    {
      "inputs": [
        {
          "internalType": "bytes32",
          "name": "role",
          "type": "bytes32"
        },
        {
          "internalType": "address",
          "name": "callerConfirmation",
          "type": "address"
        }
      ],
      "name": "renounceRole",
      "outputs": [],
      "stateMutability": "nonpayable",
      "type": "function"
    },
    {
      "inputs": [
        {
          "internalType": "bytes32",
          "name": "role",
          "type": "bytes32"
        },
        {
          "internalType": "address",
          "name": "account",
          "type": "address"
        }
      ],
      "name": "revokeRole",
      "outputs": [],
      "stateMutability": "nonpayable",
      "type": "function"
    },
    {
      "inputs": [
        {
          "internalType": "bytes4",
          "name": "interfaceId",
          "type": "bytes4"
        }
      ],
      "name": "supportsInterface",
      "outputs": [
        {
          "internalType": "bool",
          "name": "",
          "type": "bool"
        }
      ],
      "stateMutability": "view",
      "type": "function"
    },
    {
      "inputs": [],
      "name": "symbol",
      "outputs": [
        {
          "internalType": "string",
          "name": "",
          "type": "string"
        }
      ],
      "stateMutability": "view",
      "type": "function"
    },
    {
      "inputs": [],
      "name": "totalSupply",
      "outputs": [
        {
          "internalType": "uint256",
          "name": "",
          "type": "uint256"
        }
      ],
      "stateMutability": "view",
      "type": "function"
    },
    {
      "inputs": [
        {
          "internalType": "address",
          "name": "to",
          "type": "address"
        },
        {
          "internalType": "uint256",
          "name": "value",
          "type": "uint256"
        }
      ],
      "name": "transfer",
      "outputs": [
        {
          "internalType": "bool",
          "name": "",
          "type": "bool"
        }
      ],
      "stateMutability": "nonpayable",
      "type": "function"
    },
    {
      "inputs": [
        {
          "internalType": "address",
          "name": "from",
          "type": "address"
        },
        {
          "internalType": "address",
          "name": "to",
          "type": "address"
        },
        {
          "internalType": "uint256",
          "name": "value",
          "type": "uint256"
        }
      ],
      "name": "transferFrom",
      "outputs": [
        {
          "internalType": "bool",
          "name": "",
          "type": "bool"
        }
      ],
      "stateMutability": "nonpayable",
      "type": "function"
    }
  ],
  "bytecode": "0x61016060405234801561001157600080fd5b5060405161458038038061458083398101604081905261003091611041565b6040518060400160405280600981526020016835b7b5b7aa37b5b2b760b91b81525080604051806040016040528060018152602001603160f81b8152506040518060400160405280600981526020016835b7b5b7aa37b5b2b760b91b815250604051806040016040528060028152602001614b4f60f01b81525081600390816100b99190611112565b5060046100c68282611112565b506100d69150839050600661020d565b610120526100e581600761020d565b61014052815160208084019190912060e052815190820120610100524660a05261017260e05161010051604080517f8b73c3c69bb8fe3d512ecc4cf759cc79239f7b179b0ffacaa9a75d522b39400f60208201529081019290925260608201524660808201523060a082015260009060c00160405160208183030381529060405280519060200120905090565b60805250503060c052506040805160608101909152602280825261019f91906144d8602083013933610240565b6101c160405180606001604052806025815260200161453b6025913930610240565b6101cc60008361028d565b506101e560008051602061451b8339815191528261028d565b50610206336101f66012600a6112c5565b6102019060646112d1565b61033b565b5050611415565b600060208351101561022957610222836103b2565b905061023a565b816102348482611112565b5060ff90505b92915050565b610289828260405160240161025692919061132e565b60408051601f198184030181529190526020810180516001600160e01b0390811663319af33360e01b179091526103f916565b5050565b60008281526005602090815260408083206001600160a01b038516845290915281205460ff166103335760008381526005602090815260408083206001600160a01b03861684529091529020805460ff191660011790556102eb3390565b6001600160a01b0316826001600160a01b0316847f2f8788117e7eff1d82e926ec794901d17c78024a50270940304540a733656f0d60405160405180910390a450600161023a565b50600061023a565b60008051602061451b8339815191526103538161040f565b61035d8383610419565b610367838061044f565b60408051808201909152601f81527f6b6f6b6f546f6b656e2d6d696e7428292d62616c616e63654f6628746f293a0060208201526103ad906103a8856104c1565b61058d565b505050565b600080829050601f815111156103e6578260405163305a27a960e01b81526004016103dd9190611358565b60405180910390fd5b80516103f18261136b565b179392505050565b61040c816105d660201b6111d61760201c565b50565b61040c81336105f7565b6001600160a01b0382166104435760405163ec442f0560e01b8152600060048201526024016103dd565b6102896000838361064c565b6001600160a01b0382811660008181526009602052604080822080548686166001600160a01b0319821681179092559151919094169392849290917f3134e8a2e6d97e929a7e54011ea5485d7d196dd5f0ba4d4ef95803e8e3fc257f9190a46103ad81836104bc86610657565b610662565b60006105086040518060400160405280601981526020017f45524332305f62616c616e63654f6628292d6163636f756e74000000000000008152508361024060201b60201c565b6105716040518060400160405280601581526020017f45524332305f62616c616e63654f6628295f3131310000000000000000000000815250600080856001600160a01b03166001600160a01b031681526020019081526020016000205461058d60201b60201c565b506001600160a01b031660009081526020819052604090205490565b61028982826040516024016105a392919061138f565b60408051601f198184030181529190526020810180516001600160e01b03908116632d839cb360e21b179091526103f916565b60006a636f6e736f6c652e6c6f679050600080835160208501845afa505050565b60008281526005602090815260408083206001600160a01b038516845290915290205460ff166102895760405163e2517d3f60e01b81526001600160a01b0382166004820152602481018390526044016103dd565b6103ad8383836107bc565b600061023a826104c1565b816001600160a01b0316836001600160a01b0316141580156106845750600081115b156103ad576001600160a01b03831615610723576001600160a01b0383166000908152600a60209081526040822082916106d09190610823901b6111f7176106cb86610836565b61086e565b6001600160d01b031691506001600160d01b03169150846001600160a01b03166000805160206145608339815191528383604051610718929190918252602082015260400190565b60405180910390a250505b6001600160a01b038216156103ad576001600160a01b0382166000908152600a6020908152604082208291610765919061089d901b611203176106cb86610836565b6001600160d01b031691506001600160d01b03169150836001600160a01b031660008051602061456083398151915283836040516107ad929190918252602082015260400190565b60405180910390a25050505050565b6107c78383836108a9565b6001600160a01b0383166108185760006107e060025490565b90506001600160d01b038082111561081557604051630e58ae9360e11b815260048101839052602481018290526044016103dd565b50505b6103ad838383610da2565b600061082f82846113b1565b9392505050565b60006001600160d01b0382111561086a576040516306dfcc6560e41b815260d06004820152602481018390526044016103dd565b5090565b6000806108904261088861088188610e26565b868860201c565b879190610e70565b915091505b935093915050565b600061082f82846113d0565b60408051808201909152601381527f45524332302d5f75706461746528292d3131310000000000000000000000000060208201526108e690610e7e565b60408051808201909152601481527f45524332302d5f75706461746528292d66726f6d00000000000000000000000060208201526109249084610240565b60408051808201909152601281527145524332302d5f75706461746528292d746f60701b60208201526109579083610240565b60408051808201909152601681527f45524332302d5f75706461746528292d76616c75653a000000000000000000006020820152610995908261058d565b6109fe6040518060400160405280601b81526020017f45524332302d5f75706461746528292d66726f6d42616c616e63650000000000815250600080866001600160a01b03166001600160a01b031681526020019081526020016000205461058d60201b60201c565b610a676040518060400160405280601981526020017f45524332302d5f75706461746528292d746f42616c616e636500000000000000815250600080856001600160a01b03166001600160a01b031681526020019081526020016000205461058d60201b60201c565b6001600160a01b038316610acf5760408051808201909152601381527f45524332302d5f75706461746528292d323232000000000000000000000000006020820152610ab290610e7e565b8060026000828254610ac491906113ef565b90915550610bf89050565b60408051808201909152601381527f45524332302d5f75706461746528292d333333000000000000000000000000006020820152610b0c90610e7e565b6001600160a01b03831660009081526020819052604090205481811015610b9c5760408051808201909152601381527f45524332302d5f75706461746528292d343434000000000000000000000000006020820152610b6a90610e7e565b60405163391434e360e21b81526001600160a01b038516600482015260248101829052604481018390526064016103dd565b60408051808201909152601381527f45524332302d5f75706461746528292d353535000000000000000000000000006020820152610bd990610e7e565b6001600160a01b03841660009081526020819052604090209082900390555b6001600160a01b038216610c515760408051808201909152601381527f45524332302d5f75706461746528292d363636000000000000000000000000006020820152610c4390610e7e565b600280548290039055610cad565b60408051808201909152601381527f45524332302d5f75706461746528292d373737000000000000000000000000006020820152610c8e90610e7e565b6001600160a01b03821660009081526020819052604090208054820190555b610ce76040518060600160405280602181526020016144fa602191396001600160a01b03851660009081526020819052604090205461058d565b610d506040518060400160405280601f81526020017f61667465722d45524332302d5f75706461746528292d746f42616c616e636500815250600080856001600160a01b03166001600160a01b031681526020019081526020016000205461058d60201b60201c565b816001600160a01b0316836001600160a01b03167fddf252ad1be2c89b69c2b068fc378daa952ba7f163c4a11628f55a4df523b3ef83604051610d9591815260200190565b60405180910390a3505050565b6001600160a01b038316610dcb57610dc8600b61120361089d60201b176106cb84610836565b50505b6001600160a01b038216610df457610df1600b6111f761082360201b176106cb84610836565b50505b6001600160a01b038381166000908152600960205260408082205485841683529120546103ad92918216911683610662565b80546000908015610e6757610e4e83610e40600184611402565b600091825260209091200190565b54660100000000000090046001600160d01b031661082f565b60009392505050565b600080610890858585610ec5565b61040c81604051602401610e929190611358565b60408051601f198184030181529190526020810180516001600160e01b0390811663104c13eb60e21b179091526103f916565b825460009081908015610fc7576000610ee387610e40600185611402565b805490915065ffffffffffff80821691660100000000000090046001600160d01b0316908816821115610f2957604051632520601d60e01b815260040160405180910390fd5b8765ffffffffffff168265ffffffffffff1603610f6557825465ffffffffffff1666010000000000006001600160d01b03891602178355610fb9565b6040805180820190915265ffffffffffff808a1682526001600160d01b03808a1660208085019182528d54600181018f5560008f815291909120945191519092166601000000000000029216919091179101555b945085935061089592505050565b50506040805180820190915265ffffffffffff80851682526001600160d01b0380851660208085019182528854600181018a5560008a8152918220955192519093166601000000000000029190931617920191909155905081610895565b80516001600160a01b038116811461103c57600080fd5b919050565b6000806040838503121561105457600080fd5b61105d83611025565b915061106b60208401611025565b90509250929050565b634e487b7160e01b600052604160045260246000fd5b600181811c9082168061109e57607f821691505b6020821081036110be57634e487b7160e01b600052602260045260246000fd5b50919050565b601f8211156103ad57806000526020600020601f840160051c810160208510156110eb5750805b601f840160051c820191505b8181101561110b57600081556001016110f7565b5050505050565b81516001600160401b0381111561112b5761112b611074565b61113f81611139845461108a565b846110c4565b6020601f821160018114611173576000831561115b5750848201515b600019600385901b1c1916600184901b17845561110b565b600084815260208120601f198516915b828110156111a35787850151825560209485019460019092019101611183565b50848210156111c15786840151600019600387901b60f8161c191681555b50505050600190811b01905550565b634e487b7160e01b600052601160045260246000fd5b6001815b600184111561089557808504811115611205576112056111d0565b600184161561121357908102905b60019390931c9280026111ea565b6000826112305750600161023a565b8161123d5750600061023a565b8160018114611253576002811461125d57611279565b600191505061023a565b60ff84111561126e5761126e6111d0565b50506001821b61023a565b5060208310610133831016604e8410600b841016171561129c575081810a61023a565b6112a960001984846111e6565b80600019048211156112bd576112bd6111d0565b029392505050565b600061082f8383611221565b808202811582820484141761023a5761023a6111d0565b6000815180845260005b8181101561130e576020818501810151868301820152016112f2565b506000602082860101526020601f19601f83011685010191505092915050565b60408152600061134160408301856112e8565b905060018060a01b03831660208301529392505050565b60208152600061082f60208301846112e8565b805160208083015191908110156110be5760001960209190910360031b1b16919050565b6040815260006113a260408301856112e8565b90508260208301529392505050565b6001600160d01b03828116828216039081111561023a5761023a6111d0565b6001600160d01b03818116838216019081111561023a5761023a6111d0565b8082018082111561023a5761023a6111d0565b8181038181111561023a5761023a6111d0565b60805160a05160c05160e05161010051610120516101405161306961146f6000396000611926015260006118f90152600061159801526000611570015260006114cb015260006114f50152600061151f01526130696000f3fe608060405234801561001057600080fd5b50600436106102265760003560e01c806370a082311161012a5780639ab24eb0116100bd578063d505accf1161008c578063d547741f11610071578063d547741f1461052c578063dd62ed3e1461053f578063f1127ed81461057857600080fd5b8063d505accf146104f2578063d53913931461050557600080fd5b80639ab24eb0146104b1578063a217fddf146104c4578063a9059cbb146104cc578063c3cda520146104df57600080fd5b80638e539e8c116100f95780638e539e8c1461044757806391d148541461045a57806391ddadf41461049357806395d89b41146104a957600080fd5b806370a08231146103f357806379cc6790146104065780637ecebe001461041957806384b0196e1461042c57600080fd5b80633644e515116101bd57806342966c681161018c578063587cde1e11610171578063587cde1e146103745780635c19a95c146103b85780636fcfff45146103cb57600080fd5b806342966c68146103285780634bf5d7e91461033b57600080fd5b80633644e515146102e757806336568abe146102ef5780633a46b1a81461030257806340c10f191461031557600080fd5b806323b872dd116101f957806323b872dd1461028d578063248a9ca3146102a05780632f2ff15d146102c3578063313ce567146102d857600080fd5b806301ffc9a71461022b57806306fdde0314610253578063095ea7b31461026857806318160ddd1461027b575b600080fd5b61023e610239366004612b27565b6105b7565b60405190151581526020015b60405180910390f35b61025b610650565b60405161024a9190612baf565b61023e610276366004612bde565b6106e2565b6002545b60405190815260200161024a565b61023e61029b366004612c08565b610886565b61027f6102ae366004612c45565b60009081526005602052604090206001015490565b6102d66102d1366004612c5e565b6108aa565b005b6040516012815260200161024a565b61027f6108d5565b6102d66102fd366004612c5e565b6108e4565b61027f610310366004612bde565b610935565b6102d6610323366004612bde565b6109ef565b6102d6610336366004612c45565b610a6f565b60408051808201909152600e81527f6d6f64653d74696d657374616d70000000000000000000000000000000000000602082015261025b565b6103a0610382366004612c8a565b6001600160a01b039081166000908152600960205260409020541690565b6040516001600160a01b03909116815260200161024a565b6102d66103c6366004612c8a565b610a7c565b6103de6103d9366004612c8a565b610a8b565b60405163ffffffff909116815260200161024a565b61027f610401366004612c8a565b610a96565b6102d6610414366004612bde565b610b56565b61027f610427366004612c8a565b610b6b565b610434610b76565b60405161024a9796959493929190612ca5565b61027f610455366004612c45565b610bd8565b61023e610468366004612c5e565b60009182526005602090815260408084206001600160a01b0393909316845291905290205460ff1690565b60405165ffffffffffff4216815260200161024a565b61025b610c38565b61027f6104bf366004612c8a565b610c47565b61027f600081565b61023e6104da366004612bde565b610c77565b6102d66104ed366004612d6a565b610f4a565b6102d6610500366004612dc2565b611020565b61027f7f9f2df0fed2c77648de5860a4cc508cd0818c85b8b8a1ab4ceeef8d981c8956a681565b6102d661053a366004612c5e565b61118c565b61027f61054d366004612e2d565b6001600160a01b03918216600090815260016020908152604080832093909416825291909152205490565b61058b610586366004612e57565b6111b1565b60408051825165ffffffffffff1681526020928301516001600160d01b0316928101929092520161024a565b60007fffffffff0000000000000000000000000000000000000000000000000000000082167f7965db0b00000000000000000000000000000000000000000000000000000000148061064a57507f01ffc9a7000000000000000000000000000000000000000000000000000000007fffffffff000000000000000000000000000000000000000000000000000000008316145b92915050565b60606003805461065f90612e97565b80601f016020809104026020016040519081016040528092919081815260200182805461068b90612e97565b80156106d85780601f106106ad576101008083540402835291602001916106d8565b820191906000526020600020905b8154815290600101906020018083116106bb57829003601f168201915b5050505050905090565b60006107296040518060400160405280601a81526020017f45524332302d617070726f766528292d6d73672e73656e6465720000000000008152506107243390565b61120f565b6107686040518060400160405280601781526020017f45524332302d617070726f766528292d7370656e6465720000000000000000008152508461120f565b6107a76040518060400160405280601581526020017f45524332302d617070726f766528292d76616c756500000000000000000000008152508361126d565b604080518082018252601f81527f45524332302d617070726f766528292d5f616c6c6f77616e63652d3131313a00602080830191909152336000818152600183528481206001600160a01b03891682529092529290205461080d919061126d565b61126d565b6108188185856112cb565b604080518082018252601e81527f45524332302d617070726f766528292d616c6c6f77616e63652d3232323a00006020808301919091526001600160a01b0380851660009081526001835284812091891681529152919091205461087c919061126d565b5060019392505050565b6000336108948582856112d8565b61089f858585611369565b506001949350505050565b6000828152600560205260409020600101546108c581611406565b6108cf8383611410565b50505050565b60006108df6114be565b905090565b6001600160a01b0381163314610926576040517f6697b23200000000000000000000000000000000000000000000000000000000815260040160405180910390fd5b61093082826115e9565b505050565b60006109756040518060400160405280601281526020017f566f7465732d67657450617374566f7465730000000000000000000000000000815250611670565b4265ffffffffffff811683106109b457604051637669fc0f60e11b81526004810184905265ffffffffffff821660248201526044015b60405180910390fd5b6109de6109c0846116cc565b6001600160a01b0386166000908152600a6020526040902090611703565b6001600160d01b0316949350505050565b7f9f2df0fed2c77648de5860a4cc508cd0818c85b8b8a1ab4ceeef8d981c8956a6610a1981611406565b610a2383836117bc565b610a2d83846117f2565b6109306040518060400160405280601f81526020017f6b6f6b6f546f6b656e2d6d696e7428292d62616c616e63654f6628746f293a0081525061080885610a96565b610a79338261187c565b50565b33610a8781836117f2565b5050565b600061064a826118b2565b6000610ad76040518060400160405280601981526020017f45524332305f62616c616e63654f6628292d6163636f756e74000000000000008152508361120f565b610b3a6040518060400160405280601581526020017f45524332305f62616c616e63654f6628295f3131310000000000000000000000815250600080856001600160a01b03166001600160a01b031681526020019081526020016000205461126d565b506001600160a01b031660009081526020819052604090205490565b610b618233836112d8565b610a87828261187c565b600061064a826118d4565b600060608060008060006060610b8a6118f2565b610b9261191f565b604080516000808252602082019092527f0f000000000000000000000000000000000000000000000000000000000000009b939a50919850469750309650945092509050565b60004265ffffffffffff81168310610c1457604051637669fc0f60e11b81526004810184905265ffffffffffff821660248201526044016109ab565b610c28610c20846116cc565b600b90611703565b6001600160d01b03169392505050565b60606004805461065f90612e97565b6001600160a01b0381166000908152600a60205260408120610c689061194c565b6001600160d01b031692915050565b600080339050610cbb6040518060400160405280601481526020017f45524332302d7472616e7366657228292d313131000000000000000000000000815250611670565b610cfa6040518060400160405280601e81526020017f45524332302d7472616e7366657228292d6164647265737328746869732900008152503061120f565b610d396040518060400160405280601681526020017f45524332302d7472616e7366657228292d66726f6d3a000000000000000000008152508261120f565b610d786040518060400160405280601481526020017f45524332302d7472616e7366657228292d746f3a0000000000000000000000008152508561120f565b610db76040518060400160405280601781526020017f45524332302d7472616e7366657228292d76616c75653a0000000000000000008152508461126d565b610e1a6040518060400160405280601c81526020017f45524332302d7472616e7366657228292d66726f6d42616c616e636500000000815250600080846001600160a01b03166001600160a01b031681526020019081526020016000205461126d565b610e7d6040518060400160405280601a81526020017f45524332302d7472616e7366657228292d746f42616c616e6365000000000000815250600080876001600160a01b03166001600160a01b031681526020019081526020016000205461126d565b610e88818585611369565b610ec66040518060400160405280601481526020017f45524332302d7472616e7366657228292d323232000000000000000000000000815250611670565b610f086040518060400160405280601d81526020017f45524332302d7472616e7366657228292d66726f6d42616c616e63653a00000081525061080883610a96565b61087c6040518060400160405280601b81526020017f45524332302d7472616e7366657228292d746f42616c616e63653a000000000081525061080886610a96565b83421115610f87576040517f4683af0e000000000000000000000000000000000000000000000000000000008152600481018590526024016109ab565b604080517fe48329057bfd03d55e49b547132e39cffd9c1820ad7b9d4c5307691425d15adf60208201526001600160a01b03881691810191909152606081018690526080810185905260009061100190610ff99060a00160405160208183030381529060405280519060200120611988565b8585856119d0565b905061100d81876119fe565b61101781886117f2565b50505050505050565b8342111561105d576040517f62791302000000000000000000000000000000000000000000000000000000008152600481018590526024016109ab565b60007f6e71edae12b1b97f4d1f60370fef10105fa2faae0126114a169c64845d6126c98888886110aa8c6001600160a01b0316600090815260086020526040902080546001810190915590565b6040805160208101969096526001600160a01b0394851690860152929091166060840152608083015260a082015260c0810186905260e001604051602081830303815290604052805190602001209050600061110582611988565b90506000611115828787876119d0565b9050896001600160a01b0316816001600160a01b031614611175576040517f4b800e460000000000000000000000000000000000000000000000000000000081526001600160a01b0380831660048301528b1660248201526044016109ab565b6111808a8a8a6112cb565b50505050505050505050565b6000828152600560205260409020600101546111a781611406565b6108cf83836115e9565b60408051808201909152600080825260208201526111cf8383611a6a565b9392505050565b60006a636f6e736f6c652e6c6f679050600080835160208501845afa505050565b60006111cf8284612ee7565b60006111cf8284612f06565b610a878282604051602401611225929190612f25565b60408051601f198184030181529190526020810180516001600160e01b03167f319af33300000000000000000000000000000000000000000000000000000000179052611aa0565b610a878282604051602401611283929190612f50565b60408051601f198184030181529190526020810180516001600160e01b03167fb60e72cc00000000000000000000000000000000000000000000000000000000179052611aa0565b6109308383836001611aa9565b6001600160a01b0383811660009081526001602090815260408083209386168352929052205460001981146108cf578181101561135a576040517ffb8f41b20000000000000000000000000000000000000000000000000000000081526001600160a01b038416600482015260248101829052604481018390526064016109ab565b6108cf84848484036000611aa9565b6001600160a01b03831661139357604051634b637e8f60e11b8152600060048201526024016109ab565b6001600160a01b0382166113bd5760405163ec442f0560e01b8152600060048201526024016109ab565b6113fb6040518060400160405280601581526020017f45524332302d5f7472616e7366657228292d3131310000000000000000000000815250611670565b610930838383611bb0565b610a798133611bbb565b60008281526005602090815260408083206001600160a01b038516845290915281205460ff166114b65760008381526005602090815260408083206001600160a01b03861684529091529020805460ff1916600117905561146e3390565b6001600160a01b0316826001600160a01b0316847f2f8788117e7eff1d82e926ec794901d17c78024a50270940304540a733656f0d60405160405180910390a450600161064a565b50600061064a565b6000306001600160a01b037f00000000000000000000000000000000000000000000000000000000000000001614801561151757507f000000000000000000000000000000000000000000000000000000000000000046145b1561154157507f000000000000000000000000000000000000000000000000000000000000000090565b6108df604080517f8b73c3c69bb8fe3d512ecc4cf759cc79239f7b179b0ffacaa9a75d522b39400f60208201527f0000000000000000000000000000000000000000000000000000000000000000918101919091527f000000000000000000000000000000000000000000000000000000000000000060608201524660808201523060a082015260009060c00160405160208183030381529060405280519060200120905090565b60008281526005602090815260408083206001600160a01b038516845290915281205460ff16156114b65760008381526005602090815260408083206001600160a01b0386168085529252808320805460ff1916905551339286917ff6391f5c32d9c69d2a47ea670b442974b53935d1edc7fd64eb21e047a839171b9190a450600161064a565b610a79816040516024016116849190612baf565b60408051601f198184030181529190526020810180516001600160e01b03167f41304fac00000000000000000000000000000000000000000000000000000000179052611aa0565b600065ffffffffffff8211156116ff576040516306dfcc6560e41b815260306004820152602481018390526044016109ab565b5090565b81546000908181600581111561176257600061171e84611c29565b6117289085612f72565b60008881526020902090915081015465ffffffffffff908116908716101561175257809150611760565b61175d816001612f85565b92505b505b600061177087878585611d8f565b905080156117ae5761179587611787600184612f72565b600091825260209091200190565b54660100000000000090046001600160d01b03166117b1565b60005b979650505050505050565b6001600160a01b0382166117e65760405163ec442f0560e01b8152600060048201526024016109ab565b610a8760008383611bb0565b6001600160a01b0382811660008181526009602052604080822080548686167fffffffffffffffffffffffff0000000000000000000000000000000000000000821681179092559151919094169392849290917f3134e8a2e6d97e929a7e54011ea5485d7d196dd5f0ba4d4ef95803e8e3fc257f9190a4610930818361187786611df1565b611dfc565b6001600160a01b0382166118a657604051634b637e8f60e11b8152600060048201526024016109ab565b610a8782600083611bb0565b6001600160a01b0381166000908152600a602052604081205461064a90611f68565b6001600160a01b03811660009081526008602052604081205461064a565b60606108df7f00000000000000000000000000000000000000000000000000000000000000006006611f99565b60606108df7f00000000000000000000000000000000000000000000000000000000000000006007611f99565b8054600090801561197f5761196683611787600184612f72565b54660100000000000090046001600160d01b03166111cf565b60009392505050565b600061064a6119956114be565b836040517f19010000000000000000000000000000000000000000000000000000000000008152600281019290925260228201526042902090565b6000806000806119e288888888612044565b9250925092506119f28282612113565b50909695505050505050565b6001600160a01b0382166000908152600860205260409020805460018101909155818114610930576040517f752d88c00000000000000000000000000000000000000000000000000000000081526001600160a01b0384166004820152602481018290526044016109ab565b60408051808201909152600080825260208201526001600160a01b0383166000908152600a602052604090206111cf9083612217565b610a79816111d6565b6001600160a01b038416611aec576040517fe602df05000000000000000000000000000000000000000000000000000000008152600060048201526024016109ab565b6001600160a01b038316611b2f576040517f94280d62000000000000000000000000000000000000000000000000000000008152600060048201526024016109ab565b6001600160a01b03808516600090815260016020908152604080832093871683529290522082905580156108cf57826001600160a01b0316846001600160a01b03167f8c5be1e5ebec7d5bd14f71427d1e84f3dd0314c0f7b2291e5b200ac8c7c3b92584604051611ba291815260200190565b60405180910390a350505050565b61093083838361228a565b60008281526005602090815260408083206001600160a01b038516845290915290205460ff16610a87576040517fe2517d3f0000000000000000000000000000000000000000000000000000000081526001600160a01b0382166004820152602481018390526044016109ab565b600060018211611c37575090565b8160017001000000000000000000000000000000008210611c5d5760809190911c9060401b5b680100000000000000008210611c785760409190911c9060201b5b6401000000008210611c8f5760209190911c9060101b5b620100008210611ca45760109190911c9060081b5b6101008210611cb85760089190911c9060041b5b60108210611ccb5760049190911c9060021b5b60048210611cd75760011b5b600302600190811c90818581611cef57611cef612f98565b048201901c90506001818581611d0757611d07612f98565b048201901c90506001818581611d1f57611d1f612f98565b048201901c90506001818581611d3757611d37612f98565b048201901c90506001818581611d4f57611d4f612f98565b048201901c90506001818581611d6757611d67612f98565b048201901c9050611d86818581611d8057611d80612f98565b04821190565b90039392505050565b60005b81831015611de9576000611da6848461230a565b60008781526020902090915065ffffffffffff86169082015465ffffffffffff161115611dd557809250611de3565b611de0816001612f85565b93505b50611d92565b509392505050565b600061064a82610a96565b816001600160a01b0316836001600160a01b031614158015611e1e5750600081115b15610930576001600160a01b03831615611ec6576001600160a01b0383166000908152600a602052604081208190611e61906111f7611e5c86612325565b612359565b6001600160d01b031691506001600160d01b03169150846001600160a01b03167fdec2bacdd2f05b59de34da9b523dff8be42e5e38e818c82fdb0bae774387a7248383604051611ebb929190918252602082015260400190565b60405180910390a250505b6001600160a01b03821615610930576001600160a01b0382166000908152600a602052604081208190611eff90611203611e5c86612325565b6001600160d01b031691506001600160d01b03169150836001600160a01b03167fdec2bacdd2f05b59de34da9b523dff8be42e5e38e818c82fdb0bae774387a7248383604051611f59929190918252602082015260400190565b60405180910390a25050505050565b600063ffffffff8211156116ff576040516306dfcc6560e41b815260206004820152602481018390526044016109ab565b606060ff8314611fb357611fac8361238b565b905061064a565b818054611fbf90612e97565b80601f0160208091040260200160405190810160405280929190818152602001828054611feb90612e97565b80156120385780601f1061200d57610100808354040283529160200191612038565b820191906000526020600020905b81548152906001019060200180831161201b57829003601f168201915b5050505050905061064a565b600080807f7fffffffffffffffffffffffffffffff5d576e7357a4501ddfe92f46681b20a084111561207f5750600091506003905082612109565b604080516000808252602082018084528a905260ff891692820192909252606081018790526080810186905260019060a0016020604051602081039080840390855afa1580156120d3573d6000803e3d6000fd5b5050604051601f1901519150506001600160a01b0381166120ff57506000925060019150829050612109565b9250600091508190505b9450945094915050565b600082600381111561212757612127612fae565b03612130575050565b600182600381111561214457612144612fae565b0361217b576040517ff645eedf00000000000000000000000000000000000000000000000000000000815260040160405180910390fd5b600282600381111561218f5761218f612fae565b036121c9576040517ffce698f7000000000000000000000000000000000000000000000000000000008152600481018290526024016109ab565b60038260038111156121dd576121dd612fae565b03610a87576040517fd78bce0c000000000000000000000000000000000000000000000000000000008152600481018290526024016109ab565b6040805180820190915260008082526020820152826000018263ffffffff168154811061224657612246612fc4565b60009182526020918290206040805180820190915291015465ffffffffffff81168252660100000000000090046001600160d01b0316918101919091529392505050565b6122958383836123ca565b6001600160a01b0383166122ff5760006122ae60025490565b90506001600160d01b03808211156122fc576040517f1cb15d2600000000000000000000000000000000000000000000000000000000815260048101839052602481018290526044016109ab565b50505b6109308383836128df565b60006123196002848418612fda565b6111cf90848416612f85565b60006001600160d01b038211156116ff576040516306dfcc6560e41b815260d06004820152602481018390526044016109ab565b60008061237e4261237661236c8861194c565b868863ffffffff16565b879190612955565b915091505b935093915050565b6060600061239883612963565b604080516020808252818301909252919250600091906020820181803683375050509182525060208101929092525090565b6124086040518060400160405280601381526020017f45524332302d5f75706461746528292d31313100000000000000000000000000815250611670565b6124476040518060400160405280601481526020017f45524332302d5f75706461746528292d66726f6d0000000000000000000000008152508461120f565b6124866040518060400160405280601281526020017f45524332302d5f75706461746528292d746f00000000000000000000000000008152508361120f565b6124c56040518060400160405280601681526020017f45524332302d5f75706461746528292d76616c75653a000000000000000000008152508261126d565b6125286040518060400160405280601b81526020017f45524332302d5f75706461746528292d66726f6d42616c616e63650000000000815250600080866001600160a01b03166001600160a01b031681526020019081526020016000205461126d565b61258b6040518060400160405280601981526020017f45524332302d5f75706461746528292d746f42616c616e636500000000000000815250600080856001600160a01b03166001600160a01b031681526020019081526020016000205461126d565b6001600160a01b0383166125f4576125d76040518060400160405280601381526020017f45524332302d5f75706461746528292d32323200000000000000000000000000815250611670565b80600260008282546125e99190612f85565b909155506127399050565b6126326040518060400160405280601381526020017f45524332302d5f75706461746528292d33333300000000000000000000000000815250611670565b6001600160a01b038316600090815260208190526040902054818110156126dc576126916040518060400160405280601381526020017f45524332302d5f75706461746528292d34343400000000000000000000000000815250611670565b6040517fe450d38c0000000000000000000000000000000000000000000000000000000081526001600160a01b038516600482015260248101829052604481018390526064016109ab565b61271a6040518060400160405280601381526020017f45524332302d5f75706461746528292d35353500000000000000000000000000815250611670565b6001600160a01b03841660009081526020819052604090209082900390555b6001600160a01b038216612793576127856040518060400160405280601381526020017f45524332302d5f75706461746528292d36363600000000000000000000000000815250611670565b6002805482900390556127f0565b6127d16040518060400160405280601381526020017f45524332302d5f75706461746528292d37373700000000000000000000000000815250611670565b6001600160a01b03821660009081526020819052604090208054820190555b61282a604051806060016040528060218152602001613013602191396001600160a01b03851660009081526020819052604090205461126d565b61288d6040518060400160405280601f81526020017f61667465722d45524332302d5f75706461746528292d746f42616c616e636500815250600080856001600160a01b03166001600160a01b031681526020019081526020016000205461126d565b816001600160a01b0316836001600160a01b03167fddf252ad1be2c89b69c2b068fc378daa952ba7f163c4a11628f55a4df523b3ef836040516128d291815260200190565b60405180910390a3505050565b6001600160a01b038316612901576128fe600b611203611e5c84612325565b50505b6001600160a01b03821661292357612920600b6111f7611e5c84612325565b50505b6001600160a01b0383811660009081526009602052604080822054858416835291205461093092918216911683611dfc565b60008061237e8585856129a4565b600060ff8216601f81111561064a576040517fb3512b0c00000000000000000000000000000000000000000000000000000000815260040160405180910390fd5b825460009081908015612abf5760006129c287611787600185612f72565b805490915065ffffffffffff80821691660100000000000090046001600160d01b0316908816821115612a21576040517f2520601d00000000000000000000000000000000000000000000000000000000815260040160405180910390fd5b8765ffffffffffff168265ffffffffffff1603612a5d57825465ffffffffffff1666010000000000006001600160d01b03891602178355612ab1565b6040805180820190915265ffffffffffff808a1682526001600160d01b03808a1660208085019182528d54600181018f5560008f815291909120945191519092166601000000000000029216919091179101555b945085935061238392505050565b50506040805180820190915265ffffffffffff80851682526001600160d01b0380851660208085019182528854600181018a5560008a8152918220955192519093166601000000000000029190931617920191909155905081612383565b612b25612ffc565b565b600060208284031215612b3957600080fd5b81357fffffffff00000000000000000000000000000000000000000000000000000000811681146111cf57600080fd5b6000815180845260005b81811015612b8f57602081850181015186830182015201612b73565b506000602082860101526020601f19601f83011685010191505092915050565b6020815260006111cf6020830184612b69565b80356001600160a01b0381168114612bd957600080fd5b919050565b60008060408385031215612bf157600080fd5b612bfa83612bc2565b946020939093013593505050565b600080600060608486031215612c1d57600080fd5b612c2684612bc2565b9250612c3460208501612bc2565b929592945050506040919091013590565b600060208284031215612c5757600080fd5b5035919050565b60008060408385031215612c7157600080fd5b82359150612c8160208401612bc2565b90509250929050565b600060208284031215612c9c57600080fd5b6111cf82612bc2565b7fff000000000000000000000000000000000000000000000000000000000000008816815260e060208201526000612ce060e0830189612b69565b8281036040840152612cf28189612b69565b606084018890526001600160a01b038716608085015260a0840186905283810360c08501528451808252602080870193509091019060005b81811015612d48578351835260209384019390920191600101612d2a565b50909b9a5050505050505050505050565b803560ff81168114612bd957600080fd5b60008060008060008060c08789031215612d8357600080fd5b612d8c87612bc2565b95506020870135945060408701359350612da860608801612d59565b9598949750929560808101359460a0909101359350915050565b600080600080600080600060e0888a031215612ddd57600080fd5b612de688612bc2565b9650612df460208901612bc2565b95506040880135945060608801359350612e1060808901612d59565b9699959850939692959460a0840135945060c09093013592915050565b60008060408385031215612e4057600080fd5b612e4983612bc2565b9150612c8160208401612bc2565b60008060408385031215612e6a57600080fd5b612e7383612bc2565b9150602083013563ffffffff81168114612e8c57600080fd5b809150509250929050565b600181811c90821680612eab57607f821691505b602082108103612ecb57634e487b7160e01b600052602260045260246000fd5b50919050565b634e487b7160e01b600052601160045260246000fd5b6001600160d01b03828116828216039081111561064a5761064a612ed1565b6001600160d01b03818116838216019081111561064a5761064a612ed1565b604081526000612f386040830185612b69565b90506001600160a01b03831660208301529392505050565b604081526000612f636040830185612b69565b90508260208301529392505050565b8181038181111561064a5761064a612ed1565b8082018082111561064a5761064a612ed1565b634e487b7160e01b600052601260045260246000fd5b634e487b7160e01b600052602160045260246000fd5b634e487b7160e01b600052603260045260246000fd5b600082612ff757634e487b7160e01b600052601260045260246000fd5b500490565b634e487b7160e01b600052605160045260246000fdfe61667465722d45524332302d5f75706461746528292d66726f6d42616c616e6365a2646970667358221220ceaeee302cb7476b9f6a009518ca1445116a81236c8e095dfa95bcd8234a33be64736f6c634300081b00336b6f6b6f546f6b656e2d636f6e7374727563746f7228292d6d73672e73656e64657261667465722d45524332302d5f75706461746528292d66726f6d42616c616e63659f2df0fed2c77648de5860a4cc508cd0818c85b8b8a1ab4ceeef8d981c8956a66b6f6b6f546f6b656e2d636f6e7374727563746f7228292d61646472657373287468697329dec2bacdd2f05b59de34da9b523dff8be42e5e38e818c82fdb0bae774387a724",
  "linkReferences": {},
  "deployedLinkReferences": {}
}