{
  "_format": "hh-sol-artifact-1",
  "contractName": "Box",
  "sourceName": "contracts/kokoDao/Box.sol",
  "abi": [
    {
      "inputs": [
        {
          "internalType": "address",
          "name": "initialOwner",
          "type": "address"
        }
      ],
      "stateMutability": "nonpayable",
      "type": "constructor"
    },
    {
      "inputs": [
        {
          "internalType": "address",
          "name": "owner",
          "type": "address"
        }
      ],
      "name": "OwnableInvalidOwner",
      "type": "error"
    },
    {
      "inputs": [
        {
          "internalType": "address",
          "name": "account",
          "type": "address"
        }
      ],
      "name": "OwnableUnauthorizedAccount",
      "type": "error"
    },
    {
      "anonymous": false,
      "inputs": [
        {
          "indexed": true,
          "internalType": "address",
          "name": "previousOwner",
          "type": "address"
        },
        {
          "indexed": true,
          "internalType": "address",
          "name": "newOwner",
          "type": "address"
        }
      ],
      "name": "OwnershipTransferred",
      "type": "event"
    },
    {
      "anonymous": false,
      "inputs": [
        {
          "indexed": false,
          "internalType": "uint256",
          "name": "newValue",
          "type": "uint256"
        }
      ],
      "name": "ValueChanged",
      "type": "event"
    },
    {
      "inputs": [],
      "name": "getContractName",
      "outputs": [
        {
          "internalType": "string",
          "name": "",
          "type": "string"
        }
      ],
      "stateMutability": "pure",
      "type": "function"
    },
    {
      "inputs": [],
      "name": "owner",
      "outputs": [
        {
          "internalType": "address",
          "name": "",
          "type": "address"
        }
      ],
      "stateMutability": "view",
      "type": "function"
    },
    {
      "inputs": [],
      "name": "renounceOwnership",
      "outputs": [],
      "stateMutability": "nonpayable",
      "type": "function"
    },
    {
      "inputs": [],
      "name": "retrieve",
      "outputs": [
        {
          "internalType": "uint256",
          "name": "",
          "type": "uint256"
        }
      ],
      "stateMutability": "view",
      "type": "function"
    },
    {
      "inputs": [
        {
          "internalType": "uint256",
          "name": "newValue",
          "type": "uint256"
        }
      ],
      "name": "store",
      "outputs": [],
      "stateMutability": "nonpayable",
      "type": "function"
    },
    {
      "inputs": [
        {
          "internalType": "address",
          "name": "newOwner",
          "type": "address"
        }
      ],
      "name": "transferOwnership",
      "outputs": [],
      "stateMutability": "nonpayable",
      "type": "function"
    },
    {
      "inputs": [
        {
          "internalType": "uint256",
          "name": "num",
          "type": "uint256"
        }
      ],
      "name": "transferTest",
      "outputs": [
        {
          "internalType": "uint256",
          "name": "",
          "type": "uint256"
        }
      ],
      "stateMutability": "pure",
      "type": "function"
    }
  ],
  "bytecode": "0x608060405234801561001057600080fd5b50604051610dd7380380610dd78339818101604052810190610032919061030d565b80600073ffffffffffffffffffffffffffffffffffffffff168173ffffffffffffffffffffffffffffffffffffffff16036100a55760006040517f1e4fbdf700000000000000000000000000000000000000000000000000000000815260040161009c9190610349565b60405180910390fd5b6100b4816100bb60201b60201c565b5050610453565b6100e3604051806060016040528060268152602001610db160269139826101a760201b60201c565b60008060009054906101000a900473ffffffffffffffffffffffffffffffffffffffff169050816000806101000a81548173ffffffffffffffffffffffffffffffffffffffff021916908373ffffffffffffffffffffffffffffffffffffffff1602179055508173ffffffffffffffffffffffffffffffffffffffff168173ffffffffffffffffffffffffffffffffffffffff167f8be0079c531659141344cd1fd0a4f28419497f9722a3daafe3b4186f6b6457e060405160405180910390a35050565b61024582826040516024016101bd9291906103f4565b6040516020818303038152906040527f319af333000000000000000000000000000000000000000000000000000000007bffffffffffffffffffffffffffffffffffffffffffffffffffffffff19166020820180517bffffffffffffffffffffffffffffffffffffffffffffffffffffffff838183161783525050505061024960201b60201c565b5050565b61026a8161026561026d60201b6102e21761028e60201b60201c565b60201c565b50565b60006a636f6e736f6c652e6c6f679050600080835160208501845afa505050565b6102a060201b61066117819050919050565b6102a8610424565b565b600080fd5b600073ffffffffffffffffffffffffffffffffffffffff82169050919050565b60006102da826102af565b9050919050565b6102ea816102cf565b81146102f557600080fd5b50565b600081519050610307816102e1565b92915050565b600060208284031215610323576103226102aa565b5b6000610331848285016102f8565b91505092915050565b610343816102cf565b82525050565b600060208201905061035e600083018461033a565b92915050565b600081519050919050565b600082825260208201905092915050565b60005b8381101561039e578082015181840152602081019050610383565b60008484015250505050565b6000601f19601f8301169050919050565b60006103c682610364565b6103d0818561036f565b93506103e0818560208601610380565b6103e9816103aa565b840191505092915050565b6000604082019050818103600083015261040e81856103bb565b905061041d602083018461033a565b9392505050565b7f4e487b7100000000000000000000000000000000000000000000000000000000600052605160045260246000fd5b61094f806104626000396000f3fe608060405234801561001057600080fd5b506004361061007d5760003560e01c8063828b74d61161005b578063828b74d6146100c65780638da5cb5b146100f6578063f2fde38b14610114578063f5f5ba72146101305761007d565b80632e64cec1146100825780636057361d146100a0578063715018a6146100bc575b600080fd5b61008a61014e565b6040516100979190610684565b60405180910390f35b6100ba60048036038101906100b591906106d0565b610158565b005b6100c4610199565b005b6100e060048036038101906100db91906106d0565b6101ad565b6040516100ed9190610684565b60405180910390f35b6100fe6101f6565b60405161010b919061073e565b60405180910390f35b61012e60048036038101906101299190610785565b61021f565b005b6101386102a5565b6040516101459190610842565b60405180910390f35b6000600154905090565b806001819055507f93fe6d397c74fdf1402a8b72e47b68512f0510d7b98a4bc4cbdf6ac7108b3c598160405161018e9190610684565b60405180910390a150565b6101a1610303565b6101ab6000610416565b565b60006101ee6040518060400160405280601b81526020017f426f782d7472616e736665725465737428292d6e657756616c75650000000000815250836104fc565b819050919050565b60008060009054906101000a900473ffffffffffffffffffffffffffffffffffffffff16905090565b610227610303565b600073ffffffffffffffffffffffffffffffffffffffff168173ffffffffffffffffffffffffffffffffffffffff16036102995760006040517f1e4fbdf7000000000000000000000000000000000000000000000000000000008152600401610290919061073e565b60405180910390fd5b6102a281610416565b50565b60606040518060400160405280600381526020017f426f780000000000000000000000000000000000000000000000000000000000815250905090565b60006a636f6e736f6c652e6c6f679050600080835160208501845afa505050565b6103496040518060400160405280600881526020017f6f776e657228293a0000000000000000000000000000000000000000000000008152506103446101f6565b610598565b61038f6040518060400160405280600d81526020017f5f6d736753656e64657228293a0000000000000000000000000000000000000081525061038a610634565b610598565b610397610634565b73ffffffffffffffffffffffffffffffffffffffff166103b56101f6565b73ffffffffffffffffffffffffffffffffffffffff1614610414576103d8610634565b6040517f118cdaa700000000000000000000000000000000000000000000000000000000815260040161040b919061073e565b60405180910390fd5b565b6104386040518060600160405280602681526020016108f46026913982610598565b60008060009054906101000a900473ffffffffffffffffffffffffffffffffffffffff169050816000806101000a81548173ffffffffffffffffffffffffffffffffffffffff021916908373ffffffffffffffffffffffffffffffffffffffff1602179055508173ffffffffffffffffffffffffffffffffffffffff168173ffffffffffffffffffffffffffffffffffffffff167f8be0079c531659141344cd1fd0a4f28419497f9722a3daafe3b4186f6b6457e060405160405180910390a35050565b6105948282604051602401610512929190610864565b6040516020818303038152906040527fb60e72cc000000000000000000000000000000000000000000000000000000007bffffffffffffffffffffffffffffffffffffffffffffffffffffffff19166020820180517bffffffffffffffffffffffffffffffffffffffffffffffffffffffff838183161783525050505061063c565b5050565b61063082826040516024016105ae929190610894565b6040516020818303038152906040527f319af333000000000000000000000000000000000000000000000000000000007bffffffffffffffffffffffffffffffffffffffffffffffffffffffff19166020820180517bffffffffffffffffffffffffffffffffffffffffffffffffffffffff838183161783525050505061063c565b5050565b600033905090565b6106538161064b6102e2610656565b63ffffffff16565b50565b610661819050919050565b6106696108c4565b565b6000819050919050565b61067e8161066b565b82525050565b60006020820190506106996000830184610675565b92915050565b600080fd5b6106ad8161066b565b81146106b857600080fd5b50565b6000813590506106ca816106a4565b92915050565b6000602082840312156106e6576106e561069f565b5b60006106f4848285016106bb565b91505092915050565b600073ffffffffffffffffffffffffffffffffffffffff82169050919050565b6000610728826106fd565b9050919050565b6107388161071d565b82525050565b6000602082019050610753600083018461072f565b92915050565b6107628161071d565b811461076d57600080fd5b50565b60008135905061077f81610759565b92915050565b60006020828403121561079b5761079a61069f565b5b60006107a984828501610770565b91505092915050565b600081519050919050565b600082825260208201905092915050565b60005b838110156107ec5780820151818401526020810190506107d1565b60008484015250505050565b6000601f19601f8301169050919050565b6000610814826107b2565b61081e81856107bd565b935061082e8185602086016107ce565b610837816107f8565b840191505092915050565b6000602082019050818103600083015261085c8184610809565b905092915050565b6000604082019050818103600083015261087e8185610809565b905061088d6020830184610675565b9392505050565b600060408201905081810360008301526108ae8185610809565b90506108bd602083018461072f565b9392505050565b7f4e487b7100000000000000000000000000000000000000000000000000000000600052605160045260246000fdfe4f776e61626c652d5f7472616e736665724f776e65727368697028292d6e65774f776e65723aa2646970667358221220e311aa776c6ff6ddf97a4f125d2399d200c5320d97afb7a7b0aa81ffdfa8862c64736f6c634300081c00334f776e61626c652d5f7472616e736665724f776e65727368697028292d6e65774f776e65723a",
  "linkReferences": {},
  "deployedLinkReferences": {}
}